:020000040802F0
:10000000886A012025600208090402080B0402081E
:100010000F0402081304020817040208000000007D
:10002000000000000000000000000000AD01020818
:100030001B040208000000000102020865640208B7
:100040003F6002083F6002083F600208F16002085A
:100050003F6002083F6002083F6002083F600208FC
:100060003F600208C72002083F6002083F600208A4
:100070003F6002083F6002083F6002083F600208DC
:100080003F6002083F6002083F6002080000000075
:10009000000000000000000000000000895D020870
:1000A0003F6002083F6002083F6002083F600208AC
:1000B0003F6002083F6002083F6002083F6002089C
:1000C0003F6002083F6002083F6002083F6002088C
:1000D0003F6002083F6002089559020800000000D6
:1000E0003F6002083F6002083F6002080000000015
:1000F0000000000000000000000000003F60020857
:1001000000000000F15402083F6002083F6002084E
:1001100000000000000000000000000000000000DF
:100120003F6002083F6002083F6002083F6002082B
:100130003F60020800000000000000000000000016
:100140000000000000000000000000001D04020884
:100150003F6002083F6002083F6002083F600208FB
:100160003F6002083F60020800000000000000003D
:10017000000000000000000000000000000000007F
:10018000000000003F6002080000000000000000C6
:100190003F6002083F600208DFF80CD011F074FFE6
:1001A0000048004775020208886A0120294B196837
:1001B0000868B0E8F04F80F30988BFF36F8F4FF005
:1001C000000080F3118870470000000006480068B6
:1001D000006880F3088862B661B6BFF34F8FBFF343
:1001E0006F8F00DF00BF00BF08ED00E0DFF80C00FC
:1001F000016841F470010160704700BF88ED00E0C4
:10020000EFF30980BFF36F8F124B1A681EF0100FC7
:1002100008BF20ED108A20E9F04F106008B44FF0BD
:10022000500080F3118806F03AFF4FF0000080F391
:10023000118808BC19680868B0E8F04F1EF0100F6C
:1002400008BFB0EC108A80F30988BFF36F8F704746
:1002500000BF00BFB8190020EFF311804FF050012C
:1002600081F31188704780F311887047EFF30580A0
:10027000704700007FB54FF4003188020DF026FE74
:1002800062B64FF440700DF0E7FD05F08EFF05F00B
:100290006CFE05F041FE4FF4FA7003F022F905F010
:1002A000C5FC05F0F3FD022143480EF021FF4FF499
:1002B000007142480EF01CFF012003F01DF905F00B
:1002C0000CFA02F0F7FF03F041F93D49087003F022
:1002D00095F905F0B9FE05F01FFF3A4800684FF4A4
:1002E0007A72B0FBF2F1481EB0F1807F01D3012099
:1002F0001BE0481E4FF0E022506150170F220028EB
:1003000007DA13071D0E304B00F00F04241F1D5594
:1003100003E013071C0E2D4B1C5400BF00204FF0B0
:10032000E022906107201061002008B100BFFEE7C5
:1003300000221421402006F0E6F82549086000223A
:100340000121802006F0DFF8224908600022012107
:10035000402006F0D8F82049086000201F4A0223F8
:10036000CDE901200093039003464FF400721CA1D5
:100370001C4806F0CDFB00201B4A0323CDE90120D9
:100380000093039003464FF4007218A1194806F039
:10039000BFFB0020184A0323CDE9012000930390FE
:1003A00003464FF4007215A1164806F0B1FB06F0A3
:1003B000C3FF002004B070BD0000024000040240F2
:1003C0002C000020F008002018ED00E000E400E020
:1003D0001C0000202000002024000020000000203D
:1003E00042535000892102080C0000204C30525822
:1003F000000000001D190208100000204C30545865
:1004000000000000491A0208704700BFFEE700BF65
:10041000FEE700BFFEE700BFFEE7704710B50248E9
:1004200009F019FA10BD0000644B012010B506F068
:10043000A7FF044611F016FB11F00AFB10BD70B5C2
:1004400002460C46FF25FF2309E012F8010B80EA63
:100450000501FE48405C80EA0305FD48435C20003E
:10046000A4F10106B4B2F0D143EA052070BD70B525
:1004700005460024F748C0880012F7498871F548FE
:100480008079C871012D02D11020487002E020202F
:10049000F14948700320F149087000240FE0EE484C
:1004A000011900235A1EEE48006806F0D5F8012213
:1004B00040F22771EB4811F018FA601CC4B2142CFA
:1004C000EDDBE948007803F00CF80120E3490870FF
:1004D00070BD70B500240020E4490880E449096833
:1004E0004870E4490870E449088051E0E348E14974
:1004F000097810F83120E04801880088401CDE4B64
:100500001880DF4800684254DC48DA49097800EB7B
:10051000C10040880112184602880088401C1880DB
:10052000D74800688154D548D249097800EBC1000A
:100530008278184601880088401C1880D0480068DE
:100540004254CE4BCB4D2D7803EBC5035B88C3F3F0
:100550000B02CA4BC74D2D7803EBC5035968C84B36
:100560001B68C54D2D88581911F084FAC348C1493C
:10057000097800EBC1004088C0F30B00BE49098830
:100580000844BD490880BB480078401CB949087040
:10059000B8480078BB4909788842A7DBB64800888C
:1005A000801CB9494880084640880012B7498870C5
:1005B000B5488078C870B4484188AD480068FFF7F6
:1005C0003EFF0446B04884802012B04908714C7147
:1005D000A74800680078622804D0A5480068007821
:1005E000632809D148F20100A749C8808020A749A3
:1005F00088710120C87117E0A5480088A249C88009
:10060000A34800880012A1498871A1480078C871E8
:100610009F480088401C9E49088008460088B0F525
:10062000004F01DB0020088070BD30B52DED028B3E
:1006300081B005469FED970AB0EE408A0024002065
:100640008A4908809448007840287DD008DC98B119
:10065000102868D0202878D0302841F04C8058E20B
:10066000502873D0602872D0612871D07528F4D1D9
:1006700001F03AFB01F040B88848007801284FD1DA
:1006800013F0C8FA8648854A00905288C2F30B01DD
:10069000824A844B5068844A02F0C4FE8349086051
:1006A000FFF7C4FE8249086008460068000E7D49D5
:1006B00008717F480068000C48717D480088000A76
:1006C00088717B480078C87175487A4B764A20213A
:1006D0000090744802F074FE744908600220674973
:1006E0000870084640886FF30B00203048800846A9
:1006F000408820F4704048806E484860012061497D
:10070000087000205A490968087001206A49087079
:100710000023821E69496A48006805F09DFF00E0D9
:1007200000BF00BFA6E75D48007800287DD15B4888
:1007300040680078000659494968497840EA014014
:1007400056494968897804E0F7E346E1F6E3F6E3C1
:10075000F6E340EA012051494968C97808435949FC
:100760000860084600685249096888426CD14B48C5
:10077000007A412802D0432867D103E110203F4985
:100780000870084640886FF30B00001D488008463B
:10079000408820F4704048804B4848602020087210
:1007A000084640896FF30B00401D48810846408988
:1007B00020F47041314841814449C16021202F49D2
:1007C00008740846408A6FF30B000C3048820846D4
:1007D000408A20F47041294841823D4941612220EC
:1007E000264908760846408B6FF30B00401D48836E
:1007F0000846408B20F47041204841833549C1614F
:1008000030201E4981F820000846408C6FF30B0011
:10081000401D48840846408C20F4704117484184AC
:100820002D4941623120154900E0D5E081F82800CA
:100830000846408D6FF30B00401D48850846408DEB
:1008400020F470410D4849E0C4E0C1E0A847030826
:10085000A84803088C080020750800208A0800209A
:100860002000002000440040BE080020B409002001
:1008700068080020E8080020EA080020642400201E
:1008800070080020AB0800209408002034000020ED
:10089000BC080020000000009C0800201424002058
:1008A000B0080020B4240020B80C0020AC080020C0
:1008B000B4080020D4240020A8080020C00800208C
:1008C00024000020B8080020E00C0020E50C0020E7
:1008D000EB0C0020F80C0020FE0C00204185FE49A6
:1008E000C1623220FD4981F830000846408E6FF326
:1008F0000B00801C48860846408E20F47041F74863
:1009000041860020F6490870F64800784870F348A0
:1009100041634220F14981F83800F3480178EF48FB
:10092000408F61F30B00ED4948870846408F20F463
:100930007041EA484187ED49C1635020E74981F899
:1009400040000846B0F842006FF30B00401CA1F8CD
:1009500042000846B0F8420020F47041DF48A0F899
:100960004210E34941640920E24908701020E2493D
:100970000968087000235A1EE049E148006805F044
:100980006BFE26E03220D5490870084640886FF398
:100990000B00801C48800846408820F47040488046
:1009A0000020CF490870CF48007848700846CB49EE
:1009B00048600120CF4908701020CF4909680870AD
:1009C00000235A1ECD49CE48006805F045FE00E0E0
:1009D00000BF01E005F08EFA4CE6CA480078002816
:1009E00078D1C848406800780006C6494968497807
:1009F00040EA0140C3494968897840EA0120C14979
:100A00004968C9780843C049086008460068BF497A
:100A1000096888427AD1BB48007A20284CD004DC8F
:100A200001286BD010286FD104E0212853D0222850
:100A30006AD158E02020A9490870AB480178A7483E
:100A4000408861F30B00A54948800846408820F49F
:100A500070404880A54848602120087208464089B7
:100A60006FF30B00401C48810846408920F4704118
:100A70009A484181A649C1602220984908740846D5
:100A8000408A6FF30B00401C48820846408A20F4DD
:100A90007041924841829F49416103209549087005
:100AA000202095490968087000235A1E93499448EC
:100AB000006805F0D1FD28E09248807A8A490870E4
:100AC0009048C16888480278884810F0D3FF02F047
:100AD0004AFD1AE01CE08B48C1688D480978017016
:100AE00002F041FD11E08748C1688A480978017029
:100AF00002F039FD09E009E000E005E08148C06846
:100B000000788549087000E000BF01E005F0F2F9C7
:100B1000B0E57C48007A22287ED006DC102809D077
:100B2000202832D0212878D179E0302876D0312899
:100B3000F9D197E10020794948707949487079499D
:100B40004870794948707549C86880477449C868D1
:100B500080477449C86880477349C8688047002047
:100B600072490870724908707249087072490870B9
:100B70006A48724908606A48714908606948714961
:100B8000086069487049086028E35E48C0680078DA
:100B900000116E4908705B48C068007800F00F00D3
:100BA000887008460078022805D10846807810B180
:100BB0000020674908705348C0688078F0B15148F8
:100BC000C068407800EE100AF8EE400A4D48C06850
:100BD000807800EE100AB8EE400A80EE801AB0EE7F
:100BE000418AB7EE000AC0EE080A9FED5A0A20EECD
:100BF000800ABCEEC00A10EE100A84B2534884800A
:100C00000146C8688047002050494870484908702C
:100C10004E484A490860E1E248E0DEE2D6E0394861
:100C2000C068007800114C4908703648C0680078E8
:100C300000F00F00887008460078022805D10846A9
:100C4000807810B10020454908702E48C06880782F
:100C5000F0B12C48C068407800EE100AF8EE400A67
:100C60002848C068807800EE100AB8EE400A80EE8E
:100C7000801AB0EE418AB7EE000AC0EE080A9FED76
:100C8000350A20EE800ABCEEC00A10EE100A84B2CB
:100C9000314884800146C868804700202E4948704A
:100CA000244908702C482649086097E21548C06816
:100CB000007800112A4908701248C068007800F0D6
:100CC0000F0088700846007802284ED108468078C8
:100CD00000B147E049E00000040D0020642400203A
:100CE000C1080020A40C0020120D00200A0D0020D5
:100CF00074080020AB08002068080020C00800200D
:100D00002400002014240020B8080020B40800208B
:100D1000140D0020130D0020BE080020040900203F
:100D200014090020240900207009002098090020DF
:100D300095090020960900209709002064090020E9
:100D4000680900206C090020900900203409002067
:100D5000B70900200000C84244090020B80900205B
:100D6000540900200020F7490870F748C0688078CF
:100D7000F0B1F548C068407800EE100AF8EE400A7D
:100D8000F148C068807800EE100AB8EE400A80EEA4
:100D9000801AB0EE418AB7EE000AC0EE080A1FEDD5
:100DA000130A20EE800ABCEEC00A10EE100A84B2CC
:100DB000E64884800146C86880470020E3494870BF
:100DC000E3490870E148E349086007E2DE48C0688B
:100DD00000780011E0490870DB48C068007800F036
:100DE0000F00488008460078022805D10846408850
:100DF00010B10020D9490870D348C0688078F0B19C
:100E0000D148C068407800EE100AF8EE400ACE489B
:100E1000C068807800EE100AB8EE400A80EE801AB2
:100E2000B0EE418AF7EE000A80EE880A5FED370ADD
:100E300020EE200ABCEEC00A10EE100A84B200EECA
:100E4000104AB8EE400AC44880ED010A0146C8685D
:100E500080470020C0494870C1490870BE48C14958
:100E60000860BBE10020C0490870B748C068BF49AE
:100E700008600120BE49087095E1BC480068007810
:100E8000202806D021285CD022287DD030287CD193
:100E900002E1B6480068C0780011B6490870B3484E
:100EA0000068C07800F00F008870084600780228BB
:100EB00005D10846807810B10020AF490870AB48D2
:100EC00000684079F0B1A9480068007900EE100A86
:100ED000F8EE400AA5480068407900EE100AB8EE26
:100EE000400A80EE801AB0EE418AF7EE000A80EEEA
:100EF000880A5FED680A20EE200ABCEEC00A10EEF8
:100F0000100A84B29B4884800146C868804700204C
:100F10009849487099490870964899490860002096
:100F20009849088090480078401C8F4908708F4885
:100F30000068801D8D49086035E151E151E11FE2F3
:100F40001AE38A480068C07800118F490870874802
:100F50000068C07800F00F0088700846007802280A
:100F600005D10846807810B10020884908707F4874
:100F70000068407908B37D480068007900EE100AE7
:100F8000F8EE400A794801E032E009E10068407972
:100F900000EE100AB8EE400A80EE801AB0EE418AE8
:100FA000F7EE000A80EE880A5FED960A20EE200A2E
:100FB000BCEEC00A10EE100A84B273488480014669
:100FC000C8688047002070494870714908706E48B1
:100FD000704908600C207049088063480078401C04
:100FE0006149087061480068801D60490860DAE066
:100FF0005E480068C0780011544908705B4800687A
:10100000C07800F00F00887008460078022805D1EB
:101010000846807810B100204A490870534800689B
:101020004079F0B151480068007900EE100AF8EEFE
:10103000400A4E480068407900EE100AB8EE400AB7
:1010400080EE801AB0EE418AB7EE000AC0EE080AC0
:101050001FEDC00A20EE800ABCEEC00A10EE100A96
:1010600084B23A4884800146C868804700203749E6
:101070004870374908703548364908601820474994
:10108000088039480078401C3749087037480068A4
:10109000801D3649086086E034480068C078001139
:1010A0002D49087031480068C07800F00F00488072
:1010B00008460078022805D10846408810B1002073
:1010C00026490870294800684079F0B1274800682F
:1010D000007900EE100AF8EE400A244800684079D2
:1010E00000EE100AB8EE400A80EE801AB0EE418A97
:1010F000F7EE000A80EE880A5FEDEA0A20EE200A89
:10110000BCEEC00A10EE100A84B200EE104AB8EE2F
:10111000400A114880ED010A0146C8688047002056
:101120000D4948700E4908700B480E4908600E487A
:101130000078401C0C4908700C480068801D0B4961
:10114000086030E0B9090020142400205409002070
:10115000970900206C09002080090020B6090020B2
:101160009809002090090020CC080020C808002021
:10117000C109002034090020B7090020950900208A
:10118000640900209C09002044090020B8090020BF
:101190009609002068090020A0090020A20900206B
:1011A00000BF00BF00BFFE480068007820280ED0B6
:1011B000FB4800680078212809D0F94800680078C9
:1011C000222804D0F64800680078302804D1F54879
:1011D00000780428FFF651AE00E000BF00BF8BE2AC
:1011E0008AE2F148007800287ED1EF484068007814
:1011F0000006ED494968497840EA0140EA494968F2
:10120000897840EA0120E8494968C9780843E749F4
:10121000086008460068E6490968884264D1E248E7
:10122000007A012804D002282CD0202829D19BE064
:10123000DD48C06800780104DB48C068407841EAB6
:101240000020D949C96889780843DA490860D64836
:10125000C068C11C1022D84810F00CFCD74909788E
:1012600009B9012100E00021084602F065FAD348DF
:10127000007818B1D248D349086002E0D248D14979
:1012800008607BE0C8484089C0F30B00CF49086084
:1012900009888AB2C449C868CA49096802F067FA6D
:1012A000CB480068C94909680844C9490860C5486D
:1012B0000068C64909680844C2490860C448006813
:1012C000BC49096888424ED30020C24948601020BA
:1012D0000870084640886FF30B00401C48800846A1
:1012E000408820F4704000E049E048805020BA492E
:1012F000096808700120B94908700023821EB849A6
:10130000B848006805F0A8F900BFB7480078012880
:10131000FBD1B64BB64AA7480168A94804F022FFA2
:10132000B449086008460068E8B90020A949486047
:1013300011200870084640886FF30B00401C48805D
:101340000846408820F4704048805020A24909682F
:1013500008700120A14908700023821EA049A148FD
:10136000006805F079F909E09449097809B9012183
:1013700000E00021084602F0BFF800BF00BFBBE15B
:101380008948007800287DD18748007A1028FAD152
:101390008548C0680078212833D003DC38B1202884
:1013A00071D158E030286FD04028F9D1ABE07E49A8
:1013B000C968481C4FF4007102F00FFA4FF4007036
:1013C00002F04AFA834948602020087008464088A5
:1013D0006FF30B0000F2012048800846408820F49B
:1013E0007040488060207C490968087001207B4972
:1013F00008700023821E7A497A48006805F02CF9AB
:10140000B8E06949C968481C4FF4007102F0E5F979
:101410004FF4007002F020FA6E49486020200870F6
:10142000084640886FF30B0000F201204880084610
:10143000408820F47040488060206749096808703F
:101440000120664908700023821E654965480068CE
:1014500005F002F98EE05449C968481C4FF4007148
:1014600002F0BBF94FF4007002F0F6F959494860F8
:1014700020200870084640886FF30B0000F201201E
:10148000488002E077E074E013E00846408820F4EA
:1014900070404880602050490968087001204F4919
:1014A00008700023821E4E494E48006805F0D4F8AB
:1014B00060E03D49C968481C4FF4006102F08DF9B5
:1014C0004FF4007002F0C8F94249486020200870CB
:1014D000084640886FF30B0000F201204880084660
:1014E000408820F47040488060203B4909680870BB
:1014F00001203A4908700023821E394939480068A2
:1015000005F0AAF836E02849C968481C4FF4007174
:1015100002F063F94FF4006002F09EF92D49486033
:1015200020200870084640886FF30B0000F201404D
:1015300048800846408820F470404880084640684B
:101540000078496881F800042248406800F580600E
:1015500020494860602020490968087001201F491F
:1015600008700023821E1E491E48006805F074F8AA
:1015700000E000BF00BFBFE00B480078E0BB0A48B6
:1015800040680078000608494968497840EA014007
:1015900005494968897840EA0120034949682CE0F7
:1015A000C8080020CC08002014240020B80800201F
:1015B000B4080020D0080020F424002000C0000857
:1015C00000000208DC08002000000408D408002005
:1015D000D80800206424002068080020AB08002000
:1015E000C0080020240000208A080020E408002011
:1015F00004250020E008002078E0C9780843F74976
:10160000086008460068F6490968884270D1F548C4
:10161000007A10286ED1F348C068007810B12128F4
:1016200063D130E0EF48C068C178EE48C068807888
:1016300001EB0020EC490880EA49C9684878EA498A
:10164000098802F059F8E949486020200870E64806
:101650000088401C498860F30B01E44841804088C1
:1016600020F47040E14948806120E1490968087030
:101670000120E04908700023821EDF49DF4800682E
:1016800004F0EAFF32E0D7484089C0F30B0001289C
:101690002ADDD44B5B89C3F30B039B1E9AB2D14B5B
:1016A000DB685978CF4BDB68981C01F0CEFFCF493F
:1016B000486020200870084640886FF30B00401CEB
:1016C00048800846408820F4704048806120C8491E
:1016D000096808700120C74908700023821EC649A6
:1016E000C648006804F0B8FF00E000BF02E0FFE772
:1016F00004F000FC00E000BF00BF0120C0490870FA
:1017000001B0BDEC028B30BD2DE9F0474FF0000970
:10171000BC480468002500270020BB490880BB485E
:101720000078AB2873D1B9484078C0F30010002886
:101730004AD0B6484078C0F34010002840D0B448A2
:101740000078401CB249087008460078042802DD81
:1017500004F0D0FBDDE00320AE490870002625E050
:10176000AD4881191422AD4810F084F906F1140037
:1017700086B24FF0000812E0A84800EB08010023F1
:101780005A1EA748006804F067FF012240F2277143
:10179000A44810F0AAF808F1010000F0FF08B8F121
:1017A000140FE9DBA048007801F09BFEA6F10800C9
:1017B0009E4949888842D3DB012096490870A8E0F9
:1017C000002093490870A4E090484078C0F340108E
:1017D000002841D08E480078401C8D49087008468A
:1017E0000078042802DD04F085FB92E0032089499B
:1017F0000870002626E0884881191422874810F0D6
:1018000039F906F1140086B24FF0000813E07DE0CC
:10181000824800EB080100235A1E8148006804F04A
:101820001BFF012240F227717E4810F05EF808F19C
:10183000010000F0FF08B8F1140FE9DB7A480078E6
:1018400001F04FFEA6F10800784949888842D2DBB2
:101850000120704908705CE06C4841886948006864
:10186000FEF7EDFD81466948808848454AD1012050
:10187000FEF7FDFD14F8010B6D49087014F8010B1B
:10188000487014F8010B88706078217800EB012013
:1018900067498880A41C08468078524908706448CB
:1018A0008088488057480068841C00271FE0605DDE
:1018B0004C4901F83700681C85B260194078615DB9
:1018C00000EB0120474901EBC7014880A81C85B205
:1018D0006019444901EBC7014860424800EBC7006A
:1018E0004088C0F30B00284485B2781C87B2474873
:1018F0004088801EA84201DD0A2FD8DBF8B2FEF72F
:1019000094FE06E00020FEF7B2FD02E00020FEF7A4
:10191000AEFD01203A490870BDE8F087002400BF01
:1019200000235A1E43494448006804F065FF0546F9
:10193000012DF5D100203449088031480078012874
:101940002CD100243B480078304908703948407851
:1019500048703848C0783749897800EB01202B4916
:101960004880344840793349097900EB0120274900
:1019700088803048C0792F49897900EB01202349BC
:10198000C8800846408840F63101884203DD0020C7
:10199000FEF76DFD02E00220194908701848007832
:1019A0000228BDD1254908191422224910F062F8F5
:1019B00004F1140084B2A4F1080014494988884253
:1019C000AEDB002403200E49087000201C4908707B
:1019D0001C490870FFF798FEA2E70000B808002035
:1019E000B408002014240020C4080020642400202F
:1019F00068080020AB080020C00800202400002058
:101A0000890800206C080020B40900208C08002000
:101A1000A90800208A08002034000020CC1B0020E8
:101A20002000002000440040BE0800209408002050
:101A30009C080020A41B00201C000020E01B0020AC
:101A400052110020531100200024002500BF002364
:101A50005A1E1E491E48006804F0CEFE0646012E9E
:101A6000F5D100201B49088003201B490870FEF7B0
:101A700030FD002420E019480119142218480FF005
:101A8000F9FF04F1140084B200250FE01448411955
:101A900000235A1E1348006804F0DEFD012240F2C4
:101AA000277111480FF021FF681C85B2142DEDDB62
:101AB0000E48007801F015FDA4F108000C49498892
:101AC0008842D8DB012004490870C0E7EC080020F8
:101AD00024000020B40900208A08002034000020DF
:101AE000CC1B00202000002000440040BE08002045
:101AF000940800200CB50020019000906F48006809
:101B000040F480306D49086000BF6C48006800F404
:101B1000003000900198401C0190009818B901987D
:101B2000B0F5A04FF1D16548006800F4003010B165
:101B30000120009001E0002000900098012844D18D
:101B40005E484030006840F080505C494031086099
:101B50005B48006840F440405949086057480830E5
:101B60000068564908310860084600680860084661
:101B7000006840F4805008605248091F0860081F40
:101B8000006840F08070091F086000BF4B48006883
:101B900000F000700028F9D040F202704A49086055
:101BA00046480830006820F00300444908310860C6
:101BB0000846006840F00200086000BF3F48083057
:101BC000006800F00C000828F8D10CBD00B53F48B3
:101BD000006840F470003D4908603848006840F0F3
:101BE0000100364908600020344908310860334854
:101BF000006837490840314908603648091D0860C7
:101C0000081F006820F48020091F086000202B496D
:101C10000C310860FFF76EFF4FF000602B498039F0
:101C2000086000BD70B500200021022200230224BC
:101C3000224D08352D6805F00C0020B1042806D08F
:101C4000082829D107E0244D244E356028E0244D92
:101C5000224E356024E0194D2D1D2D68C5F38053AB
:101C6000164D2D1D2D6805F03F044BB11C4DB5FBE5
:101C7000F4F5124E361D3668C6F3881605FB06F1DC
:101C80000E4D2D1D2D68C5F301456D1C6A00B1FB7D
:101C9000F2F5124E356003E00F4D104E356000BF77
:101CA00000BF064D08352D68C5F303150D4E705D58
:101CB0000A4D2D68C540094E356070BD00380240A0
:101CC000007000400C304108003C024088ED00E00C
:101CD000FFFFF6FE103000240024F400F00800207E
:101CE00000366E01F408002010B504F003F904F08A
:101CF0005CF90020FE4908700520FE490870FE4985
:101D000008700020FD490870FD490870FD49087001
:101D1000FD490870FD490870FD490870FD490870CB
:101D2000FD490870FD490870FD4908700120FD4912
:101D300008700020FC49087040F6B83001F0D1FB73
:101D400004F013F904F0E8F84FF4FA7001F0C9FB5D
:101D500003F0C3FC10BD10B5012180200DF02BFD58
:101D6000002180200DF0CDFC10BD00B585B0012113
:101D700008460DF0B5FC012188030DF0FAFC0121A5
:101D800008070DF0E5FC48F20200039001208DF8F1
:101D9000100000208DF812008DF8130003A9E3480D
:101DA0000DF028F948F20201E0480DF0A1F941F6E2
:101DB000F830039000208DF810008DF8130003A96F
:101DC000DA480DF017F94FF40050039000208DF819
:101DD000100001208DF8130003A9D4480DF00AF972
:101DE0004FF48040039000208DF8100002208DF801
:101DF000130003A9CD480DF0FDF844F20B00039049
:101E000001208DF8100000208DF812008DF81300CD
:101E100003A9C7480DF0EEF80B21C5480DF068F98D
:101E20004FF48041C2480DF061F949F63440039007
:101E300000208DF810008DF8130003A9BC480DF0A8
:101E4000D9F84FF40040039001208DF810000020D5
:101E50008DF812008DF8130003A9B6480DF0CAF8EA
:101E60004FF40041B3480DF043F94FF4C0400390E4
:101E700000208DF810008DF8130003A9AD480DF077
:101E8000B9F80220039001208DF8100000208DF891
:101E900012008DF8130003A9A7480DF0ABF802213A
:101EA000A5480DF025F90120039000208DF81000C1
:101EB0008DF8130003A9A0480DF09CF800219F485D
:101EC0000FF05DFC00219E480CF087F80EF0DEFB61
:101ED00001F038FD00214FF080400EF045FE00215A
:101EE00098480CF037FBFFF736FF00208DF8100004
:101EF00001208DF813000820039003A98B480DF0F2
:101F000079F8032100200EF0C0FC08200190002089
:101F10008DF808000C208DF8090001208DF80A00CA
:101F200001A80CF01DFC09208DF8000006208DF89A
:101F3000010000208DF8020001208DF803006846A2
:101F40000BF08FFF7D480FF02BFB0BF0F5FF4FF0F0
:101F500080400EF0D3FC7B480CF020FA7A4807F062
:101F6000EDFC43208DF8000001208DF801000020D9
:101F70008DF802008DF8030068460BF072FF4320D5
:101F800001F012F831208DF8000000208DF80100DA
:101F90008DF802008DF8030068460BF062FF3120D7
:101FA00001F002F8002180200DF0ABFB00210120A0
:101FB0000DF096FB002102200DF092FB0021042081
:101FC0000DF08EFB002180200DF08AFB00214FF4E4
:101FD00080400DF0CEFB00214FF480000DF080FB1F
:101FE000002101200DF0B4FB00214FF480700DF0B2
:101FF000C0FB00214FF400600DF0BBFB00214FF44B
:1020000000300DF0A5FB012108460DF02CF905B0BC
:1020100000BD38B5FFF76EFD4FF440700BF01CFFAC
:1020200003F004FE03F032FF022140480DF060F897
:102030004FF400713E480DF05BF803F0A3FB01F094
:1020400039F902F027FA002180200DF0B4FB3F4857
:102050003F4B404A012100903B4807F072FC0020B2
:102060003D490870487088703C4800684FF47A72A7
:10207000B0FBF2F1481EB0F1807F01D301201BE0DC
:10208000481E4FF0E022506150170F22002807DA57
:1020900013071D0E324B00F00F04241F1D5503E0E3
:1020A00013071C0E2F4B1C5400BF00204FF0E022E2
:1020B000906107201061002008B100BFFEE70020FA
:1020C0002949487038BD0EB508200CF0BAFB08202D
:1020D000019000208DF808000C208DF809000020E8
:1020E0008DF80A0001A80CF03BFB09203EE000003F
:1020F0004C1100204D1100204E1100204F110020E6
:1021000050110020511100205211002054110020C4
:1021100055110020561100205711002058110020A1
:10212000591100209A090020CE0900200000024029
:102130000004024000080240001C0240004400402D
:102140000020014058640240644B0120541B0020D1
:10215000681A0020281A0020F0190020F00800203A
:1021600018ED00E000E400E0784900208DF8000060
:1021700006208DF8010000208DF802008DF8030084
:1021800068460BF06EFE0EBD1CB505F0F9F8019027
:10219000FEE3FE48007890B1FD48007878B9FD482C
:1021A000FD4BFE4A01210090FD4807F0CAFB0020CC
:1021B000FC490870487088700120F5490870FA4899
:1021C0000078022863D1F848807800285FD0F6486C
:1021D0008078F6490978884259DCF5480078022869
:1021E00055D1F3488078002851D0F1488078F149E2
:1021F000097888424BDCF0480078022847D1EE4845
:102200008078002843D0EC488078EC4909788842EF
:102210003DDCEB480078022839D1E94840880028A5
:1022200035D0E7484088E749097888422FDCE648FE
:10223000007860B30020E5494870E5494870E549F9
:102240004870E5494870E149C8688047E049C86876
:102250008047E049C8688047DF49C8688047002058
:10226000DE490870DE490870DE490870DE490870F2
:10227000D648DE490860D648DD490860D548DD49C2
:102280000860D548DC4908600020CF490870DB4869
:10229000007800287BD1D8480068007888B10128F0
:1022A00002D0022874D11AE0D3480068407838B9C7
:1022B000D1490968886880470120CF49096848707A
:1022C000C3E0CD4800684078012807D1CA490968B1
:1022D000C86880470020C84909684870B5E0C84808
:1022E0000088401CC6490880C34800684088B0BBCD
:1022F000BA48007878B900200880BF490968886822
:1023000080470120BC4909684870B4480078401CE7
:10231000B249087097E0B1480078012820D1B6484A
:10232000006890ED010AB0EE001AC0EE010AB44850
:10233000008800EE100AB8EE400AF4EEC00AF1EE92
:1023400010FA0BD80020AE490880AB490968C8686C
:102350008047A2480078401CA049087073E018E04C
:102360009E48007802286ED1A3480068D0ED010A8B
:10237000A348008800EE100AB8EE400AF4EEC00A46
:10238000F1EE10FA5FD80020944908705BE05DE040
:102390005AE09948006840888A490978884252DDA5
:1023A0008E48007880B900209549088092490968D4
:1023B00088688047012090490968487087480078FC
:1023C000401C864908703EE08448007801281FD1EF
:1023D0008948006890ED010AB0EE001AC0EE010ACB
:1023E0008748008800EE100AB8EE400AF4EEC00AF2
:1023F000F1EE10FA27D80020814908807E4909684B
:10240000C868804775480078401C744908701AE015
:1024100072480078022816D177480068D0ED010A8A
:102420007748008800EE100AB8EE400AF4EEC00AC1
:10243000F1EE10FA07D8002068490870614800786A
:10244000401C6049087000E000BF00BF6D48007884
:10245000002869D165480068007888B1012802D059
:1024600002287AD11AE061480068407838B95F499B
:1024700009688868804701205C4909684870E7E07E
:102480005A4800684078012807D158490968C86847
:1024900080470020554909684870D9E05A480088AB
:1024A000401C59490880514800688078D8BB4C4886
:1024B000007868B94D490968C868804700204B49D1
:1024C0000968487046480078401C45490870BDE0DE
:1024D00043480078012815D1444800688088401F8F
:1024E0004949098888420CDC404909688868804766
:1024F00001203E490968487039480078401C384935
:102500000870A3E03648007802280BD137480068ED
:1025100080883D490988884204DC002030490870E1
:102520003949088092E000E093E030480068807804
:102530001E49097888420FDD2948007870B92B4977
:102540000968C868804700202849096848702448FD
:102550000078401C2249087078E078E02048007834
:10256000012856D1214800688088401F26490988E3
:1025700088426BDC1D4909688868804701201B4937
:102580000968487016480078401C3FE05711002049
:10259000C4090020541B0020681A0020281A0020BB
:1025A000644B0120F019002034090020B7090020F5
:1025B00044090020B809002054090020B90900206E
:1025C00080090020B6090020C1090020040900206C
:1025D0001409002024090020700900209809002017
:1025E0009509002096090020970900206409002021
:1025F000680900206C09002090090020BD09002016
:102600009E090020BE0900209C090020F84908709E
:102610001CE0F7480078022818D1F6480068808846
:10262000F5490988884211DC0020F1490870F24917
:102630000880F0490968C86880470020ED490968AA
:102640004870EE480078401CEC49087000E000BF7C
:1026500000BFEB480068007888B1012802D002284A
:1026600079D11AE0E6480068407838B9E449096849
:10267000886880470120E24909684870A5E0E04881
:1026800000684078012807D1DD490968C86880479B
:102690000020DB490968487097E0DA480088401C50
:1026A000D8490880D64800688078D8BBD6480078DA
:1026B00068B9D3490968C86880470020D0490968CB
:1026C0004870D1480078401CCF4908707BE0CE4864
:1026D0000078012815D1CA4800688088401FC94980
:1026E000098888426FDCC6490968886880470120EC
:1026F000C34909684870C4480078401CC249087042
:1027000061E0C148007802285DD1BD48006880883A
:10271000BC490988884256DC0020BB490870B94989
:10272000088050E0FFE7B64800688078B74909782C
:10273000884248DDB448007870B9B1490968C86872
:1027400080470020AE4909684870AF480078401CB7
:10275000AD49087037E037E0AB480078012815D163
:10276000A74800688088401FA649098888422ADC5B
:10277000A3490968886880470120A1490968487011
:10278000A1480078401CA04908701CE09E480078D1
:10279000022818D19A48006880889A490988884296
:1027A00011DC00209849087096490880944909680E
:1027B000C8688047002092490968487093480078AB
:1027C000401C9249087000E000BF00BF90480068BC
:1027D000007888B1012802D0022879D11AE08C480B
:1027E0000068407838B98A490968886880470120BC
:1027F000874909684870A5E0854800684078012845
:1028000007D183490968C868804700208049096862
:10281000487097E07F480088401C7E4908807C48CB
:1028200000688078D8BB7C48007868B97849096826
:10283000C868804700207649096848707648007863
:10284000401C754908707BE073480078012815D159
:102850006F4800688088401F6E49098888426FDC95
:102860006B49096888688047012069490968487090
:1028700069480078401C6849087061E06648007843
:1028800002285DD1624800688088624909888842D0
:1028900056DC0020604908705E49088050E0FFE780
:1028A0005B48006880785D490978884248DD5A486D
:1028B000007870B956490968C868804700205449B3
:1028C0000968487054480078401C5349087037E044
:1028D00037E051480078012815D14D4800688088BC
:1028E000401F4C49098888422ADC494909688868A0
:1028F0008047012046490968487047480078401CD5
:10290000454908701CE044480078022818D1404826
:10291000006880883F490988884211DC00203E49D0
:1029200008703C4908803A490968C8688047002017
:1029300037490968487039480078401C37490870A1
:1029400000E000BF00BF3648007836490978884269
:102950001CD0344800783249087032480078303052
:1029600031490870132231A1354809F0A8FE3549D4
:102970000870354B01222C4931480AF014F83149CE
:1029800008702F480AF057F92E490870254800E0D2
:1029900008E3007803286FD02248007801286BD024
:1029A0002A480078002867D1294988688047012093
:1029B000274948702748007806280AD2DFE800F047
:1029C000030A6C87A1CA24A011F0A4F901202149AF
:1029D0000870C3E0002023490870234800780128CC
:1029E0004BD122A011F096F902201A49087052E04A
:1029F00095090020640900209C090020B7090020E7
:102A000068090020A009002096090020B8090020CC
:102A10006C090020A209002097090020B9090020B4
:102A20004E1100204D110020CD090020303A2F42D8
:102A30006C75655F53746174652E74787400000062
:102A40002C250020CC090020C8090020CE09002038
:102A5000040900209A09002041542B42205354417C
:102A600054450D004C1100205411002041542B42BC
:102A700020474C42440D000071E0FE480088401C95
:102A8000FC49088008460088642804DB0020088090
:102A90000120F949087061E0F8480078012807D161
:102AA000F749F8A011F036F90320F34908700DE05A
:102AB000F0480088401CEF490880084600886428D8
:102AC00004DB002008800120EB49087046E0F24852
:102AD0000078012806D1F1A011F01CF90420E64984
:102AE00008700DE0E3480088401CE2490880084671
:102AF0000088642804DB002008800120DE4908707B
:102B00002CE0E9480078012803D0E7480078032842
:102B100006D10420D84908700020E449088018E054
:102B2000E3480078012806D1DCA011F0F3F8042076
:102B3000D14908700DE0CF480088401CCD4908807D
:102B400008460088642804DB002008800120CA4968
:102B5000087003E00020C849087000BF02E00120AF
:102B6000D4490870D4480088401CD34908800846DE
:102B70000088C82851DB0020088000F0DCFACF492B
:102B8000087008460078CE49097888421ADCCD489A
:102B9000007898B90120CB4908700020CA49087014
:102BA0000220CA490870012048800020C8490880D6
:102BB000C649C86880470020C44948700220C549FA
:102BC000087004E00020C3490870BE490870BB4883
:102BD0000078012821DA0020BE494870BE494870BB
:102BE000BE494870B9494870BA49C8688047BA496F
:102BF000C8688047B949C8688047B449C8688047F1
:102C00000020B749088003F075F98021B5480CF021
:102C10006FFA03F0CAF900BFFEE7A3480078032863
:102C200003D00020B049088014E0B048007870B9A3
:102C3000AD480088401CAC49088008460088B0F5C3
:102C40007A7F07DB0020088003F054F902E00020BF
:102C5000A5490880A648407850B3A5484078022886
:102C600027D1012000F048FC1020A2490870084636
:102C700040886FF30B00401C48800846408820F4D1
:102C8000704048809A48401C486031209A49096841
:102C900008700120994908700023821E98499948BC
:102CA000006803F0D9FC00209749088090494870DB
:102CB00030E08F48407801282CD193480088401C90
:102CC0009149088008460088322823DB1020894972
:102CD0000870084640886FF30B00401C4880084687
:102CE000408820F4704048808148401C4860312072
:102CF0008149096808700120804908700023821EFC
:102D00007F498048006803F0A7FC00207E490880C6
:102D100077494870402173480CF0CEF9012845D11D
:102D20007A4908707A480078012866D16C48008892
:102D3000401C6B4908800120764908706549886805
:102D400080470120634948707348007840B10120F2
:102D5000724908705D498868804701205B49487066
:102D60005F480088B0F5967F47DB002059494870DE
:102D70005949487059494870544948705849088021
:102D800003F0B8F803F011F9802156480CF0B0F9BF
:102D90005049C86880475049C86880474F49C8684B
:102DA00080474A49C868804700BFFEE75848007816
:102DB00010B901205649087054480078012817D1ED
:102DC0000020544908700120554908704149C868DD
:102DD000804700203F4948704F48007840B10020AC
:102DE0004E4908703949C868804700203749487003
:102DF00000203B490880454908704A48007802286D
:102E00000FD149480088401C47490880084600887F
:102E1000B0F5967F08DB002008800120414908704A
:102E200002E000204049088040480088B0F57A7FE1
:102E300007DB00203D49088001203D490870FEF76E
:102E400094FF3B480078012810D104E00020394964
:102E50000870FEF78AFF374800780028F6D1344919
:102E60000870FFF7D6F8012033490870324800781F
:102E7000012863E0BA0900209A09002059110020B6
:102E80001F25002041542B4220534C444E204142E8
:102E90004B455925730D00005511002041542B421C
:102EA0002041445620310D004D110020B009002072
:102EB00057110020CE090020A4090020A40C0020F6
:102EC000140D0020BC090020B60900207009002064
:102ED0009E09002004090020140900202409002074
:102EE000A809002000040240AE090020A808002024
:102EF000784900206424002068080020AB080020E6
:102F0000C008002024000020A6090020BF090020DE
:102F100090190020BE090020130D0020BD090020DB
:102F20009509002089080020AA090020B409002082
:102F3000C009002091190020940900202ED11F48BB
:102F40000088401C1D49088008460088322825DB7F
:102F5000002008801A4908701A49087001201A498F
:102F6000087000201949087019480168194802685A
:102F700041F8012F42684A6002890A81807A88728A
:102F80006220134909680870002013490870002363
:102F9000421E12491248006803F05EFB0A2101A894
:102FA00003F0A5FFFFF7F5B800F01F0201219140E3
:102FB0000C4A430942F8231070470000B209002070
:102FC0009409002052110020890800204A11002095
:102FD0006808002014250020AB080020C00800204D
:102FE0002400002080E100E02DE9F043B3B0002789
:102FF000C82101A80EF057FD0024A046A1460026D6
:1030000011E0CD480BF085F800BF0221CA480BF053
:10301000A1F90028F9D0C8480BF0B7F801A921F8A8
:103020001600701CC6B2642EEBDB00251EE00024E7
:1030300016E001A830F8141001AA601C32F8100044
:1030400081420BDD01A830F8148001A9601C31F821
:10305000100021F81400601C21F81080601C84B25C
:10306000C5F16300A042E4DC681C85B2632DDEDBA1
:10307000142505E001A830F815000744681C85B246
:10308000502DF7DB3C20B7FBF0F01FFA80F94846E3
:1030900033B0BDE8F08310B52DED068BB0EE408A5D
:1030A00000249FEDA60AF0EE408A00BF0CE0A44881
:1030B00000EB840090ED000AB4EEC80AF1EE10FABD
:1030C00000D203E0601CC4B2B52CF0DB00BFB52C0D
:1030D00004D19FED9A0AF0EE408A24E024B99FEDD6
:1030E000990AF0EE408A1EE0C4F1B40000EE100A26
:1030F000B8EEC00A10EE101A08460EF08DFE41EC34
:103100001A0B9FED910B53EC102B0EF0F0FD41ECE0
:10311000190B0EF0A9FE08EE900A9FED8A0A28EE20
:10312000800AF0EE408ABCEEE80A10EE100AC0B247
:10313000BDEC068B10BD10B52DED048B0024FFF700
:1031400053FF83490880834800680EF065FE41EC18
:10315000180B7F4800880EF039FE41EC190B53EC38
:10316000182B0EF052FD7C4A03C29FED7C0B53ECF2
:10317000102B794890ED000B51EC100B0EF045FD33
:10318000754A03C29FED770B53EC102B724890EDFC
:10319000000B51EC100B0EF053FE0DD89FED730B8E
:1031A00053EC102B6C4890ED000B51EC100B0EF013
:1031B00085FC694A03C25AE09FED6E0B53EC102B5D
:1031C000654890ED000B51EC100B0EF039FE0DD858
:1031D0009FED6A0B53EC102B5F4890ED000B51EC08
:1031E000100B0EF06BFC5C4A03C240E09FED650BD8
:1031F00053EC102B584890ED000B51EC100B0EF0D7
:103200001FFE0DD89FED610B53EC102B524890ED33
:10321000000B51EC100B0EF051FC4F4A03C226E09C
:103220009FED5C0B53EC102B4B4890ED000B51ECD9
:10323000100B0EF005FE0DD89FED580B53EC102B24
:10324000454890ED000B51EC100B0EF037FC424A54
:1032500003C20CE09FED530B53EC102B3E4890ED56
:10326000000B51EC100B0EF029FC3B4A03C29FED02
:103270004F0B53EC102B384890ED000B51EC100B1A
:103280000EF0C3FC41EC180B0EF0ADFD494908806F
:10329000314890ED000B51EC100B0EF0E5FD08EEFF
:1032A000100AB0EE480AFFF7F6FE04462046BDECD1
:1032B000048B10BD00B58DB0012108020CF059FA45
:1032C000012108460CF00CFA10200B9003208DF819
:1032D000300000208DF833000BA937480BF08AFE30
:1032E0000AF02AFE00200190029003904FF47060D3
:1032F000049001A80AF05AFE002005908DF81800ED
:103300008DF819000890099001208DF8280005A972
:1033100009480AF01CFE07230122042106480AF08E
:103320009CFE012104480AF058FEFFF704FF2349E0
:1033300008700DB000BD000000200140000000003A
:10334000D00900200000C842000000000080664054
:10335000B00C0020B40C0020A80C0020334E4354C5
:10336000E1CFF43F00000000000010408B6CE7FB51
:10337000A9F1A23F3333333333330F403BDF4F8D5B
:10338000976EA23FF6285C8FC2F50E40EC51B81E36
:1033900085EBA13FB81E85EB51B80E409CC420B010
:1033A0007268A13FFCA9F1D24D62A03F000000006D
:1033B00000408F40B20C002000000240A40C00200E
:1033C0002DE9F043C9B006460F4690469946509CF9
:1033D0000025002002908DF8100020200C90002283
:1033E000414603A810F041FB0546BDB902A84B4673
:1033F0003A463146009003A810F0C8FA05466DB968
:1034000002982060206800EB090102AA03A810F0CE
:103410001FFB05462068029908442060284649B0F1
:10342000BDE8F0832DE9F043C9B006460F4690464B
:103430009946509C0025002002908DF81000202015
:103440000C900022414603A810F09DFA0546BDB934
:1034500002A84B463A463146009003A810F024FAE1
:1034600005466DB902982060206800EB090102AAA8
:1034700003A810F07BFA05462068029908442060F2
:10348000284649B0BDE8F08310B5034607E0187838
:103490000C78A04201D0002010BD5B1C491C10001C
:1034A000A2F10104A2B2F2D10120F5E7002000E070
:1034B000401C1928FCD3704700B5002202E0FFF73A
:1034C000F5FF521C40F2A7308242F8D300BD00B590
:1034D0000246002302E0FFF7E9FF5B1C9342FAD3A8
:1034E00000BD10B50346002402E0FFF7E5FF641CB1
:1034F0009C42FAD310BD000070B50546002400269A
:103500000BF0E6F900200BF0C6F9F3200BF0E1FC1C
:10351000022118200BF030FA0446092C0AD10120B0
:1035200000F0CEF92946E8480BF098FB044600204D
:1035300000F0C6F901200BF0AEF90BF0D6F9092C1A
:1035400001D1002600E02646304670BD10B50024AB
:103550000122DEA1DE4809F087F804460CB1012003
:1035600010BD0020FCE770B5002500240020D949DB
:1035700008804FF48262D849D8480EF07BFAD748C9
:10358000D749097880F80014D5480278D549D6483B
:103590000EF070FAD148D549097880F80914D44959
:1035A000097880F80A140BF093F900200BF073F9F6
:1035B000F3200BF08EFC022138200BF0DDF90546DC
:1035C000092D0DD100BF08E0C44A115DC24AA01800
:1035D0000BF044FB0546601C84B2B4F5826FF3DB4C
:1035E00001200BF058F90BF080F9092D03D10020D0
:1035F000C049087001E0BF48057070BD10B50024D7
:103600000020B4490880BC480078B54908700846D5
:103610000078FF2801D1FFF7A6FF002406E0B64896
:1036200020444078AF490855601CC4B2AC480078CB
:103630008442F4DBB04809300078AC490870AE48E9
:103640000A300078AA49087010BD2DE9F0410746FC
:103650000D4690460026002400209E490880012047
:1036600000F02EF94FF482629B499C480EF002FA5A
:10367000002000F025F9012D04D142463946974833
:103680000EF0F8F9022D04D1424639469B480EF05F
:10369000F1F90BF01DF900200BF0FDF8F3200BF011
:1036A00018FC022138200BF067F90646092E13D1C9
:1036B000012000F005F9002408E0884A115D864ADF
:1036C000A0180BF0CBFA0646601C84B2B4F5826FEA
:1036D000F3DB002000F0F4F801200BF0DCF80BF035
:1036E00004F9092E03D100208249087001E08148C5
:1036F00006708048BDE8F08170B504460D46012093
:1037000000F0DEF8002073490880012C04D12A461D
:1037100071497B480EF0AEF9022C04D12A46794952
:1037200077480EF0A7F900207549491E087000F08F
:10373000C7F87348401E70BD70B5044600250BF0F5
:10374000C7F800200BF0A7F8F3200BF0C2FB2CB158
:10375000022130200BF010F9054604E00221282058
:103760000BF00AF9054663480570007870BD2DE935
:10377000F04105460E4617464FF000080024002091
:10378000544908800BF0A4F800200BF084F8F320D3
:103790000BF09FFB012000F093F800BF06E0295DCD
:1037A00030190BF05BFA8046601C84B2BC42F6DB39
:1037B000002000F085F801200BF06DF80BF095F873
:1037C000B8F1090F03D100204A49087002E04948C6
:1037D00080F800804748BDE8F08170B504460D468A
:1037E000002600203B490880032247A1494808F0F1
:1037F00066FF0646484B2A462146464809F0D3F85C
:103800000646444809F017FA064602223EA14148FE
:1038100008F055FF0646404B2A4621463D4809F030
:10382000C2F806463B4809F006FA064612223BA1BA
:103830003D4808F044FF0646374B2A4621463A48A1
:1038400009F0B1F80646384809F0F5F906460EB118
:10385000304670BD0020FCE7F8B504460026002580
:10386000002000901B490880032227A1294808F066
:1038700026FF06466B4622462C49264808F0BBFF29
:103880000646244809F0D7F91EB12848401E0670A4
:1038900003E000202549491E08700098A0420CD280
:1038A0000098401C85B205E000202049491E48557B
:1038B000681C85B2601C8542F6DB1C48401EF8BDC2
:1038C00080F310887047000000C00008303A2F00D5
:1038D00054270020B4090020000006087E40002084
:1038E000120D00200A0D00207F440020140D00203E
:1038F000130D0020100D0020000406087E42002059
:103900007E3E002000020608303A2F736469662E5E
:1039100064617400B42B0020D80C0020303A2F745E
:103920006573742E74787400543400207D36002042
:10393000012080F3108800BF7047002080F31088BA
:1039400000BF70470020FE490860091D0860091D7E
:103950000860091D0860FA4924310860091D0860E3
:10396000091D0860F748F649383108600020091D34
:103970000860704701460020012900D011B9F24BC0
:10398000197000E0262070470146ED4A121D1068AC
:1039900020F0FF0008431060704770B5044606E051
:1039A000E7483430056805F0450000B100E0F7E76E
:1039B00000BF04200CF032FF20B104200CF039FFCE
:1039C000032070BD01200CF029FF20B101200CF074
:1039D00030FF0120F5E7DA4810300068A04201D03E
:1039E0001020EEE740F2FF500CF023FFD4481430D3
:1039F000006808210840C0B2E3E72DE9FC41074612
:103A00000D46002600240020009001900820CF4998
:103A1000086010204860402088600020C8604FF493
:103A20008060086108460CF066FE1020FFF7B5FFC5
:103A3000044614B12046BDE8FC81C5480088000456
:103A4000C249086037204860402088600020C86074
:103A50004FF48060086108460CF04DFE3720FFF7F8
:103A60009CFF04460CB12046E5E74FF0FF30B94912
:103A7000086008204860302088600220C86000206C
:103A800008610120486108460CF061FE0320FFF741
:103A90001EFD0020AD49086033204860402088604A
:103AA0000020C8604FF48060086108460CF023FED7
:103AB0003320FFF772FF04460CB12046BBE70DE050
:103AC0004FF400100CF0AAFE40B19D488030006811
:103AD0004DF82600761C022E00D307E098483430BB
:103AE000006840F22A6108400028E9D000BF0820A1
:103AF0000CF094FE20B108200CF09BFE04209AE705
:103B000002200CF08BFE20B102200CF092FE02206D
:103B100091E720200CF082FE20B120200CF089FEDD
:103B2000062088E74FF400700CF078FE28B14FF4BF
:103B300000700CF07EFE07207DE740F2FF500CF095
:103B400078FE00980006009901F47F4140EA0120C8
:103B5000009901F47F0140EA1120009940EA1160C8
:103B6000686001980006019901F47F4140EA012054
:103B7000019901F47F0140EA1120019940EA1160A6
:103B80002860204657E77CB50546002400200090B9
:103B9000019000260DB1022600E00026684814308E
:103BA000006800F0007008B10E207CBD68490988EB
:103BB00088B26946FFF721FF04460CB12046F4E7BE
:103BC000019800F4802060B36148008800045F49D8
:103BD000086037204860402088600020C8604FF4AB
:103BE0008060086108460CF086FD3720FFF7D5FE9F
:103BF00004460CB12046D8E75448066006205349D5
:103C00004860402088600020C8604FF480600861F0
:103C100008460CF070FD0620FFF7BFFE0446204664
:103C2000C3E72520C1E770B5044600254A4800785F
:103C3000032802D12725284670BD4748007838B1AF
:103C400045480078012803D043480078022819D15C
:103C5000B4F5805F02D127252846EDE7E0B2FFF7F3
:103C600092FF054675B93648001D006820F4C05023
:103C70003349091D0860084600682043086008466B
:103C8000006808602846D7E710B504462F4804604E
:103C900007202E494860402088600020C8604FF40B
:103CA0008060086108460CF026FD0720FFF775FECE
:103CB00010BDF0B5014600200022274B1B7881F88B
:103CC0005630234B1B88A1F85430244B1B681A0E26
:103CD00093090B70C2F383034B7002F003038B70E4
:103CE0001E4B1B68C3F30742CA701C4B1B88C3F3EF
:103CF00007220A71194B1A784A715B681A0E130170
:103D0000CB80164B5B68C3F30742CB8843EA1213A0
:103D1000CB8002F00F030B72104B9B88C3F307227A
:103D2000D3094B72C2F380138B72C2F34013CB7270
:103D3000C2F300130B7300234B73074B1B780FE088
:103D4000002C0140FF07C00040110020A8460020C1
:103D50003C110020BC46002038110020D446002031
:103D60003BB1FE4B1B78012B03D0FC4B1B78032B84
:103D70004FD193071B0D0B61F94B1A790B6943EA7D
:103D800082030B61F64B9B681A0E0B6943EA921390
:103D90000B61C2F3C2030B7502F007034B75F04BC6
:103DA0009B68C3F3074253098B75C2F38203CB753B
:103DB00093075B0F0B76EA4B1B89C3F307220B7E3D
:103DC00043EAD2130B760B695B1C0024C1E9123461
:103DD0000B7E9B1C012404FA03F3DC17D1E9125675
:103DE000A5FB037C06FB03C305FB0433C1E9127387
:103DF0000C7A0123A3400B650024D1E912650B6DF9
:103E0000A6FB037C05FB03C306FB0433C1E9127365
:103E10002EE0D24B1B78022B2AD1D14B1A79930674
:103E20009B0A0B61CE4B9B681A0E0B6943EA022377
:103E30000B61CB4B9B68C3F307420B6913430B61C8
:103E4000C74B1B89C3F307220B695B1C4FF400743B
:103E5000A3FB04464FF480630025A4FB037C06FB10
:103E600003C304FB0533C1E912734FF400730B6500
:103E7000C2F3801301F8193F93065B0E4B70B84BE9
:103E80001A7A4B7843EAD2134B7002F07F038B709F
:103E9000B34BDB681A0ED309CB70C2F341130B711D
:103EA000C2F382034B7193071B0F8B71AC4BDB6822
:103EB000C3F307428B7943EA92138B71C2F3401329
:103EC000CB7100230B7202F001034B72A44B9B8950
:103ED000C3F30722D3098B72C2F38013CB72C2F3F0
:103EE00040130B73C2F300134B73C2F381038B7344
:103EF00002F00303CB739A4B1A7B53080B74012314
:103F00004B74984B1B681A0ECA741939954B1B6871
:103F1000C3F307421402CC85924B1B88C3F30722DC
:103F2000CB8D1343CB858F4B1A7814060C635B68DB
:103F30001A0E0B6B43EA02440C638A4B5B68C3F3B3
:103F400007420B6B43EA02240C63864B9B88C3F346
:103F500007220B6B13430B63824B1A7934235A5499
:103F6000804B9B681A0E35235A547E4B9B68C3F3D3
:103F7000074214068C637B4B1B89C3F307228B6BB0
:103F800043EA02448C63774B1A7A8B6B43EA022430
:103F90008C63744BDB681A0E8B6B13438B63714B12
:103FA000DB68C3F307423C235B5C43EA12143C2307
:103FB0005C5413071C0DCC876A4B9B89C3F3072203
:103FC000CB8F1343CB87674B1A7B540840235C5439
:103FD000012441235C54F0BD70B500264FF48035B8
:103FE00005E06148046804F0450000B103E02800E2
:103FF000A5F10105F5D100BF15B104F0040028B109
:10400000032604200CF015FC304670BD01200CF096
:1040100005FC18B1012601200CF00BFC40F2FF500A
:104020000CF007FC3046F0E72DE9F04105460E465E
:104030004FF0000805E04C48076807F0450000B164
:1040400000E0F8E700BF04200CF0E8FB28B10420F2
:104050000CF0EFFB0320BDE8F08101200CF0DEFB4B
:1040600020B101200CF0E5FB0120F4E73E482438A4
:104070000068A84201D01020EDE740F2FF500CF09C
:10408000D8FB39482038046804F4604018B9200C83
:1040900030804046DFE704F4005008B11320DAE72F
:1040A00004F4804008B11020D5E704F4004008B1C2
:1040B0000F20D0E74046CEE738B50024012000901D
:1040C0000CF013FB10B92524204638BD2348007896
:1040D000042825D000202549086002204860C0201F
:1040E00088600020C8604FF48060086108460CF0CA
:1040F00002FBFFF771FF04460CB12046E5E71A48C2
:10410000203800681749086017481C380068486064
:104110001548183800688860134814380068C8606B
:104120000E48007858B10D480078012807D00B4898
:104130000078062803D009480078022822D1002000
:104140000A49086003204860402088600020C86059
:104150004FF48060086108460AE000003811002032
:10416000D4460020E4460020342C0140A84600201C
:104170000CF0C1FA69460320FFF756FF04460CB164
:104180002046A2E7FE480078032816D1BDF80000BB
:104190000004FC490860032048604020886000203B
:1041A000C8604FF48060086108460CF0A4FAFFF77D
:1041B00013FF04460CB1204687E7F1480078042835
:1041C0002AD0BDF80000F0490860BDF800000004E6
:1041D000EC49086009204860C02088600020C86061
:1041E0004FF48060086108460CF085FAFFF7F4FE92
:1041F00004460CB1204668E7E4480068E4490860DA
:10420000E248001D00684860E048083000688860A7
:10421000DE480C300068C860002056E710B506E0A4
:10422000DA482030046804F0450000B100E0F7E708
:1042300000BF04200CF0F2FA20B104200CF0F9FACF
:10424000032010BD40F2FF500CF0F3FA0020F8E715
:1042500070B500264FF4803506E0CC482030046865
:1042600004F0450000B103E02800A5F10105F4D1F8
:1042700000BF15B104F0040028B1032604200CF09F
:10428000D8FA304670BD04F0400018B10026402036
:104290000CF0CFFA3046F5E770B500254FF48034C6
:1042A00004E080200CF0BAFA00B103E02000A4F191
:1042B0000104F6D100BF0CB9032070BD40F2FF50DD
:1042C0000CF0B7FA2846F8E72DE9F047002700245C
:1042D00000260025A046A1467620AE49087500209C
:1042E000086048608860C860086108460CF0D9F929
:1042F00003200CF0F6F9A5481038006840F48070EF
:10430000A2491039086000BF12E000209D490860F2
:1043100048608860C8604FF48060086108460CF00F
:10432000EAF9FFF7B9FF044604B903E0781CC7B205
:104330004A2FEADB00BF14B12046BDE8F0874FF4F6
:10434000D5709049086008204860402088600020AF
:10435000C8604FF48060086108460CF0CCF9FFF7A4
:1043600077FF044624B90120854908704FF0804941
:104370000020844908603720486040208860002081
:10438000C8604FF48060086108460CF0B4F937202B
:10439000FFF703FB0446002C4BD134E000207949A1
:1043A000086037204860402088600020C8604FF4D3
:1043B0008060086108460CF09EF93720FFF7EDFA9F
:1043C00004460CB12046B8E7734849EA00006D493D
:1043D000086029204860402088600020C8604FF4B1
:1043E0008060086108460CF086F9FFF717FF044665
:1043F0000CB12046A1E765480668012080EAD67026
:1044000080F001086D1CB8F1000F03D14FF6FF706A
:104410008542C3D34FF6FF70854202D31B2420464A
:104420008BE706F08040060032D002205449087025
:104430002EE01CE0594853490860012048604020A4
:1044400088600020C8604FF48060086108460CF066
:1044500052F9FFF7E3FE04460CB120466DE74B48E6
:104460000668012080EAD67080F001086D1CB8F162
:10447000000F03D14FF6FF708542DBD34FF6FF707C
:10448000854202D31B24204657E703203C4908708D
:10449000204652E73EB500240025012140480BF09C
:1044A0001FF90121C8020BF064F90121C8020BF0C9
:1044B000A4F94FF45070019002208DF808008DF897
:1044C000090000208DF80A0001208DF80B0001A9D9
:1044D00034480AF08FFD48F23000019001A93248BB
:1044E0000AF088FD0C2206212E480AF00EFE0C224E
:1044F00008212C480AF009FE0C22092129480AF05B
:1045000004FE0C22042128480AF0FFFD0C2205219C
:1045100025480AF0FAFD0C220F2123480AF0F5FD88
:1045200000214FF400600BF068F9FFF70BFA31201F
:104530008DF8000001208DF8010000208DF80200A8
:1045400001208DF80300684609F08BFCFFF7BCFEE4
:10455000044614B9FFF7B0FD04461CB91348FFF731
:10456000A8FB044634B91149B1F854100804FFF708
:104570008BFB0446ECB94FF40060FFF754FB17E0E7
:1045800038110020A84600203C110020142C0140C6
:10459000D446002090460020000010800080FF805C
:1045A000030040000000024000040240F8460020E2
:1045B00004461CB1FE480078032812D1FD4890F84B
:1045C000560020B1FB4890F85600012801D1022581
:1045D00000E000252846FFF7D7F90020FFF7CAF9C9
:1045E000044620463EBD10B500200CF07AF80020AD
:1045F00010BD70B590B004460E46154600BFEE489B
:1046000009F0F5FF0028FAD1EB4809F0C7FE4FF09A
:1046100000600190E9480290039404950020059001
:1046200006904FF480600790800008908000099009
:1046300000200A904FF440300B9004200C9003208F
:104640000D904FF400000E9080100F9001A9DA48F1
:1046500009F046FF2021D84809F092FF0121D648F1
:1046600009F078FF10B070BD0146002002E049104B
:10467000421CD0B20129FAD170472DE9F84F81468A
:10468000174698460A9C4FF0000AD3464D464FF015
:10469000FF36B9F1000F02D12620BDE8F88F0020C7
:1046A000C64954390860C2480078022805D104027E
:1046B000780A40EAC8574FEA68280020C049886055
:1046C0004860401E0860012048610020C860086101
:1046D00008460CF03CF8B9486C38006800F00070EF
:1046E00008B10E20D9E7002C21DDB4F5006F1EDCE7
:1046F000601E2040D8B92046FFF7B6FF0090B148B1
:1047000004601020AF494860402088600020C860E5
:104710004FF48060086108460BF0EDFF1020FFF7B2
:104720003CF98246BAF1000F03D05046B5E7262087
:10473000B3E700980001A2498860084644604FF042
:10474000FF300860012048610220C8600020086135
:1047500008460BF0FCFF9B48076011209949486010
:10476000402088600020C8604FF4806008610846DF
:104770000BF0C1FF1120FFF710F98246BAF1000FCC
:1047800001D0504689E79048007800285AD1FFF7B9
:10479000CFF817E04FF400400CF040F870B14FF044
:1047A000000B05E08548006845F82B000BF1010B74
:1047B000BBF1080FF6D32035844E03E00EB9042078
:1047C0006BE7761E7D484C38006840F22A6108404D
:1047D0000028DFD008200CF021F820B108200CF0D0
:1047E00028F8042059E702200CF018F820B1022024
:1047F0000CF01FF8022050E720200CF00FF820B139
:1048000020200CF016F8062047E74FF400700CF05B
:1048100005F828B14FF400700CF00BF807203CE7C6
:1048200003E06648006828602D1D4FF400100BF06F
:10483000F5FF0028F5D1FFF780F840F2FF500BF0AC
:10484000F8FF39E060480078012835D10020604940
:10485000087060490870604908705848443800681A
:1048600040F22A31084355494439086053485438C6
:10487000006840F008005149543908600022214680
:104880004846FFF7B6FE00E0761E4B4858380068F1
:1048900000F0006038B95048007820B94C480078E2
:1048A00008B9002EF0D10EB90420F6E64848007889
:1048B00010B1474890F800A05046EEE62DE9FF5FA2
:1048C00017469846DDE90E464FF00009CA464FF0FC
:1048D000FF35424900980860002038495439086083
:1048E00033480078022805D10402780A40EAC85704
:1048F0004FEA68280020324988604860401E0860FE
:10490000012048610020C860086108460BF01FFFC5
:104910002A486C38006800F0007018B10E2004B00E
:10492000BDE8F09F002C21DDB4F5006F1EDC601E99
:104930002040D8B92046FFF797FE834621480460FF
:10494000102020494860402088600020C8604FF453
:104950008060086108460BF0CEFE1020FFF71DF8BE
:104960008146B9F1000F03D04846D8E72620D6E7A4
:10497000012E6ED906FB04F0B0F1007F01D3262092
:10498000CDE74FEA0B100E49886006FB04F0486043
:104990004FF0FF300860012048610220C86000200D
:1049A000086108460BF0D3FE06480760122017E0A6
:1049B00038110020F846002058640240802C014045
:1049C000BC460020A846002040110020FFFF7F00C9
:1049D0004211002041110020431100204411002009
:1049E000F9494860402088600020C8604FF480602A
:1049F000086108460BF07FFE1220FEF7CEFF8146CD
:104A0000B9F1000F01D0484689E7F0480078002846
:104A10007ED1FEF78DFF1EE04FF400400BF0FEFE4E
:104A2000A0B14FF0000A07E0E9480068E9490968C9
:104A300041F82A000AF1010ABAF1080FF4D3E54857
:104A400000682030E3490860E34D04E015B9042014
:104A500065E7AEE06D1EDE484C38006840F22A3152
:104A600008400028D8D008200BF0D8FE20B108203C
:104A70000BF0DFFE042052E702200BF0CFFE20B146
:104A800002200BF0D6FE022049E720200BF0C6FEE4
:104A900020B120200BF0CDFE062040E74FF400703F
:104AA0000BF0BCFE28B14FF400700BF0C2FE0720E3
:104AB00035E709E0C6480068C64909680860C54886
:104AC0000068001DC34908604FF400100BF0A6FEFB
:104AD0000028EFD14FF480700BF0A0FE20B3BF4848
:104AE000007838B1BD480078012803D0BB48007871
:104AF000022819D10020B44908600C2048604020E9
:104B000088600020C8604FF480600861084600E0BB
:104B100011E00BF0F0FD0C20FEF73FFF8146B9F1EC
:104B2000000F01D04846FAE6FEF707FF40F2FF50BB
:104B30000BF07FFE3DE0A5480078012839D1002028
:104B4000A74908700120A74908700020A6490870ED
:104B50009F484438006840F22A3108439C49443950
:104B600008609B485438006840F008009849543960
:104B7000086006FB04F100220098FFF73AFD00E010
:104B80006D1E9A48006800F0006008B9002DF7D14A
:104B90000DB90420C3E600BF9348007818B99048C7
:104BA00000780028F8D08E48007810B18C4890F832
:104BB00000904846B3E61CB50446002001900090E2
:104BC0008B4800880004804908600D204860402020
:104BD00088600020C8604FF48060086108460BF0D0
:104BE0008AFD7B484C380068009003E078484C38D8
:104BF00000680090009800F045000028F6D00120E1
:104C00000BF00CFE20B101200BF013FE01201CBDA7
:104C100004200BF003FE20B104200BF00AFE032059
:104C2000F5E76B48703800680D2801D01020EEE7DA
:104C300040F2FF500BF0FDFD65486C3800680190B4
:104C40000198C0F3432020700020E0E72DE9FF5FCA
:104C500086B017469846149D0026002005900490C3
:104C6000002481460390824602900195DDF818B039
:104C7000DDF818B0BBF1000F03D126200AB0BDE863
:104C8000F09F00205249543908605A4988604860B2
:104C9000401E0860012048610020C8600861084685
:104CA0000BF055FD4A486C38006800F0007008B100
:104CB0000E20E3E749480078022805D10502780A6A
:104CC00040EAC8574FEA6828002D1FDDB5F5006F90
:104CD0001CDC681E2840C8B92846FFF7C5FC0590B3
:104CE000394805601020384948604020886000201D
:104CF000C8604FF48060086108460BF0FCFC10208F
:104D0000FEF74BFE06461EB13046B7E72620B5E754
:104D10003748008800042C4908600D204860402076
:104D200088600020C8604FF48060086108460BF07E
:104D3000E2FC0D20FEF731FE06460EB130469DE73F
:104D400023486C38006803904FF0FF341CE0641E69
:104D50002748008800041C4908600D204860402056
:104D600088600020C8604FF48060086108460BF03E
:104D7000C2FC0D20FEF711FE06460EB130467DE75F
:104D800013486C3800680390039800F4807008B9E9
:104D9000002CDCD10CB9292070E70B4807601820E3
:104DA00009494860402088600020C8604FF4806056
:104DB000086108460BF09FFC1820FEF7EEFD064642
:104DC000D6B130465AE70000A84600204011002026
:104DD000802C014044110020FFFF7F00381100208B
:104DE00042110020411100204311002000640240C4
:104DF0003C110020BC4600200020F84908700598AE
:104E00000001F7498860084645604FF0FF300860B0
:104E1000012048610020C860086108460BF097FC3B
:104E20004FF0FF34EF48007800287CD1FEF780FD7A
:104E300043E04FF480400BF0F1FCC8B30198A0EBC5
:104E40000900202821D20198A0EB090000F00300FE
:104E500020B90198A0EB0900800804E00198A0EBBC
:104E600009008008401C02904FF0000A09E0DE496A
:104E7000DBF8000008600AF1010A0BF1040B09F1EC
:104E8000040902988245F2D30FE04FF0000A05E0D2
:104E90005BF82A00D44908600AF1010ABAF1080F48
:104EA000F6D30BF1200B09F120096FF0404404E028
:104EB000FFE70CB90420E1E6641ECB484C380068DB
:104EC00040F21A6108400028B3D008200BF0A6FC7D
:104ED00020B108200BF0ADFC0420CFE602200BF03F
:104EE0009DFC20B102200BF0A4FC0220C6E610209D
:104EF0000BF094FC20B110200BF09BFC0520BDE6CC
:104F00004FF400700BF08AFC30B14FF400700BF0DE
:104F100090FC0720B2E606E0FEF70FFD40F2FF50DE
:104F20000BF087FC43E0AF48007801283FD1002018
:104F3000AE490870A9490870AD490870AA484438BC
:104F4000006840F21A310843A749443908604022FA
:104F500029460698FFF74DFBA3485438006840F0F7
:104F60000800A1495439086000E0641EA1480068A7
:104F700000F0006008B9002CF7D11CB9FFF78AFADD
:104F800004207BE64FF0FF3400E0641E9848007870
:104F900020B99648007808B9002CF6D10CB9042045
:104FA0006CE69248007810B19048007866E640F2CE
:104FB000FF500BF03EFC04A8FFF7FDFD064603E0A2
:104FC00004A8FFF7F8FD06463EB99DF81000072833
:104FD000F6D09DF810000628F2D030464EE62DE9B6
:104FE000FF5F84B0DDE912470026002003900290A5
:104FF000002580468146019007FB04FBDDF810A0E8
:10500000DDF810A0BAF1000F03D1262008B0BDE8EA
:10501000F09F0020744954390860714988604860E5
:10502000401E0860012048610020C86008610846F1
:105030000BF08DFB6C486C38006800F0007008B114
:105040000E20E3E76C480078022808D10402DDE96D
:105050000601400A40EAC1504912CDE90601002C80
:105060001FDDB4F5006F1CDC601E2040C8B920466F
:10507000FFF7FAFA03906148046010205F49486026
:10508000402088600020C8604FF4806008610846B6
:105090000BF031FB1020FEF780FC06461EB13046B7
:1050A000B4E72620B2E7012F6FD907FB04F0B0F177
:1050B000007F01D32620A9E74F48007838B14E4839
:1050C0000078012803D04C48007802282DD14C48A4
:1050D0000088000449490860372048604020886003
:1050E0000020C8604FF48060086108460BF003FBA5
:1050F0003720FEF752FC06460EB1304686E73F48A1
:10510000076017203D494860402088600020C86043
:105110004FF48060086108460BF0EDFA1720FEF7A7
:105120003CFC06460EB1304670E7344906980860EC
:1051300019204860402088600020C8604FF48060DB
:10514000086108460BF0D7FA1920FEF726FC064640
:105150000EB130465AE7039800012149886007FBE9
:1051600004F048604FF0FF300860012048610020E3
:10517000C860086108460BF0EAFA1A48007800286F
:1051800072D1451EFEF7D4FB54E0F8E04FF48040A6
:105190000BF044FBB0B3ABEB0800202833D2ABEBF1
:1051A000080000F0030018B9ABEB0800800803E02A
:1051B000ABEB08008008401C01904FF0000909E0AB
:1051C0000949DAF80000086009F101090AF1040A46
:1051D00008F1040801988145F2D324E04111002030
:1051E000BC46002040110020802C014042110020CC
:1051F000431100200064024038110020A84600201E
:105200003C11002012E04FF0000905E05AF8290097
:10521000F849086009F10109B9F1080FF6D30AF15C
:10522000200A08F120086FF0404503E00DB9042082
:10523000ECE66D1EEF484C38006840F21A31084029
:105240000028A3D008200BF0E9FA20B108200BF0C9
:10525000F0FA0420DAE602200BF0E0FA28B102208E
:105260000BF0E7FA0220D1E640E010200BF0D6FA6E
:1052700020B110200BF0DDFA0520C7E64FF40070D6
:105280000BF0CCFA28B14FF400700BF0D2FA0720E3
:10529000BCE64FF480700BF0C1FA00B3D64800783A
:1052A00038B1D5480078012803D0D34800780228C7
:1052B00015D10020D14908600C204860402088604A
:1052C0000020C8604FF48060086108460BF013FAB4
:1052D0000C20FEF762FB06460EB1304696E6FEF75E
:1052E0002CFB40F2FF500BF0A4FA48E0C4480078D1
:1052F000012844D10020C34908700120C249087028
:105300000020C2490870BB484438006840F21A3196
:105310000843B8494439086007FB04F14022049867
:10532000FFF767F9B3485438006840F00800B14906
:10533000543908604FF0FF3500E06D1EB448006836
:1053400000F0006008B9002DF7D11DB9FFF7A2F8F1
:1053500004205BE64FF0FF3500E06D1EAB4800789F
:1053600020B9A848007808B9002DF6D10DB904205D
:105370004CE6A448007810B1A248007846E640F216
:10538000FF500BF056FA02A8FFF715FC064603E0A3
:1053900002A8FFF710FC06463EB99DF80800072852
:1053A000F6D09DF808000628F2D030462EE610B55B
:1053B0004FF480700BF032FA88B3934800780128DC
:1053C00014D100208D4908600C204860402088607E
:1053D0000020C8604FF48060086108460BF08BF92C
:1053E0000C20FEF7DAFA8749087002E000208549B0
:1053F000087080484838006840F480707D4948391A
:105400000860081D00684CF23A31884379494439F4
:10541000086001207D4908707A48007810BDFFE7D8
:1054200002200BF0FBF978B102200BF002FA714870
:10543000443800684CF23A3188436E494439086078
:10544000022070490870E9E708200BF0E7F978B10D
:1054500008200BF0EEF96748443800684CF23A3106
:105460008843644944390860042066490870D5E7D8
:1054700020200BF0D3F978B120200BF0DAF95D4849
:10548000443800684CF23A3188435A49443908603C
:1054900006205C490870C1E710200BF0BFF978B115
:1054A00010200BF0C6F95348443800684CF23A31EA
:1054B0008843504944390860052052490870ADE7D7
:1054C0004FF400700BF0AAF980B14FF400700BF0AC
:1054D000B0F94848443800684CF23A3188434549AD
:1054E0004439086007204749087097E7002095E78E
:1054F00010B5FFF75CFF10BD70B50446002514B968
:105500002625284670BD4348008800043B490860B2
:105510000D204860402088600020C8604FF4806003
:10552000086108460BF0E7F80D20FEF736FA05464D
:105530000DB12846E6E72F486C3800682060284601
:10554000E0E708B5002000906846FFF7D5FF08B1F6
:10555000FF2008BD0098C0F34320FAE72DE9FE4F75
:1055600083460E469146002002900025344622488C
:10557000007818B1680240EAD45564020BF00300C9
:10558000F0B14FF0000A18E04FF4007000904FEABD
:105590004A20071945EBE0733A461F48FFF76DF8BC
:1055A00002904FF400721C4958460CF063FA0BF558
:1055B000007B0AF1010000F0FF0ACA45E4DB16E0B7
:1055C000B9F1010F09D14FF4007022462B4600902B
:1055D0005846FFF752F8029009E04FF40070224657
:1055E0002B46CDE900095846FFF768F9029002986A
:1055F000BDE8FE8F802C014038110020A846002015
:1056000040110020421100204111002043110020D0
:10561000006402403C110020504700202DE9FE4F5D
:105620000646894692460020029000254C462148B5
:10563000007818B1680240EAD455640206F003000D
:10564000F0B14FF0000B18E04FF4007231461A48E9
:105650000CF010FA4FF4007000904FEA4B2007193D
:1056600045EBE0733A461448FFF7F0FA029006F56E
:1056700000760BF1010000F0FF0BD345E4DB16E0F0
:10568000BAF1010F09D14FF4007022462B46009069
:105690003046FFF7DBFA029009E04FF40070224633
:1056A0002B46CDE9000A3046FFF799FC029002989C
:1056B000BDE8FE8F3811002050470020014600BF92
:1056C000704700BFFE4A128802F04002002AF9D05B
:1056D000C2B2FB4B1B1D1A80704700B587B0012179
:1056E000084609F0FDFF012148040AF031F80722BD
:1056F0000221F44809F009FD07220321F14809F0CD
:1057000004FD0C20059002208DF8180000208DF873
:10571000190005A9EB4809F06DFCE9480BF040FFC2
:105720004FF4E13001900020ADF80800ADF80A0018
:10573000ADF80C00ADF810000C20ADF80E0001A97A
:10574000DF480BF094FF0121DD480CF018F84021F0
:10575000DB480CF0FCF8012240F22551D8480CF04F
:10576000C4F826208DF8000006208DF801000020E6
:105770008DF8020001208DF80300684608F071FBE7
:1057800007B000BD00B587B00121084609F0A8FFA9
:105790000121480409F0DCFF07220321C94809F070
:1057A000B4FC0820059002208DF8180000208DF828
:1057B000190005A9C34809F01DFCC1480BF0F0FE13
:1057C0004FF4E13001900020ADF80800ADF80A0078
:1057D000ADF80C00ADF810000C20ADF80E0001A9DA
:1057E000B7480BF044FF0121B5480BF0C8FF40213A
:1057F000B3480CF0ACF8012240F22551B0480CF04F
:1058000074F826208DF8000006208DF80100002095
:105810008DF8020001208DF80300684608F021FB96
:1058200007B000BD0120A8490870A84800782028CA
:1058300037D1A6484078532833D1A44880785428DB
:105840002FD1A248C07841282BD1A04800795428F4
:1058500027D19E484079452823D19C48807920282B
:105860001FD19A48C0793038994908700120994968
:10587000087097480078032803D1002096490870E3
:1058800087E093480078012803D1002093490870ED
:105890007FE08F48007800287BD101209049087074
:1058A00077E08A480078202817D188484078532824
:1058B00013D1864880784C280FD18448C07844287A
:1058C0000BD1824800794E2807D1804840792028A2
:1058D00003D10120834908705BE07C4800782028D0
:1058E00013D17A48407852280FD1784880785328CD
:1058F0000BD17648C078542807D174480079202805
:1059000003D101207849087043E0704800782028CE
:1059100013D16E48407841280FD16C4880784428D4
:105920000BD16A48C078562807D1684800792028EA
:1059300003D101206D4908702BE0644800782028CD
:1059400027D162484078472823D1604880784C2886
:105950001FD15E48C07842281BD15C48007944289A
:1059600017D15A484079202813D1584880793028D7
:105970000FD15648C0792C280BD15D4853490931C5
:105980000A6802604A68426089688160012059495A
:105990000870704738B5002000905749088040F2E1
:1059A000277147480BF0DCFFE8B140F227715348FC
:1059B0000CF011F86A4652495248006800F09BFF0B
:1059C00001280AD100F049FA01204F4948704C489B
:1059D00001783B480BF0FEFE05E0002240F2277103
:1059E00037480BF082FF40F2255135480BF0B8FFE5
:1059F000002863D040F2255131480BF0ECFF3048CD
:105A00000BF0ECFEC4B241480078072845D2DFE82D
:105A100000F0040E182244442F00412C03D1012031
:105A20003A49087002E000203849087035E0542CEB
:105A300003D102203549087002E000203349087084
:105A40002BE02D2C03D103203049087002E0002008
:105A50002E49087021E0422C06D100202C49087004
:105A600006202A49087002E000202849087014E046
:105A7000284801780078401C264A10701348445486
:105A80000D2C09D1002022490870FFF7CBFE002021
:105A9000204908701D49087000BF00BF1E480078EB
:105AA00001285BD0AB2C3CD101201B490870184861
:105AB00001780078401C164A10702FE04DE000007D
:105AC00000440040000002404C11002050490020DA
:105AD0004D110020581100209A090020A80800202C
