:020000040800F2
:20000000E099002041260008ED030008EF030008F3030008F7030008FB03000800000000E0
:2000200000000000000000000000000053260008FF03000800000000572600085926000829
:200040005B2600085B2600085B2600085B2600085B2600085B2600085B2600085B26000858
:200060005B2600085B2600085B2600085B2600085B2600085B2600085B2600085B26000838
:200080005B2600085B2600085B26000800000000000000000000000000000000990700081D
:2000A0005B2600085B2600085B2600085B2600085B2600085B2600085B2600085B260008F8
:2000C0005B2600085B2600085B2600085B2600085B2600085B2600085B2600080000000061
:2000E0005B2600085B2600085B260008000000000000000000000000000000005B260008DC
:2001000000000000752400085B2600085B260008000000000000000000000000000000002C
:200120005B2600085B2600085B2600085B2600085B26000800000000000000000000000012
:20014000000000000000000000000000010400085B2600085B2600085B2600085B2600086E
:200160005B2600085B2600080000000000000000000000000000000000000000000000006D
:20018000000000005B26000800000000000000005B2600085B26000800F002F800F03CF8B6
:2001A0000AA090E8000C82448344AAF10107DA4501D100F031F8AFF2090EBAE80F0013F06B
:2001C000010F18BFFB1A43F001031847BC800000DC800000103A24BF78C878C1FAD8520724
:2001E00024BF30C830C144BF04680C60704700000023002400250026103A28BF78C1FBD8D2
:20020000520728BF30C148BF0B6070471FB507F078FD1FBD10B510BD07F07DF91146FFF71C
:20022000F5FF00F009F807F09BF903B4FFF7F2FF03BC07F09FF9000010B54FF4407002F0B8
:200240006FFC00F027FA0221574803F039F84FF40071564803F034F802F0FAFB4FF4FA7037
:2002600000F0E5F900205249087008E002F073FB504908804E480078401C4D4908704C4808
:2002800000780528F2DB03E002F065FB4949088048480088B0F55D6FF6DB00F0D9FA4FF43D
:2002A000FA6000F0C4F94021404802F0EDFF012803D180213D4803F001F802F071FA00F014
:2002C000C1F93D49087000F0B7FA3B480078002845D0012239A1002004F094FE36490870F3
:2002E00003F032FB00F0F0FA0021354802F064FD334802F085FC3120324908700020487009
:20030000062088700020C870084602F00EFC312000F01F02012191402B4A430942F823109A
:2003200000BF00214FF4800003F0ECF900214FF4006003F030FA00F095FA72B623484068A7
:200340002349086008460068224908601F49086880F3088800BF1F480068804721E000F01F
:200360006BFA02F0D1F990B100F06CFA00BFBFF34F8F1948006800F4E06018490843001DB0
:2003800015490860BFF34F8F00BF00BFFEE700F059FA13A005F0D9FB72B68021034802F0DF
:2003A0008FFF002010BD00000000024000040240100000201200002000000020303A2F001F
:2003C000586402400C00002080E100E00000010808000020040000200CED00E00000FA0585
:2003E000303A2F416B65792E62696E00704700BFFEE700BFFEE700BFFEE700BFFEE7704775
:20040000704700000CB50020019000906F48006840F480306D49086000BF6C48006800F433
:20042000003000900198401C0190009818B90198B0F5A04FF1D16548006800F4003010B124
:200440000120009001E0002000900098012844D15E484030006840F080505C494031086088
:200460005B48006840F44040594908605748083000685649083108600846006808600846C8
:20048000006840F4805008605248091F0860081F006840F08070091F086000BF4B48006865
:2004A00000F000700028F9D040F202704A49086046480830006820F00300444908310860DD
:2004C0000846006840F00200086000BF3F480830006800F00C000828F8D10CBD10B53F48DC
:2004E000006840F470003D4908603848006840F00100364908600020344908310860334849
:20050000006837490840314908603648091D0860081F006820F48020091F086000202B4956
:200520000C310860FFF76EFF4FF000602B498039086010BD70B500200021022200230224DF
:20054000224D08352D6805F00C0020B1042806D0082829D107E0244D244E356028E0244D84
:20056000224E356024E0194D2D1D2D68C5F38053164D2D1D2D6805F03F044BB11C4DB5FB13
:20058000F4F5124E361D3668C6F3881605FB06F10E4D2D1D2D68C5F301456D1C6A00B1FBFC
:2005A000F2F5124E356003E00F4D104E356000BF00BF064D08352D68C5F303150D4E705D92
:2005C0000A4D2D68C540094E356070BD00380240007000400C304108003C024088ED00E08F
:2005E000FFFFF6FE103000240024F4001400002000366E0118000020002000E0401C1928DF
:20060000FCD3704700B5002202E0FFF7F5FF521C40F2A7308242F8D300BD00B502460023CE
:2006200002E0FFF7E9FF5B1C9342FAD300BD10B50346002402E0FFF7E5FF641C9C42FAD30B
:2006400010BD000010B5002400F0E6FE01220BA10B4804F0D7FC04460CB1012010BD03220D
:2006600008A10B4804F0F9FC04460CB10220F5E7074804F0AEFF0020F0E70000303A2F0010
:2006800084000020303A2F416B65792E62696E00E404002000B585B00121880303F07BF827
:2006A0000121032003F02EF801208DF8100000208DF811004FF40050039003A97C4802F0E8
:2006C00081FD4FF400517A4802F0F8FD01208DF8100000208DF812008DF811008DF81300C4
:2006E00048F20200039003A9724802F06BFD48F20201704802F0E4FD44F28B20039003A983
:200700006B4802F05FFD8B21694802F0D9FD4FF48441674802F0D2FD00208DF8100041F64F
:200720005D70039003A9634802F04CFD48F27010039003A95E4802F045FD00208DF810003F
:200740004020039002208DF8130003A9584802F039FD0621012003F0F6F94020019000203D
:200760008DF808000C208DF8090001208DF80A0001A802F027FC17208DF800000E208DF855
:20078000010000208DF8020001208DF80300684602F0CBF905B000BD1CB540200090002051
:2007A0008DF8040001208DF80600402002F07BFC40213F4802F068FD01280BD13E490870F8
:2007C0000C208DF8050001208DF80600684602F0F9FB16E04021364802F056FD88B90020A8
:2007E000354908703548007810B901203349087008208DF8050001208DF80600684602F032
:20080000E1FB1CBD10B54FF400412A4802F056FD10BD10B54FF40041264802F051FD10BD92
:2008200010B50121224802F049FD10BD10B501211F4802F045FD10BD10B502211C4802F0D5
:200840003DFD10BD10B50221194802F039FD10BD10B54FF48041164802F032FD0520FFF7F0
:20086000E6FE10BD1CB500214FF4006002F093FF4FF45070009000208DF8040002208DF8CB
:20088000050000208DF806008DF807006946094802F098FC48F2300000906946044802F0AF
:2008A00091FC4FF48041024802F008FD1CBD00000004024000000240280000202A00002073
:2008C00072B6704762B670470020FE490860091D0860091D0860091D0860FA4924310860F1
:2008E000091D0860091D0860F748F649383108600020091D0860704701460020012900D0C7
:2009000011B9F24B197000E0262070470146ED4A121D106820F0FF0008431060704770B59F
:20092000044606E0E7483430056805F0450000B100E0F7E700BF042003F0CEF820B104204D
:2009400003F0D5F8032070BD012003F0C5F820B1012003F0CCF80120F5E7DA481030006846
:20096000A04201D01020EEE740F2FF5003F0BFF8D4481430006808210840C0B2E3E72DE909
:20098000FC4107460D46002600240020009001900820CF4908601020486040208860002007
:2009A000C8604FF480600861084603F002F81020FFF7B5FF044614B12046BDE8FC81C548CA
:2009C00000880004C249086037204860402088600020C8604FF480600861084602F0E9FFD5
:2009E0003720FFF79CFF04460CB12046E5E74FF0FF30B949086008204860302088600220D4
:200A0000C8600020086101204861084602F0FDFF0320FFF702FE0020AD490860332048608D
:200A2000402088600020C8604FF480600861084602F0BFFF3320FFF772FF04460CB1204675
:200A4000BBE70DE04FF4001003F046F840B19D48803000684DF82600761C022E00D307E0AE
:200A600098483430006840F22A6108400028E9D000BF082003F030F820B1082003F037F8C7
:200A800004209AE7022003F027F820B1022003F02EF8022091E7202003F01EF820B120207D
:200AA00003F025F8062088E74FF4007003F014F828B14FF4007003F01AF807207DE740F291
:200AC000FF5003F014F800980006009901F47F4140EA0120009901F47F0140EA112000998F
:200AE00040EA1160686001980006019901F47F4140EA0120019901F47F0140EA1120019956
:200B000040EA11602860204657E77CB50546002400200090019000260DB1022600E000261B
:200B200068481430006800F0007008B10E207CBD6849098888B26946FFF721FF04460CB191
:200B40002046F4E7019800F4802060B36148008800045F4908603720486040208860002068
:200B6000C8604FF480600861084602F022FF3720FFF7D5FE04460CB12046D8E75448066012
:200B8000062053494860402088600020C8604FF480600861084602F00CFF0620FFF7BFFEAB
:200BA00004462046C3E72520C1E770B5044600254A480078032802D12725284670BD4748DC
:200BC000007838B145480078012803D043480078022819D1B4F5805F02D127252846EDE7B3
:200BE000E0B2FFF792FF054675B93648001D006820F4C0503349091D086008460068204319
:200C000008600846006808602846D7E710B504462F48046007202E4948604020886000208A
:200C2000C8604FF480600861084602F0C2FE0720FFF775FE10BDF0B5014600200022274B03
:200C40001B7881F85630234B1B88A1F85430244B1B681A0E93090B70C2F383034B7002F0BB
:200C600003038B701E4B1B68C3F30742CA701C4B1B88C3F307220A71194B1A784A715B6876
:200C80001A0E1301CB80164B5B68C3F30742CB8843EA1213CB8002F00F030B72104B9B88BB
:200CA000C3F30722D3094B72C2F380138B72C2F34013CB72C2F300130B7300234B73074BB9
:200CC0001B780FE0002C0140FF07C00034000020A00D002030000020B40D00202C000020C1
:200CE000CC0D00203BB1FE4B1B78012B03D0FC4B1B78032B4FD193071B0D0B61F94B1A7907
:200D00000B6943EA82030B61F64B9B681A0E0B6943EA92130B61C2F3C2030B7502F007032D
:200D20004B75F04B9B68C3F3074253098B75C2F38203CB7593075B0F0B76EA4B1B89C3F3CC
:200D400007220B7E43EAD2130B760B695B1C0024C1E912340B7E9B1C012404FA03F3DC1703
:200D6000D1E91256A5FB037C06FB03C305FB0433C1E912730C7A0123A3400B650024D1E92A
:200D800012650B6DA6FB037C05FB03C306FB0433C1E912732EE0D24B1B78022B2AD1D14B15
:200DA0001A7993069B0A0B61CE4B9B681A0E0B6943EA02230B61CB4B9B68C3F307420B69F4
:200DC00013430B61C74B1B89C3F307220B695B1C4FF40074A3FB04464FF480630025A4FB48
:200DE000037C06FB03C304FB0533C1E912734FF400730B65C2F3801301F8193F93065B0E86
:200E00004B70B84B1A7A4B7843EAD2134B7002F07F038B70B34BDB681A0ED309CB70C2F34C
:200E200041130B71C2F382034B7193071B0F8B71AC4BDB68C3F307428B7943EA92138B7121
:200E4000C2F34013CB7100230B7202F001034B72A44B9B89C3F30722D3098B72C2F38013E8
:200E6000CB72C2F340130B73C2F300134B73C2F381038B7302F00303CB739A4B1A7B5308E7
:200E80000B7401234B74984B1B681A0ECA741939954B1B68C3F307421402CC85924B1B8889
:200EA000C3F30722CB8D1343CB858F4B1A7814060C635B681A0E0B6B43EA02440C638A4B48
:200EC0005B68C3F307420B6B43EA02240C63864B9B88C3F307220B6B13430B63824B1A79AB
:200EE00034235A54804B9B681A0E35235A547E4B9B68C3F3074214068C637B4B1B89C3F3FD
:200F000007228B6B43EA02448C63774B1A7A8B6B43EA02248C63744BDB681A0E8B6B13434C
:200F20008B63714BDB68C3F307423C235B5C43EA12143C235C5413071C0DCC876A4B9B89DE
:200F4000C3F30722CB8F1343CB87674B1A7B540840235C54012441235C54F0BD70B50026C9
:200F60004FF4803505E06148046804F0450000B103E02800A5F10105F5D100BF15B104F0AF
:200F8000040028B10326042002F0B1FD304670BD012002F0A1FD18B10126012002F0A7FD8C
:200FA00040F2FF5002F0A3FD3046F0E72DE9F04105460E464FF0000805E04C48076807F0C5
:200FC000450000B100E0F8E700BF042002F084FD28B1042002F08BFD0320BDE8F081012035
:200FE00002F07AFD20B1012002F081FD0120F4E73E4824380068A84201D01020EDE740F2EF
:20100000FF5002F074FD39482038046804F4604018B9200C30804046DFE704F4005008B147
:201020001320DAE704F4804008B11020D5E704F4004008B10F20D0E74046CEE738B500243C
:201040000120009002F0AFFC10B92524204638BD23480078042825D00020254908600220B9
:201060004860C02088600020C8604FF480600861084602F09EFCFFF771FF04460CB120467F
:20108000E5E71A48203800681749086017481C380068486015481838006888601348143833
:2010A0000068C8600E48007858B10D480078012807D00B480078062803D00948007802283D
:2010C00022D100200A49086003204860402088600020C8604FF48060086108460AE0000023
:2010E0002C000020CC0D0020DC0D0020342C0140A00D002002F05DFC69460320FFF756FFCC
:2011000004460CB12046A2E7FE480078032816D1BDF800000004FC49086003204860402078
:2011200088600020C8604FF480600861084602F040FCFFF713FF04460CB1204687E7F1485B
:20114000007804282AD0BDF80000F0490860BDF800000004EC49086009204860C0208860AC
:201160000020C8604FF480600861084602F021FCFFF7F4FE04460CB1204668E7E448006806
:20118000E4490860E248001D00684860E048083000688860DE480C300068C860002056E764
:2011A00010B506E0DA482030046804F0450000B100E0F7E700BF042002F08EFC20B10420AA
:2011C00002F095FC032010BD40F2FF5002F08FFC0020F8E770B500264FF4803506E0CC4862
:2011E0002030046804F0450000B103E02800A5F10105F4D100BF15B104F0040028B103265E
:20120000042002F074FC304670BD04F0400018B10026402002F06BFC3046F5E770B500252D
:201220004FF4803404E0802002F056FC00B103E02000A4F10104F6D100BF0CB9032070BD06
:2012400040F2FF5002F053FC2846F8E72DE9F0470027002400260025A046A1467620AE4942
:2012600008750020086048608860C8600861084602F075FB032002F092FBA5481038006859
:2012800040F48070A2491039086000BF12E000209D49086048608860C8604FF4806008612B
:2012A000084602F086FBFFF7B9FF044604B903E0781CC7B24A2FEADB00BF14B12046BDE8FB
:2012C000F0874FF4D5709049086008204860402088600020C8604FF480600861084602F0A2
:2012E00068FBFFF777FF044624B90120854908704FF08049002084490860372048604020D5
:2013000088600020C8604FF480600861084602F050FB3720FFF703FB0446002C4BD134E095
:2013200000207949086037204860402088600020C8604FF480600861084602F03AFB37207C
:20134000FFF7EDFA04460CB12046B8E7734849EA00006D490860292048604020886000203F
:20136000C8604FF480600861084602F022FBFFF717FF04460CB12046A1E76548066801201F
:2013800080EAD67080F001086D1CB8F1000F03D14FF6FF708542C3D34FF6FF70854202D3AE
:2013A0001B2420468BE706F08040060032D00220544908702EE01CE0594853490860012051
:2013C0004860402088600020C8604FF480600861084602F0EEFAFFF7E3FE04460CB12046DD
:2013E0006DE74B480668012080EAD67080F001086D1CB8F1000F03D14FF6FF708542DBD310
:201400004FF6FF70854202D31B24204657E703203C490870204652E73EB50024002501217C
:20142000404802F06FF90121C80202F0B4F90121C80202F0F4F94FF45070019002208DF839
:2014400008008DF8090000208DF80A0001208DF80B0001A9344801F0B5FE48F230000190D1
:2014600001A9324801F0AEFE0C2206212E4801F034FF0C2208212C4801F02FFF0C2209217A
:20148000294801F02AFF0C220421284801F025FF0C220521254801F020FF0C220F2123484F
:2014A00001F01BFF00214FF4006002F0B8F9FFF70BFA31208DF8000000208DF8010006201D
:2014C0008DF8020001208DF80300684601F02DFBFFF7BCFE044614B9FFF7B0FD04461CB98C
:2014E0001348FFF7A8FB044634B91149B1F854100804FFF78BFB0446ECB94FF40060FFF74A
:2015000054FB17E02C000020A00D002030000020142C0140CC0D0020880D0020000010805D
:201520000080FF80030040000000024000040240F00D002004461CB1FE480078032812D1E1
:20154000FD4890F8560020B1FB4890F85600012801D1022500E000252846FFF7D7F90020FB
:20156000FFF7CAF9044620463EBD10B5002002F016FA002010BD70B590B004460E461546D5
:2015800000BFEE4801F065FC0028FAD1EB4801F037FB4FF000600190E94802900394049598
:2015A0000020059006904FF480600790800008908000099000200A904FF440300B900420C9
:2015C0000C9003200D904FF400000E9080100F9001A9DA4801F0B6FB2021D84801F002FCE1
:2015E0000121D64801F0E8FB10B070BD0146002002E04910421CD0B20129FAD170472DE9A6
:20160000F84F8146174698460A9C4FF0000AD3464D464FF0FF36B9F1000F02D12620BDE8FB
:20162000F88F0020C64954390860C2480078022805D10402780A40EAC8574FEA68280020C3
:20164000C04988604860401E0860012048610020C8600861084602F0D8F9B9486C38006892
:2016600000F0007008B10E20D9E7002C21DDB4F5006F1EDC601E2040D8B92046FFF7B6FFA7
:201680000090B14804601020AF494860402088600020C8604FF480600861084602F089F9AF
:2016A0001020FFF73CF98246BAF1000F03D05046B5E72620B3E700980001A24988600846AE
:2016C00044604FF0FF300860012048610220C86000200861084602F098F99B4807601120A7
:2016E00099494860402088600020C8604FF480600861084602F05DF91120FFF710F98246B6
:20170000BAF1000F01D0504689E79048007800285AD1FFF7D5F817E04FF4004002F0DCF991
:2017200070B14FF0000B05E08548006845F82B000BF1010BBBF1080FF6D32035844E03E01E
:201740000EB904206BE7761E7D484C38006840F22A6108400028DFD0082002F0BDF920B18A
:20176000082002F0C4F9042059E7022002F0B4F920B1022002F0BBF9022050E7202002F049
:20178000ABF920B1202002F0B2F9062047E74FF4007002F0A1F928B14FF4007002F0A7F946
:2017A00007203CE703E06648006828602D1D4FF4001002F091F90028F5D1FFF783F840F2B4
:2017C000FF5002F094F939E060480078012835D100206049087060490870604908705848B0
:2017E0004438006840F22A31084355494439086053485438006840F0080051495439086054
:20180000002221464846FFF7B6FE00E0761E4B485838006800F0006038B95048007820B9DE
:201820004C48007808B9002EF0D10EB90420F6E64848007810B1474890F800A05046EEE63B
:201840002DE9FF5F17469846DDE90E464FF00009CA464FF0FF3542490098086000203849C8
:201860005439086033480078022805D10402780A40EAC8574FEA68280020324988604860BB
:20188000401E0860012048610020C8600861084602F0BBF82A486C38006800F0007018B16D
:2018A0000E2004B0BDE8F09F002C21DDB4F5006F1EDC601E2040D8B92046FFF797FE8346AD
:2018C00021480460102020494860402088600020C8604FF480600861084602F06AF810200C
:2018E000FFF71DF88146B9F1000F03D04846D8E72620D6E7012E6ED906FB04F0B0F1007FAF
:2019000001D32620CDE74FEA0B100E49886006FB04F048604FF0FF30086001204861022007
:20192000C86000200861084602F06FF806480760122017E02C000020F00D0020586402400A
:20194000802C0140B40D0020A00D002034000020FFFF7F0036000020350000203700002019
:2019600038000020F9494860402088600020C8604FF480600861084602F01BF81220FEF78F
:20198000CEFF8146B9F1000F01D0484689E7F048007800287ED1FEF793FF1EE04FF40040FC
:2019A00002F09AF8A0B14FF0000A07E0E9480068E949096841F82A000AF1010ABAF1080FBB
:2019C000F4D3E54800682030E3490860E34D04E015B9042065E7AEE06D1EDE484C3800684A
:2019E00040F22A3108400028D8D0082002F074F820B1082002F07BF8042052E7022002F0ED
:201A00006BF820B1022002F072F8022049E7202002F062F820B1202002F069F8062040E785
:201A20004FF4007002F058F828B14FF4007002F05EF8072035E709E0C6480068C6490968BB
:201A40000860C5480068001DC34908604FF4001002F042F80028EFD14FF4807002F03CF858
:201A600020B3BF48007838B1BD480078012803D0BB480078022819D10020B44908600C2072
:201A80004860402088600020C8604FF480600861084600E011E001F08CFF0C20FEF73FFF88
:201AA0008146B9F1000F01D04846FAE6FEF70AFF40F2FF5002F01BF83DE0A5480078012838
:201AC00039D10020A74908700120A74908700020A64908709F484438006840F22A310843C1
:201AE0009C49443908609B485438006840F0080098495439086006FB04F100220098FFF791
:201B00003AFD00E06D1E9A48006800F0006008B9002DF7D10DB90420C3E600BF934800782E
:201B200018B9904800780028F8D08E48007810B18C4890F800904846B3E61CB50446002037
:201B4000019000908B4800880004804908600D204860402088600020C8604FF480600861E3
:201B6000084601F026FF7B484C380068009003E078484C3800680090009800F045000028AE
:201B8000F6D0012001F0A8FF20B1012001F0AFFF01201CBD042001F09FFF20B1042001F0A2
:201BA000A6FF0320F5E76B48703800680D2801D01020EEE740F2FF5001F099FF65486C3858
:201BC000006801900198C0F3432020700020E0E72DE9FF5F86B017469846149D002600200A
:201BE00005900490002481460390824602900195DDF818B0DDF818B0BBF1000F03D126203F
:201C00000AB0BDE8F09F00205249543908605A4988604860401E0860012048610020C8601B
:201C20000861084601F0F1FE4A486C38006800F0007008B10E20E3E749480078022805D155
:201C40000502780A40EAC8574FEA6828002D1FDDB5F5006F1CDC681E2840C8B92846FFF7DC
:201C6000C5FC059039480560102038494860402088600020C8604FF480600861084601F074
:201C800098FE1020FEF74BFE06461EB13046B7E72620B5E73748008800042C4908600D201A
:201CA0004860402088600020C8604FF480600861084601F07EFE0D20FEF731FE06460EB149
:201CC00030469DE723486C38006803904FF0FF341CE0641E2748008800041C4908600D201B
:201CE0004860402088600020C8604FF480600861084601F05EFE0D20FEF711FE06460EB149
:201D000030467DE713486C3800680390039800F4807008B9002CDCD10CB9292070E70B481E
:201D20000760182009494860402088600020C8604FF480600861084601F03BFE1820FEF749
:201D4000EEFD0646D6B130465AE70000A00D002034000020802C014038000020FFFF7F002B
:201D60002C0000203600002035000020370000200064024030000020B40D00200020F849DD
:201D8000087005980001F7498860084645604FF0FF300860012048610020C8600861084673
:201DA00001F033FE4FF0FF34EF48007800287CD1FEF786FD43E04FF4804001F08DFEC8B3D6
:201DC0000198A0EB0900202821D20198A0EB090000F0030020B90198A0EB0900800804E009
:201DE0000198A0EB09008008401C02904FF0000A09E0DE49DBF8000008600AF1010A0BF1AA
:201E0000040B09F1040902988245F2D30FE04FF0000A05E05BF82A00D44908600AF1010A61
:201E2000BAF1080FF6D30BF1200B09F120096FF0404404E0FFE70CB90420E1E6641ECB48DB
:201E40004C38006840F21A6108400028B3D0082001F042FE20B1082001F049FE0420CFE693
:201E6000022001F039FE20B1022001F040FE0220C6E6102001F030FE20B1102001F037FEB2
:201E80000520BDE64FF4007001F026FE30B14FF4007001F02CFE0720B2E606E0FEF712FD5A
:201EA00040F2FF5001F023FE43E0AF48007801283FD10020AE490870A9490870AD4908705D
:201EC000AA484438006840F21A310843A74944390860402229460698FFF74DFBA34854386B
:201EE000006840F00800A1495439086000E0641EA148006800F0006008B9002CF7D11CB9D6
:201F0000FFF78AFA04207BE64FF0FF3400E0641E9848007820B99648007808B9002CF6D1B3
:201F20000CB904206CE69248007810B19048007866E640F2FF5001F0DAFD04A8FFF7FDFDD2
:201F4000064603E004A8FFF7F8FD06463EB99DF810000728F6D09DF810000628F2D03046D3
:201F60004EE62DE9FF5F84B0DDE912470026002003900290002580468146019007FB04FBB7
:201F8000DDF810A0DDF810A0BAF1000F03D1262008B0BDE8F09F00207449543908607149EB
:201FA00088604860401E0860012048610020C8600861084601F029FD6C486C38006800F03B
:201FC000007008B10E20E3E76C480078022808D10402DDE90601400A40EAC1504912CDE948
:201FE0000601002C1FDDB4F5006F1CDC601E2040C8B92046FFF7FAFA039061480460102023
:202000005F494860402088600020C8604FF480600861084601F0CDFC1020FEF780FC06465F
:202020001EB13046B4E72620B2E7012F6FD907FB04F0B0F1007F01D32620A9E74F4800789A
:2020400038B14E480078012803D04C48007802282DD14C4800880004494908603720486040
:20206000402088600020C8604FF480600861084601F09FFC3720FEF752FC06460EB130464F
:2020800086E73F48076017203D494860402088600020C8604FF480600861084601F089FCA0
:2020A0001720FEF73CFC06460EB1304670E734490698086019204860402088600020C860F0
:2020C0004FF480600861084601F073FC1920FEF726FC06460EB130465AE7039800012149AE
:2020E000886007FB04F048604FF0FF300860012048610020C8600861084601F086FC1A48E6
:202100000078002872D1451EFEF7DAFB54E0F8E04FF4804001F0E0FCB0B3ABEB080020288A
:2021200033D2ABEB080000F0030018B9ABEB0800800803E0ABEB08008008401C01904FF0DD
:20214000000909E00949DAF80000086009F101090AF1040A08F1040801988145F2D324E0C7
:2021600035000020B40D002034000020802C01403600002037000020006402402C00002049
:20218000A00D00203000002012E04FF0000905E05AF82900F849086009F10109B9F1080F1A
:2021A000F6D30AF1200A08F120086FF0404503E00DB90420ECE66D1EEF484C38006840F2AD
:2021C0001A3108400028A3D0082001F085FC20B1082001F08CFC0420DAE6022001F07CFC56
:2021E00028B1022001F083FC0220D1E640E0102001F072FC20B1102001F079FC0520C7E6B3
:202200004FF4007001F068FC28B14FF4007001F06EFC0720BCE64FF4807001F05DFC00B3D6
:20222000D648007838B1D5480078012803D0D3480078022815D10020D14908600C20486075
:20224000402088600020C8604FF480600861084601F0AFFB0C20FEF762FB06460EB130467A
:2022600096E6FEF72FFB40F2FF5001F040FC48E0C4480078012844D10020C3490870012066
:20228000C24908700020C2490870BB484438006840F21A310843B8494439086007FB04F18C
:2022A00040220498FFF767F9B3485438006840F00800B149543908604FF0FF3500E06D1ED6
:2022C000B448006800F0006008B9002DF7D11DB9FFF7A2F804205BE64FF0FF3500E06D1EEB
:2022E000AB48007820B9A848007808B9002DF6D10DB904204CE6A448007810B1A2480078DA
:2023000046E640F2FF5001F0F2FB02A8FFF715FC064603E002A8FFF710FC06463EB99DF8CE
:2023200008000728F6D09DF808000628F2D030462EE610B54FF4807001F0CEFB88B39348C1
:202340000078012814D100208D4908600C204860402088600020C8604FF48060086108465B
:2023600001F027FB0C20FEF7DAFA8749087002E000208549087080484838006840F48070F1
:202380007D4948390860081D00684CF23A31884379494439086001207D4908707A4800784D
:2023A00010BDFFE7022001F097FB78B1022001F09EFB7148443800684CF23A3188436E4928
:2023C00044390860022070490870E9E7082001F083FB78B1082001F08AFB67484438006804
:2023E0004CF23A318843644944390860042066490870D5E7202001F06FFB78B1202001F0DB
:2024000076FB5D48443800684CF23A3188435A494439086006205C490870C1E7102001F0BA
:202420005BFB78B1102001F062FB5348443800684CF23A318843504944390860052052496E
:202440000870ADE74FF4007001F046FB80B14FF4007001F04CFB4848443800684CF23A3152
:20246000884345494439086007204749087097E7002095E710B5FFF75CFF10BD70B5044683
:20248000002514B92625284670BD4348008800043B4908600D204860402088600020C860FC
:2024A0004FF480600861084601F083FA0D20FEF736FA05460DB12846E6E72F486C380068BB
:2024C00020602846E0E708B5002000906846FFF7D5FF08B1FF2008BD0098C0F34320FAE736
:2024E0002DE9FE4F83460E46914600200290002534462248007818B1680240EAD455640266
:202500000BF00300F0B14FF0000A18E04FF4007000904FEA4A20071945EBE0733A461F486B
:20252000FFF76DF802904FF400721C49584604F001FF0BF5007B0AF1010000F0FF0ACA4583
:20254000E4DB16E0B9F1010F09D14FF4007022462B4600905846FFF752F8029009E04FF47A
:20256000007022462B46CDE900095846FFF768F902900298BDE8FE8F802C01402C000020C7
:20258000A00D0020340000203600002035000020370000200064024030000020480E0020AC
:2025A0002DE9FE4F0646894692460020029000254C462148007818B1680240EAD45564028F
:2025C00006F00300F0B14FF0000B18E04FF4007231461A4804F0AEFE4FF4007000904FEA75
:2025E0004B20071945EBE0733A461448FFF7F0FA029006F500760BF1010000F0FF0BD345FF
:20260000E4DB16E0BAF1010F09D14FF4007022462B4600903046FFF7DBFA029009E04FF455
:20262000007022462B46CDE9000A3046FFF799FC02900298BDE8FE8F2C000020480E002070
:202640000948804709480047FEE7FEE7FEE7FEE7FEE7FEE7FEE7FEE7FEE7FEE7044805493E
:20266000054A064B70470000DD04000899010008E0930020E0990020E0950020E095002022
:2026800038B5002401253A483A4908603A483B49086035E06B464FF400423549384802F0ED
:2026A00078FDFEF7C9F8BDF800003649086008460068B0F5004F00D200253248046816E0D6
:2026C000314804602B4A1268121B2E4B1B68D1582A4A126803461B68D21A2A4B1B68D01856
:2026E00000F0CEF8092801D0012038BD241F002CE6DC224800682349096808441F49086010
:20270000012DC7D00020F0E710B501221FA11C4802F0A3FCC0B91A48C068B0F5002F01D9AF
:20272000012010BD144800F085F808B10120F8E700F036F8FFF7A4FF08B10120F1E7104868
:2027400002F047FF0020ECE70120EAE700BFBFF34F8F1148006800F4E06010490843001D57
:202760000D490860BFF34F8F00BF00BFFEE70000481000204400002000000108480000205B
:2027800048900020400000203C000020303A2F416B65792E62696E000CED00E00000FA0523
:2027A00010B504F065F810BD10B5002404F039FB012801D1012400E00024204610BD014687
:2027C0000020354A914203D2B1F1006F00D330E0324A914204D2304A914201D3082028E048
:2027E0002F4A914204D22D4A914201D3102020E02C4A914204D22A4A914201D3182018E0FF
:20280000294A914204D2274A914201D3202010E0264A914204D2244A914201D3282008E0F6
:20282000234A914204D2214A914201D3302000E0382070472DE9F0410646002709253046D3
:20284000FFF7BDFF07463C460DE00221204604F063F805460834C4F3C00010B9FDF7F2FF86
:2028600001E0FDF7E9FF092D01D1302CEDD9382C01D1092D02D00120BDE8F0810020FBE7FA
:2028800070B504460D4609262946204604F05DF90646304670BD0000004000080080000869
:2028A00000C00008000001080000020800000408000006082DE9F04700270024A046A146BE
:2028C000002611E0814804F0CCFB00BF02217F4804F0E8FC0028F9D07C4804F0FEFB7C4975
:2028E00021F81600701CC6B2642EEBDB00251EE0002416E0764830F814100246601C32F818
:20290000100081420BDD104630F814800146601C31F8100021F81400601C21F81080601C20
:2029200084B2C5F16300A042E4DC681C85B2632DDEDB142505E0664830F815000744681CCA
:2029400085B2502DF7DB3C20B7FBF0F01FFA80F94846BDE8F08710B52DED048BFFF7AAFFBA
:202960005C4908805C48006805F05AF941EC180B5848008804F0E7FE41EC190B53EC182BB2
:2029800004F030FF554A03C29FED550B53EC102B524890ED000B51EC100B04F023FF4F4A21
:2029A00003C29FED510B53EC102B4C4890ED000B51EC100B05F014F80DD89FED4D0B53EC73
:2029C000102B464890ED000B51EC100B04F0DAFD424A03C226E09FED480B53EC102B3F484C
:2029E00090ED000B51EC100B04F0FAFF0DD89FED440B53EC102B394890ED000B51EC100B6F
:202A000004F0C0FD354A03C20CE09FED3F0B53EC102B324890ED000B51EC100B04F0B2FD88
:202A20002E4A03C29FED3A0B53EC102B2B4890ED000B51EC100B04F0D5FE41EC180B04F0B0
:202A400055FE3549088008460088BDEC048B10BD00B58DB00121080200F09DFE0121084629
:202A600000F050FE10200B9003208DF8300000208DF833000BA9294800F0A4FB04F004FAF7
:202A800000200190029003904FF47060049001A804F034FA002005908DF818008DF81900FE
:202AA0000890099001208DF8280005A9074804F0F6F9072301220421044804F076FA0121F3
:202AC000024804F032FA0DB000BD000000200140B4920020600000206400002058000020CF
:202AE000334E4354E1CFF43FF6285C8FC2F50E40EC51B81E85EBA13FB81E85EB51B80E40CD
:202B00009CC420B07268A13FFCA9F1D24D62A03F0000000000408F40620000200000024002
:202B200032490143324A1160704770B5002100230F22C4781CB32E4C246804F4E064C4F592
:202B4000E064C4F30721C1F10404E3B20A4144789C40E1B28478144021430C07210E254C26
:202B600005786155047804F01F050124AC4005786D11AD0005F1E025C5F8004109E0047877
:202B800004F01F050124AC401B4D0678761145F8264070BD194A0A400243154B1B1F1A60C9
:202BA000704739B1124A121D12680243104B1B1D1A6006E00E4A121D126882430C4B1B1DE2
:202BC0001A607047042808D14FF0E021096941F004014FF0E022116107E04FF0E02109698B
:202BE00021F004014FF0E022116170470000FA050CED00E000E400E080E100E080FFFF1FDB
:202C0000016821F0010101600021016041608160C160016121214161DB49884204D13D214B
:202C2000D94A103A91608CE0D7491831884205D14FF47461D44A103A916082E0D249303172
:202C4000884205D14FF47411CF4A103A916078E0CD494831884205D14FF07461CA4A103ABF
:202C600091606EE0C8496031884204D1C749C64A103AD16065E0C4497831884204D1C44992
:202C8000C14A103AD1605CE0BF499031884204D1C049BD4A103AD16053E0BB49A8318842A5
:202CA00005D14FF03D51B84A103AD16049E0BA49884204D13D21B84A083A116041E0B649F6
:202CC0001831884205D14FF47461B34A083A116037E0B1493031884205D14FF47411AE4A71
:202CE000083A11602DE0AC494831884205D14FF07461A94A083A116023E0A74960318842FE
:202D000004D1A249A44A121F11601AE0A2497831884204D19E49A04A121F116011E09E49EB
:202D20009031884204D19B499B4A121F116008E09949A831884204D14FF03D51964A121FA8
:202D40001160704710B500220268944B1A40CC680B6823434C6923438C692343CC692343A3
:202D60000C6A23434C6A23438C6A23434C6B23438C6B23431A430260426922F00702D1E946
:202D80000B3423431A4342610B6943604B6883608B68C36010BD0021016041608160C160D9
:202DA000016141618161C161016241628162C162016341638163704721B1026842F00102EB
:202DC000026003E0026822F001020260704721B1026842F40042026003E0026822F400425B
:202DE0000260704721B1026842F02002026003E0026822F02002026070474160704701468F
:202E0000486880B2704722B1036843F40023036003E0036823F4002303600161704721B148
:202E2000026842F48022026003E0026822F48022026070470AB1016100E0C16070470146B4
:202E400000200A6802F400220AB1012000E000207047014600200A6802F001020AB101208B
:202E600000E000207047014600204A6902F03800704730B503460A4600200024464DAB425E
:202E800002D24149103901E04349103902F000550DB14C6800E00C68414D2C4004EA0205D9
:202EA0000DB1012000E0002030BD02463A4B9A4202D23548103801E03748103801F0005318
:202EC0001BB1374B0B40C36002E0354B0B408360704710B501F080034BB122B1436943F008
:202EE0008003436103E0436923F08003436180290BD02AB1036801F01E042343036004E058
:202F0000036801F01E04A343036010BD70B50246002000240025204EB24202D21A4B103B61
:202F200001E01D4B103B1F4E0E4036B11E2606EAD124166806EA040502E0566906F080059F
:202F400001F000560EB15C6800E01C68144E344004EA010616B10DB1012000E0002070BDA5
:202F600002460D4B9A4202D20748103801E00A48103801F000531BB1094B0B40C36002E03B
:202F8000074B0B4083607047106002403D000020400F002000003D20106402403F801CF09E
:202FA0007D0F7D0F3C0F3C0F002041490860091D0860091D0860091D08603E483C49143157
:202FC0000860704700213A498279002A3AD00A46126803689A430B461A600A1D1268036816
:202FE0009A430B1D1A60027911440A6803681A430A602F4A0832126803689A432C4B0833B7
:203000001A601A1D126803689A43294B0C331A604279102A0ED11A1F126803681A43244B52
:2030200008331A601A1D126803681A43204B0C331A600DE01E49427911440A6803681A43A0
:203040000A6005E0027911440A6803689A430A6070470021016001710C2141710021817190
:2030600070471349103109680143114A103211607047014600200E4A143212680A400AB1FE
:20308000012000E000207047094914310860704701460020064A143212680A400AB1012005
:2030A00000E00020704702491431086070470000003C0140FFFF7F0010B5044698488442FB
:2030C00008D10121084600F077FB0021012000F073FB76E09348844208D10121022000F0A1
:2030E0006BFB0021022000F067FB6AE08E48844208D10121042000F05FFB0021042000F051
:203100005BFB5EE08948844208D10121082000F053FB0021082000F04FFB52E084488442DC
:2031200008D10121102000F047FB0021102000F043FB46E07F48844208D10121202000F0D5
:203140003BFB0021202000F037FB3AE07A48844208D10121402000F02FFB0021402000F02E
:203160002BFB2EE07548844208D10121802000F023FB0021802000F01FFB22E070488442A4
:2031800008D10121801500F017FB0021A01500F013FB16E06B48844208D10121401500F01A
:2031A0000BFB0021601500F007FB0AE06648844207D10121001500F0FFFA0021201500F0E5
:2031C000FBFA10BDF0B50A4600210023002400BF3DE0012505FA01F3156805EA03049C428A
:2031E00034D105684F000326BE40B543056015794E00B5400668354305601579012D02D0E0
:203200001579022D16D185684F000326BE40B543856055794E00B5408668354385604568C1
:2032200001268E40B5434560456896798E40B6B235434560C5684F000326BE40B543C5602D
:20324000D5794E00B540C6683543C560491C1029BFD3F0BD4FF6FF710160002101714171DA
:203260008171C171704708B54FF480320092009A0A430092009AC261C161009AC261C269EF
:203280000092C269009208BD0246002013690B400BB1012000E0002070470146086980B26D
:2032A00070470246002053690B400BB1012000E0002070470146486980B270470183704738
:2032C000418370470AB1018300E0418370474161704742694A4042617047F0B50023002405
:2032E0004D07ED0E02FA05F3CE1000F1200555F826504E07F70E0F26BE40B543CF1000F17F
:20330000200646F82750CE1000F1200555F8265045EA0304CE1000F1200545F82640F0BDA1
:20332000000002400004024000080240000C0240001002400014024000180240001C02400D
:20334000002002400024024000280240FA48006840F00100F84908600020F74908310860B6
:20336000F5480068F5490840F3490860F448091D0860F448F04984310860F1481038091D7B
:203380000860ED48006820F48020EB4908600020E9490C310860E8498C31086070470021B3
:2033A000E54A921C117011460870704710B501460022002300204A11012A02D1DE4C2368AA
:2033C00008E0022A03D1DC4C7034236802E0DA4C7434236801F01F02012494401C400CB14F
:2033E000012000E0002010BD38B5002000900024002500BF3120FFF7D9FF05460098401CDC
:2034000000900098B0F5A04F01D0002DF2D03120FFF7CCFF08B1012400E00024204638BDE1
:2034200001460020C44A106820F0F80040EAC10010607047C449086070470021BE4A70328E
:2034400011701170012802D004280AD104E00121B94A7032117005E00521B74A703211700D
:2034600000E000BF00BF7047B8490860704770B5049C41EA82150126C6EB530645EA0645E5
:20348000054345EA0465AC4E361D356070BDAE490866704710B5830143EA01731343A64CEF
:2034A0008434236010BDA8498866704710B5830143EA016343EA02739F4C8834236010BDFB
:2034C000A14908677047A049C864704702460020994B0833186820F0EC6042EA0103184322
:2034E000954B08331860704702460020924B0833186820F0784042EA010318438E4B08331B
:2035000018607047014600208B4A0832106820F0030008431060704787480830006800F0AA
:203520000C00704701460020834A0832106820F0F000084310607047014600207E4A083207
:20354000106820F4E05008431060704701460020794A0832106820F4604040EAC100106052
:203560007047F0B5002100220024022500260223714F08373F6807F00C0121B1042905D098
:20358000082937D105E0724F076036E0714F076033E0694F3F1D3F68C7F38056664F3F1D39
:2035A0003F6807F03F036EB16A4FB7FBF3F7DFF888C10CF1040CDCF800C0CCF3881C07FB91
:2035C0000CF40CE0624FB7FBF3F7DFF86CC10CF1040CDCF800C0CCF3881C07FB0CF4564F03
:2035E0003F1D3F68C7F301477F1C7D00B4FBF5F7076002E0564F076000BF00BF4E4F083764
:203600003F6807F0F0010909534F7A5C0768D7404760494F08373F6807F4E051890A4E4F8A
:203620007A5C4768D7408760434F08373F6807F46041490B484F7A5C4768D740C760F0BD98
:20364000002100F44072B2F5407F0AD13A4A0832116821F4F811414A02401143364A083232
:203660001160354A70321268C0F30B031A43324B70331A6070473549443908607047334939
:2036800040390860704736490860704701460020294A8C32106820F440100843106070470E
:2036A00001460020244A8C32106820F44000084310607047014600201F4A8C32106820F023
:2036C0001F004A1E10431C4A8C321060704701460020194A8C32106820F4F8504A1E40EAD7
:2036E0000220154A8C321060704701460020124A8C32106820F44030084310607047194913
:203700000860704739B10C4A3032126802430A4B30331A6006E0084A303212688243064BCD
:2037200030331A607047F9B1034A343212680243014B34331A601CE000380240FFFFF6EA58
:20374000103000240030002000004742800E47420024F40000366E0168000020FFFCFF0FC7
:203760005C014742E0114742764A12688243754B1A60704739B1734A0C3212680243714B99
:203780000C331A6006E06F4A0C32126882436D4B0C331A60704739B16A4A1032126802438D
:2037A000684B10331A6006E0664A103212688243644B10331A60704739B1624A243A1268F1
:2037C0000243604B243B1A6006E05E4A243A126882435C4B243B1A60704739B1594A203AD7
:2037E00012680243574B203B1A6006E0554A203A12688243534B203B1A60704739B1514AC6
:20380000143A126802434F4B143B1A6006E04D4A143A126882434B4B143B1A60704739B12E
:20382000484A103A12680243464B103B1A6006E0444A103A12688243424B103B1A60704791
:2038400039B1404A1C32126802433E4B1C331A6006E03C4A1C32126882433A4B1C331A604E
:20386000704739B1374A203212680243354B20331A6006E0334A203212688243314B203305
:203880001A60704739B12F4A2C32126802432D4B2C331A6006E02B4A2C3212688243294BBA
:2038A0002C331A60704739B1264A303212680243244B30331A6006E0224A303212688243BE
:2038C000204B30331A607047012808D11D493C31096841F008011B4A3C32116007E01949DC
:2038E0003C31096821F00801164A3C321160704739B1144A273A12780243124B273B1A7019
:2039000006E0104A273A127882430E4B273B1A7070470C484030006840F0807009494031AC
:203920000860704701460020064A283A12680A400AB1012000E000207047024926390870D6
:20394000704700003438024010B50121C802FFF766FF00214FF40060FFF761FF10BD0021EE
:203960006C4A116847F6FF629143027D83681A4343681A43C3681A4303681A4303691A43BE
:203980001143644A1160704700210175016041608160C160016170475F49086070475D49DC
:2039A000091F086070475B48001F006800F0030070470021574B1B1D02681A601A1D11685D
:2039C0006FF30A01D0E901231A43C3681A4303691A4311434F4A083211607047002101601E
:2039E00041608160C160016170474A480C300068C0B2704708B5014600200090454810302B
:203A0000084400900098006808BD0021414B203302681A601B1D42681A601A1D116821F004
:203A2000F701D0E902231A4303691A4343691A431143384A2832116070474FF0FF31016059
:203A4000002141608160C16001614161704731482C30006870472F487C30006870472D493B
:203A60007C31086070472B484430006870472B49086070472949091D086070472749083181
:203A80000860704725490C31086070472449086070472349091D0860704701218143204AB0
:203AA0000832116070471E490C31086070471B4914390860704739B1164A3832126802439E
:203AC000144B38331A6006E0124A383212688243104B38331A607047014600200D4A3032A0
:203AE00012680A400AB1012000E000207047094934310860704701460020064A3032126806
:203B00000A400AB1012000E0002070470149343108607047042C0140A0802542A085254276
:203B2000AC81254210B501218803FFF778FE00214FF48040FFF773FE10BD1C490860704737
:203B40001B490862704730B500228B071C0F0F2303FA04F2154B08338C1053F8243093434B
:203B6000124C08348D1044F8253023468C1053F824308C07240F00FA04F423430B4C083428
:203B80008D1044F8253030BD0949DC3108607047084908607047002004492031096801F4F8
:203BA000807109B1012000E00020704700380140000027420004274270B5044624B9FDF7F3
:203BC0002BFC0546284670BD0420FCE7014609B9002070470420FCE72DE9F04106460F4602
:203BE00090461C4614B90420BDE8F0819EB9E2B241463846FEF774FC054607E0FDF70CFC03
:203C0000E2B241463846FEF76BFC0546002DF5D100BF2846E8E70420E6E72DE9F0410646F1
:203C20000F4690461C4614B90420BDE8F08196B9E2B241463846FEF7B3FC054607E0FDF73E
:203C4000EBFBE2B241463846FEF7AAFC0546002DF5D10020E9E70420E7E72DE9F047064691
:203C6000894615465EBBB9F1000F09D0B9F1010F13D0B9F1020F05D0B9F1030F19D106E0B6
:203C8000002418E04FF400702860002413E00E48B0F85000288000240DE00B484FF40072A7
:203CA0000023D0E91271384603F020FB2860002401E0042400BF00BF2046BDE8F087042040
:203CC000FBE7002070470000F00D002070B503460C461846214604E00D680560001D091D88
:203CE000121F042AF8D203E011F8015B00F8015B1500A2F10102F7D170BD30B5034601E050
:203D000003F8011B1400A2F10102F9D130BDF0B503461C460D46002000BF1600A2F10102FD
:203D200007D014F8017B15F801CBA7EB0C063000F3D0F0BD024600E0521C107810B11078A0
:203D40008842F9D11078704770B504462079F8B1E56A607801232A4604F13001FFF75DFFAC
:203D600008B1012070BD00202071206A281AA16988420DD2E67809E0A06905446078012377
:203D80002A4604F13001FFF748FF761E022EF3D20020E7E770B504460D46E06AA84210D003
:203DA0002046FFF7D1FF08B1012070BD607801232A4604F13001FFF70FFF08B10120F4E785
:203DC000E5620020F1E770B504462046FFF7BCFF05466DBB2078032823D16079012820D101
:203DE0004202002104F13000FFF787FF4AF65521A4F82E12F8482063F849C4F814122169BB
:203E0000C4F81812E168C4F81C12E069401CE0626078012304F13001E26AFFF7FEFE002022
:203E20006071607800221146FFF717FF00B10125284670BD0246891E5069801E884201D8F9
:203E4000002070479378906A01FB0300F9E72DE9F04105460C46022C02D36869A04202D833
:203E60000120BDE8F0812878012804D002282AD0032850D13AE0264606EB5606286A00EBAE
:203E800056212846FFF786FF00B146E0C6F3080105F13000475C761C286A00EB562128466C
:203EA000FFF778FF00B138E0C6F3080105F13000405C47EA002704F0010008B13809D0E74A
:203EC000C7F30B00CDE7286A00EB14212846FFF761FF00B121E040F2FF1000EA440105F1DB
:203EE000300001EB0008B8F80000BAE7286A00EBD4112846FFF74EFF00B10EE040F2FF105A
:203F000000EA840105F1300001EB0008D8F8000020F07040A5E70120A3E700BF4FF0FF3024
:203F20009FE72DE9F04704460D469046022D02D36069A84201D8022773E02078012804D09A
:203F400002283ED0032867D14EE0A94609EB5909206A00EB59212046FFF71CFF074607B1E8
:203F60005CE0C9F3080104F130000E1805F0010028B108F0FF01307861F31F1000E040469D
:203F8000307009F1010901202071206A00EB59212046FFF7FFFE074607B13FE0C9F308019A
:203FA00004F130000E1805F0010010B1C8F3071005E0307800F0F000C8F3032108433070F6
:203FC0002CE0206A00EB15212046FFF7E3FE074607B123E040F2FF1000EA450104F130004F
:203FE0000E18A6F8008019E0206A00EBD5112046FFF7D0FE074607B110E040F2FF1000EADF
:20400000850104F130000E18306800F0704040EA0808C6F8008001E0022700BF00BF012076
:2040200020713846BDE8F0872DE9F04104460E46022E02D36069B04201D8022727E0002780
:2040400021E031462046FFF702FF054605B91DE0012D01D1022719E0681C08B9012715E001
:20406000002231462046FFF75CFF074607B10DE02069401C30B12069401C2061607940F0C9
:20408000010060712E466069B042DAD800BF3846BDE8F0812DE9F04704468946B9F1000FFB
:2040A00006D1E76817B16069B84215D8012713E049462046FFF7CBFE0646022E02D2012022
:2040C000BDE8F087701C08B93046F9E76069B04201D93046F4E74F463D4600BF6D1C606912
:2040E000A84204D80225BD4201D90020E8E729462046FFF7ACFE064606B909E0701C08B15D
:20410000012E01D13046DBE7BD42E7D10020D7E700BF6FF0704229462046FFF702FF80466F
:20412000B8F1000F08D1B9F1000F05D02A4649462046FFF7F6FE8046B8F1000F0BD1E56072
:204140002069401C78B12069401E2061607940F00100607107E0B8F1010F02D14FF0FF302D
:2041600000E0012005462846AAE770B503460D46586A021D680A1E68B678B0FBF6F400BFD8
:2041800002CA09B9002070BD8C4200D202E0641A121DF5E700BF10682044F4E72DE9F0417C
:2041A00004460E46E680A568012D03D020684069A84202D80220BDE8F0812DB920680078DA
:2041C000032801D12068456A6DB920680089B04206D80220EFE700005252614172724161E0
:2041E0002068476A1EE0206880784FEA001812E029462068FFF72BFE0546681C08B90120FE
:20420000D9E7022D03D320684069A84201D80220D1E7A6EB08064645EAD229462068FFF738
:2042200009FE0746E5600FB90220C4E707EB161020612068303006F00F0100EB41106061CC
:204240000020B8E72DE9F04104468846E088461CB0B208B1206910B90420BDE8F08106F0D9
:204260000F0000286CD12069401C2061E06828B920680089B04263D80420EEE72068807884
:20428000401E00EA161000285AD1E1682068FFF7DEFD0546012D01D80220DEE7681C08B93D
:2042A0000120DAE720684069A84243D8B8F1000F01D10420D1E7E1682068FFF7EBFE054685
:2042C0000DB90720C9E7012D01D10220C5E7681C08B90120C1E72068FFF736FD08B10120DA
:2042E000BBE7216801F130004FF400720021FFF704FD29462068FFF79DFD2168C862002743
:204300000EE00120216808712068FFF71DFD08B10120A2E72068C06A401C2168C8627F1C35
:2043200020688078B842ECD82068C06AC01B2168C86200BFE56029462068FFF77BFD206115
:20434000E6802068303006F00F0100EB41106061002082E72DE9F04104460E460021204617
:20436000FFF71CFF0546EDB9002700BF21692068FFF710FD054605B113E060690078E528FE
:2043800002D06069007820B9781C0746B04201D107E0002701212046FFF754FF0546002D35
:2043A000E4D000BF042D00D107252846BDE8F0810246488B1378032B02D18B8A40EA0340AF
:2043C000704741830A0C828270472DE9F04705460C46207820F04000401E00EB800101EB09
:2043E000C0064FF00009012700BFF94810F8090034F8008087B1404602F0DFF90746322E95
:2044000007D23146761C35F8110002F0D6F9B84208D00020BDE8F0874FF6FF70804501D063
:204420000020F7E709F1010081460D28DDD3207800F0400028B127B135F8160008B1002042
:20444000E8E70120E6E7F0B50346087800F03F00401E00EB800707EBC0020025012600BF73
:20446000DB48405D0C5A4EB1322A01D30020F0BD26461046521C23F8104005E04FF6FF70E6
:20448000844201D00020F2E7681C05460D28E7D3087800F0400030B1322A01D30020E6E720
:2044A000002023F812000120E1E7F0B504464B730F27CF7200270F734F83571E07EB870C2D
:2044C0000CEBC706002738463D4600BF4FF6FF77B84203D03746761C34F81700BC4F7F5D70
:2044E000C85308B94FF6FF706F1C3D460D2FEDD34FF6FF77B84202D034F816700FB942F0EF
:2045000040020A70F0BD2DE9FC4780468A4617461D460B2251464046FFF7D8FB052D17D94E
:20452000284610E037F8021B00240AE00A4660F35F021046491000F480320AB1A54A504030
:20454000641C102CF2D33A88002AEBD1054600BF072400BF05F00F0000F13009B9F1390F1E
:2045600003DD09F1070000F0FF092046641E0DF800902D09002DEDD17E200DF804000026F7
:2045800000E0761CA64203D218F806002028F8D100BF082C04D22046641C1DF8001000E011
:2045A00020213046761C08F80010082EF1D3BDE8FC8730B5014600200B2200BF431003EB07
:2045C000C01411F8015B6319D8B2531E1A00F5D130BD2DE9F047044600212046FFF7DEFD6F
:2045E000074617B13846BDE8F0874FF0FF09CA4600BF21692068FFF7CDFB074607B154E0ED
:2046000065692E780EB904274FE0E87A00F03F08E52E05D008F0080028B1B8F10F0F02D012
:204620004FF0FF093AE0B8F10F0F1CD1E069A0B306F0400030B195F80DA026F04006B14625
:20464000E08820844E450AD1687B504507D12946E069FFF7BAFE10B1A9F1010000E0FF20CF
:2046600000F0FF091AE0B9F1000F05D12846FFF7A0FF504500D118E04FF0FF094FF6FF705D
:204680002084A069C07A00F0010030B90B222846A169FFF73CFB00B907E0FFE7002120467A
:2046A000FFF7D0FD0746002FA3D000BF38469AE72DE9F05F04468A464FF0FF09CB46042788
:2046C0004EE021692068FFF765FB074607B14AE0666935780DB9042745E0F07A00F03F08E2
:2046E000E52D09D02E2D07D0B8F1080F01D1012000E00020504502D04FF0FF0929E0B8F18A
:204700000F0F1AD105F0400030B196F80DB025F04005A946E08820844D450AD1707B5845E5
:2047200007D13146E069FFF78EFE10B1A9F1010000E0FF2000F0FF090BE0B9F1000F04D193
:204740003046FFF736FF584502D04FF6FF70208409E000212046FFF775FD074607B102E032
:2047600020690028ADD100BF0FB1002020613846BDE8F09F2DE9FE4F0446D4F81880D4F85B
:204780001C900C2241466846FFF7A0FA00BF9DF80B0000F00100D0B1002088F80B00E061BD
:2047A00001260CE033464A4669464046FFF7ABFE2046FFF70EFF054605B102E0761C642E99
:2047C000F0D300BF642E07D10720BDE8FE8F0DE08C7D000821100100042D01D02846F4E719
:2047E0009DF80B0088F80B00C4F81C909DF80B0000F0020060B1002600E0761C39F81600A4
:204800000028FAD106F119000D21B0FBF1F700E0012739462046FFF79DFD054645BB781E76
:20482000070025D0E088C11B2046FFF7B7FC0546F5B9A069FFF7BDFE824600BF21692068DD
:20484000FFF7A8FA054605B111E0FAB253466169E069FFF72AFE01202168087100212046AE
:20486000FFF7F0FC054615B9781E0700E6D100BFC5B921692068FFF78DFA054695B9202242
:2048800000216069FFF739FA0B22D4E90501FFF71DFAA069C07A00F0180061690873012057
:2048A00021680871284690E770B50446E688208C4FF6FF72904201D1304600E0208C0146E5
:2048C0002046FFF76BFC05460DBB00BF21692068FFF760FA054605B115E0202200216069BF
:2048E000FFF70BFAE52061690870012021680871E088B04200D306E000212046FFF7A2FC25
:204900000546002DE2D000BF042D00D10225284670BD2DE9F04707460C4604F10906386959
:20492000002834D07869002526E029466D1C10F80180B8F1200F00D11EE0B8F1050F01D188
:204940004FF0E508092D02D12E2106F8011BB8F1410F0EDBB8F15A0F0BDC017B092D01D358
:20496000102200E00822114019B108F1200101F0FF0806F8018B00BF0B2DD6D3C17A2172D6
:20498000C1692160018BA180C18AE18000BF00203070A06958B30025A669386920B3E0698F
:2049A00010B3388C4FF6FF7188421DD0D7F81CA014E00021484601F0DDFE8146B9F1000F8A
:2049C00001D100250FE000BFE069401EA84201D8002508E028466D1C06F800903AF8021BE7
:2049E0005FEA0109E5D100BF0020705500BFBDE8F0872DE9F34F83B082460498D0F800B0C8
:204A000001E00BF1010B9BF800002F28F9D09BF800005C28F5D0DAF81C9000252E4600BF48
:204A20003046761C1BF80040202C03DB2F2C01D05C2C00D11CE0322D03D3062005B0BDE8BB
:204A4000F08FE4B20121204601F094FE04460CB90620F3E7802C06DA2146FEA0FFF76AF93D
:204A600008B10620EAE728466D1C29F81040D7E700BF0BEB060104980160202C01DA04205C
:204A800000E00020074608E0681E39F81040202C02D02E2C00D002E06D1E002DF4D100BF74
:204AA0000DB90620CAE7002029F815000B222021DAF81800FFF721F9002600E0761C39F8D2
:204AC00016002028FAD039F816002E28F6D00EB147F0030700E06D1E25B1681E39F8100043
:204AE0002E28F8D14FF00008CDF808800820019000BF3046761C39F8104004B955E0202CC4
:204B000003D02E2C04D1AE4202D047F00307F0E7DDE90110884201D2AE4216D101980B28A2
:204B200002D147F0030740E0AE4201D047F00307AE4200D939E02E46082002900B20019073
:204B40004FEA88604FEA1068D3E7802C0BDB0021204601F00FFE04461CB1A4F18000C0497D
:204B60000C5C47F0020700BF24B12146BDA0FFF7E1F818B15F2447F003070FE0412C04DB9E
:204B80005A2C02DC48F0020808E0612C06DB7A2C04DC48F00108A4F1200084B2DAF818304D
:204BA0000298411C02911C54A3E700BFDAF818000078E52803D10520DAF81810087001983F
:204BC000082803D14FEA88604FEA106808F00C000C2803D008F00300032801D147F00207BC
:204BE00007F0020058B908F00300012801D147F0100708F00C00042801D147F00807DAF84D
:204C00001800C772002019E72DE9F3410446019800782F2803D0019800785C2802D1019853
:204C2000401C01900020A06001980078202807D200212046FFF7B2FA05460020606128E0D8
:204C400000BF01A92046FFF7D4FE054605B11FE02046FFF7BEFC0546A069C67A3DB1042DF4
:204C600004D100BF06F0040000B9052510E006F0040000B10CE06769F87A00F0100008B939
:204C8000052505E039462068FFF792FBA060D8E700BF2846BDE8FC8170B502464FF0FF3092
:204CA0001568E5B1116800E0491C0D78202D02D30D783A2DF8D10D783A2D0FD1146814F873
:204CC000015BA5F130030A2B07D28C4205D1022B03D218464D1C2946156070BD002000BF44
:204CE000FBE770B504460D4600202071401EE06229462046FFF74EF808B1032070BDB4F8F9
:204D00002E024AF65521884201D00220F6E7D4F8660020F07F405549884201D10020EDE7E4
:204D2000D4F8820020F07F405049884201D10020E4E70120E2E72DE9F74F88B000210898F7
:204D400001600998FFF7A8FF07900798002803DA0B200BB0BDE8F08F4549079851F8204099
:204D60000CB90C20F5E708980460207878B16078FEF72CFF804608F0010040B90A9820B17E
:204D800008F0040008B10A20E3E70020E1E700202070079860706078FEF70EFF804608F0CB
:204DA000010008B10320D4E70A9820B108F0040008B10A20CDE7002739462046FFF791FFC3
:204DC0000546012D01D025BB23E000260BE004F5F77101EB0610017909B1816800E0002114
:204DE0004DF82610761C042EF1D3002606B1761E00BF5DF8267027B139462046FFF771FF72
:204E000000E0022005461DB1701C06460428F0D300BF032D01D101209BE70DB10D2098E7E2
:204E2000B4F83B00B0F5007F01D00D2091E7B4F84690B9F1000F01D1D4F85490C4F81890D0
:204E40004020005DE070E078012815D0E078022812D00FE0222A3A3C3E3F7C7F0000000052
:204E60000C7D00082B2C3B3D5B5D000046415400780000200D206CE7E07809FB00F93D2075
:204E8000005DA070A07818B1A078411E084008B10D205EE7B4F841002081207A00F00F00B3
:204EA00008B10D2055E7B4F843B0BBF1000F01D1D4F850B0E08F0490049808B90D2048E71C
:204EC00004984844218900EB111006900698834501D20D203DE70698ABEB0000A178B0FBDC
:204EE000F1FABAF1000F01D10D2032E7012540F6F670824500D302254FF6F670824500D32D
:204F000003250AF102006061E76104983844206206983844A062032D09D1208908B10D2014
:204F200017E7E06D606260698000059014E0208908B90D200DE7206A48446062022D02D12D
:204F40006069400007E0207D00F00100616901EB410100EB51000590A169059800F2FF1062
:204F6000B1EB502F01D20D20F3E64FF0FF302061E06080206071032D1FD16020005B012879
:204F80001BD1791C2046FEF705FFB0B900206071B4F82E024AF6552188420ED1F849206BD0
:204FA00088420AD1F749D4F81402884205D1D4F818022061D4F81C02E0602570F2480088A2
:204FC000401C80B2F0490880E0800020C1E670B505462C464CB1206838B12068007820B13A
:204FE0002068C088A188884201D0092070BD21684878FEF7EBFD00F0010008B10320F5E7F8
:205000000020F3E7F7B582B016460398019001A8FFF742FE0546002D02DA0B2005B0F0BD70
:20502000DA4850F825400CB100202070029810B1002002990870D549029841F825000298F6
:2050400008B1012E01D00020E8E7002203A902A8FFF771FE07463846E0E72DE9F743A6B093
:20506000044616461CB9092029B0BDE8F0830020206006F01F0626F0010227A91DA8FFF73C
:205080005AFE0746002F7DD11AA82390CDF890D01DA82799FFF7B8FD0746229D0FB905B992
:2050A000062706F01C00002842D04FB1042F03D11DA8FFF75FFB074646F00806229D09E022
:2050C000E87A00F0110008B1072703E006F0040000B108275FBB06F0080040B3FEF7F1FDDB
:2050E0008146C5F80E900020E872E86129461D98FFF75EF9804600212846FFF762F9012093
:205100001D990871B8F1000F11D01D98D0F82C9041461D98FEF788FF074647B9A8F10100EF
:205120001D99C86049461D98FEF734FE07460EE06FB9E87A00F0100008B1042707E006F0A0
:20514000020020B1E87A00F0010000B1072747B906F0080008B146F020061D98C06AE06117
:2051600025627FB9A6710020E07129461D98FFF71FF92061E869E0600020A060A0616062C1
:205180001D9800E003E020602068C088A08038466AE72DE9FF4F83B0044615469A46DDF867
:2051A00010B00020CAF800002046FFF710FF0290029818B1029807B0BDE8F08FE07908B166
:2051C000E079F8E7A07900F0010008B90720F2E7D4E90210401A00900098854200D9009D3E
:2051E000AAE02089C0F30800002876D120688078401EA16800EA512000F0FF09B9F1000F5F
:205200001FD1A06810B9206901900CE0606A28B12046A168FEF7A9FF019004E06169206851
:20522000FEF715FE01900198022802D20220E071C1E70198401C10B90120E071BBE70198B8
:20524000606161692068FEF7F5FD064616B90220E071B0E74E444FEA5528B8F1000F29D036
:2052600009EB080021688978884203D920688078A0EB090821684878434632465946FEF708
:20528000ABFC10B10120E07195E7A07900F0400068B1A069801B404509D2A169891B0BEBAE
:2052A00041204FF4007204F12801FEF70FFD4FEA482737E0A069B04220D0A07900F04000C6
:2052C00080B121684878012304F12801A269FEF7A4FC18B10120E0716DE710E0A07920F0CA
:2052E0004000A071216848780123324604F12801FEF772FC10B10120E0715CE7A6612089D1
:20530000C0F30800C0F50077AF4200D92F462089C0F3080204F1280011183A465846FEF7A8
:20532000D5FC00BFBB44A0683844A060DAF800003844CAF80000ED1B002D7FF452AF002081
:2053400039E72DE9FF4F83B0044615469B46049801900020CBF800002046FFF738FE0290DC
:20536000029818B1029807B0BDE8F08FE07908B1E079F8E7A07900F0020048B90720F2E7FF
:2053800052526141727241618000002078000020A0682844A168884200D20025C2E0208980
:2053A000C0F3080000286FD120688078401EA16800EA512000F0FF0ABAF1000F2CD1A068D0
:2053C00058B9D4F81080B8F1000F13D100212068FEF760FE804620610CE0606A28B120468C
:2053E000A168FEF7C2FE804604E061692068FEF751FE8046B8F1000F00D196E0B8F1010F31
:2054000002D10220E071AEE708F1010010B90120E071A8E7C4F81480A07900F0400078B12B
:2054200021684878012304F12801A269FEF7F5FB10B10120E07196E7A07920F04000A071C7
:2054400061692068FEF7F6FC064616B90220E07189E756444FEA5529B9F1000F2BD00AEB1B
:20546000090021688978884203D920688078A0EB0A09216848784B4632460199FEF7CDFB2C
:2054800018B10120E0716EE729E0A069801B48450ED2A069801B019A02EB40214FF4007220
:2054A00004F12800FEF712FCA07920F04000A0714FEA49272AE0A069B0420FD0D4E9020105
:2054C00088420BD2216848780123324604F12801FEF782FB10B10120E07144E7A6612089A2
:2054E000C0F30800C0F50077AF4200D92F462189C1F3080204F1280150183A460199FEF789
:20550000E5FBA07940F04000A07100BF019838440190A0683844A060DBF800003844CBF816
:205520000000ED1B002D7FF43AAF00BFD4E90201884201D9A068E060A07940F02000A071F5
:20554000002010E72DE9F04104462046FFF73FFD0646002E3BD1A07900F02000002836D02E
:20556000A07900F0400078B121684878012304F12801A269FEF751FB10B10120BDE8F081EA
:20558000A07920F04000A071E1692068FEF702FC0646E6B9256AE87A40F02000E872E068FE
:2055A000E86128462169FEF70CFFFEF78AFB0746C5F8167000206882A07920F02000A0713C
:2055C0000120216808712068FEF7FDFB06463046D4E770B505462846FFF7B4FF044634B9F8
:2055E0002846FFF7F4FC04460CB900202860204670BD2DE9FE4F04460D462046FFF7E7FCCE
:205600000290029810B10298BDE8FE8FE07908B1E079F9E7606A002871D0681C00283BD19B
:20562000D4F8248058F804AB4FF0020926693EB300BF00964FF0000B09F1020900BF019637
:205640000BF1010B31462068FEF701FC0646012E02D80220E071D7E7701C10B90120E07104
:20566000D2E70198401C8642E9D0D14504D848F804BB009848F8040B20684069B042D8D850
:20568000606AC0F80090D14503D80020C8F8000047E01120029044E0E068A84200D2E568C8
:2056A000A560002D3DD0691E2046FEF75EFD606161692068FEF7BEFB074617B90220E0711D
:2056C000A2E720688078401E691E00EA512007442089C0F3080020B3A069B84221D0A079F2
:2056E00000F0400080B121684878012304F12801A269FEF792FA18B10120E07184E711E09B
:20570000A07920F04000A0712168487801233A4604F12801FEF760FA10B10120E07173E728
:20572000A761ABE0E068A84204D2A07900F0020000B9E568D4F808904FF00008C4F80880CE
:20574000002D67D0206880784702B9F1000F11D0681EB0FBF7F1A9F10100B0FBF7F0814279
:2057600008D3A9F10100791E8843A060A0682D1A666912E026697EB900212068FEF78AFC57
:205780000646012E02D10220E0713DE7701C10B90120E07138E726616661C6B323E0A0795B
:2057A00000F0020038B131462068FEF773FC064636B93D4619E031462068FEF748FB064671
:2057C000701C10B90120E0711EE7012E03D920684069B04202D80220E07115E76661A068B7
:2057E0003844A060ED1BBD42D9D800BFA0682844A060C5F3080050B131462068FEF71AFB78
:205800008046B8F1000F03D10220E071FCE601E008EB55282089C0F3080020B3A0694045CB
:2058200021D0A07900F0400078B121684878012304F12801A269FEF7F0F910B10120E0715E
:20584000E2E6A07920F04000A071216848780123424604F12801FEF7BFF910B10120E07113
:20586000D2E6C4F81880D4E90201884205D9A068E060A07940F02000A07100BF0298C3E6F0
:2058800033B59FB0044614B9092021B030BD002220A91EA8FFF74FFA05462DBB1E9820607A
:2058A0001BA8A06101A8E06120462099FFF7ACF90546B5B9606958B16069C07A00F01000F2
:2058C00028B161691E98FEF773FDA06000E005253DB91E98C088A08000212046FEF75EFC16
:2058E0000546042D00D105250DB1002020602846CBE770B504462046FFF769FB05460DB973
:2059000000202060284670BD70B59EB004460E462046FFF75CFB05461DBB2EB900212046F7
:20592000FEF73CFC05461CE01BA8A06101A8E06100212046FEF7BCFE0546042D02D10020A0
:20594000206100256DB931462046FEF7E2FF00212046FEF777FC0546042D02D100202061E9
:20596000002528461EB070BD33B5A7B00D46002227A91EA8FFF7DFF9044694B91BA8249073
:2059800001A825901EA82799FFF73EF9044644B9239828B12DB129461EA8FEF7BAFF00E07A
:2059A0000624204629B030BD2DE9F74F82B08A46002202A90498FFF7BEF901900498046884
:2059C0000198002861D1D4E90410801E814203D82069CAF8000058E094F800B00025BBF137
:2059E000010F18D1022600BF31462046FEF72FFA0746781C10B9012001900BE0012F02D182
:205A00000220019006E007B96D1C701C064661698842E9D332E06669206A00904FF0000939
:205A2000C84600BFB9F1000F0ED10098421C014620460092FEF7AEF90190019800B11CE059
:205A400004F130084FF40079BBF1020F08D1B8F8000000B96D1C08F10208A9F1020909E044
:205A6000D8F8000020F0704000B96D1C08F10408A9F10409701E0600D4D100BF2561607951
:205A800040F001006071CAF80050019805B0BDE8F08F70B504462046FFF799FA054645B9D9
:205AA000E07908B1E57904E0A07900F0020000B90725002D47D1D4E90210884241D9A068A2
:205AC000E060A07940F02000A071A06838B921692068FEF7A9FA0546002020611DE06169B6
:205AE0002068FEF7B4F906460025701C00B90125012E00D1022585B920684069B0420CD933
:205B00006FF0704261692068FEF70BFA054625B931462068FEF788FA054695B9A07900F0E7
:205B2000400070B121684878012304F12801A269FEF773F808B1012503E0A07920F04000E3
:205B4000A07105B1E571284670BD71B5AFB001222FA926A8FFF7EFF80446002C49D11AA810
:205B60002C90CDF8B4D026A82F99FFF74DF8044600BF002C3DD12B9E0EB9062404E0F07A04
:205B800000F0010000B1072431462698FEF710FC0546ECB9F07A00F01000C8B1022D01D22D
:205BA000022415E0242226A91DA8FEF78FF81F9502211DA8FEF7F2FA04464CB900211DA8C2
:205BC000FEF776FD044604B90724042C00D100247CB926A8FEF768FE044654B925B129460C
:205BE0002698FEF721FA04461CB92698FEF7EBF80446204630B070BD2DE9F147A7B0FEF7CB
:205C000060F88246012227A91EA8FFF794F80546002D7DD11BA8249001A825901EA8279908
:205C2000FEF7F2FF054605B9082500BF042DF0D100211E98FEF72EFA0646002506B9072547
:205C4000012E00D10225701C00B901251DB91E98FEF77AF80546002D51D131461E98FEF703
:205C6000E9F880461E9800F130044FF4007200212046FEF742F80B2220212046FEF73DF839
:205C80002E2020701020E072C4F816A031462046FEF797FB2022214604F12000FEF716F80D
:205CA0002E2084F82100DDF880901E980078032804D11E98406A484500D1A946494604F1B5
:205CC0002000FEF77EFB1E98877815E01E98C0F82C8008F1010801201E9908711E98FEF774
:205CE00033F8054605B109E04FF4007200212046FEF703F8781EC7B2002FE7D100BF1DB9D8
:205D00001EA8FEF737FD054635B131461E9800E012E0FEF789F90FE0239C1020E072C4F801
:205D200016A031462046FEF74CFB01201E9908711E98FEF748F80546284628B0BDE8F087AB
:205D4000F7B5A6B00F461446012226A91DA8FEF7F2FF0646EEB91AA82390CDF890D01DA8A3
:205D60002699FEF751FF064600BF96B9229D0DB906260EE004F0270407EA0400E97AA143CB
:205D80000843E87201201D9908711D98FEF71BF80646304629B0F0BD73B5A6B00D46012215
:205DA00026A91DA8FEF7C7FF0646CEB91AA82390CDF890D01DA82699FEF726FF064600BF7E
:205DC00076B9229C0CB906260AE0E888E082A888208301201D9908711D98FDF7F4FF06461E
:205DE000304628B070BDF3B5B5B0012235A92CA8FEF7A1FF0446002C10D12C9823901AA821
:205E00003290CDF8CCD02CA83599FEF7FDFE044600BF002C74D1319808B9042470E0319888
:205E200000F10B0115221DA8FDF750FF24222CA923A8FDF74BFF36A8FEF72EFF002805DBFA
:205E400023A83699FEF7E0FE044600E00B2404B90824042C54D123A8FEF78CFC0446002C80
:205E60004ED1289D13220DF1760105F10D00FDF72DFF9DF8740040F02000E87201202C99D8
:205E8000087125992E98884230D0E87A00F0100060B329462C98FEF78BFA074639462C9889
:205EA000FDF7C8FF06460EB902241FE031462C98FDF770FF04462C9800F15005B4B96878B0
:205EC0002E2813D12C980078032806D12C992598496A884201D1002000E0259806463146F9
:205EE0002846FEF76EFA01202C99087144B92CA8FEF7DAFC04461CB92C98FDF764FF044658
:205F0000204637B0F0BD2DE9F74F90B0164610A8FEF7C2FE0F900F98002803DA0B2013B0E9
:205F2000BDE8F08F1198012801DD1320F7E7701E304008B11320F2E7FE490F9851F820B0B2
:205F4000BBF1000F01D10C20E9E700208BF800000F98C0B20C9000200B900C98FDF72CFEE3
:205F60000190019800F0010008B10320D7E7019800F0040008B10A20D1E700BF04AA0121B5
:205F80000C98FDF76AFE10B90498802801D20120C5E7119808B1002000E03F20824604982F
:205FA000A0EB0A0004909EB94FF4FA610498B0FBF1F00A904FF0000801E008F10108DE48B1
:205FC00030F818100A988142F7D8DC4830F81860760A06B90126802E00D980260498B0FB9F
:205FE000F6F7012540F6F670874200D302254FF6F670874200D30325032D0BD1082000EBA1
:20600000870000F2FF104FEA5029202003900020029012E0012D05D107EB4700401C4008EE
:20602000C01C01E07800001D814609F2FF104FEA502901200390202002900398504407903F
:20604000079848440690029906980844059005983044A0EB0A000499884201D90E205EE70B
:2060600009AA03210C98FDF7F8FD28B9099818B10998B0F5004F01D9012009900999059809
:206080000844401E491E8843099009990598081A0990032D08D109990398084403900999CA
:2060A00007980844079001E009988144DDE90301081AA0EB09010298081AB0FBF6F7022D13
:2060C00003D140F6F670874205D3032D05D14FF6F670874201D20E2021E7032D02D10C20FD
:2060E0000D9010E0012D06D10498B0F5803F02D201200D9007E00498B0F5803F01D204209E
:2061000000E006200D9000BF119810B1F0200E9035E04FF4007200210BF13000FDF7EDFD10
:206120000BF5F77401206070A0700020E0700D982071FE206071049850443F21B0FBF1F042
:20614000FF21B0FBF1F009903F21099841EA9000A0710998E0713F20A0600498E0604AF6C0
:206160005521ABF82E12012300220BF130010C98FDF753FD08B10120D1E6F8200E900BF128
:2061800030044FF4007200212046FDF7B6FD0B226BA12046FDF79AFD4FF40078A4F80B80DC
:2061A00066730398E08101202074032D01D1002001E04FF400708046A4F811800498B0F56B
:2061C000803F03D20498A4F8130001E0049820620E9860753F202083FF206083C4F81CA0EA
:2061E000FDF76FFD0990032D17D10998C4F84300C4F824900220E062012020860620608647
:20620000802084F84000292084F8420013224FA104F14700FDF75AFD10E00998C4F82700FB
:20622000A4F81690802084F82400292084F8260013224BA104F12B00FDF748FD4AF65520C2
:20624000A4F8FE010123524621460C98FDF7E5FC08B1012063E6032D06D101230AF10602B6
:2062600021460C98FDF7D9FC079808904FF0000849E04FF4007200212046FDF73EFD0E9892
:206280000990032D0BD0012D01D13A4801E06FF0FF00099908430990099820600AE0099867
:2062A00060F0FF000990099820604FF0FF3060600009A0600898411C024601230891214635
:2062C0000C98FDF7AAFC08B1012028E64FF4007200212046FDF711FD012009900EE0089812
:2062E000411C02460123089121460C98FDF795FC08B1012013E60998401C09900998484515
:20630000EDD308F10108B8F1000FB2D0032D01D1304600E00298804600BF0898411C0246C5
:206320000123089121460C98FDF777FC08B10120F5E521E0780000209A7D0008B07D00088D
:20634000EBFE904D53444F53352E30004E4F204E414D4520202020464154333220202000AD
:206360004E4F204E414D452020202046415420202020200000FFFF00A8F101005FEA00085B
:20638000CBD1032D1CD1F7482060F748C4F8E401781EC4F8E8010220C4F8EC014AF65520EA
:2063A000A4F8FE0101230AF1010221460C98FDF734FC01230AF1070221460C98FDF72DFCA1
:2063C000002211460C98FDF748FC08B10120A6E50020A4E52DE9FC470746884691460024EB
:2063E0003E4613E06B46012201A94846FEF7D1FE0098012800D00DE09DF8045000BF06F832
:20640000015B641C0A2D00D104E000BFA8F10100A042E7DC00BF0020307014B13846BDE84F
:20642000FC870020FBE7F8B504460E4600BF6568002D00DAF8BD28466D1C04F10C010E54E9
:206440003D2D0CDB6B462A462068FEF77AFF0098A84201D1002001E04FF0FF300546656001
:20646000A068401CA06000BFE4E730B595B004460D460295002003900490214602A8FFF782
:20648000D2FF039800280DDB01AB05A9DDE90202FEF757FF30B901990398884202D10498BA
:2064A00015B030BD4FF0FF30FAE730B595B004460D46029500200390049004E014F8011B2A
:2064C00002A8FFF7B0FF20780028F7D1039800280DDB01AB05A9DDE90202FEF732FF30B907
:2064E00001990398884202D1049815B030BD4FF0FF30FAE70FB42DE9F04F9BB0249801907D
:2065000000200290039026A81A9000BF259810F8014B259004B90DE1252C04D0214601A859
:20652000FFF781FFF2E7002006468146259810F8014B2590302C05D10126259810F8014BA9
:20654000259006E02D2C04D10226259810F8014B259009E009EB890004EB4000A0F1300925
:20656000259810F8014B2590302C01DB392CF1DD6C2C01D04C2C05D146F00406259810F82E
:20658000014B259004B9D5E02546612D04DB7A2D02DCA5F12000C5B24F2D49D006DC422D18
:2065A00043D0432D38D0442D4CD144E0532D04D0552D41D0582D45D141E01A9850F804BB42
:2065C0001A904FF0000801E008F101081BF808000028F9D106F0020048B903E0202101A814
:2065E000FFF721FF404608F101084845F6D304E01BF8011B01A8FFF716FF9BF80000002825
:20660000F6D103E0202101A8FFF70DFF404608F101084845F6D379E71A9810F8042BD1B23A
:206620001A9001A8FFF7FFFE70E7022019900EE0082019900BE000BF0A20199007E010209F
:20664000199004E0214601A8FFF7EDFE5EE700BF06F0040028B11A9800681A99091D1A9147
:206660000CE0442D05D11A9800681A99091D1A9104E01A9800681A99091D1A918246442D8E
:2066800006D10AF0004018B1CAF1000A46F00806002700BF1998BAFBF0F100FB11A0C5B2C7
:2066A0001998BAFBF0FA092D06DD782C01D1272000E007202844C5B205F13000C2B23846B2
:2066C0007F1C14A90A54BAF1000F01D0102FE1D306F0080020B12D2238467F1C14A90A5434
:2066E000B84606F0010008B1302000E02020054603E0294601A8FFF796FE06F0020020B9DB
:20670000404608F101084845F3D300BF781E074614AA115C01A8FFF786FE002FF6D103E0D5
:20672000294601A8FFF77FFE404608F101084845F6D3EBE600BF00201A900298002815DBE4
:2067400018AB04A9DDE90102FEF7FBFD70B91899029888420AD103981BB0BDE8F00F5DF89B
:2067600014FB000052526141727241614FF0FF30F2E7000010B50246802A01DA10461BE014
:2067800051B1FF2A01DD002304E0A2F18003164C34F8133018460FE0002007E0124B33F826
:2067A0001030934200D103E0431C98B28028F5DB00BF00F18003D8B210BD0246002100E01C
:2067C000491C0A4830F8110020B1084830F811009042F5D1054830F8110018B1044830F814
:2067E000110070471046FCE7C67D0008C67E0008A6800008FE4A1070704730B1FC490968BD
:2068000041F48071FA4A116005E0F949096821F48071F74A1160704730B1F549096841F4D1
:206820000071F34A116005E0F149096821F40071EF4A1160704730B1ED49096841F4806124
:20684000EB4A116005E0EA49096821F48061E84A11607047E648006840F40060E4490860FA
:206860007047E348006840F48050E14908607047DF481030006800F0004028B1DD48DC495F
:20688000091D0860DC4808607047D9481030006840F00040D6491031086070470920D44929
:2068A0000C31096801F48031B1F5803F01D1012020E0CF490C31096801F0100109B1062084
:2068C00018E0CB490C31096801F4807109B1022010E0C7490C31096801F0E00109B10720DB
:2068E00008E0C3490C31096801F0020109B1082000E00920704708B509200090FFF7CEFF27
:20690000009002E0FFF7CAFF00909DF800000128F8D09DF8000008BD70B504460A460026F1
