:020000040800F2
:20000000E09000202D1F00089503000897030008990300089B0300089D03000800000000C8
:200020000000000000000000000000003F1F00089F03000800000000431F0008451F0008DA
:20004000471F0008471F0008471F0008471F0008471F0008471F0008471F0008471F000830
:20006000471F0008471F0008471F0008471F0008471F0008471F0008471F0008471F000810
:20008000471F0008471F0008471F0008000000000000000000000000000000008B0600087D
:2000A000471F0008471F0008471F0008471F0008471F0008471F0008471F0008471F0008D0
:2000C000471F0008471F0008471F0008471F0008471F0008471F0008471F0008000000001E
:2000E000471F0008471F0008471F000800000000000000000000000000000000471F000848
:2001000000000000C51D0008471F0008471F00080000000000000000000000000000000019
:20012000471F0008471F0008471F0008471F0008471F000800000000000000000000000099
:20014000000000000000000000000000A1030008471F0008471F0008471F0008471F00083B
:20016000471F0008471F0008000000000000000000000000000000000000000000000000A3
:2001800000000000471F00080000000000000000471F0008471F000800F002F800F03CF807
:2001A0000AA090E8000C82448344AAF10107DA4501D100F031F8AFF2090EBAE80F0013F06B
:2001C000010F18BFFB1A43F001031847886A0000A86A0000103A24BF78C878C1FAD85207B8
:2001E00024BF30C830C144BF04680C60704700000023002400250026103A28BF78C1FBD8D2
:20020000520728BF30C148BF0B6070471FB506F05EFA1FBD10B510BD05F063FE1146FFF751
:20022000F5FF00F009F805F081FE03B4FFF7F2FF03BC05F085FE00002DE9F0414FF4407056
:2002400002F054F800F0B2F90221464802F079FB454F4FF40071384602F073FB01F0E6FFB2
:200260004FF4FA7000F073F9404C0025657001F08AFF60806078401CC0B260700528F6D329
:200280004FF45D666088B04203D201F07CFF6080F8E700F041FA4FF4FA6000F058F9402114
:2002A000384602F038FB012803D18021384602F046FB01F0C7FE00F055F9207000F024FABA
:2002C00020782B4E58B301222AA1002003F044FE207002F08FFD00F059FA274F0021384659
:2002E00002F01DF9384602F059F8204831210C300170457006218170C57001F0FCFF1F4978
:200300004FF40030C1F880010021400102F0B6FC0021F81402F0D0FC00F009FA17E000F065
:20032000F3F901F054FE68B100F0F2F9BFF34F8F13490868134A00F4E06010430860BFF340
:200340004F8FFEE700F0E4F90FA004F0A8FA72B67068A0606060316881F308888047002084
:20036000BDE8F08100000240000402400000002000000108303A2F005864024004E000E05B
:200380000CED00E00400FA05303A2F416B65792E62696E007047FEE7FEE7FEE7FEE77047F5
:2003A00070470000534810B5016841F4700101605148016841F0010101604F4A002108322C
:2003C000116002684D4B1A400260031D4C4A1A60026822F48022026047480C30016000F01E
:2003E0003AF844494FF000608039086010BD70B5414D002208352868424B434910F00C00EA
:2004000004D0424E042803D0082803D00B6018E00E6016E03848001D03680468C3F38053B2
:2004200004F03F042BB1B6FBF4F20368C3F388135A430068C0F30140401C4000B2FBF0F034
:2004400008602868304AC0F30310121D105C0A68C2400A6070BD0CB5002227490092019246
:20046000086840F4803008604FF4A043086800F4003001900098401C0090019810B90098F7
:200480009842F3D10868800332D5012001901A484030026842F0805202601D48026842F46B
:2004A00040420260144808300268026002680260026842F480520260031F164A1A600A68EA
:2004C00042F080720A600A689201FCD5124A40F202711160016821F003010160016841F0CD
:2004E000020101600168C1F381010229FAD10CBD01920CBD88ED00E000380240FFFFF6FE1D
:20050000103000240024F4001000002000366E01007000400C304108003C02400020401C5B
:200520001928FCD3704700B5002140F2A732FFF7F5FF491C9142FAD300BD00B50246002149
:2005400002E0FFF7EBFF491C9142FAD300BD10B50446002302E0FFF7E6FF5B1CA342FAD3FF
:2005600010BD000010B500F08CFD012209A10A4803F0F2FC08B1012010BD032207A10A48AA
:2005800003F00FFD08B1022010BD074803F040FF002010BD303A2F0074000020303A2F413F
:2005A0006B65792E62696E00A40200202DE9F04101218F0386B0384602F07EFB0121032066
:2005C00002F05CFB01258DF8045000248DF8064003208DF80500DFF8A08148F203068DF877
:2005E000074069464046009602F044F93146404602F0A7F944F28B20604E009069463046E7
:2006000002F038F940F28B21304602F09AF93946304602F094F941F65C7000908DF804400E
:200620006946404602F026F948F2701000906946304602F01FF98DF80440022040278DF824
:20064000070000976946304602F014F90621012002F0BEFC8DF80C400C208DF80D000297BC
:200660008DF80E5002A802F037F817208DF810000E208DF811008DF812408DF8135004A8D1
:2006800001F039FE06B0BDE8F0812DE9FC41002640208DF80460012400908DF8064002F032
:2006A00074F8364F4021384602F035F9344D01280AD04021384602F02EF9002810D1681E3F
:2006C0002E70017819B103E02C700C2001E0047008208DF805008DF80640684601F0FCFF22
:2006E000BDE8FC814FF40041234802F028B94FF40041214802F025B90121204802F01FB905
:2007000001211E4802F01DB902211C4802F017B902211A4802F015B910B54FF480411748D3
:2007200002F00FF9BDE810400520FFF710BF1CB500214FF4006002F0BFFA4FF4507000900D
:2007400000208DF8040002218DF805108DF806008DF807006946084802F08CF848F230003D
:20076000064C00906946204602F084F84FF48041204602F0E4F81CBD00000240000402407B
:200780002500002072B6704762B67047FE4900200860091D0860091D0860091D0860FA49AA
:2007A00024310860091D0860091D0860F64AF74938321160111D086070470021012803D09B
:2007C00010B1262108467047F14A5070FAE7EE4A121D116821F0FF0101431160704710B50E
:2007E0000446E9483430016811F0450FFBD0042002F0BBFB20B1042002F0C0FB032010BD33
:20080000012002F0B2FB20B1012002F0B7FB012010BDDD4810300068A04201D0102010BD17
:2008200040F2FF5002F0AAFBD7481430006800F0080010BD2DE9FC5F0024D64F00944FF47F
:20084000806801944025C7F81080C7E902540E464FF0080B1021C7E900B1A146384602F0D2
:20086000FFFA1020FFF7BBFF002858D1C848AA464D460089000438603720C7E9010AC7E9D4
:200880000398384602F0ECFA3720FFF7A8FF002845D1411E07F11400C0E9001B30218160D4
:2008A0000221C0E903150121416102F0FFFA0320FFF743FE3320C7F808A0C7E90050C7E9E1
:2008C0000358384602F0CCFA3320FFF788FF050025D1DFF8B482DFF8B0924FF4001B6F4683
:2008E00008F1800809F1340940F22A6AD9F8000010EA0A0F0BD1584602F037FB0028F5D00B
:20090000D8F8000047F82400641C022CEED3082002F02BFB28B1082002F030FB0420BDE80E
:20092000FC9F022002F021FB20B1022002F026FB0220F4E7202002F018FB20B1202002F0A1
:200940001DFB0620EBE74FF40074204602F00DFB20B1204602F012FB0720E0E740F2FF50CB
:2009600002F00CFB009800BA7060019800BA30602846D4E72DE9FC4100260096354601962F
:2009800000B10225804814300068800102D50E20BDE8FC817E4C6946208980B2FFF74AFFD0
:2009A0000028F5D10198400322D52089794C00044FF0400820603720C4E901084FF48067C6
:2009C0002046C4E9036702F04BFA3720FFF707FF0028DDD10620C4F80880C4E90050C4E926
:2009E0000367204602F03CFA0620FFF7F8FECFE72520CDE710B566490446002009780329B3
:200A000018D019B1012901D0022912D1B4F5805F10D0E0B2FFF7AEFF00280AD15A49091DB2
:200A20000A6822F4C0520A600A6822430A600A680A6010BD272010BD564910B508600720C1
:200A40004860402088600020C8604FF480600861084602F005FABDE810400720BFE62DE9BC
:200A6000F0474B49DFF82CA14FF0000C0B7880F8563009890AF12C0AA0F85410DAF800109A
:200A80004FF001090A0E95090570C2F38305457002F0030282700A0CC2700A0A0271417186
:200AA000DAF80420110E0C01C2F3074144EA111401F00F08C480C2F3072180F80880CC09C6
:200AC0004472C1F380148472C1F34014C472C1F300140473544680F80DC0A468260EC4F3CF
:200AE0000745C4F3072733B1012B04D0032B02D0022B30D03EE08907090DD2B241EA8201BE
:200B000041EA9612C6F3C2010261017506F00701417569098175C5F38201C175A9074B0F16
:200B2000394643EAD1150576AD1C09FA05F3DE17521CA2FB03570CFB037302FB063309FAD4
:200B400008F2A5FB0267026503FB027205FB0C22C0E912620EE09106890A41EA06222A4396
:200B60000261521C530BD204C0E912234FF4007239460265C1F38012427689064A0EE1B27F
:200B800042EAD11208E00000002C0140FF07C00028000020E804002000F81A2F01F07F0125
:200BA0004170DAF80C20110ECB098370C1F34113C370C1F38203037189070B0FC2F3074111
:200BC00043EA91134371C1F34013837180F807C001F001010172C2F30721CB094372C1F3D6
:200BE00080138372C1F34013C372C1F300130373C1F38103437301F003018173C2F3460121
:200C0000C1734B4680F81090FE4A11680C0E84740C0CC1F3072545EA042484820C06516804
:200C20000D0E44EA0544C1F3074544EA0524C1F307252C43C0F8164000F81A1F91680C0E2A
:200C400044700C0CC1F30725240644EA0544C9B244EA0124D16844EA11644460047AC1F3C7
:200C6000074244EA121404721207C1F3072444EA12524281C1F34601017343736046BDE8A4
:200C8000F08710B500244FF48031DF4809E0026812F0450F05D009B1500705D50324042025
:200CA0000CE0491EF3D2F7E7012002F05EF918B10124204602F062F940F2FF5002F05EF969
:200CC000204610BD70B50646CF480D460024026812F0450FFBD0042002F047F920B104200C
:200CE00002F04CF9032070BD012002F03EF920B1012002F043F9012070BDC34824380068E6
:200D0000B04212D140F2FF5002F038F9BE482038026812F4604F03D0900404D5132070BD3D
:200D2000100C288007E0500401D5102070BD100401D50F2070BD204670BD2DE9F84F01202A
:200D4000ADF8000002F086F8C8B3B04F387804287ED0AC4C00253C3C0220E4E80250C02025
:200D60004FF4806684E86100A648083C3C3802F077F8FFF786FF002823D1DFF88CA2AAF13F
:200D8000200ADAF800109F480AF1040B0160DBF8001041600BF10401096881609A491439EE
:200DA0000968C16038784FF003084FF0400950B1012808D0062806D0022804D011E0FFE744
:200DC0002520BDE8F88F84E820038E48C4E903563C3802F045F869460320FFF773FF002832
:200DE000EFD1387803280ED1BDF80000000484E801038448C4E903563C3802F031F8FFF7F9
:200E000040FF0028DDD13878042823D0BDF80000B860000401C4092001C4C02084E86100BD
:200E200078483C3802F01CF8FFF72BFF0028C8D1DAF80010734810380160DBF800104160CD
:200E400071491839096881606F491439096800E000E0C1600020B4E710B56B49086810F03A
:200E6000450FFBD0042002F080F820B1042002F085F8032010BD40F2FF5002F07FF8002067
:200E800010BD10B500244FF480325F4809E0016811F0450F05D00AB1480705D50324042055
:200EA00006E0521EF3D2F7E7480603D50024402002F064F8204610BD70B500254FF48034CD
:200EC00005E0802002F051F808B144B101E0641EF7D240F2FF5002F051F8284670BD0320FE
:200EE00070BD2DE9F05F00274648762154383E460175076047608760C7603C463D46B9466E
:200F0000B846076101F082FF032001F09FFF3E483038016841F480710160DFF8E8A04FF4C7
:200F2000806BAAF13C0A3748CAF80080CAF80480CAF80880CAE9038B3C3801F091FFFFF768
:200F4000BBFF28B17F1CFFB24A2FECD3BDE8F09F4FF4D570CAF8000008205746CAF8040071
:200F60004020C7E902080001CAF8100025483C3801F076FFFFF785FF20B9244901204FF01D
:200F800080490870BA46384641463722402780E88600C0F80C801B483901C3463C38CAF83D
:200FA000101001F05DFF3720FFF719FC4FF6FF7880B35646DFF85090BA464FF4806B0127CA
:200FC000A9F120093DB354E055463720C5E900B04FF48068CAF810800A48C5E9027B5E463C
:200FE0003C3801F03DFF3720FFF7F9FB0028ADD1074949EA010028602920C5E90107C5E9B0
:20100000036809E024050020342C014028000020000010800BE02AE0FA4801F021FFFFF77C
:201020001BFF002892D1F8490E68F50F641C1DB94FF6FF718C42C7D34FF6FF718C421AD26E
:2010400016F0804F82D0022218E0F04886E881040020C6E9030BEB4801F002FFFFF7FCFE30
:201060000028C4D1D9F80010CD0F641CAAE74445EBD3444501D31B2068E70322E4490A70EB
:2010800064E72DE9FE4300240121E24801F0F6FD0121CE02304601F00FFE0121304601F06B
:2010A00033FE4FF45070009002208DF804008DF805000025DFF860938DF8065001278DF8C0
:2010C00007706946484601F0D5FB48F23000DFF84C8300906946404601F0CCFB0C220621B9
:2010E000484601F03BFC0C220821484601F036FC0C220921484601F031FC0C220421404655
:2011000001F02CFC0C220521404601F027FC0C220F21404601F022FC0021304601F0F4FD5C
:20112000FFF734FB31208DF808008DF8095006208DF80A008DF80B7002A801F0DCF8FFF7B4
:20114000D0FEB04D503580B9FFF7F7FD68B92846FFF785FC48B9B5F854000004FFF76CFCB2
:2011600018B93046FFF746FC18B1A949097803290BD195F8560008B1012800D1022420468A
:20118000FFF725FB0020FFF718FBBDE8FE8310B5002001F05BFE002010BD70B5A04E90B07B
:2011A00015460446304601F0FEF90028FAD1304601F0F4F84FF000600090934801A96C3096
:2011C00081E8310000204FF480610490CDE90501890007918900CDE908104FF440300A901C
:2011E00004200B9003200C9048020D9080100E906946304601F05AF92021304601F0A3F9AF
:201200000121304601F08BF910B070BD002102E04008491CC9B20128FAD1084670472DE99A
:20122000F84F17460A9E05004FF0FF3466D0DFF8D8A100200AF1180ACAF80000DFF8D0912E
:2012400099F80010022903D10E02570A47EAC35701466C4801221430A0468160C0E900411F
:20126000C160C0E9041201F021FE67480068800101D50E20A5E5701EB0F5006F3ED206425E
:201280003CD13046FFF7C2FF00905E4810214FF4806BC0E90061402181600021C0E9031B4B
:2012A00001F0DEFD1020FFF79AFA0028E2D10098010154481430C0F80080C0E901610121EE
:2012C000416102214FF00008C0E9031801F0EEFD4C481121E0E80271402180E802094948FC
:2012E00001F0BEFD1120FFF77AFA0700C2D199F80100494620B101285BD081E0262060E5DB
:2013000072B6414EDFF800916C364FF4004BDFF8148109F1200940F22A6A10E0584601F0AA
:2013200024FE48B10020316845F82010401C0828F9D34446203502E0002C77D0641ED9F88D
:20134000000010EA0A0FE9D0082001F00EFE18B1082001F013FE69E0022001F006FE20B178
:20136000022001F00BFE02202BE5202001F0FDFD20B1202001F002FE062022E54FF400740E
:20138000204601F0F2FD38B1204601F0F7FD072017E5306801C501E04FF40014204601F0C3
:2013A000E4FD0028F5D162B640F2FF5001F0E6FD26E04046C846C8708870087112492831FA
:2013C000086840F22A3210430860DAF8001041F00801CAF80010002231462846FFF7DDFE8E
:2013E0000F494046583900E0641E0A68120103D402790AB9C278BAB1C4B1C17801B1C7783E
:201400003846DEE4E8040020142C01400080FF8028000020030040000000024000040240ED
:2014200058640240FFFF7F00002CDDD10420C8E42DE9FF5F82B0DFF8F8B3DDE91068029986
:20144000CBF80C10FB49002517464FF0FF340D609BF80000022803D10602570A47EAC357C3
:20146000DFF8D49301214846C9F80850C9F81410C0E90045C9F80C50A246C9F8105001F07B
:2014800015FDEC4818380068800102D50E2006B05CE5701EB0F5006F21D206421FD130468E
:2014A000FFF7B4FE0090E44810211438C0E90061402181600021C1604FF48061016101F046
:2014C000CFFC1020FFF78BF90500E0D14046B8F1010F36D900FB06F8B8F1007F01D3262058
:2014E000D5E70098C9F800A001014846C0E901810121C9F814104FF000090221C0E9031945
:201500004D46CD4801F0D2FCDFF82CA31221AAF1140A5046C0E900714021CAE902150901ED
:20152000CAF8101001F09CFC1220FFF758F90500ADD19BF801005E4640F22A3110B1012895
:2015400077D09FE072B6BB4FDFF8F0B25437884613E04FF4004001F008FD58B1F1680020D3
:201560003A6841F82020401C0828F9D320315C46F16002E0002C7BD0641EAE480830006843
:2015800010EA080FE5D0082001F0EFFC18B1082001F0F4FC6CE0022001F0E7FC20B102207A
:2015A00001F0ECFC022072E7202001F0DEFC20B1202001F0E3FC062069E74FF40074204658
:2015C00001F0D3FC48B1204601F0D8FC07205EE73968F06802C0F06001E04FF40014204612
:2015E00001F0C3FC0028F3D14FF4807001F0BDFCC0B1307818B1012801D0022812D15046F3
:201600000C22C0E900924022CAE902298A4811011438CAF8101001F023FC0C20FFF7DFF806
:201620000500C0D162B640F2FF5001F0A7FC29E0FFE786F803900122B27086F804907D48CB
:20164000103002680A4302607A48016841F008010160414600220298FFF79FFD784800E0F6
:20166000641E0168090102D4002CF9D100E00CB904200CE7307910B9F0780028FAD0F078B9
:2016800000B1F578284602E71CB504460021684800910191008902046748143802600D22AB
:2016A00042604022C0E902211101016101F0D8FB6049083108680190024601E00A68019211
:2016C00012F0450FFAD0012001F04FFC20B1012001F054FC01201CBD042001F046FC20B138
:2016E000042001F04BFC03201CBD52481C3800680D2801D010201CBD40F2FF5001F03EFC81
:201700004C48183800680090C0F34320207000201CBD2DE9FC5F4FF000050C9F90469B4637
:2017200004008DF800502E46B94661D0414805604148691E8560C0E900150121C560C0E99B
:20174000045101F0B3FB3B4818380068800102D50E20BDE8FC9FDFF8D8A09AF80000022889
:2017600004D107024FEA582040EACB58781EB0F5006F3DD207423BD13846FFF747FDDFF8F0
:20178000B8B00190ABF1140B58461021C0E900714021CBE902150901CBF8101001F060FB47
:2017A0001020FFF71CF80028D3D12148DA4600890104CBF800100D215846CBF80410402135
:2017C000C0E902151C480901AB461438CAF8101001F046FB0D20FFF702F80028B9D115495D
:2017E00018390868DA464FF0FF35DFF844B019E02620AEE7BBF808006D1E01040E48143809
:2018000001600D2141604021C0E9021A0901016101F026FB0D20FEF7E2FF002899D1054812
:2018200018380068C0050DD4002DE3D139E00000280000202C2C0140FC040020FFFF7F00D2
:20184000006402406DB3FE4818215546C0E900814021C0E9021A0901016101F001FB1820C7
:20186000FEF7BDFF0028C4D18BF802500198DA460201F3484FF0FF3B14302946C0F800B09A
:20188000C0E901720122C160C0E90412A8465D4601F00CFB9AF8010028B15646012861D03E
:2018A00095E0292055E772B6E64FDFF8988340F21A6AA8F14C0824E04FF4804001F055FBF4
:2018C000E8B1A9EB060020280DD281074FEA900100D0491C002003E004CC3A60401C361D0B
:2018E0008842F9D308E0002054F820103960401C0828F9D3203420366FF0404501E085B336
:201900006D1ED8F8000010EA0A0FD5D0082001F02CFB18B1082001F031FB56E0022001F01D
:2019200024FB20B1022001F029FB022011E7102001F01BFB20B1102001F020FB052008E70E
:201940004FF40074204601F010FB20B1204601F015FB0720FDE662B640F2FF5001F00EFB99
:2019600035E032E086F8038086F8028086F80480B4484438016840F21A32114301604022C7
:2019800039462046FFF709FCAE485438016841F008010160AC4800E06D1E0168090102D439
:2019A000002DF9D102E00DB1584603E0FFF769FB0BE0401E317909B9F17821B128B1F07884
:2019C00028B1F078C5E60028F3D10420C1E640F2FF5001F0D3FA6846FFF756FE0028A5D18F
:2019E0009DF800100729F6D00629F4D0B1E62DE9FC5F4FF00001DDE90C6791469B4604001C
:201A00008DF800100D4607FB06FA46D08D48543801608B484A1E14308160C0E900210122B7
:201A2000C160C0E9041201F041FA86486C380068800101D50E208CE684480078022804D186
:201A400006024FEA592040EACB59701EB0F5006F23D2064221D13046FFF7D8FBDFF8E0B106
:201A6000019058461021C0E900614021CBF808100021CBF80C104FF48061CBF8101001F0C8
:201A8000EFF91020FEF7ABFE0028D4D1012F65D907FB06F8B8F1007F01D3262059E66B4821
:201AA000007818B1012801D002282BD167484026008901045846CBF800103721C0E9011699
:201AC0000021CBF80C1031015D48CBF8101001F0C7F93720FEF783FE0028ACD15846172153
:201AE000CBF80070C0E901160021CBF80C1031015348CBF8101001F0B3F91720FEF76FFE0D
:201B0000002898D14E481921C0E9009140214FF00009C0E902190901016101F0A1F919208D
:201B2000FEF75DFE002886D101984FF0FF3601014348012714300660C0E90181C0F80C90EB
:201B4000C0E9049701F0B2F9DFF800B140F21A319BF8010018B15D46012879D0B0E072B676
:201B6000384F884625E04FF4804001F0FEF9E8B1AAEB050020280DD281074FEA900100D0A4
:201B8000491C002003E004CC3A60401C2D1D8842F9D308E0002054F820103960401C08288E
:201BA000F9D3203420356FF0404602E0002E0DD0761E24484C38006810EA080FD3D0082016
:201BC00001F0D3F918B1082001F0D8F976E0022001F0CBF920B1022001F0D0F90220B8E5FC
:201BE000102001F0C2F920B1102001F0C7F90520AFE54FF40074204601F0B7F920B12046A9
:201C000001F0BCF90720A4E54FF4807001F0ADF900B39BF8000018B1012801D0022819D187
:201C200007480C22C0E900924022C0E902291101016101F015F90C20FEF7D1FD002808E044
:201C4000E8040020802C0140006402402800002006E0C4D162B640F2FF5001F08FF92FE001
:201C600085F80390AF7085F80490AC4802680A430260414640222046FFF78FFAA748103812
:201C8000016841F0080101603046A54900E0401E0A68120102D40028F9D100E018B9FFF7AA
:201CA000F0F90BE0761E287908B9E87820B12EB1E87828B1E8784CE5002EF3D1042048E53D
:201CC00040F2FF5001F05AF96846FFF7DDFC002885D19DF800100729F6D00629F4D038E599
:201CE0002DE9F0414FF4807001F03FF98B4C8D4D4CF23A3610B3A878002101280ED0E9707E
:201D00008648001F016841F4807101602068B043206001202871E878BDE8F08182480C22C3
:201D2000C0E900124022C0E902211101016101F097F80C20FEF753FDE870E1E7022001F022
:201D400014F940B1022001F019F92068B04320600220E870E0E7082001F007F940B10820F2
:201D600001F00CF92068B04320600420E870D3E7202001F0FAF840B1202001F0FFF8206878
:201D8000B04320600620E870C6E7102001F0EDF840B1102001F0F2F82068B0432060052083
:201DA000E870B9E74FF40077384601F0DEF80028B2D0384601F0E2F82068B0432060072017
:201DC000E870A9E78CE710B5040019D0554800890104554801600D2141604021816000219B
:201DE000C1604FF48061016101F03AF80D20FEF7F6FC002803D1494928390968216010BD57
:201E0000262010BD08B5002000906846FFF7DBFF08B1FF2008BD0098C0F3432008BD2DE99E
:201E2000FC4780463F480027914600783E460D4608B1EE0D4D025FEA88714FF400701BD0E2
:201E40000024824615E06002421946EBE0733648CDF800A000F1A800FFF7E1F9324907464C
:201E60005246A831404603F04BFF641C08F50078E4B24C45E7D30AE0B9F1010F0AD0CDE924
:201E800000092A4633464046FFF7D2FA07463846BDE8FC8700902A4633464046FFF7BFF968
:201EA000F4E72DE9FC470D461E490746002009789046064609B1EE0D6D02BA074FF400718B
:201EC0001AD00024894614E017484A463946A83003F016FF6002421946EBE0731248CDF883
:201EE000009000F1A800FFF714FC641CE4B207F500774445E8D3CBE7B8F1010F07D0CDE9EE
:201F000000182A4633463846FFF771FDC0E72A46334638460091FFF7FCFBB9E73C2C014009
:201F20000064024028000020E80400200948804709480047FEE7FEE7FEE7FEE7FEE7FEE799
:201F4000FEE7FEE7FEE7FEE704480549054A064B70470000A503000899010008E08A002020
:201F6000E0900020E08C0020E08C0020F8B52D4E2B480125B0602C48EF03F06028496B4610
:201F80003A4601F5004002F09BF8FEF7BDFBBDF800407460BC4210D200250EE03460B068F1
:201FA000011B70680958F268121B104400F0A0F8092801D00120F8BD241F002CEEDC71687F
:201FC000F068012D0844F060D8D00020F8BD10B5012216A1184801F0E4FF68B91648C068E8
:201FE000B0F5002F08D8104800F037F820B900F029F8FFF7BBFF08B1012010BD0E4802F02D
:2020000007FA002010BDBFF34F8F0C4801680C4A01F4E06111430160BFF34F8FFEE70000CF
:20202000900700203800002000000108303A2F416B65792E62696E00908700200CED00E0EE
:202040000400FA0503F04ABA10B5002403F063FC012800D10124204610BD70B50925002482
:20206000A0F100614FF48042914237D321490144914201D2082431E01F490144914201D2A7
:2020800010242BE01D490144914201D2182425E01B490144B1F5803F01D220241EE01949EA
:2020A0004FF400320144914201D2282416E016490844904201D2302410E038240EE002217D
:2020C000204603F04AFA05460834200702D4FEF71FFB01E0FEF718FB092D01D1302CEED9BC
:2020E000382C01D1092D01D0012070BD002070BD03F00BBB00C0FFF70080FFF70040FFF7ED
:202100000000FFF70000FEF70000FCF72DE9F0410025644F644E2C46384603F0DEFC022130
:20212000384603F0A2FD0028F9D0384603F007FD26F81400641CE4B2642CEDD30021002050
:20214000C1F163070BE006EB400436F810306288934202D926F810206380401C80B28742B3
:20216000F1DC491C89B26329E9D3142036F81010401C80B20D445028F8D33C20B5FBF0F01A
:2021800080B2BDE8F08170B5484C2DED028BFFF7BDFF20800546606804F028FA41EC180BCC
:2021A000284603F0B6FF53EC182B04F001F89FED401B53EC112B03F0FBFF41EC100B9FED77
:2021C0003E1B84ED020B53EC112B04F0EFF802D89FED3B0B0FE09FED3C0B53EC102B94ED69
:2021E000020B51EC100B04F0E1F802D89FED380B01E09FED390B53EC102B94ED020B51EC0E
:20220000100B03F0A5FE9FED360BC4E9020153EC102B94ED020B51EC100B03F0C9FF03F082
:202220004BFF80B26080BDEC028B70BD10B501218CB0080200F040FD0121084600F01EFD0A
:2022400010200A9003208DF82C0000248DF82F400AA9254800F00EFB03F084FB4FF470602A
:20226000CDE908400694079406A803F0B2FB8DF8044000948DF80540039404940120094C11
:202280008DF814006946204603F078FB072301220421204603F0E7FB0121204603F0B0FB57
:2022A0000CB010BD00200140B889002048000020334E4354E1CFF43FF6285C8FC2F50E4062
:2022C000EC51B81E85EBA13FB81E85EB51B80E409CC420B07268A13FFCA9F1D24D62A03F1E
:2022E0000000000000408F40000002402849084328490860704730B50F23C2780178012551
:20230000FAB1244A126801F1E02102F4E062C2F5E062C2F30722C2F10404D3404278A240BE
:2023200084781C401443220181F80024007800F01F018D404009800000F1E020C0F8005116
:2023400030BD01F01F0085404809800000F1E020C0F8805130BD104A114001430D48001F20
:20236000016070470B4A121D0029116801D0014300E08143116070474FF0E0210428086961
:2023800003D020F004000861704740F00400FAE70000FA050CED00E080FFFF1F2DE9F04363
:2023A000016821F0010101600021016041608160C160016121214161B849B84A3D25103927
:2023C000904202D18D60BDE8F083B44A4FF474661832904201D18E60F5E7B04A4FF47417B8
:2023E0003032904201D18F60EDE7AC4A4FF0746C4832904202D1C1F808C0E4E7A74BA84AB0
:202400006033984201D1CA60DDE7A44CA54B7834A04201D1CB60D6E7DFF88082A24C08F1A7
:202420009008404501D1CC60CDE7DFF870824FF03D5908F1A808404502D1C1F80C90C2E730
:202440009A49DFF868820839404501D10D60BAE7964D1835A84201D10E60B4E7934D3035F8
:20246000A84201D10F60AEE7904D4835A84202D1C1F800C0A7E78D4D8C496035091FA84228
:2024800001D10A609FE7894A7832904201D10B6099E7864A9032904201D10C6093E7834A85
:2024A000A83290428FD1C1F800908CE730B503687F4ACC6813400A682243D1E905452C436A
:2024C0002243CC6922430C6A22434C6A22438C6A22434C6B22438C6B22431A4302604269CA
:2024E00022F00703D1E90B2422431A4342610A6942604A6882608968C16030BD0021016048
:2025000041608160C160016141618161C161016241628162C1620163416381637047002938
:20252000016802D041F0010101E021F00101016070470029016802D041F4004101E021F451
:202540000041016070470029016802D041F0200101E021F020010160704741607047406841
:2025600080B27047002A026802D042F4002201E022F400220260016170470029016802D0BC
:2025800041F4802101E021F48021016070470AB101617047C1607047014600200968090326
:2025A00000D501207047014600200968C90700D001207047406900F03800704702463B4BC8
:2025C00000209A4202D2354A103A01E0374A103A8B0001D5526800E01268364B1A400A421A
:2025E00000D001207047314A904202D22B48103801E02E4810382F4A8B0001EA020101D5F0
:20260000C1607047816070470B0607D5436912B143F0800301E023F080034361802908D09C
:20262000002A026801F01E0101D00A4300E08A430260704730B51D4A0024904202D2174A9B
:20264000103A01E0194A103A1B4B194205D01E2303EAD12503682B4002E0406900F0800314
:20266000880001D5506800E01068124A1040084201D003B10124204630BD0C4A904202D2FD
:202680000648103801E0094810380A4A8B0001EA020101D5C1607047816070471060024065
:2026A0003D000020400F002000003D20106402403F801CF07D0F7D0F3C0F3C0F3549002024
:2026C0000860091D0860091D0860091D08603149314814310860704730B52E4A83790168CF
:2026E00053B313688B431360111D0B680468A3430B60017911440B68046823430B60254BCB
:20270000083319680468A14319601C1D21680568A94321604179102905D011440A680068A1
:2027200002430A6030BD1968026811431960216800680143216030BD0079104402688A439E
:20274000026030BD0021016001710C22427181717047104910310A6802430A6070470146F3
:202760000C4A0020143212680A4200D00120704708491431086070470146064A002014327D
:2027800012680A4200D00120704702491431086070470000003C0140FFFF7F00774910B59D
:2027A000884206D10121084600F090FA002101205BE07349884206D10121022000F086FA00
:2027C0000021022051E06F49884206D10121042000F07CFA0021042047E06B49884206D1BF
:2027E0000121082000F072FA002108203DE06749884206D10121102000F068FA0021102087
:2028000033E06349884206D10121202000F05EFA0021202029E05F49884206D10121402079
:2028200000F054FA002140201FE05B49884206D10121802000F04AFA0021802015E0574949
:20284000884202D1012184150AE05549884202D10121441504E0534988420AD10121041520
:20286000204600F033FA00212046BDE8104000F02DBA10BDF0B5002201274FF0030C0B6805
:2028800007FA02F52B40AB422CD1066853000CFA03F4A64306600E79D0F800E09E4046EAA1
:2028A0000E0606600E79012E01D0022E12D18668A64386604E79D0F808E09E4046EA0E06AE
:2028C00086604668AE43466045688E799640B6B235434560C568A543C560CC799C40C36838
:2028E0001C43C460521C102AC9D3F0BD4FF6FF7101600021017141718171C171704708B571
:2029000041F480320092C261C1610099C161C169C069009008BD0246002012690A4200D097
:2029200001207047006980B270470246002052690A4200D001207047406980B27047018340
:202940007047418370470AB101837047418370474161704742694A40426170474B07DB0EB1
:202960009A40C90810B500EB8100016A0F249C40A1430162016A1143016210BD0000024089
:202980000004024000080240000C0240001002400014024000180240001C02400020024097
:2029A0000024024000280240F648016841F001010160F44A0021083211600268F24B1A4001
:2029C0000260031DF14A1A60EE4BF14A84331A60EE4A103A1B1D1A60026822F48022026063
:2029E000E8480C300160181D01607047E5490022891C0A7008707047024600205109012933
:202A00000CD002290CD0DF497431096802F01F02012393400B4200D001207047D949F4E799
:202A2000D8497031F1E718B500204FF4A04400903120FFF7E1FF0099491C0091A14201D0EE
:202A40000028F5D03120FFF7D7FF002800D0012018BDCC4A116821F0F80141EAC00010608A
:202A60007047CC4908607047C649002270310A700A70012802D0042801D105200870704758
:202A8000C5490860704741EA82115A0810B5C34B029C03EB02421143014341EA0460B9491D
:202AA000091D086010BDBB4908667047800140EA0170B4491043843108607047B549886666
:202AC0007047800140EA0160AE4940EA0270883108607047AF4908677047AE49C8647047D0
:202AE000A84B08331A68084322F0EC62104318607047A44B08331A68084322F078421043E3
:202B0000186070479F4A0832116821F003010143116070479B480830006800F00C00704733
:202B2000984A0832116821F0F001014311607047944A0832116821F4E0510143116070474F
:202B4000904A0832116821F4604141EAC0001060704770B58B4B08331968914C11F00C017E
:202B600004D0904E042903D0082903D004601BE0066019E0834A121D1168C1F3805511686A
:202B800001F03F0115B1B6FBF1F101E0B4FBF1F114681268C4F388146143C2F30142521CE6
:202BA0005200B1FBF2F1016019680F2202EA11117D4A545C0168E14041601C68072505EAD2
:202BC0009424145D21FA04F484601B6805EA5333D25CD140C16070BDC0F30121032908D176
:202BE000684B08331968714A21F4F81102400A431A60644970310A68C0F30B0002430A6057
:202C00007047654944390860704763494039086070476049C1F85C0170475A4A8C3211681E
:202C200021F44011014311607047564A8C32116821F44001014311607047524A8C32116856
:202C4000401E21F01F010143116070474D4A8C3211686FF0FF0321F4F85103EB0020084393
:202C600010607047474A8C32116821F440310143116070474E49C1F8E0017047414A30329E
:202C80000029116801D0014300E08143116070473C4A34320029116801D0014300E081436A
:202CA00011607047374A40320029116801D0014300E0814311607047324A443200291168E2
:202CC00001D0014300E08143116070472D4A10320029116801D0014300E0814311607047D7
:202CE000284A14320029116801D0014300E0814311607047234A20320029116801D0014323
:202D000000E08143116070471E4A24320029116801D0014300E0814311607047194A5032C1
:202D20000029116801D0014300E0814311607047144A54320029116801D0014300E08143D1
:202D4000116070470F4A60320029116801D0014300E08143116070470A4A64320029116851
:202D600001D0014300E0814311607047054970310128086803D020F008000860704740F0B0
:202D80000800FAE700380240FFFFF6EA103000240030002000004742800E47420000FFFFA0
:202DA0000024F40000366E0158000020FFFCFF0F001047420E4A0029117801D0014300E03D
:202DC0008143117070470A486730016841F08071016070470146064A0020521E12680A427E
:202DE00000D0012070470249491C0870704700000D38024010B50121CC022046FFF784FF31
:202E00002046BDE810400021FFF77EBF30B5644B1A6847F6FF618A43017D8468C568214388
:202E200044682C43214304680069214301431143196030BD00210175016041608160C16041
:202E4000016170475749C1F8A00070475449091F086070475248001F006800F003007047FA
:202E60004F4A10B5121D01681160131D1968D0E901242243D0E9034004436FF30A012243E2
:202E80000A431A6010BD0021016041608160C1600161704742480C300068C0B27047404980
:202EA00008B5103108440090006808BD3C4A10B5203201681160121D41681160131D19689A
:202EC000D0E902242243D0E90440044321F0F70122430A431A6010BD4FF0FF310160002177
:202EE00041608160C1600161416170472C482C30006870472A487C300068704728497C312A
:202F00000860704726484430006870472649086070472549091D0860704723490831086043
:202F2000704721490C31086070471E49C1F8AC0170471C49C1F8B0017047012181431948C3
:202F4000C0F8B41170471749C1F8B80170471649143908607047124A38320029116801D0B0
:202F6000014300E081431160704701460C4A0020303212680A4200D00120704708493431FE
:202F8000086070470146064A0020303212680A4200D00120704702493431086070470000BC
:202FA000042C014000802542A085254210B501218C032046FFF7A8FE2046BDE81040002139
:202FC000FFF7A2BE14490860704714490862704710B58A0721F003041149120F21440F2321
:202FE000D1F8084893409C43C1F80848D1F8083890400343C1F8083810BD0849C1F8DC0032
:2030000070470849086070470349002020310968C90500D5012070470038014000002742FE
:20302000003001400004274208B104207047FEF728B8002800D00420704770B51C001546DA
:203040000E4600D008B1042070BDE2B229463046FEF7E5FE0028F7D0FEF713F8F5E770B501
:203060001C0015460E4600D008B1042070BDE2B229463046FEF715FF0028F7D0FEF701F84C
:20308000F5E710B5144648B9B9B10E4A4FF4007301290BD0022903D0032903D0042010BDC9
:2030A00023600AE0B2F85000208006E0D2E912011A46002302F000FE2060002010BD002055
:2030C00070470000380500202DE9F0410446007900B3E66A04F130016078012332460F46E0
:2030E000FFF7BDFF10B10120BDE8F08100202071206AA169301A88420CD2E57808E0A069A1
:2031000001230644607832463946FFF7A8FF6D1E022DF4D20020E7E770B50446C06A0D467B
:20312000A8420ED02046FFF7CFFF38B9607801232A4604F13001FFF780FF08B1012070BD9E
:20314000E562002070BD70B50446FFF7BDFF05002CD12078032822D1607901281FD14202CC
:2031600004F130000021064602F0F2F84AF65520A4F82E02F7482063F748C4F81402206904
:20318000C4F81802E068C4F81C02E2690123521CE26260783146FFF762FF0020607100225D
:2031A00060781146FFF76DFF00B10125284670BD4269891E921E8A4201D800207047826AA2
:2031C000807801FB002070472DE9F0410D460446022909D36069A84206D92078012805D011
:2031E000022827D0032831D001207DE7206A05EB550600EB56212046FFF78EFF68BBC6F301
:2032000008002044761C90F83070206A00EB56212046FFF781FF00BBC6F308002044E907F0
:2032200090F8300047EA002001D000095CE7C0F30B0059E7206A00EB15212046FFF76CFFF8
:2032400058B9E8B204EB4000008E4DE7206A00EBD5112046FFF760FF10B14FF0FF3043E763
:2032600040F2FF1000EA85002044006B20F070403AE72DE9F04116460D460446022902D3AE
:203280006069A84201D802202EE720784FF00108012807D0022838D0032843D0022084F87D
:2032A000048021E7206A05EB550700EB57212046FFF732FF0028F2D1C7F30800204430304B
:2032C000E90704D00178F2B262F31F1100E03146017084F80480206A7F1C00EB57212046D2
:2032E000FFF71AFF0028DAD1C7F3080121443031EA0702D0C6F3071205E00A78C6F3032388
:2033000002F0F0021A430A70C9E7206A00EB15212046FFF701FF0028C1D1E9B204EB4101B5
:203320000E86BCE7206A00EBD5112046FFF7F4FE0028B4D140F2FF1101EA850121440A6B73
:2033400002F0704232430A63A9E72DE9F0410F460446022916D36069B84213D900261FE089
:2033600039462046FFF730FF05001CD0012D09D0681C09D0002239462046FFF77AFF060072
:2033800011D103E002260EE001260CE02069411C05D0401C2061607940F0010060712F4657
:2033A0006069B842DCD830469EE62DE9F0410F00064605D0FFF708FF022808D2012093E68A
:2033C000F56815B17069A84207D8012505E0411CF5D071698142F2D83D462C467069641C46
:2033E000A04202D80224022D0AD321463046FFF7EBFE38B1411CE2D00128E0D0AC42EDD1A6
:20340000002071E66FF0704221463046FFF731FF30B957B1224639463046FFF72AFF20B1E3
:2034200001280DD0012420465EE6F4603069411CF9D0401E3061707940F001007071F2E7E1
:203440004FF0FF34EFE7426A0068490A8078B1FBF0F0121D02CA19B1884203D3401AF8E79B
:203460000020704711680844704770B5C18083680D460446012B34D020684169994230D9C5
:2034800023B90178032904D1436A13B18078060110E00189A94224D9406A11E0FFF794FEE1
:2034A0000346401C1BD0022B1BD320684069984217D9AD1B2068B5421946EFD2FFF778FE93
:2034C000E36070B100EB1510206105F00F013022206802EB411108446061002070BD01205E
:2034E00070BD022070BD2DE9F041C78804467F1C38040E46000C31D0206950B339075ED13D
:20350000401C2061E168206829B18278521E12EA171F04D053E00089B8421FD94FE0FFF7E0
:2035200053FE054601281DD9681C34D020684169A9423ED86EB1E168FFF737FF05000FD09D
:20354000012D0FD0681C26D02068FFF7BDFD10BB0AE003E052526141727241610420C3E57C
:203560000720C1E50220BFE520684FF400720021303001F0EDFE29462068FFF719FE216891
:2035800000264FF00108C8620CE080F804802068FFF79AFD08B10120A6E52068C16A491C19
:2035A000761CC16220688178B142EED8C16A891BC162E56029462068FFF7FAFD2061E78019
:2035C00007F00F013022206802EB411108446061002089E52DE9F05F04460021FFF745FF26
:2035E00000287BD1FF25AB4621692068FFF794FD07007CD16669307850B1F17AE52801F074
:203600003F0103D00A0705D50F2907D0FF2567E004276CE00F2901D085B34CE0E16971B3E0
:20362000420606D596F80DB020F04000E28805462284A84235D1727B5A4532D130788A467A
:2036400020F04000401EB14600EB800101EBC0064FF000080127FE4810F8081039F80100A0
:2036600077B101F0F7FE0746322E1AD23AF81600761C01F0EFFEB84213D105E016E02CE026
:20368000A0F57F41FF390CD108F10108B8F10D0FE1D399F80000400606D52FB13AF816006B
:2036A00010B1FF25EDB21BE06D1EFBE7304601F0A7FE58451BD04FF6FF702084A069FF2505
:2036C000C17AC9070CD10B210022491E07D316F8012B10F8013BD21AF7D001E008E032B196
:2036E00000212046FFF7FFFE07003FF47DAF3846BDE8F09F2DE9F35FFF2504462E460427C3
:203700004FF6FF7A4FF0000B66E02068FFF704FD070065D16269107878B1D17AE52801F0DA
:203720003F0108D02E2806D0082908D00023DDF804C0634505D0FF253FE0042750E0012341
:20374000F5E70F2901D0ADBB3EE0410605D5567B20F04000E18805462184A8422BD1507BB2
:20376000B04228D11078DFF8E89200F03F00401E00EB800101EBC0010020E7690123D44631
:2037800019F8008032F8088033B1322913D227F811804346491C01E0E0450CD1401C0D28B0
:2037A000EED31078400603D5322904D227F811B06D1E01E00DE0FF25EDB200212046FFF7F8
:2037C00092FE070008D00BE0104601F019FEB04208D0A4F820A005E02169002995D10FB14D
:2037E000C4F810B03846BDE8FC9F2DE9FE4F04460C22D4E906763946684601F09BFD9DF830
:203800000B004FF0000BC00719D087F80BB00125C4F81CB02B4632466946384601F0B4FD03
:203820002046FFF7D7FE10B96D1C642DF2D3642D0BD004280AD19DF80B00F872E6619DF856
:203840000B0080070ED5002003E00720BDE8FE8F401C36F810100029FAD10D211930B0FBD7
:20386000F1F500E0012500212046FFF7FEFD88B9002721692068FFF74FFC58B961690978CD
:20388000E5290AD049B1002701212046FFF72BFE0028EED0042804D004E07F1CAF4201D051
:2038A000F2E70720060062D16D1E47D0E088411B2046FFF7DAFD060059D1A06901F0A0FD6F
:2038C00082464FF6FF7921692068FFF725FC06004DD16169D4F81C800F2081F80DA0C87255
:2038E000EEB2701E00EB800281F80CB002EBC003A1F81AB00022564F01E0484502D038F8AE
:2039000013005B1C17F802C021F80C0000B94846521C0D2AF1D3484502D038F8130008B914
:2039200046F040060E7021680120087100212046FFF7D9FD06001AD16D1EC4D121692068F4
:20394000FFF7EAFB060012D120220021606901F0FFFCD4E905010B2201F0ECFCA0696169EF
:20396000C07A00F01800087321680120087130466CE72DE9F041018C0446C688A1F57F40DD
:20398000FF3800D131462046FFF76FFD05001ED1E5274FF0010821692068FFF7BDFB0500D3
:2039A00012D120220021606901F0D2FC60690770216881F80480E088B04208D200212046B8
:2039C000FFF791FD0500E6D0042D00D1022528460BE42DE9F0410D4601F10904016949B323
:2039E000002341692E27CA5C5B1C202A18D0052A00D1E522092B01D104F8017BA2F1410677
:203A0000192E0BD891F80CC0092B01D3102600E008261CEA060F01D02032D2B204F8012BF1
:203A20000B2BE0D3CA7A2A72CA692A600A8BAA80C98AE9804FF0000884F80080AF69002FFB
:203A400020D001690024D9B1E969C9B1018C01E058670008A1F57F42FF3A11D0C6690BE0D2
:203A6000002101F0DDFC18B1E969491EA14201D8002405E03855641C36F8020B0028EFD1E4
:203A800007F804800DE42DE9F35F88460D6800E06D1C28782F28FBD05C28F9D000980024D3
:203AA0002646D0F81C90A85D761C202815D32F2813D05C2811D0322C2FD2012101F0B0FCA2
:203AC00007002AD0802F04D20146F9A001F047FC18BB29F81470641CE5E7AA19C8F80020E5
:203AE000202801D2042616E0002614E009EB440030F8020C20280DD02E280BD06CB100216F
:203B000029F8141000980B222021806901F020FC002705E0641E002CE8D1062063E67F1CE7
:203B200039F817002028FAD02E28F8D01FB146F0030600E0641E2CB109EB440030F8020C51
:203B40002E28F7D14FF0000AD0464FF0080B39F817507F1C05B3202D03D02E2D04D1A74272
:203B600002D046F00306F2E7DA4501D2A74219D1BBF10B0F0ED0A74201D046F003060BD816
:203B80004FEA886027464FF0080A4FF00B0B4FEA1068DCE746F00306009880690178E52936
:203BA0002ED02FE0802D0CD30021284601F038FC050003D0C148284410F8805C46F0020649
:203BC00025B12946BEA001F0CAFB18B15F2546F003060EE0A5F14100192802D848F00208DE
:203BE00007E0A5F16100192803D8203D48F00108ADB20098816901F80A500AF1010AA6E766
:203C000005210170BBF1080F03D14FEA88604FEA1068C8F38100032803D06FEA0801890778
:203C200001D146F00206B10709D408F00301012901D146F01006012801D146F008060098C4
:203C40008069C6720020CEE573B50446019908782F2801D05C2801D1491C01910025A56045
:203C600001980078202805D200212046FFF7FDFB65617CBD01A92046FFF705FF0028F8D1A5
:203C80002046FFF7A7FCA169C97A28B10428F0D14907EED405207CBD4907FCD46169C87A76
:203CA000C006F7D5206801F062FBA060E2E710B503464FF0FF301C68002C13D0214600E07D
:203CC000491C0A78202A0ED33A2AF9D114F8012B303A0A2A06D28C4204D1022A02D2491CEE
:203CE0001046196010BD002010BD10B5044600202071401EE0622046FFF70EFA08B103209B
:203D000010BDB4F82E02A0F52A41553901D0022010BDD4F866106C48B0EB012F04D0D4F84B
:203D20008210B0EB012F01D1002010BD012010BD2DE9FF474FF000090746C0F800901646E4
:203D40000846FFF7B4FF050003D50B2004B0BDE8F0875E4850F825408CB13C60207820B1FF
:203D60006078FFF766F9C1070BD084F80090E8B26070FFF759F9C10708D00320E6E70C20F9
:203D8000E4E70EB1400704D40020DFE71EB1400701D50A20DAE7002529462046FFF7A5FF29
:203DA00001281ED100206E4604EB001191F8F22101F5F7710AB1896800E0002146F8201002
:203DC000401C0428F0D3002756F8275025B129462046FFF78AFF00E0022040B17F1C042FC1
:203DE000F2D3032801D0E8BB01E00120AEE7B4F83B00B0F5007F53D1B4F8461001B9616D0F
:203E0000A16194F840C084F803C0BCF1010F02D0BCF1020F44D194F83D600CFB01FCA67030
:203E200006B3701E06423BD1B4F841202281100736D1B4F8430000B9206DE38F93B103EB40
:203E40000C0707EB1217B8422AD3C01BB0FBF6F040B1012640F6F678404500D302264FF650
:203E6000F67800E01CE0404500D30326801C2F44A7622B446061C4E90753032E12D07AB1EA
:203E800003EB0C026262022E22D000F0010200EB400002EB500000F2FF10B1EB502F19D2DE
:203EA0000D2053E7002AFBD1E26D80006262F2E7222A3A3C3E3F7C7F00000000D8660008B9
:203EC0002B2C3B3D5B5D0000004641546C0000204000E0E74FF0FF302061E060802060714D
:203EE000032E1FD1B4F8600001281BD12046691CFFF712F9B0B984F80590B4F82E02A0F5A9
:203F00002A4155390ED1FE49206B88420AD1FD49D4F81402884205D1D4F818022061D4F857
:203F20001C02E060F84926700888401C0880E0802AE710B538B1016829B10A781AB1CA88D7
:203F40008088824201D0092010BD4878FFF771F8C007F9D0032010BD17B581B0144602983E
:203F600000906846FFF7A3FE002802DA0B2004B010BDE54B1B1D002253F8201001B10A708B
:203F80000199002900D00A7043F8201001D0012C01D00020EBE7002202A901A8FFF7C8FEB6
:203FA000E5E72DE9F747A7B005000ED04FF0000802F01F0626F0010228A96846C5F8008074
:203FC000FFF7B6FE040003D078E009202AB0BEE623A8069009A8079068462899FFF734FE21
:203FE000059F040001D107B9062416F01C0F3FD054B1042C03D16846FFF7F7FB0446059F90
:2040000046F0080644B159E0F87A10F0110F39D1700701D5082451E0300739D5FFF74FF866
:20402000C7F80E0087F80B80C7F81C803946009801F09DF981460021384601F0A1F9009926
:204040000120B9F1000F087120D000984946D0F82CA0FFF77AF9040030D10099A9F10100C0
:20406000C86051460098FFF757F804000CD025E024BBF87AC10601D504241FE0B10703D51A
:20408000C00701D0072419E0300701D546F0200600983946C06AC5E90707AE7185F80780DB
:2040A0004646009801F063F92861F869C5E90260AE616E6200982860C088A880204685E754
:2040C0002DE9F84F894600219A46164604461960FFF72FFF002812D1E07900280FD1A079EB
:2040E000C0070BD0D4E90210401A04F128014FF0010B0091864200D9064680E00720BDE8E2
:20410000F88FA168C80562D120688278521E02EA512212F0FF0510D129B1626A2AB12046F0
:20412000FFF791F904E0206902E06169FFF74CF8022819D3411C44D0606161692068FFF71C
:2041400037F888B100EB0508770A21D02068EA1981788A4200D94F1B40783B4642464946AA
:20416000FEF76BFF68BB02E00220E071C7E7A07940060BD5A169A1EB0800B84206D209EB17
:2041800040204FF40072009901F0D4F87D022CE0A269424519D0A07940060AD520680123C4
:2041A00000994078FEF75BFF58B9A07920F04000A07120680123424640780099FEF73DFF1E
:2041C00018B184F807B0012099E7C4F818802089C0F30800C0F50075B54200D935460119FB
:2041E0002A464846283101F0A5F8A068A9442844A060DAF800004119761BCAF80010002EBC
:204200007FF47FAF00207AE72DE9F84F894600219A46164604461960FFF78BFE002806D1B2
:20422000E079002803D1A079800701D4072066E7A06804F1280182194FF0010B00918242DF
:204240007BD39AE0A168C8057BD122689078401E00EA512010F0FF0519D129B1606A58B18E
:204260002046FFF7F0F80BE0206958B900211046FFF79BF8206103E010466169FFF795F86E
:2042800000287DD0012828D0411C52D06061A07940060BD520680123A26940780099FEF70C
:2042A000DEFE98BBA07920F04000A07161692068FEF77EFF88B100EB0508770A2AD020685D
:2042C000EA1981788A4200D94F1B40783B4642464946FEF7C4FEC8B902E00220E0710EE701
:2042E000A169A1EB0800B84212D209EB40214FF40072009801F01EF8A07920F0400006E04A
:2043000052526141727241616800002011E0A0717D0228E0A169414511D0D4E902018842C5
:204320000DD220680123424640780099FEF785FE28B184F807B00120E1E621E001E0C4F80F
:2043400018802089C0F30800C0F50075B54200D9354620442A464946283000F0EBFFA0793E
:2043600040F04000A071A068A9442844A060DAF800004119761BCAF80010002E7FF462AF1A
:20438000D4E90201884200D9E060A07940F02000A0710020B3E670B50446FFF7CAFD0028F3
:2043A0000ED1A1798A060BD548060ED52068012304F128014078A269FEF751FE08B10120B8
:2043C00070BDA07920F04000A071E1692068FEF7A3FE0028F4D1256AE87A40F02000E87246
:2043E000E068E8612846216900F0CAFFFEF767FEC5F8160000206882A07920F02000A071EA
:204400002168012008712068BDE87040FEF79BBE10B50446FFF7BFFF002806D12046FFF730
:2044200088FD002801D10021216010BD2DE9F84F0D460446FFF77DFD5FEA000A7ED1E07929
:2044400000287BD1666A4FF0010904F12808002E64D0681C2AD0E068A84200D20546A56076
:20446000002D48D02046691EFEF7EDFF6061226801461046FEF79CFE00286ED021686D1E38
:204480008A78521E02EA552215182089C005E8D0A269AA42E5D0A079400634D548780123FC
:2044A0004146FEF7DCFD002871D128E056F804BB21690227C9B10025BF1C009188466D1C13
:2044C0002068FEF781FE0146012846D9481C5ED008F101008142F1D05F4502D820C6009845
:2044E00001C6206840698842E5D8606A5F45076002D80020306096E04FF0110A93E0A07982
:2045000020F04000A071206801232A4640784146FEF793FD002878D1A56184E0E068A8424D
:2045200003D2A179890700D405460027A068A76015B3226891784E0280B100E058E0691E2C
:20454000401EB1FBF6F1B0FBF6F3994206D3711E8843A0602D1A61690DE047E0216949B917
:2045600000211046FEF721FF014601283ED0481C4BD021616161D9B927E0A07980072068AD
:2045800006D5FEF712FF010005D1354612E03CE0FEF71AFE0146481C37D0012926D920686A
:2045A0004069884222D96161A068AD1B3044A060B542E2D8A0682844A060E80505D0206818
:2045C000FEF7F6FD90B100EB55272089C00521D0A269BA421ED0A07940060ED52068012309
:2045E00041464078FEF73BFD78B902E00220E07185E5A07920F04000A071206801233A46B9
:2046000040784146FEF719FD18B184F80790012075E5A761D4E90201884204D9E060A07931
:2046200040F02000A071504669E513B59EB0040006D000221FA91AA8FFF77AFB18B121E064
:20464000092020B010BD1A9820601BA8A061C4F81CD020461F99FFF7F7FA78B9616931B114
:20466000C87AC00611D51A9800F081FEA0601A980021C088A0802046FEF7F7FE042804D0A0
:204680000028DED000212160DBE70520FAE710B50446FFF74EFC002801D10021216010BD22
:2046A00070B59EB00E460446FFF743FC002819D1D6B11AA8A061C4F81CD000212046FFF733
:2046C00019F80025042814D000280BD131462046FFF77FF900212046FEF705FF042801D1C7
:2046E000002025611EB070BD00212046FEF7BDFEF8E72561EAE733B5A7B00D46002227A928
:204700006846FFF715FB040012D123A8069009A8079068462799FFF797FA040008D10598E6
:2047200028B12DB129466846FFF753F900E00624204629B030BD2DE9F74F14468A46002285
:2047400069462046FFF7F4FA25685FEA00084BD1D5E90407B91E884202D8CAF8000043E03D
:2047600095F800900024B9F1010F01D02E6A16E0022631462846FEF727FD411C03D0012860
:2047800003D028B105E0012000E00220804624E0641C6869761C8642EBD31EE059B93146AB
:2047A000761C2846FEF7B8FC5FEA000815D105F130004FF40071B9F1020F03D00268120134
:2047C00006D006E0028802B9641C801C891E02E0641C001D091F7F1EE0D12C61687940F082
:2047E00001006871CAF800404046BDE8FE8F70B50446FFF79EFB05003DD1E07918B10546A7
:20480000280005D037E0A079800701D4072532E0D4E9020181422ED9E060A17941F020019B
:20482000A17150B161692068FEF7CEFC0646401C0BD0012E0BD065B11CE021692068FEF7AE
:2048400084FD05460020206113E0012512E0022510E020684169B1420FD96FF070426169E1
:20486000FEF707FD050005D131462068FEF76DFD054615B1E571284670BDA0794006FAD5D6
:204880002068012304F128014078A269FEF7E7FB0028DAD1A07920F04000A071EBE771B56F
:2048A000AFB001222FA96846FFF742FA040047D12CA8069012A8079068462F99FFF7C4F9BE
:2048C00004003DD1059E56B1F07AC00700D007243146009800F04BFD054614B130E006245F
:2048E000F6E7F07AC0061BD5022D01D2022427E02422694609A800F01DFD022109A80B9568
:20490000FEF7B3FD04001BD1002109A8FEF7F2FE040003D0042C03D014B111E007240FE0A1
:204920006846FFF726F804000AD12DB129460098FEF70BFD040003D10098FEF704FC044645
:2049400030B0204670BD2DE9F14FA6B0FEF7B7FB8246012226A96846FFF7EAF904000BD170
:2049600023A8069009A8079068462699FFF76CF9040002D0042C02D084E0082482E00021DB
:204980000098FEF712FD5FEA00084FF0000403D0B8F1010F02D002E0072400E00224B8F1CD
:2049A000FF3F01D014B159E0012457E00098FEF78BFB040052D141460098FEF7F9FB009EAE
:2049C000074630364FF400720021304600F0C0FC0B222021304600F0BBFC2E2535704FF06A
:2049E000100B86F80BB0C6F816A04146304600F0C7FC06F1200020223146044600F09AFC9F
:204A000086F82150009802990078032804D10098406A884200D10021204600F0B1FC009863
:204A20004FF00109857812E00098C76200997F1C81F804900098FEF747FB04000ED14FF447
:204A400000720021304600F083FC6D1EEDB2002DEAD16846FEF7C9FE040004D0414600986B
:204A6000FEF773FC0EE00598414680F80BB0C0F816A000F085FC009981F804900098FEF77B
:204A800062FB044627B02046BDE8F08F37B5A6B015460C46012226A96846FFF749F900281F
:204AA00018D123A8069009A8079068462699FFF7CBF800280ED1059868B105F02702C17A28
:204AC000144091430C43C4720099012008710098FEF739FB2DE606202BE613B5A6B00C467B
:204AE000012226A96846FFF723F9002815D123A8069009A8079068462699FFF7A5F8002825
:204B00000BD1059858B1E188C182A18801830099012008710098FEF716FB28B010BD06201E
:204B2000FBE733B5B7B0012237A904A8FFF700F9002859D104980D9016A8CDF828D00B9005
:204B400004A83799FFF780F800284DD10998E8B300F10B01152230A800F0ECFB242204A913
:204B60000DA800F0E7FB38A8FFF7A1F800283DDB0DA83899FFF768F848B3042834D10DA842
:204B8000FEF733FE00282FD1129C13220DF1C20104F10D0000F0CEFB9DF8C000012540F0BD
:204BA0002000E072049805710F990698884234D0E07AC00631D52146049800F0D8FB01462A
:204BC0000498FEF7F5FA010014D001E00BE00FE00498FEF7A1FA049A5032002804D15078A4
:204BE0002E2809D019E0042039B030BD0B20FBE70820F9E70220F7E704980078032806D168
:204C000004990F98496A884201D1002100E00F99104600F0B5FB0498057104A8FEF7A9FE08
:204C20000028E1D10498FEF78EFADDE72DE9F74F86B0154606A8FFF73AF8002802DA0B20CB
:204C400009B021E70799012902D8691E0D4201D01320F5E7FC4951F820404CB1002121709C
:204C6000C0B20390FEF7E0F9C10703D00320E7E70C20E5E7400701D50A20E1E704AA0121FE
:204C80000398FEF7FEF900287ED1049880287BD3079909B1002100E03F218946A0EB090165
:204CA00004917DB94FF4FA60B1FBF0F20020E74B00E0401C33F810509542FAD8E34A1632C7
:204CC00032F81050680A5FEA000812D0B8F1800F01D980208046B1FBF8F0012640F6F672D4
:204CE000904200D302264FF6F672904203D3032620E00120EEE7032E1CD0012E22D04000F5
:204D0000001D00F2FF10470A01252020834609EB050A0AEB0700584400EB08020090A2EB48
:204D20000900884244D801AA03210398FEF7A9F998B90DE040F2072202EB8000470A2025E7
:204D40000020E3E700EB4000401C4008C01CD8E7019810B1B0F5004F01D90120019000998C
:204D60000144401E491E81430098081A0190032E11D007440498411BCA1BA2EB0B02B2FB99
:204D8000F8F10091022E00E0D4E007D0032E0AD0012E11D015E005448244EBE740F6F6726F
:204DA000914205D30DE008464FF6F671884201D20E2045E70C200AE0B0F5803F06D20120F7
:204DC00005E0B0F5803F01D2042000E006200590079808B1F0202FE004F130004FF40072A7
:204DE0000021029000F0B4FA04F5F7700121417081700021C17005990171FE214171049A6D
:204E000009EB020143F6C162B1FBF2F13F2242EA910301918371C17182600499C1604AF6F7
:204E20005520A4F82E02DDE9021001230022FEF716F900287ED1F820303402904FF40072D5
:204E40000021204600F084FA0B2281A1204600F071FA4FF40070A4F80B0084F80D800120C9
:204E6000E5812074032E09D04002A4F811000498B0F5803F04D2A4F8130002E00020F4E7DD
:204E80002062029860753F202083FF206083C4F81C90FEF714F9802229210190032E19D01C
:204EA000C4F82700E78284F8242084F8261013226AA104F12B0000F03DFA4AF65520A4F85C
:204EC000FE0101234A4621460398FEF7C8F8002830D111E0C4F8430002206762E062012001
:204EE00020860620608684F8402084F8421013225FA104F14700DEE7032E06D1012309F1FA
:204F0000060221460398FEF7AAF855464FF0000A4FF400720021204600F01AFA02980190A1
:204F2000032E0AD0012E06D06FF0FF010143019121600BE050E05349F8E760F0FF00019035
:204F400020604FF0FF3060600009A0602A466D1C012321460398FEF782F8E8BB4FF40072B4
:204F60000021204600F0F4F9012009E02A466D1C012321460398FEF772F868BB0198401C2D
:204F80000190B842F2D30AF101005FEA000ABFD0032E09D05F462A466D1C01232146039815
:204FA000FEF75DF8C0B901E04746F4E77F1EF2D1032E1FD1344820603448C4F8E4010098B3
:204FC000401EC4F8E8010220C4F8EC014AF65520A4F8FE01012300E014E009F10102214657
:204FE0000398FEF73CF8012309F1070221460398FEF735F8002211460398FEF742F8002837
:205000003FF427AE01201BE62DE9FC4100259046074604464E1E0FE001AB01226946404622
:20502000FFF74EF80198012808D19DF800006D1C04F8010B0A2801D0B542EDDB0020207001
:2050400035B33846BDE8FC816C00002066670008EBFE904D53444F53352E30004E4F204ECA
:20506000414D45202020204641542020202020004E4F204E414D45202020204641543332C4
:205080002020200000FFFF0052526141727241610020D7E738B545680446002D16DB60198D
:2050A0006D1C01733D2D0DDB6B462A4604F10C012068FFF7A9F80098A84201D1002501E005
:2050C0004FF0FF356560A068401CA06038BD00B595B00291002103910491014602A8FFF781
:2050E000D9FF039800280DDB024601AB05A90298FFF78AF830B901990398884202D1049822
:2051000015B000BD4FF0FF30FAE710B596B004460020CDE90210049003E002A8641CFFF7EA
:20512000B9FF21780029F8D1039800280DDB024601AB05A90298FFF767F830B901990398D2
:20514000884202D1049816B010BD4FF0FF30FAE70FB42DE9F0479AB024AE029000200390C3
:205160000DF154090490239810F8011B2390002973D0252903D002A8FFF78CFFF3E70025F7
:2051800010F8011B2F462390302902D02D2902D00FE0012500E0022510F8011B239008E095
:2051A00007EB870001EB40072398303F10F8011B2390A1F130000928F2D96C2901D04C29A9
:2051C00005D1239845F0040510F8011B2390002943D0A1F161000A46192801D8203AD2B2B2
:2051E0004F2A40D006DC422A3BD0432A36D0442AC1D13AE0532A08D0552A36D0582ABAD159
:20520000102301CE442A32D036E056F8048B002400E0641C18F804000028FAD1A80704D516
:205220000DE0202102A8FFF735FF2046641CB842F7D304E008F1010802A8FFF72BFF98F882
:2052400000100029F6D103E0202102A8FFF722FF2046641CB84286D2F6E754E016F8041BF3
:2052600089E70223CDE70823CBE70A23C9E7002802DA404245F008050024CC46B0FBF3F29D
:2052800003FB1202B0FBF3F0D2B2092A05D9782915D04FF007084244D2B230320CF8042071
:2052A000641C08B1102CE9D3280703D52D2009F80400641CA046E80704D0302003E04FF0C9
:2052C0002708E8E72020824603E0514602A8FFF7E1FEA80704D4414608F10108B942F4D3FD
:2052E0004D46641E02A8295DFFF7D4FE002CF8D103E0514602A8FFF7CDFE414608F101083E
:20530000B942A8D2F5E70398002810DB024601AB05A90298FEF778FF48B9019903988842E6
:2053200005D104981AB0BDE8F0075DF814FB4FF0FF30F7E702E008C9121F08C0042AFAD23F
:2053400003E011F8013B00F8013B521EF9D27047C9B201E000F8011B521EFBD2704700E0BB
:20536000401C02780AB18A42FAD1D0B270470246488B1278032A02D1898A40EA01407047F2
:205380004183090C818270477CB516461C4605460B22FFF7CFFF052C11D9204A0CE00021BD
:2053A000B61C2346044663F35F044008E30300D55440491C1029F4D330880028EFD10721EB
:2053C0006B4604F00F003030392800D9C01D5854491E2409F5D17E205854002200E0521CE2
:2053E0008A4202D2A85C2028F9D1082902D2585C491C00E02020A854521C082AF5D37CBD1C
:20540000014600200B22430803EBC01011F8013B521E1844C0B2F6D17047000021100100BC
:20542000802804D3124A51B1FF2801D90020704702EB4000A0F58050B0F8000F704732F88D
:205440001130834203D0491C89B28029F7D38031C8B270470021074B00E0491C33F811206A
:20546000002A04D08242F8D1034830F8110070479267000892680008726A0008F9490870C5
:205480007047F8490028086802D040F4807001E020F4807008607047F2490028086802D0DD
:2054A00040F4007001E020F4007008607047ED490028086802D040F4806001E020F480603B
:2054C00008607047E748016841F4006101607047E448016841F4805101607047E14810304B
:2054E0000068002805DADF48DF49001D0160DF4901607047DB481030016841F00041016091
:205500007047D84909200C310A68D20301D5012070470A68D20601D5062070470A68D20512
:2055200001D5022070470A6812F0E00F01D00720704709688907FBD50820704708B5092014
:205540008DF80000FFF7DDFF8DF800009DF800000128F7D09DF8000008BD70B506460025FA
:2055600029B1012928D0022929D04FF44075FFF7E5FF09281FD1BB4C1034206820F4407081
:205580002060206828432060206820F0F8002060206846F0020108432060206840F4803010
:2055A0002060FFF7CBFF216821F002012160216821F0F801216070BD4FF48075D7E74FF413
:2055C0000075D4E730B504460025FFF7B7FF2CB1012C1DD0022C1ED04FF44075092816D178
:2055E000A04C1034206820F440702060206828432060206840F004002060206840F4803094
:205600002060FFF79BFF216821F00401216030BD4FF48075E2E74FF40075DFE730B50446BF
:205620000025FFF78BFF2CB1012C1DD0022C1ED04FF44075092816D18A4C1034206820F4EC
:2056400040702060206828432060206840F004002060206840F480302060FFF76FFF216892
:2056600021F00401216030BD4FF48075E2E74FF40075DFE730B504460025FFF75FFF2CB1A2
:20568000012C1DD0022C1ED04FF44075092816D1744C1034206820F4407020602068284301
:2056A0002060206840F400402060206840F480302060FFF743FF216821F40041216030BD7D
:2056C0004FF48075E2E74FF40075DFE7F0B516461F460546FFF732FF092815D1614C10346B
:2056E000206820F440702060206840F440702060206840F0010020602E606F60FFF71EFF49
:20570000216821F001012160F0BD70B50D460646FFF714FF092814D1524C1034206820F45E
:2057200040702060206840F400702060206840F0010020603560FFF701FF216821F001012D
:20574000216070BD70B50D460646FFF7F7FE092814D1444C1034206820F4407020602068AE
:2057600040F480702060206840F0010020603580FFF7E4FE216821F00101216070BD70B550
:205780000D460646FFF7DAFE092812D1354C1034206820F44070206020682060206840F037
:2057A000010020603570FFF7C9FE216821F00101216070BD2B4814300068C00705D0294890
:2057C0002B49083001602B490160704725481430016841F001010160704730B50D46044649
:2057E000FFF7ACFE092807D11E48163001880DB1A14300E02143018030BD30B50D460446F5
:20580000FFF79CFE092807D116481A3001880DB1A14300E02143018030BD124A173211783C
:2058200001F07F0108431070704730B50D460446FFF784FE092807D10A4A163210880DB180
:20584000204300E0A043108030BD30B50D460446FFF774FE092811D1024A1A3210885DB16A
:2058600020430AE0003C024023016745AB89EFCD3B2A19087F6E5D4CA043108030BD10B55C
:205880000446FFF75BFE092801D13548047010BD70B515460C460646FFF750FE092808D142
:2058A0002F49491E087800F00F0004432C4334430C7070BD2A49491E0A7822F010020A70BA
:2058C0000A7802430A7070472549491E0A7822F00C020A700A7802430A7070472048401E21
:2058E000017841F00201017028E61D48401E0068C0F3471070471A48401C00887047184833
:20590000401D008870471648401C008870471448401D00887047124900200978AA2900D05B
:20592000012070470E48401E007800F00C0070470B4A521F0029116801D0014300E081438F
:20594000116070470146064A0020093A12680A4200D001207047024909390860704700000B
:20596000153C024010B501210C022046FDF7CCF92046BDE810400021FDF7C6B930B5426802
:20598000C84B0C791A400B6842EA0422134343608268C54B4D791A40D1E9034323438C68E3
:2059A00044EA4504234313438360C26A097D22F47002491EC9B242EA0151C16230BD002106
:2059C0000160017141718160C1600161012101757047B64B10B5D3F80423B5490A40D0E9D6
:2059E00000142143D0E90240044321431143C3F8041310BD0021016041608160C1607047BA
:205A00000029816802D041F0010101E021F00101816070474268A74B1A400A434260704747
:205A2000416282627047426822F01F020A43426070479E490028D1F8040302D040F40000C0
:205A400001E020F40000C1F80403704797490028D1F8040302D040F4800001E020F4800007
:205A6000C1F80403704770B5072609290AD9C568A1F10A0404EB4404A640B543A3401D4323
:205A8000C56007E0056901EB4104A640B543A3401D4305611F23072A09D2446B521E02EB7A
:205AA000820293409C4391400C43446370BD0D2A09D2046BD21F02EB820293409C43914056
:205AC0000C43046370BDC46A0D3A02EB820293409C4391400C43C46270BD816841F08041FD
:205AE00081607047014600208968490000D5012070470029816802D041F4806101E021F4D0
:205B00008061816070470029816802D041F0020101E021F00201816070474268491E22F440
:205B2000604242EA4131416070470029416802D041F4006101E021F4006141607047C06CB8
:205B400080B270475948D0F8080370470029816802D041F4807101E021F4807181607047A8
:205B60000029816802D041F4007101E021F40071816070474D490028D1F8040302D040F408
:205B8000005001E020F40050C1F80403704770B5072609290AD9C568A1F10A0404EB44048E
:205BA000A640B543A3401D43C56007E0056901EB4104A640B543A3401D430561836BC3F3EE
:205BC0000154121B921C02EB82021F249440A34391400B43836370BD826B491E22F4401239
:205BE00042EA01518163704708B508440090026008BD826822F470220A438260704782686A
:205C000022F440120A4382607047816841F4800181607047014600208968490200D5012066
:205C200070470029416802D041F4806101E021F48061416070470029416802D041F480511A
:205C400001E021F480514160704708B5084428300090006880B208BD01238B4041680AB182
:205C6000194300E09943416070470246002012680A4200D001207047C9430160704730B5D5
:205C80000246002053680C0A01258D4011682B40214202D0002B00D0012030BD6FEA11212B
:205CA00001607047FFFEFFFCFDF7FFC000200140E030FCFFFFFD3FFF10B54C1084EA530495
:205CC00004D54042C1F1000138BF491E1B4204D55242C3F1000338BF5B1E00F059F814F022
:205CE000804F04D04042C1F1000138BF491E14F0004F04D05242C3F1000338BF5B1E10BDBF
:205D0000032A40F2308010F0030C00F0158011F8013BBCF1020F624498BF11F801CB00F813
:205D2000013B38BF11F8013BA2F1040298BF00F801CB38BF00F8013B11F0030300F09F80F6
:205D4000083AC0F0088051F8043B083A51F804CBA0E80810F5E7121D5CBF51F8043B40F861
:205D6000043BAFF30080D20724BF11F8013B11F801CB48BF11F8012B24BF00F8013B00F8A1
:205D800001CB48BF00F8012B704770477047704753EA020C00F069802DE9F04B4FF0000676
:205DA000002B1FBFB3FA83F503FA05F424FA05F65E4012BF1643B2FA82F502FA05F4C5F110
:205DC00020051EBF22FA05FC44EA0C04203556EA044C4FEA144418BF641C4FF000084FF013
:205DE0000009904271EB030C39D3002919BFB1FA81F701FA07F6B0FA80F700FA07F6C7F165
:205E000020071EBF20FA07FC46EA0C062037B6FBF4FCA7EB0507103F07F01F0BCBF1200637
:205E20000CFA0BFB2CFA06F644BFB3460026202FA4BF5E464FF0000B5BEA060C08BF4FF015
:205E4000010B19EB0B09ABFB027C48EB0608C01B06FB02CC0BFB03CC71EB0C01C1E70B46D8
:205E6000024641464846BDE8F08B13B54FF000004FF00001AFF30080BDE81C40704710B5BF
:205E8000203AC0F00B80B1E81850203AA0E81850B1E81850A0E81850BFF4F5AF5FEA027C13
:205EA00024BFB1E81850A0E8185044BF18C918C0BDE810405FEA827C24BF51F8043B40F873
:205EC000043B08BF7047D20728BF31F8023B48BF11F8012B28BF20F8023B48BF00F8012B3C
:205EE0007047754600F028F8AE4605006946534620F00700854618B020B5FCF725F8BDE8AB
:205F000020404FF000064FF000074FF000084FF0000B21F00701AC46ACE8C009ACE8C00940
:205F2000ACE8C009ACE8C0098D4670470446AFF300802046FAF779F900487047808A0020BF
:205F400001491820ABBEFEE7260002007047000010B591EA030F48BF83F0004300F16482AC
:205F6000841A71EB030C05D2121943EB0C03001B61EB0C01DFF824E14FEA1154A4EB135CED
:205F80001EEA430F18BF9EEA445F73D023EA0E03DCF1200E21EA045143F4801332D322FAFE
:205FA0000CFE10EB0E0023FA0CFE41EB0E01CCF1200E03FA0EFE10EB0E0051F10001B1F586
:205FC000801FCCF1200E32D201EB045112FA0EF2BDE8104058BF7047401C38BF5FEA420243
:205FE00018BF7047002814BF20F0010041F100014FEA410313F5001F38BF7047A1F1C041EF
:2060000000F0CEB9012A43EB0302ACF1200CDCF11F0E32BF4FF0000E23FA0CF310EB030090
:2060200041EB0451B4EB115FD0D0A1EB045101F5801149085FEA300001EB04510ED350F19B
:20604000000038BF12FA0EFE08D1BDE81040C9E7401C38BF5FEA4202CAD1C3E7BDE8104099
:206060004FEA410313F5001F38BF7047A1F1C04100F096B99EEA445F08D011EA5E0FBDE8EC
:20608000104004BF01F0004100207047BDE8104070B500F037F900BF64FBBE3E0000E0FFB1
:2060A000491058BFC1F140415B1058BFC3F140438B42EFF3008070474FEA1153A3F5806386
:2060C000D3F11E03A8BFD3F1200C08DB4FF0004242EAC12252EA505232FA03F07047094212
:2060E0000BD4102BC4BF0020704703F5787CBCF1FF3F05D04FF0FF3070474FF00000704765
:2061000070B500F0FFF800BF4992248000207047F0E7B0FA80F310FA03F10AD0C3F11D03BE
:2061200003F580634FEA41504FEA035202EBD12170474FF00000704751EA030C17D41CF55A
:20614000801F58BFBCF5801F00F10680994218BF704708BF9042704707D711F5801F58BF6F
:2061600013F5801F19D499427047894270471CF5801F08D5BCF5801FF7D58B4218BF704773
:2061800008BF824270474FF4001C1CEB410F38BF1CEB430F01D28B42704770B500F0B2F8A1
:2061A000922449004FF000514FF08053FFF778BFDFF848C170B51CEA111E1EBF1CEA1315CC
:2061C0009EEA0C0F95EA0C0F00F06F8081EA030423EA4C134EEAD47E21EA4C1141F480110D
:2061E00043F48013AE44A1FB024CA0FB0365AEF17F7E361955EB0C05A1FB034C4CF100038F
:20620000A0FB021C16EB0C06654153F10003094218BF46F0010613F4007F0BD14FEA033197
:206220004FEA0530340341EA155140EA16506FF003020AE04FEAC3214FEAC520F40241EAEE
:20624000555140EA56506FF0020202EB2E4201EB025585EACE710AD05FEA440C18BF24F0B9
:20626000004450F1000041F1000120EAD47040F2FE7C624500D270BDA84214BF4FF0804406
:206280004FF04044002E08BF0024BEF1806FA8BFA1F1C041BDE8704080F282804FF0000082
:2062A00001F1C04101F0004170479EEA0C0F0CEA131518BF95EA0C0F06D04FF0000081EA50
:2062C000030E0EF0004170BD00F01CF88900013E00F007B800F009B84FEA430C5FEA5C5C8C
:2062E00008D081EA030100F05BB84FEA410C5FEA5C5CF6D14FF00000014970470000FF07C0
:206300000000F87F0EF1020E2EF0030E5EF8046B364205D4012A43EB030515F5001F12D83E
:20632000012841EB010C1CF5001F0CD80ED14FEAD17C15F5001F0CEB4C0C0CF1020C08BF38
:206340004CEBD37C04E04FF0080C01E04FEAD37C0CEB4C0526FA05F606F00706B6F1040CFA
:2063600006D20EEB860CBDE870404CF0010C6047DFE80CF0090B02024FF000414FF00000DB
:20638000A1F5002170BD19461046012851EB010418BFD4F5001484BF002001F0004170BD84
:2063A0000808A0F500114FEA3101704753EA010C17D41CF5801F58BFBCF5801F00F1068042
:2063C0008B4218BF704708BF8242704707D713F5801F58BF11F5801F19D48B4270479B4291
:2063E00070471CF5801F08D5BCF5801FF7D5994218BF704708BF904270474FF4001C1CEB1E
:20640000430F38BF1CEB410F01D2994270470FB40CBC03BCFFF7C1BE10B591EA030F48BF5F
:2064200083F000433FF59CAD841A71EB030C07D212198CF0004C43EB0C03001B61EB0C01A3
:20644000DFF8A4E14FEA1154A4EB135C1EEA430F18BF9EEA445F00F0B08023EA6E035242B6
:2064600021EA0451C3EB6E0338BF5B1EDCF1200E25D322FA0CFE10EB0E0043FA0CFE41EB98
:206480000E01CCF1200E03FA0EFE10EB0E0051F10001CCF1200E29D412FA0EF201EB045178
:2064A000BDE8104058BF7047401C1CBFB2F1004F704700280CBF491C20F00100704712EB1C
:2064C000020E43EB030218BF4FF0010E4EEA4202ACF1200CDCF11E0E54D943FA0CFE10EBA7
:2064E0000E0051F1FF31CCF11E0ED5D50EF1010E12FA0EFE404141EB010101EB445C5FEADF
:206500005C5C10D910EBDE7001EB045138BFBEF1004FBDE8104018BF704700280CBF491C80
:2065200020F00100704730D24FEAD42C11F5001124F400641BD0B1FA81F20B3AA41AA41EF7
:20654000D2F12003914030FA03F31943904001EBCC71002C01EB0451BDE81040A8BF70478F
:2065600001F1C0414FF0000001F000417047B0FA80F310FA03F100D110BDE41A173C4805A9
:20658000C90AE4E701EB045110BD491001EB0451BDE810404FEA300002E04FF0000170477E
:2065A0004A0008BF0042F8D0B2F5001F28BF704701F000414FF0000070479EEA445F07D032
:2065C00011EA5E0FBDE8104004BF002100207047BDE8104070B5FFF795FE00BF40DFF63EEE
:2065E00083F00041104670470000E0FF43004FEAD30C4FEA3C0C43401FBF40070CF16051C9
:2066000013F0FE4F70471CF0006F03D100200CF0004170470CF0004343EA507010B540EAF5
:20662000CC0000F00EF800BF000000924FEA0001FFF7B6BE4FF000414FF00000A1F500212D
:2066400070470EF1020E2EF0030E5EF8044B244204D44FEA4102B2F17F4F11D84FEA400310
:20666000B3F17F4F0CD80ED14FEAD07CB2F17F4F0CEB4C0C0CF1020C08BF4CEBD17C04E066
:206680004FF0080C01E04FEAD17C0CEB4C0324FA03F404F00704B4F1040C06D20EEB840CD0
:2066A000BDE810404CF0010C6047DFE80CF0070802024FF00040A0F5800010BD084642002E
:2066C00018BFD2F1807288BF00F0004010BD4FF04070E1EE100A7047809A90418E418F8092
:2066E0004545454949498E8F9092924F994F555559999A9B9C9D9E9F41494F55A5A5A6A7DC
:20670000A8A9AAABAC21AEAFB0B1B2B3B4B5B6B7B8B9BABBBCBDBEBFC0C1C2C3C4C5C6C715
:20672000C8C9CACBCCCDCECFD0D1D2D3D4D5D6D7D8D9DADBDCDDDEDFE0E1E2E3E4E5E6E769
:20674000E8E9EAEBECEDEEEFF0F1F2F3F4F5F6F7F8F9FAFBFCFDFEFF01030507090E10121C
:206760001416181C1E000004000200018000400020001000080004000200000000800040D8
:20678000002000100008004000200010000800040002C700FC00E900E200E400E000E5000C
:2067A000E700EA00EB00E800EF00EE00EC00C400C500C900E600C600F400F600F200FB0097
:2067C000F900FF00D600DC00A200A300A500A7209201E100ED00F300FA00F100D100AA00A4
:2067E000BA00BF001023AC00BD00BC00A100AB00BB0091259225932502252425612562251F
:20680000562555256325512557255D255C255B251025142534252C251C2500253C255E2524
:206820005F255A25542569256625602550256C256725682564256525592558255225532522
:206840006B256A2518250C25882584258C2590258025B103DF009303C003A303C303B5003D
:20686000C403A6039803A903B4031E22C603B50329226122B1006522642220232123F700DF
:206880004822B0001922B7001A227F20B200A025A00061006200630064006500660067003E
:2068A000680069006A006B006C006D006E006F0070007100720073007400750076007700E0
:2068C000780079007A00A100A200A300A500AC00AF00E000E100E200E300E400E500E60032
:2068E000E700E800E900EA00EB00EC00ED00EE00EF00F000F100F200F300F400F500F600B0
:20690000F800F900FA00FB00FC00FD00FE00FF00010103010501070109010B010D010F0153
