:020000040800F2
:10000000E06801207547000825040008270400085F
:100010002B0400082F04000833040008000000002F
:10002000000000000000000000000000AD0100081A
:10003000370400080000000001020008194A000807
:100040008F4700088F4700088F4700088F47000838
:100050008F4700088F4700088F4700088F47000828
:100060008F4700086F1600088F4700088F47000869
:100070008F4700088F4700088F4700088F47000808
:100080008F4700088F4700088F47000800000000D6
:10009000000000000000000000000000E54500082E
:1000A0008F4700088F4700088F4700088F470008D8
:1000B0008F4700088F4700088F4700088F470008C8
:1000C0008F4700088F4700088F4700088F470008B8
:1000D0008F4700088F470008C74200080000000053
:1000E0008F4700088F4700088F4700080000000076
:1000F0000000000000000000000000008F47000822
:1001000000000000553F00088F4700088F47000897
:1001100000000000000000000000000000000000DF
:100120008F4700088F4700088F4700088F47000857
:100130008F470008000000000000000000000000E1
:10014000000000000000000000000000390400086A
:100150008F4700088F4700088F4700088F47000827
:100160008F4700088F4700080000000000000000D3
:10017000000000000000000000000000000000007F
:10018000000000008F470008000000000000000091
:100190008F4700088F470008DFF80CD012F054F8A2
:1001A0000048004775020008E0680120294B1968E3
:1001B0000868B0E8F04F80F30988BFF36F8F4FF005
:1001C000000080F3118870470000000006480068B6
:1001D000006880F3088862B661B6BFF34F8FBFF343
:1001E0006F8F00DF00BF00BF08ED00E0DFF80C00FC
:1001F000016841F470010160704700BF88ED00E0C4
:10020000EFF30980BFF36F8F124B1A681EF0100FC7
:1002100008BF20ED108A20E9F04F106008B44FF0BD
:10022000500080F3118805F014FA4FF0000080F3BD
:10023000118808BC19680868B0E8F04F1EF0100F6C
:1002400008BFB0EC108A80F30988BFF36F8F704746
:1002500000BF00BF60160020EFF311804FF0500187
:1002600081F31188704780F311887047EFF30580A0
:10027000704700007FB54FF440700FF053F804F062
:10028000EDF840F6B83001F044FF40214B4810F043
:1002900079F9012803D18021484810F08DF904F044
:1002A00001F903F04CFF01F05EFE4548454B464A1C
:1002B00001210090454808F004FE002044490870E0
:1002C0004870887000221421082004F0F6FB414990
:1002D000086000220121402004F0EFFB3E49086045
:1002E00000220121082004F0E8FB3C4908603C485A
:1002F00000684FF47A72B0FBF2F1481EB0F1807FD3
:1003000001D301201BE0481E4FF0E022506150173E
:100310000F22002807DA13071D0E324B00F00F04DE
:10032000241F1D5503E013071C0E2F4B1C5400BF48
:1003300000204FF0E022906107201061002008B1FA
:1003400000BFFEE70020294A0223CDE901200093E7
:1003500003900346402226A1264804F0B3FE002065
:10036000254A0323CDE901200093039003464FF46F
:10037000807222A1234804F0A5FE0020224A032314
:10038000CDE901200093039003464FF480721FA132
:10039000204804F097FE00201F4A0123CDE90120E8
:1003A00000930390034680221CA11D4804F08AFE9E
:1003B00005F09CFA002004B070BD0000000402406B
:1003C000F817002010170020D0160020FC3D012057
:1003D00098160020F00D0020F40D0020F80D0020EC
:1003E000B808002018ED00E000E400E00000002064
:1003F00042535000791600080C0000204C3052582F
:1004000000000000FD110008100000204C3054587E
:1004100000000000B112000808000020484450000D
:10042000431E0008704700BFFEE700BFFEE700BFA5
:10043000FEE700BFFEE7704710B5064805F07FFEF7
:1004400018B1044808F0E3FC02E0024807F017FD89
:1004500010BD0000FC3D012010B505F06AFA04460D
:1004600011F092FE11F086FE10BD70B502460C46EA
:10047000FF25FF2309E012F8010B80EA0501FC4883
:10048000405C80EA0305FB48435C2000A4F10106C0
:10049000B4B2F0D143EA052070BD70B50546002422
:1004A000F548C0880012F5498871F3488079C87111
:1004B000012D02D11020487002E02020EF49487041
:1004C00000240FE0ED48011900235A1EEC48006893
:1004D00004F09CFB012240F22771EA4811F097FDDD
:1004E000601CC4B2142CEDDB052001F012FE70BDBF
:1004F00070B500240020E44909684870E349087099
:10050000E349088051E0E348E049097810F83120D8
:10051000DF4801880088401CDD4B1880DE480068F9
:100520004254DC48D949097800EBC10040880112E7
:10053000184602880088401C1880D74800688154FB
:10054000D448D249097800EBC10082781846018866
:100550000088401C1880D04800684254CD4BCB4DD9
:100560002D7803EBC5035B88C3F30B02C94BC74D62
:100570002D7803EBC5035968C74B1B68C44D2D8804
:10058000581911F009FEC348C049097800EBC100B1
:100590004088C0F30B00BE4909880844BC49088064
:1005A000BA480078401CB9490870B8480078BB497F
:1005B00009788842A7DBB6480088801CB849488083
:1005C000084640880012B7498870B5488078C870DE
:1005D000B3484188AC480068FFF747FF0446B0487D
:1005E00084802012AF4908714C71AF480088AC4933
:1005F000C880AD4800880012AA498871AA480078CE
:10060000C871A9480088401CA7490880084600888E
:10061000B0F5004F01DB0020088070BD70B52DEDF6
:10062000028B82B006469FEDA10AB0EE408A0024FC
:1006300000259F48007840287ED007DC90B3102822
:100640007BD020287AD0302879D12AE2502877D060
:10065000602876D07528F7D120208E4908709549FA
:100660008C48416140886FF30B0000F201208949FA
:1006700048800846408820F47040488060208249C5
:100680000968087001208549087000BF8A48007811
:100690000128FBD10023821E88498948006804F0A4
:1006A000B5FA7FE3FFE787480078012858D113F0B7
:1006B000AFFB8548834A00905288C2F30B01814A00
:1006C000824B5068824A01F0C5FC82490860FFF7FE
:1006D000C3FE8149086008460068000E7B49087126
:1006E0007D480068000C48717B480088000A8871CA
:1006F00079480078C8717448784B754A2021009079
:10070000724801F075FC7349086002206149087065
:10071000084640886FF30B00203048800846408828
:1007200020F4704048806D48486001205B490870A3
:1007300000205549096805E035E314E01FE1FAE3BC
:1007400032E332E3087000BF5B4800780128FBD138
:100750000023821E59495A48006804F057FA00E005
:1007600000BF00BF9DE75748007800287ED155485C
:1007700040680078000653494968497840EA0140DA
:1007800050494968897840EA01204E494968C9784A
:10079000084353490860084600684F490968884281
:1007A000E4D14848007A412861D1102039490870C5
:1007B000084640886FF30B00001D488008464088BB
:1007C00020F470404880474848602020087208465E
:1007D00040896FF30B00401D48810846408920F492
:1007E00070412C4841814049C16021202949087449
:1007F0000846408A6FF30B000C3048820846408A56
:1008000020F4704123484182384941612220214926
:1008100008760846408B6FF30B00401D488308465E
:10082000408B20F470411B4841833149C161302025
:10083000184981F820000846408C6FF30B00401DDA
:1008400048840846408C20F470411248418429496C
:10085000416231200F4981F828000846408D6FF32E
:100860000B00401D48850846408D45E086E083E04A
:100870002C3F01082C4001087A0800206408002061
:10088000F40D00200044004058080020B00800206B
:10089000B2080020A4210020600800209808002051
:1008A0008208002024000020AC0800200000000086
:1008B0008A080020342F002079080020AF0800208B
:1008C000F80D002054210020A0080020F421002071
:1008D000640900209C080020A408002014220020A5
:1008E000A80800208C090020910900209709002009
:1008F000A4090020AA09002020F47041FD48418588
:10090000FD49C1623220FB4981F830000846408E23
:100910006FF30B00401C48860846408E20F470415F
:10092000F4484186F54941634220F24981F8380094
:10093000F3480178EF48408F61F30B00ED49488799
:100940000846408F20F47041EA484187ED49C16371
:100950000820ED4908701020EC490968087000BFB4
:10096000EB4800780128FBD10023821EE949EA48C0
:10097000006804F04BF900E000BF00BF4CE3E7481B
:100980000078002879D1E548406800780006E349FE
:100990004968497840EA0140E0494968897840EA75
:1009A0000120DE494968C9780843DD4908600846E6
:1009B0000068DC490968884272D1D848007A10285A
:1009C00006D020284BD0212858D0222866D15DE0BF
:1009D0002020C8490870CA480178C648408861F399
:1009E0000B00C44948800846408820F47040488085
:1009F000C448486021200872084640896FF30B0004
:100A0000401C48810846408920F47041B948418122
:100A1000C549C1602220B74908740846408A6FF36F
:100A20000B00401C48820846408A20F47041B148BF
:100A30004182BE4941610320B34908702020B34977
:100A40000968087000BFB24800780128FBD1002374
:100A5000821EB049B048006804F0D8F81FE0AF48E3
:100A6000807AA7490870AD48C168A5480278A548B2
:100A700011F092FB01F0B7FB11E011E0A748C1684B
:100A8000A9480978017001F0AEFB08E0A348C168ED
:100A9000A6480978017001F0A6FB00E000BF00BF86
:100AA000BAE29E48007800287ED19C4840680078D1
:100AB00000069A494968497840EA014097494968DF
:100AC000897840EA012095494968C97808439449E2
:100AD000086008460068934909688842E4D18F4855
:100AE000007A212869D004DC102807D020287DD185
:100AF00026E022287BD03028F9D1D7E000208C498D
:100B000048708C4948708C4948708C4948708849B5
:100B1000C86880478749C86880478749C868804750
:100B20008649C86880478248854908608148854968
:100B3000086081488449086080488449086030E141
:100B40007648C06800780011814908707348C06811
:100B5000007800F00F0088707048C0688078F0B1AD
:100B60006E48C068407800EE100AF8EE400A6B4804
:100B7000C068807800EE100AB8EE400A80EE801A55
:100B8000B0EE418AF7EE000A80EE880ADFED710AC6
:100B900020EE200ABCEEC00A10EE100A84B26C48A7
:100BA00084800146C86800E0FCE080470020684976
:100BB0004870084662490860F3E05848C068007809
:100BC0000011654908705548C068007800F00F00B2
:100BD00088705248C068807808B35048C068407830
:100BE00000EE100AF8EE400A4C4801E0D8E022E09E
:100BF000C068807800EE100AB8EE400A80EE801AD5
:100C0000B0EE418AF7EE000A80EE880ADFED510A65
:100C100020EE200ABCEEC00A10EE100A84B24E4844
:100C200084800146C868804700204B4948700846C8
:100C300044490860B5E03948C06800780011474968
:100C400008703648C068007800F00F00887033489C
:100C5000C0688078F0B13148C068407800EE100A72
:100C6000F8EE400A2D48C068807800EE100AB8EE11
:100C7000400A80EE801AB0EE418AF7EE000A80EE5C
:100C8000880ADFED340A20EE200ABCEEC00A10EE1E
:100C9000100A84B2314884800146C8688047002029
:100CA0002E4948700846284908607AE01B48C06809
:100CB000007800112A4908701848C068007800F0D0
:100CC0000F0048801548C068807890B11348C0680C
:100CD000407800EE100AF8EE400A1048C0688078AC
:100CE00000EE100AB8EE400A80EE801AB0EE418A9B
:100CF00038E044E0A4210020B0090020630900206E
:100D0000BC090020B60900209808002058080020DF
:100D100079080020AF080020F80D002054210020A1
:100D2000A8080020A4080020BE090020BD0900205A
:100D3000CC080020DC080020EC0800203809002046
:100D40002C09002030090020340900205809002017
:100D5000FC0800200000C8420C0900201C090020EB
:100D600048090020F7EE000A80EE880A5FED070AC6
:100D700020EE200ABCEEC00A10EE100A84B200EE8B
:100D8000104AB8EE400AFE4880ED010A0146C868E4
:100D900080470020FA4948700846FA49086000E098
:100DA00000BF00BF38E137E136E1F748007800289E
:100DB0007ED1F548406800780006F34949684978D3
:100DC00040EA0140F0494968897840EA0120EE494B
:100DD0004968C9780843ED49086008460068EC494D
:100DE00009688842E4D1E848007A1028E0D1E64852
:100DF000C0680078212839D003DC38B120287CD1A4
:100E000066E030287AD04028F9D1C5E0DE49C968CB
:100E1000481C4FF4007101F044FA05464FF400708D
:100E200001F06AFADB4948602020087008464088D3
:100E30006FF30B0000F2012048800846408820F440
:100E4000704048806020D449096808700120D34967
:100E5000087000BFD24800780128FBD10023821E11
:100E6000D049D148006803F0D1FED2E0C649C96834
:100E7000481C4FF4007101F014FA05464FF400705D
:100E800001F03AFAC34948602020087008464088BB
:100E90006FF30B0000F2012048800846408820F4E0
:100EA000704048806020BC4909680870012000E05B
:100EB000B0E0BA49087000BFB94800780128FBD1FA
:100EC0000023821EB749B848006803F09FFEA0E0E7
:100ED000AD49C968481C4FF4007101F0E2F90546BC
:100EE0004FF4007001F008FAAA4948602020087009
:100EF000084640886FF30B0001E089E01CE000F237
:100F0000012048800846408820F4704048806020D6
:100F1000A149096808700120A049087000BFA048D5
:100F200000780128FBD10023821E9E499E4800685C
:100F300003F06CFE6DE06EE09349C968481C4FF405
:100F4000006101F0AEF905464FF4007001F0D4F9EC
:100F50009049486020200870084640886FF30B00D5
:100F600000F2012048800846408820F47040488004
:100F7000602089490968087001208849087000BF0D
:100F8000874800780128FBD10023821E85498648C6
:100F9000006803F03BFE3CE07B49C968481C4FF405
:100FA000007101F07EF905464FF4006001F0A4F9EC
:100FB0007849486020200870084640886FF30B008D
:100FC00000F2014048800846408820F47040488084
:100FD000084640680078496881F800046D48406818
:100FE00000F580606B49486060206B4909680870B3
:100FF00001206A49087000BF694800780128FBD1C8
:101000000023821E67496848006803F0FFFD00E086
:1010100000BF00BF00E000BF00BF012063490870AF
:1010200002B0BDEC028B70BD2DE9F0474FF0000916
:101030005F480468002500265E480078AB2872D11E
:101040005C484078C0F30010002841D059484078EF
:10105000C0F34010002837D057480078401C56494C
:10106000087008460078042803DD54A012F0D4FE6E
:10107000BFE0002721E05548C1191422544811F05F
:101080008BF807F1140087B24FF0000812E05048C7
:1010900000EB080100235A1E4E48006803F0B6FD1D
:1010A000012240F227714C4810F0B1FF08F1010015
:1010B00000F0FF08B8F1140FE9DBA7F10800474979
:1010C00049888842D7DB94E000203B49087090E0D3
:1010D0003848418836480068FFF7C7F981463548E7
:1010E000808848457ED10120FFF7D7F914F8010B1D
:1010F0003B49087014F8010B487014F8010B887014
:101100006078217800EB012035498880A41C0846CE
:1011100080781D49087032488088488024480068DB
:10112000841C002620E061E0605D174901F836006C
:10113000681C85B260194078615D00EB012012499E
:1011400001EBC6014880A81C85B260190E4901EB6D
:10115000C60148600C4800EBC6004088C0F30B0095
:10116000284485B2701C86B212484088801EA8426E
:1011700001DD0A2ED8DBF0B2FFF750FA39E031E09A
:10118000480900205809002054210020A808002008
:10119000A4080020A421002058080020980800205E
:1011A00079080020AF080020F80D00207808002002
:1011B0005C0800207A0800209608002041542B4E3D
:1011C00020444953434F4E0D0000000024000020EE
:1011D0000C190020F40D002000440040820800207B
:1011E0008A0800200020FFF758F902E00020FFF7EE
:1011F00054F901204A490870BDE8F087002400BF77
:1012000000235A1E47494848006803F0CFFD0546B1
:10121000012DF5D14248007801282CD10024414805
:101220000078424908703F48407848703D48C0788F
:101230003C49897800EB01203C4948803948407995
:101240003849097900EB0120384988803548C07950
:101250003449897900EB01203449C8800846408828
:1012600040F63101884203DD0020FFF716F902E065
:1012700002202B4908702A4800780228C0D12C4946
:1012800008191422274910F087FF04F1140084B2D2
:10129000A4F10800254949888842B1DB00240320D5
:1012A0001F490870FFF7C0FE002022490870A7E719
:1012B0000024002500BF00235A1E1F491F48006854
:1012C00003F074FD0646012EF5D1FFF711F9002455
:1012D0001FE01B48011914221A4810F05DFF04F1A9
:1012E000140084B200250FE01648411900235A1E4D
:1012F0001548006803F08AFC012240F22771134868
:1013000010F085FE681C85B2142DEDDB052000F081
:1013100000FFA4F108000E4949888842CBDAD8E7DB
:1013200078080020E4180020F00D00207A08002042
:1013300020190020040E0020B4080020F80D002021
:10134000240000200C190020F40D0020004400406F
:10135000820800200CB50020019000906F480068C2
:1013600040F480306D49086000BF6C48006800F4AC
:10137000003000900198401C0190009818B9019825
:10138000B0F5A04FF1D16548006800F4003010B10D
:101390000120009001E0002000900098012844D135
:1013A0005E484030006840F080505C494031086041
:1013B0005B48006840F4404059490860574808308D
:1013C0000068564908310860084600680860084609
:1013D000006840F4805008605248091F0860081FE8
:1013E000006840F08070091F086000BF4B4800682B
:1013F00000F000700028F9D040F202704A490860FD
:1014000046480830006820F003004449083108606D
:101410000846006840F00200086000BF3F480830FE
:10142000006800F00C000828F8D10CBD00B53F485A
:10143000006840F470003D4908603848006840F09A
:1014400001003649086000203449083108603348FB
:10145000006837490840314908603648091D08606E
:10146000081F006820F48020091F086000202B4915
:101470000C310860FFF76EFF4FF000602B49803998
:10148000086000BD70B50020002102220023022464
:10149000224D08352D6805F00C0020B1042806D037
:1014A000082829D107E0244D244E356028E0244D3A
:1014B000224E356024E0194D2D1D2D68C5F3805353
:1014C000164D2D1D2D6805F03F044BB11C4DB5FB8D
:1014D000F4F5124E361D3668C6F3881605FB06F184
:1014E0000E4D2D1D2D68C5F301456D1C6A00B1FB25
:1014F000F2F5124E356003E00F4D104E356000BF1F
:1015000000BF064D08352D68C5F303150D4E705DFF
:101510000A4D2D68C540094E356070BD0038024047
:10152000007000400C304108003C024088ED00E0B3
:10153000FFFFF6FE103000240024F400B80800205D
:1015400000366E01BC08002000B585B001210846B8
:101550000FF00CFB012188030FF051FB4FF67F7059
:10156000039000208DF810008DF8130003A9FE48A9
:101570000EF0A6FF4EF27F30039003A9FB480EF059
:101580009FFF0021FA4810F08CFC032100200FF08F
:101590000EFD0820019000208DF8080008208DF82D
:1015A000090001208DF80A0001A80EF03FFB092078
:1015B0008DF800000E208DF8010000208DF802004B
:1015C00001208DF8030068460DF0B1FE01210807E7
:1015D0000FF004FB01200FF051F8012108460FF035
:1015E00088F805B000BD38B5FFF7B4FEE1480068E3
:1015F0004FF47A72B0FBF2F1481EB0F1807F01D354
:1016000001201BE0481E4FF0E022506150170F22CE
:10161000002807DA13071D0ED74B00F00F04241F14
:101620001D5503E013071C0ED44B1C5400BF0020B3
:101630004FF0E022906107201061002008B100BF48
:10164000FEE702F02FFF03F02AF802F078FD00F029
:101650008AFCCB48CB4BCC4A01210090CB4807F009
:1016600030FC0020CA4908704870887038BD10B539
:1016700008200EF04CFB10BD0EB5002500240026FE
:10168000002700BFA146A246A34600200290804644
:10169000019004F04EF90090D2E3BE480068007853
:1016A00088B1012802D002287ED11AE0B94800682A
:1016B000407838B9B7490968886880470120B5493A
:1016C000096848708CE0B34800684078012807D169
:1016D000B0490968C86880470020AE490968487069
:1016E0007EE0641CAB480068408801282ED1AA48DF
:1016F000007858B90024A749096888688047012004
:10170000A44909684870A449087067E0A1480068C6
:1017100090ED010AB0EE001AC0EE010A00EE104A88
:10172000B8EE400AF4EEC00AF1EE10FA56D80024E2
:1017300098490968C8688047002096490968487038
:101740009449096808709449087047E09248007805
:1017500070B900248F4909688868804701208D4945
:10176000096848708C480078401C8B49087035E047
:101770008948007801281DD18648006890ED010A4B
:10178000B0EE001AC0EE010A00EE104AB8EE400AB0
:10179000F4EEC00AF1EE10FA20D800247D49096861
:1017A000C86880477C4800E019E00078401C7A490E
:1017B000087013E07848007802280FD17548006857
:1017C000D0ED010A00EE104AB8EE400AF4EEC00A6D
:1017D000F1EE10FA02D800206F49087000E000BF57
:1017E00000BF6E480068007888B1012802D0022846
:1017F00073D11AE069480068407838B967490968C8
:1018000088688047012065490968487074E063482A
:1018100000684078012807D160490968C868804796
:1018200000205E490968487066E06D1C5B480068EE
:101830008078012825D15A48007858B900255749A1
:1018400009688868804701205449096848705449EC
:1018500008704FE051490968888800EBD071B5EBFA
:10186000610F47D300254D490968C86880470020AB
:101870004A49096848704949096808704849087028
:1018800038E04748007870B90025444909688868FD
:101890008047012041490968487041480078401C50
:1018A0003F49087026E03E480078012816D13B49A0
:1018B0000968888800EBD071B5EB610F1AD33749FE
:1018C0000968C8688047002034490968487034486E
:1018D0000078401C324908700CE00CE03048007879
:1018E000022807D12D4800688088A84202D800202D
:1018F0002B49087000E000BF00BF2A48006800784C
:1019000088B1012802D002287DD11AE0254800685C
:10191000407838B9234909688868804701202149FF
:101920000968487098E01F4800684078012807D18E
:101930001C490968C868804700201A49096848702E
:101940008AE0761C174800688078012849D116483B
:10195000007858BB00261349096888688047012031
:1019600010490968487022E000000240000402406B
:1019700000440040B808002018ED00E000E400E05A
:10198000F817002010170020D0160020FC3D012081
:1019900098160020580900205F0900202C0900201B
:1019A0005C090020300900205D09002002E0FE49AA
:1019B00008704FE0FD490968888800EBD071B6EBEC
:1019C000610F47D30026F9490968C868804700209D
:1019D000F64909684870F54909680870F2490870C5
:1019E00038E0F148007878B90026F049096888683D
:1019F00080470120ED4909684870EB480078401C99
:101A0000E949087026E026E0E7480078012815D16A
:101A1000E6490968888800EBD071B6EB610F19D3ED
:101A2000E2490968C86880470020E04909684870B1
:101A3000DD480078401CDC4908700BE0DA4800788B
:101A4000022807D1D94800688088B04202D8002017
:101A5000D549087000E000BF00BFD5480068007895
:101A600088B1012802D0022873D11AE0D04800685A
:101A7000407838B9CE490968886880470120CC4948
:101A80000968487074E0CA4800684078012807D1A6
:101A9000C7490968C86880470020C5490968487077
:101AA00066E07F1CC24800688078012825D1C148C3
:101AB000007858B90027BE49096888688047012026
:101AC000BB4909684870BB4908704FE0B8490968CC
:101AD000888800EBD071B7EB610F47D30027B4497A
:101AE0000968C86880470020B14909684870B04952
:101AF00009680870AF49087038E0AE48007870B9DE
:101B00000027AB490968886880470120A84909680F
:101B10004870A8480078401CA649087026E0A548EF
:101B20000078012816D1A2490968888800EBD07195
:101B3000B7EB610F1AD39E490968C8688047002037
:101B40009B49096848709B480078401C9949087077
:101B50000CE00CE097480078022807D19448006810
:101B60008088B84202D800209249087000E000BF87
:101B700000BF9148007803285CD09048007830B1CD
:101B800001281CD0032831D0042852D150E0002075
:101B90008B49087001218B480EF00EFD642000F087
:101BA000B8FA012187480EF009FD642000F0B1FA6F
:101BB00085A012F031F901208049087039E0804891
:101BC000007840B185A012F027F94FF000080320FB
:101BD0007A49087009E008F10108B8F1C80F04D982
:101BE0004FF0000800207549087022E07248007824
:101BF000012805D10420714908700020019016E0E9
:101C000008F10108B8F1C80F07D94FF0000873A018
:101C100012F002F90198401C01900198052806D99C
:101C200000200190654908706FA012F0F5F800E0FF
:101C300000BF00BF09F10109B9F57A7F03D300F0B5
:101C40008AF96C4908706C48407888B36A484078D3
:101C500002282ED1012069490870FFF775FC102079
:101C600067490870084640886FF30B00401C4880A5
:101C70000846408820F4704048805F48401C486017
:101C8000312060490968087001205F49087000BF71
:101C90005E4800780128FBD10023821E5C495D4824
:101CA000006802F0B3FF4FF0000A0020524948706C
:101CB0002EE05148407801282AD10AF1010ABAF1F0
:101CC000320F25D310204E490870084640886FF324
:101CD0000B00401C48800846408820F47040488033
:101CE0004548401C4860312046490968087000BFDB
:101CF000464800780128FBD10023821E444945480C
:101D0000006802F083FF4FF0000A00203A49487053
:101D1000402141480EF036FC012825D13F4800788B
:101D200001282CD10BF1010B3D490870BBF5967FC2
:101D300025D3002048703B4948703B4948703B49D7
:101D400048703749C86880473649C868804736496F
:101D5000C86880473549C868804700BF80212E4841
:101D60000EF02CFC00BFFEE72C48007810B90120D3
:101D70002A4908704FF0000B0020294908702C48B0
:101D80000078022808D10298401C02900298C828C6
:101D900002D30120264908701848007801284BD149
:101DA00000201649087045E05D0900203009002038
:101DB000340900205E090020060E00206109002081
:101DC000050E00200000024041542B4220534C4499
:101DD0004E2041424B45590D0000000041542B421A
:101DE0002041445620310D0041542B42205253547F
:101DF0000D00000063090020203C00206209002043
:101E0000A42100205808002098080020790800200C
:101E1000AF080020F80D002000040240401600200A
:101E2000CC080020DC080020EC0800203809002045
:101E300078080020FFF7D7FB0A21684603F031FB42
:101E40002BE408B556E04FF480612B480EF09AFB66
:101E5000012807D129484078012803D12749087073
:101E6000002048704FF4806123480EF08BFB30B99E
:101E70002248407818B901202049087048701F484E
:101E8000007801282BD11D484078012810D141024B
:101E90001B480EF091FB022117480EF08DFB1948EC
:101EA000194B1A4A01210090194808F05FFC13E011
:101EB0001248407880B94FF4007111480EF07CFB55
:101EC00002210D480EF07AFB1248134B134A0121F0
:101ED00000900F4806F0F5FF0020084908700748F9
:101EE0004078012803D10949094808F074FE0A2006
:101EF00003F016FBA7E70000000002409816002040
:101F00000004024064180020481800208C4801207A
:101F1000FC3D0120F817002010170020D0160020EB
:101F200070B5002400250FE02E480DF058FB00BFCF
:101F300002212C480DF074FC0028F9D029480DF03E
:101F40008AFB0444681CC5B20A2DEDDB0A20B4FBF1
:101F5000F0F0C0B270BD70B500250024FFF7E0FFBF
:101F60000546204670BD00B58DB0012108020EF077
:101F700046FE012108460EF0F9FD10200B900320CB
:101F80008DF8300000208DF833000BA916480EF0B4
:101F900097FA0DF037FA0020019002900390049018
:101FA00001A80DF069FA002005908DF818008DF851
:101FB00019000890099001208DF8280005A909480A
:101FC0000DF02BFA03230122042106480DF0ABFA91
:101FD000012104480DF067FAFFF7BDFF03490870BF
:101FE0000DB000BD00200140000002406309002048
:101FF0002DE9F043C9B006460F4690469946509CDD
:102000000025002002908DF8100020200C90002266
:10201000414603A811F027FE0546BDB902A84B466C
:102020003A463146009003A811F0AEFD05466DB961
:1020300002982060206800EB090102AA03A811F0B1
:1020400005FE05462068029908442060284649B0EC
:10205000BDE8F0832DE9F043C9B006460F4690462F
:102060009946509C0025002002908DF810002020F9
:102070000C900022414603A811F083FD0546BDB92E
:1020800002A84B463A463146009003A811F00AFDDB
:1020900005466DB902982060206800EB090102AA8C
:1020A00003A811F061FD05462068029908442060EC
:1020B000284649B0BDE8F08310B5034607E018781C
:1020C0000C78A04201D0002010BD5B1C491C100000
:1020D000A2F10104A2B2F2D10120F5E7002000E054
:1020E000401C1928FCD3704700B5002202E0FFF71E
:1020F000F5FF521C40F2A7308242F8D300BD00B574
:102100000246002302E0FFF7E9FF5B1C9342FAD38B
:1021100000BD10B50346002402E0FFF7E5FF641C94
:102120009C42FAD310BD000038B501228BA18C4827
:102130000BF000FD054603228AA18D480BF025FD1A
:1021400005466B464FF400728A4989480BF091FEB0
:10215000054687480BF0D5FF0546022281A1844839
:102160000BF013FD05466B464FF400728149804821
:102170000BF07FFE05467E480BF0C3FF05460122AB
:1021800078A17B480BF001FD0546002408E0641CA3
:102190006B464FF40072784975480BF092FD054686
:1021A0007548C07F0428F2D171480BF0AAFF38BDF2
:1021B00010B5002400F0A0FE012268A168480BF0D1
:1021C000B9FC04460CB1012010BD132265A168487A
:1021D0000BF0DBFC04460CB10220F5E764480BF081
:1021E00090FF0020F0E770B5002500240DF0D6FD2B
:1021F00000200DF0B6FDF3200EF0D1F802213820BA
:102200000DF020FE0546092D23D15C4801785C487D
:102210000DF08AFF054600BF09E05A4A115D584A91
:102220002244501C0DF080FF0546601CC4B2534888
:1022300000788442F1DB54480178514809300DF0B0
:1022400073FF0546514801784D480A300DF06CFF88
:10225000054601200DF085FD0DF0ADFD70BD10B5FA
:102260000024474800784549087008460078FF2850
:1022700001D1FFF7B8FF002406E041482044407830
:1022800040490855601CC4B23C4800788442F4DBE5
:102290003B48407A3C4908703948807A3B4908708D
:1022A00010BD70B504460D46002603222DA130480E
:1022B0000BF06BFC0646364B2A4621462C480BF0A9
:1022C000D8FD06462A480BF01CFF0646022225A12F
:1022D00027480BF05AFC06462D4B2A462146244837
:1022E0000BF0C7FD064622480BF00BFF06460EB169
:1022F000304670BD0020FCE7F8B5044600260025F6
:1023000000200090032217A119480BF03EFC06465E
:102310006B4622461F4916480BF0D3FC064614486C
:102320000BF0EFFE1EB11B48401E067003E00020BC
:102330001849491E08700098A0420CD20098401C11
:10234000C5B205E000201349491E4855681CC5B2B6
:10235000601C8542F6DB0F48401EF8BD303A2F0066
:1023600034220020303A2F736469662E6461740051
:1023700094260020BF090020BF0B0020BC090020CC
:1023800000000608B6090020BE090020BD09002093
:1023900084090020352F002010B502F023FB10BD6A
:1023A00010B502F02CFB10BD0020FE490860091D8D
:1023B0000860091D0860091D0860FA492431086099
:1023C000091D0860091D0860F748F64938310860A2
:1023D0000020091D0860704701460020012900D037
:1023E00011B9F24B197000E0262070470146ED4A02
:1023F000121D106820F0FF0008431060704770B590
:10240000044606E0E7483430056805F0450000B1B1
:1024100000E0F7E700BF04200EF092FD20B1042099
:102420000EF099FD032070BD01200EF089FD20B152
:1024300001200EF090FD0120F5E7DA481030006829
:10244000A04201D01020EEE740F2FF500EF083FDD5
:10245000D4481430006808210840C0B2E3E72DE9F1
:10246000FC4107460D460026002400200090019004
:102470000820CF4908601020486040208860002074
:10248000C8604FF48060086108460EF0C6FC10205A
:10249000FFF7B5FF044614B12046BDE8FC81C548EE
:1024A00000880004C24908603720486040208860E6
:1024B0000020C8604FF48060086108460EF0ADFC53
:1024C0003720FFF79CFF04460CB12046E5E74FF0AC
:1024D000FF30B94908600820486030208860022039
:1024E000C860002008610120486108460EF0C1FC68
:1024F0000320FFF704FE0020AD4908603320486048
:10250000402088600020C8604FF480600861084661
:102510000EF083FC3320FFF772FF04460CB1204617
:10252000BBE70DE04FF400100EF00AFD40B19D48EE
:10253000803000684DF82600761C022E00D307E09C
:1025400098483430006840F22A6108400028E9D0F9
:1025500000BF08200EF0F4FC20B108200EF0FBFCB8
:1025600004209AE702200EF0EBFC20B102200EF0CE
:10257000F2FC022091E720200EF0E2FC20B12020A6
:102580000EF0E9FC062088E74FF400700EF0D8FC4E
:1025900028B14FF400700EF0DEFC07207DE740F21A
:1025A000FF500EF0D8FC00980006009901F47F411E
:1025B00040EA0120009901F47F0140EA11200099CE
:1025C00040EA1160686001980006019901F47F41BA
:1025D00040EA0120019901F47F0140EA11200199AC
:1025E00040EA11602860204657E77CB50546002484
:1025F00000200090019000260DB1022600E0002688
:1026000068481430006800F0007008B10E207CBDEE
:102610006849098888B26946FFF721FF04460CB172
:102620002046F4E7019800F4802060B361480088F8
:1026300000045F490860372048604020886000201F
:10264000C8604FF48060086108460EF0E6FB372052
:10265000FFF7D5FE04460CB12046D8E75448066083
:10266000062053494860402088600020C8604FF42D
:102670008060086108460EF0D0FB0620FFF7BFFE21
:1026800004462046C3E72520C1E770B5044600256F
:102690004A480078032802D12725284670BD4748BC
:1026A000007838B145480078012803D043480078C5
:1026B000022819D1B4F5805F02D127252846EDE71D
:1026C000E0B2FFF792FF054675B93648001D006875
:1026D00020F4C0503349091D0860084600682043B3
:1026E00008600846006808602846D7E710B5044629
:1026F0002F48046007202E49486040208860002051
:10270000C8604FF48060086108460EF086FB072021
:10271000FFF775FE10BDF0B5014600200022274BE3
:102720001B7881F85630234B1B88A1F85430244B7A
:102730001B681A0E93090B70C2F383034B7002F0EF
:1027400003038B701E4B1B68C3F30742CA701C4BFC
:102750001B88C3F307220A71194B1A784A715B6808
:102760001A0E1301CB80164B5B68C3F30742CB886C
:1027700043EA1213CB8002F00F030B72104B9B88BD
:10278000C3F30722D3094B72C2F380138B72C2F3D7
:102790004013CB72C2F300130B7300234B73074B30
:1027A0001B780FE0002C0140FF07C000E80D00205F
:1027B00050390020E40D002064390020E00D002095
:1027C0007C3900203BB1FE4B1B78012B03D0FC4B26
:1027D0001B78032B4FD193071B0D0B61F94B1A7913
:1027E0000B6943EA82030B61F64B9B681A0E0B6977
:1027F00043EA92130B61C2F3C2030B7502F00703A5
:102800004B75F04B9B68C3F3074253098B75C2F3BA
:102810008203CB7593075B0F0B76EA4B1B89C3F3DF
:1028200007220B7E43EAD2130B760B695B1C002454
:10283000C1E912340B7E9B1C012404FA03F3DC175C
:10284000D1E91256A5FB037C06FB03C305FB043349
:10285000C1E912730C7A0123A3400B650024D1E96E
:1028600012650B6DA6FB037C05FB03C306FB04335B
:10287000C1E912732EE0D24B1B78022B2AD1D14B27
:102880001A7993069B0A0B61CE4B9B681A0E0B6953
:1028900043EA02230B61CB4B9B68C3F307420B69EE
:1028A00013430B61C74B1B89C3F307220B695B1CE6
:1028B0004FF40074A3FB04464FF480630025A4FB8F
:1028C000037C06FB03C304FB0533C1E912734FF419
:1028D00000730B65C2F3801301F8193F93065B0E7A
:1028E0004B70B84B1A7A4B7843EAD2134B7002F014
:1028F0007F038B70B34BDB681A0ED309CB70C2F326
:1029000041130B71C2F382034B7193071B0F8B7141
:10291000AC4BDB68C3F307428B7943EA92138B71AC
:10292000C2F34013CB7100230B7202F001034B7210
:10293000A44B9B89C3F30722D3098B72C2F3801384
:10294000CB72C2F340130B73C2F300134B73C2F389
:1029500081038B7302F00303CB739A4B1A7B5308EA
:102960000B7401234B74984B1B681A0ECA741939E7
:10297000954B1B68C3F307421402CC85924B1B880E
:10298000C3F30722CB8D1343CB858F4B1A781406E4
:102990000C635B681A0E0B6B43EA02440C638A4BB0
:1029A0005B68C3F307420B6B43EA02240C63864B5C
:1029B0009B88C3F307220B6B13430B63824B1A797B
:1029C00034235A54804B9B681A0E35235A547E4B3D
:1029D0009B68C3F3074214068C637B4B1B89C3F3CC
:1029E00007228B6B43EA02448C63774B1A7A8B6B1A
:1029F00043EA02248C63744BDB681A0E8B6B13431F
:102A00008B63714BDB68C3F307423C235B5C43EA97
:102A100012143C235C5413071C0DCC876A4B9B8912
:102A2000C3F30722CB8F1343CB87674B1A7B540822
:102A300040235C54012441235C54F0BD70B5002652
:102A40004FF4803505E06148046804F0450000B1AA
:102A500003E02800A5F10105F5D100BF15B104F090
:102A6000040028B1032604200EF075FA304670BD2C
:102A700001200EF065FA18B1012601200EF06BFA64
:102A800040F2FF500EF067FA3046F0E72DE9F041D2
:102A900005460E464FF0000805E04C48076807F071
:102AA000450000B100E0F8E700BF04200EF048FA4E
:102AB00028B104200EF04FFA0320BDE8F081012078
:102AC0000EF03EFA20B101200EF045FA0120F4E7A5
:102AD0003E4824380068A84201D01020EDE740F2BB
:102AE000FF500EF038FA39482038046804F460408A
:102AF00018B9200C30804046DFE704F4005008B1DC
:102B00001320DAE704F4804008B11020D5E704F47C
:102B1000004008B10F20D0E74046CEE738B500248A
:102B2000012000900EF073F910B92524204638BD1D
:102B300023480078042825D0002025490860022079
:102B40004860C02088600020C8604FF48060086141
:102B500008460EF062F9FFF771FF04460CB12046FB
:102B6000E5E71A48203800681749086017481C38FC
:102B700000684860154818380068886013481438A1
:102B80000068C8600E48007858B10D4800780128E8
:102B900007D00B480078062803D00948007802289F
:102BA00022D100200A490860032048604020886044
:102BB0000020C8604FF48060086108460AE0000009
:102BC000E00D00207C3900208C390020342C01409D
:102BD000503900200EF021F969460320FFF756FF17
:102BE00004460CB12046A2E7FE480078032816D11F
:102BF000BDF800000004FC49086003204860402044
:102C000088600020C8604FF48060086108460EF0BC
:102C100004F9FFF713FF04460CB1204687E7F1489B
:102C2000007804282AD0BDF80000F0490860BDF8FB
:102C300000000004EC49086009204860C02088605A
:102C40000020C8604FF48060086108460EF0E5F887
:102C5000FFF7F4FE04460CB1204668E7E44800683C
:102C6000E4490860E248001D00684860E048083018
:102C700000688860DE480C300068C860002056E7B5
:102C800010B506E0DA482030046804F0450000B1D1
:102C900000E0F7E700BF04200EF052F920B1042055
:102CA0000EF059F9032010BD40F2FF500EF053F919
:102CB0000020F8E770B500264FF4803506E0CC48D8
:102CC0002030046804F0450000B103E02800A5F1BD
:102CD0000105F4D100BF15B104F0040028B10326AA
:102CE00004200EF038F9304670BD04F0400018B1F1
:102CF000002640200EF02FF93046F5E770B500258C
:102D00004FF4803404E080200EF01AF900B103E0A3
:102D10002000A4F10104F6D100BF0CB9032070BD5E
:102D200040F2FF500EF017F92846F8E72DE9F0477A
:102D30000027002400260025A046A146EC20AE492D
:102D400008750020086048608860C860086108460F
:102D50000EF039F803200EF056F8A5481038006838
:102D600040F48070A2491039086000BF12E00020D2
:102D70009D49086048608860C8604FF480600861C1
:102D800008460EF04AF8FFF7B9FF044604B903E01D
:102D9000781CC7B24A2FEADB00BF14B12046BDE859
:102DA000F0874FF4D57090490860082048604020B3
:102DB00088600020C8604FF48060086108460EF00B
:102DC0002CF8FFF777FF044624B9012085490870E5
:102DD0004FF0804900208449086037204860402037
:102DE00088600020C8604FF48060086108460EF0DB
:102DF00014F83720FFF703FB0446002C4BD134E0D6
:102E00000020794908603720486040208860002011
:102E1000C8604FF48060086108460DF0FEFF37205F
:102E2000FFF7EDFA04460CB12046B8E7734849EACB
:102E300000006D490860292048604020886000201B
:102E4000C8604FF48060086108460DF0E6FFFFF7A8
:102E500017FF04460CB12046A1E76548066801202B
:102E600080EAD67080F001086D1CB8F1000F03D124
:102E70004FF6FF708542C3D34FF6FF70854202D3F1
:102E80001B2420468BE706F08040060032D002204B
:102E9000544908702EE01CE059485349086001204D
:102EA0004860402088600020C8604FF4806008615E
:102EB00008460DF0B2FFFFF7E3FE04460CB12046D2
:102EC0006DE74B480668012080EAD67080F0010863
:102ED0006D1CB8F1000F03D14FF6FF708542DBD3B4
:102EE0004FF6FF70854202D31B24204657E703208C
:102EF0003C490870204652E73EB5002400250121D8
:102F000040480DF033FE0121C8020DF078FE01218A
:102F1000C8020DF0B8FE4FF45070019002208DF8F9
:102F200008008DF8090000208DF80A0001208DF8B6
:102F30000B0001A934480DF0C3FA48F230000190AB
:102F400001A932480DF0BCFA0C2206212E480DF0E2
:102F500042FB0C2208212C480DF03DFB0C220921DC
:102F600029480DF038FB0C22042128480DF033FBD2
:102F70000C22052125480DF02EFB0C220F212348A1
:102F80000DF029FB00214FF400600DF07CFEFFF7EF
:102F90000BFA31208DF8000000208DF8010006208A
:102FA0008DF8020001208DF8030068460CF0BFF98F
:102FB000FFF7BCFE044614B9FFF7B0FD04461CB988
:102FC0001348FFF7A8FB044634B91149B1F854106F
:102FD0000804FFF78BFB0446ECB94FF40060FFF7E1
:102FE00054FB17E0E00D002050390020E40D0020D4
:102FF000142C01407C39002038390020000010805A
:103000000080FF80030040000000024000040240F6
:10301000A039002004461CB1FE480078032812D1D4
:10302000FD4890F8560020B1FB4890F85600012862
:1030300001D1042500E002252846FFF7D7F900203A
:10304000FFF7CAF9044620463EBD10B500200DF03A
:10305000DAFE002010BD70B590B004460E4615464D
:1030600000BFEE480CF029FD0028FAD1EB480CF027
:10307000FBFB4FF000600190E94802900394049537
:103080000020059006904FF4806007908000089023
:103090008000099000200A904FF440300B900420EB
:1030A0000C9003200D904FF400000E9080100F90B4
:1030B00001A9DA480CF07AFC2021D8480CF0C6FCB3
:1030C0000121D6480CF0ACFC10B070BD01460020C8
:1030D00002E04910421CD0B20129FAD170472DE913
:1030E000F84F8146174698460A9C4FF0000AD3468F
:1030F0004D464FF0FF36B9F1000F02D12620BDE852
:10310000F88F0020C64954390860C2480078022868
:1031100005D10402780A40EAC8574FEA682800201F
:10312000C04988604860401E086001204861002056
:10313000C860086108460DF09CFEB9486C3800680C
:1031400000F0007008B10E20D9E7002C21DDB4F5A5
:10315000006F1EDC601E2040D8B92046FFF7B6FF86
:103160000090B14804601020AF494860402088605A
:103170000020C8604FF48060086108460DF04DFEE5
:103180001020FFF73CF98246BAF1000F03D05046F9
:10319000B5E72620B3E700980001A24988600846F9
:1031A00044604FF0FF300860012048610220C86091
:1031B0000020086108460DF05CFE9B480760112066
:1031C00099494860402088600020C8604FF48060C2
:1031D000086108460DF021FE1120FFF710F9824624
:1031E000BAF1000F01D0504689E7904800780028D6
:1031F0005AD1FFF7D1F817E04FF400400DF0A0FED0
:1032000070B14FF0000B05E08548006845F82B00D1
:103210000BF1010BBBF1080FF6D32035844E03E010
:103220000EB904206BE7761E7D484C38006840F2EA
:103230002A6108400028DFD008200DF081FE20B16F
:1032400008200DF088FE042059E702200DF078FEDA
:1032500020B102200DF07FFE022050E720200DF06B
:103260006FFE20B120200DF076FE062047E74FF4D8
:1032700000700DF065FE28B14FF400700DF06BFE8C
:1032800007203CE703E06648006828602D1D4FF4E6
:1032900000100DF055FE0028F5D1FFF781F840F23F
:1032A000FF500DF058FE39E060480078012835D114
:1032B00000206049087060490870604908705848EB
:1032C0004438006840F22A310843554944390860BF
:1032D00053485438006840F0080051495439086098
:1032E000002221464846FFF7B6FE00E0761E4B4816
:1032F0005838006800F0006038B95048007820B9AC
:103300004C48007808B9002EF0D10EB90420F6E63A
:103310004848007810B1474890F800A05046EEE6C3
:103320002DE9FF5F17469846DDE90E464FF000098C
:10333000CA464FF0FF3542490098086000203849DE
:103340005439086033480078022805D10402780A0D
:1033500040EAC8574FEA6828002032498860486030
:10336000401E0860012048610020C86008610846CE
:103370000DF07FFD2A486C38006800F0007018B12D
:103380000E2004B0BDE8F09F002C21DDB4F5006FE5
:103390001EDC601E2040D8B92046FFF797FE83460A
:1033A00021480460102020494860402088600020A7
:1033B000C8604FF48060086108460DF02EFD1020B3
:1033C000FFF71DF88146B9F1000F03D04846D8E752
:1033D0002620D6E7012E6ED906FB04F0B0F1007F5F
:1033E00001D32620CDE74FEA0B100E49886006FB7B
:1033F00004F048604FF0FF3008600120486102206F
:10340000C8600020086108460DF033FD06480760DB
:10341000122017E0E00D0020A0390020586402407F
:10342000802C01406439002050390020E80D002034
:10343000FFFF7F00EA0D0020E90D0020EB0D0020CA
:10344000EC0D0020F9494860402088600020C860E9
:103450004FF48060086108460DF0DFFC1220FEF793
:10346000CEFF8146B9F1000F01D0484689E7F04808
:10347000007800287ED1FEF78FFF1EE04FF4004059
:103480000DF05EFDA0B14FF0000A07E0E9480068CA
:10349000E949096841F82A000AF1010ABAF1080F5E
:1034A000F4D3E54800682030E3490860E34D04E0C8
:1034B00015B9042065E7AEE06D1EDE484C380068A3
:1034C00040F22A3108400028D8D008200DF038FDFD
:1034D00020B108200DF03FFD042052E702200DF03E
:1034E0002FFD20B102200DF036FD022049E72020FB
:1034F0000DF026FD20B120200DF02DFD062040E727
:103500004FF400700DF01CFD28B14FF400700DF069
:1035100022FD072035E709E0C6480068C64909686A
:103520000860C5480068001DC34908604FF40010DA
:103530000DF006FD0028EFD14FF480700DF000FD76
:1035400020B3BF48007838B1BD480078012803D0C7
:10355000BB480078022819D10020B44908600C202B
:103560004860402088600020C8604FF48060086197
:10357000084600E011E00DF050FC0C20FEF73FFF84
:103580008146B9F1000F01D04846FAE6FEF708FF80
:1035900040F2FF500DF0DFFC3DE0A5480078012827
:1035A00039D10020A74908700120A74908700020E0
:1035B000A64908709F484438006840F22A31084301
:1035C0009C49443908609B485438006840F0080022
:1035D00098495439086006FB04F100220098FFF76F
:1035E0003AFD00E06D1E9A48006800F0006008B9DE
:1035F000002DF7D10DB90420C3E600BF9348007831
:1036000018B9904800780028F8D08E48007810B19A
:103610008C4890F800904846B3E61CB5044600205C
:10362000019000908B4800880004804908600D20BC
:103630004860402088600020C8604FF480600861C6
:1036400008460DF0EAFB7B484C380068009003E028
:1036500078484C3800680090009800F04500002839
:10366000F6D001200DF06CFC20B101200DF073FCB0
:1036700001201CBD04200DF063FC20B104200DF0DE
:103680006AFC0320F5E76B48703800680D2801D00C
:103690001020EEE740F2FF500DF05DFC65486C38FD
:1036A000006801900198C0F3432020700020E0E7FB
:1036B0002DE9FF5F86B017469846149D002600202E
:1036C0000590049000248146039082460290019563
:1036D000DDF818B0DDF818B0BBF1000F03D12620DB
:1036E0000AB0BDE8F09F00205249543908605A4999
:1036F00088604860401E0860012048610020C86062
:10370000086108460DF0B5FB4A486C38006800F0C7
:10371000007008B10E20E3E749480078022805D17F
:103720000502780A40EAC8574FEA6828002D1FDDD5
:10373000B5F5006F1CDC681E2840C8B92846FFF7A5
:10374000C5FC059039480560102038494860402084
:1037500088600020C8604FF48060086108460DF062
:103760005CFB1020FEF74BFE06461EB13046B7E765
:103770002620B5E73748008800042C4908600D2052
:103780004860402088600020C8604FF48060086175
:1037900008460DF042FB0D20FEF731FE06460EB145
:1037A00030469DE723486C38006803904FF0FF34A3
:1037B0001CE0641E2748008800041C4908600D2096
:1037C0004860402088600020C8604FF48060086135
:1037D00008460DF022FB0D20FEF711FE06460EB145
:1037E00030467DE713486C3800680390039800F476
:1037F000807008B9002CDCD10CB9292070E70B4887
:103800000760182009494860402088600020C8608F
:103810004FF48060086108460DF0FFFA1820FEF7AB
:10382000EEFD0646D6B130465AE70000503900207A
:10383000E80D0020802C0140EC0D0020FFFF7F00F0
:10384000E00D0020EA0D0020E90D0020EB0D002026
:1038500000640240E40D0020643900200020F84993
:10386000087005980001F7498860084645604FF0E8
:10387000FF300860012048610020C86008610846E8
:103880000DF0F7FA4FF0FF34EF48007800287CD1B4
:10389000FEF782FD43E04FF480400DF051FBC8B3CA
:1038A0000198A0EB0900202821D20198A0EB090083
:1038B00000F0030020B90198A0EB0900800804E0A3
:1038C0000198A0EB09008008401C02904FF0000A0C
:1038D00009E0DE49DBF8000008600AF1010A0BF19B
:1038E000040B09F1040902988245F2D30FE04FF06E
:1038F000000A05E05BF82A00D44908600AF1010AD1
:10390000BAF1080FF6D30BF1200B09F120096FF083
:10391000404404E0FFE70CB90420E1E6641ECB4814
:103920004C38006840F21A6108400028B3D00820E3
:103930000DF006FB20B108200DF00DFB0420CFE6B2
:1039400002200DF0FDFA20B102200DF004FB022050
:10395000C6E610200DF0F4FA20B110200DF0FBFAAD
:103960000520BDE64FF400700DF0EAFA30B14FF4D7
:1039700000700DF0F0FA0720B2E606E0FEF710FD49
:1039800040F2FF500DF0E7FA43E0AF48007801281D
:103990003FD10020AE490870A9490870AD490870B0
:1039A000AA484438006840F21A310843A74944390C
:1039B0000860402229460698FFF74DFBA34854387B
:1039C000006840F00800A1495439086000E0641E16
:1039D000A148006800F0006008B9002CF7D11CB9BC
:1039E000FFF78AFA04207BE64FF0FF3400E0641E04
:1039F0009848007820B99648007808B9002CF6D18C
:103A00000CB904206CE69248007810B19048007818
:103A100066E640F2FF500DF09EFA04A8FFF7FDFDA8
:103A2000064603E004A8FFF7F8FD06463EB99DF8F8
:103A300010000728F6D09DF810000628F2D0304676
:103A40004EE62DE9FF5F84B0DDE912470026002035
:103A500003900290002580468146019007FB04FBFD
:103A6000DDF810A0DDF810A0BAF1000F03D1262078
:103A700008B0BDE8F09F00207449543908607149CE
:103A800088604860401E0860012048610020C860CE
:103A9000086108460DF0EDF96C486C38006800F0DC
:103AA000007008B10E20E3E76C480078022808D1C6
:103AB0000402DDE90601400A40EAC1504912CDE99D
:103AC0000601002C1FDDB4F5006F1CDC601E2040D9
:103AD000C8B92046FFF7FAFA039061480460102045
:103AE0005F494860402088600020C8604FF48060D3
:103AF000086108460DF091F91020FEF780FC06469B
:103B00001EB13046B4E72620B2E7012F6FD907FB7C
:103B100004F0B0F1007F01D32620A9E74F480078D8
:103B200038B14E480078012803D04C48007802286C
:103B30002DD14C480088000449490860372048606E
:103B4000402088600020C8604FF48060086108460B
:103B50000DF063F93720FEF752FC06460EB13046F1
:103B600086E73F48076017203D494860402088604D
:103B70000020C8604FF48060086108460DF04DF9E0
:103B80001720FEF73CFC06460EB1304670E734497C
:103B90000698086019204860402088600020C860AE
:103BA0004FF48060086108460DF037F91920FEF7E0
:103BB00026FC06460EB130465AE70398000121491B
:103BC000886007FB04F048604FF0FF300860012078
:103BD00048610020C860086108460DF04AF91A489B
:103BE0000078002872D1451EFEF7D6FB54E0F8E0BD
:103BF0004FF480400DF0A4F9B0B3ABEB08002028DF
:103C000033D2ABEB080000F0030018B9ABEB0800AF
:103C1000800803E0ABEB08008008401C01904FF0E7
:103C2000000909E00949DAF80000086009F1010912
:103C30000AF1040A08F1040801988145F2D324E04E
:103C4000E90D002064390020E80D0020802C01409F
:103C5000EA0D0020EB0D002000640240E00D002082
:103C600050390020E40D002012E04FF0000905E07B
:103C70005AF82900F849086009F10109B9F1080F5B
:103C8000F6D30AF1200A08F120086FF0404503E05E
:103C90000DB90420ECE66D1EEF484C38006840F288
:103CA0001A3108400028A3D008200DF049F920B1AE
:103CB00008200DF050F90420DAE602200DF040F95A
:103CC00028B102200DF047F90220D1E640E0102093
:103CD0000DF036F920B110200DF03DF90520C7E6B2
:103CE0004FF400700DF02CF928B14FF400700DF076
:103CF00032F90720BCE64FF480700DF021F900B3D3
:103D0000D648007838B1D5480078012803D0D34888
:103D10000078022815D10020D14908600C204860A5
:103D2000402088600020C8604FF480600861084629
:103D30000DF073F80C20FEF762FB06460EB130461C
:103D400096E6FEF72DFB40F2FF500DF004F948E037
:103D5000C4480078012844D10020C34908700120DC
:103D6000C24908700020C2490870BB484438006846
:103D700040F21A310843B8494439086007FB04F19E
:103D800040220498FFF767F9B3485438006840F0C0
:103D90000800B149543908604FF0FF3500E06D1E4E
:103DA000B448006800F0006008B9002DF7D11DB9D3
:103DB000FFF7A2F804205BE64FF0FF3500E06D1E30
:103DC000AB48007820B9A848007808B9002DF6D192
:103DD0000DB904204CE6A448007810B1A248007840
:103DE00046E640F2FF500DF0B6F802A8FFF715FCCA
:103DF000064603E002A8FFF710FC06463EB99DF810
:103E000008000728F6D09DF808000628F2D03046B2
:103E10002EE610B54FF480700DF092F888B39348F9
:103E20000078012814D100208D4908600C204860DA
:103E3000402088600020C8604FF480600861084618
:103E40000CF0EBFF0C20FEF7DAFA8749087002E06D
:103E500000208549087080484838006840F4807028
:103E60007D4948390860081D00684CF23A318843A2
:103E700079494439086001207D4908707A48007802
:103E800010BDFFE702200DF05BF878B102200DF0C5
:103E900062F87148443800684CF23A3188436E4900
:103EA00044390860022070490870E9E708200DF0E5
:103EB00047F878B108200DF04EF86748443800689C
:103EC0004CF23A3188436449443908600420664919
:103ED0000870D5E720200DF033F878B120200DF0E0
:103EE0003AF85D48443800684CF23A3188435A4900
:103EF0004439086006205C490870C1E710200DF0C5
:103F00001FF878B110200DF026F8534844380068A7
:103F10004CF23A31884350494439086005205249EF
:103F20000870ADE74FF400700DF00AF880B14FF45F
:103F300000700DF010F84848443800684CF23A31EF
:103F4000884345494439086007204749087097E786
:103F5000002095E710B5FFF75CFF10BD70B5044673
:103F6000002514B92625284670BD43480088000462
:103F70003B4908600D204860402088600020C860F0
:103F80004FF48060086108460CF047FF0D20FEF7F3
:103F900036FA05460DB12846E6E72F486C3800682A
:103FA00020602846E0E708B5002000906846FFF74B
:103FB000D5FF08B1FF2008BD0098C0F34320FAE701
:103FC0002DE9FE4F83460E469146002002900025C3
:103FD00034462248007818B1680240EAD455640299
:103FE0000BF00300F0B14FF0000A18E04FF400703E
:103FF00000904FEA4A20071945EBE0733A461F4804
:10400000FFF76DF802904FF400721C4958460EF00D
:10401000C3F80BF5007B0AF1010000F0FF0ACA4566
:10402000E4DB16E0B9F1010F09D14FF4007022462C
:104030002B4600905846FFF752F8029009E04FF4E3
:10404000007022462B46CDE900095846FFF768F973
:1040500002900298BDE8FE8F802C0140E00D002008
:1040600050390020E80D0020EA0D0020E90D002065
:10407000EB0D002000640240E40D0020F839002020
:104080002DE9FE4F06468946924600200290002503
:104090004C462148007818B1680240EAD4556402C1
:1040A00006F00300F0B14FF0000B18E04FF400727F
:1040B00031461A480EF070F84FF4007000904FEA45
:1040C0004B20071945EBE0733A461448FFF7F0FA26
:1040D000029006F500760BF1010000F0FF0BD345CE
:1040E000E4DB16E0BAF1010F09D14FF4007022466B
:1040F0002B4600903046FFF7DBFA029009E04FF4C0
:10410000007022462B46CDE9000A3046FFF799FCA5
:1041100002900298BDE8FE8FE00D0020F8390020E3
:10412000014600BF704700BFBC4A128802F040023F
:10413000002AF9D0C2B2B94B1B1D1A80704700B5D6
:1041400087B0012108460CF011FD012148040CF054
:1041500045FD07220221B2480CF03DFA0722032157
:10416000AF480CF038FA0C20059002208DF81800AA
:104170008DF8190005A9AA480CF0A2F9A7480DF07E
:10418000A1FD4FF4E13001900020ADF80800ADF83A
:104190000A00ADF80C00ADF810000C20ADF80E00D0
:1041A00001A99E480DF0F5FD01219C480DF079FE16
:1041B00040219A480DF05DFF012240F225519748B9
:1041C0000DF025FF26208DF8000006208DF8010057
:1041D00000208DF8020001208DF8030068460BF0E6
:1041E000A6F807B000BD01208E4908708E480078FF
:1041F000202824D18C484078532820D18A488078C0
:1042000054281CD18848C078412818D186480079A4
:10421000542814D184484079452810D182488079A7
:1042200020280CD18048C079303880490870084671
:104230000078032846D100207D49087042E07A4882
:104240000078202819D178484078532815D176482D
:1042500080784C2811D17448C07844280DD1724818
:1042600000794E2809D170484079202805D16E4840
:10427000807930386F49087024E06B480078202836
:1042800020D16948407844281CD167488078492863
:1042900018D16548C078532814D163480079432861
:1042A00010D1614840794F280CD15F4880794E2861
:1042B00008D15D48C079202804D15B48007A3038A5
:1042C0005C490870704738B50020009040F22771B3
:1042D00052480DF0D7FE98B16A46574957480068D2
:1042E00000F0E3FD012805D1534801784B480DF05B
:1042F00003FE05E0002240F2277148480DF087FEDA
:1043000040F2255145480DF0BDFE00287FD040F217
:10431000255142480DF0F1FE40480DF0F1FDC4B2C8
:10432000474801780078401C454A1070454844547D
:1043300045480078072845D2DFE800F0040E18222F
:1043400044442F00412C03D101203F49087002E072
:1043500000203D49087035E0542C03D102203A4931
:10436000087002E00020384908702BE02D2C03D1A2
:1043700003203549087002E000203349087021E02D
:10438000422C06D100202E49087006202E490870C4
:1043900002E000202C49087014E02C4801780078D5
:1043A000401C2A4A1070204844540D2C09D100208A
:1043B00023490870FFF717FF00202449087022499D
:1043C000087000BF00BF1E48007814281FDB0020C3
:1043D0001B49087015480078032818D11C4800783C
:1043E00070B918480078AB2811D10120184908701D
:1043F00000236A4613491748006800F07CFC06E079
:1044000000236A460F491348006800F074FC0098C6
:1044100018B14FF080501049086038BD004400408A
:1044200000000240050E0020F83B0020060E002090
:1044300061090020090E0020010E0020F40D00206B
:10444000020E0020D0180020080E0020000E0020D0
:10445000040E0020F00D002004ED00E01CB5012149
:1044600002200CF083FB01208DF8040000208DF861
:10447000060003208DF8050000208DF8070080203D
:1044800000906946B6480CF01BF800208DF8040037
:104490004020009002208DF807006946B0480CF0DB
:1044A0000FF81CBD00B58DB0012188030CF0A7FBEF
:1044B000012103200CF05AFB01208DF83000002070
:1044C0008DF8320003208DF8310000208DF8330084
:1044D00048F203000B900BA9A2480BF0F1FF48F241
:1044E0000301A0480CF06AF844F20B200B900BA9D2
:1044F0009B480BF0E5FF0B2199480CF05FF84FF457
:10450000844197480CF058F800208DF830008DF861
:10451000330041F65C700B900BA992480BF0D0FF72
:1045200048F230100B900BA98D480BF0C9FF062103
:1045300001200CF03CFD4020099000208DF828005F
:104540000C208DF8290001208DF82A0009A80BF015
:104550006DFB17208DF820000E208DF82100002023
:104560008DF8220001208DF8230008A80AF0DFFE54
:10457000012108460CF032FB0122032178480CF09F
:104580002AF808200B9002208DF8300003208DF8C7
:1045900031000BA972480BF093FF6320069077203F
:1045A000ADF814000020ADF81C00ADF8160005A908
:1045B0004FF080400CF0E1FD7020ADF800000120CC
:1045C000ADF802000220ADF80C0000200290694610
:1045D0004FF080400CF09FFE0821C8060CF0F8FF59
:1045E0000DB000BD1CB54020009000208DF80400E7
:1045F00001208DF8060040200BF089FB402158482F
:104600000BF0C0FF01280FD15749087001F09AF94B
:10461000554948600C208DF8050001208DF80600F2
:1046200068460BF003FB2BE040214D480BF0AAFF3E
:1046300030BB00204C4908704C48007818B9012064
:104640004A49087013E001F07DF947494968401A6A
:104650004549886008468068142808D9084640788B
:1046600010B90120487002E002203F49487008203C
:104670008DF8050001208DF8060068460BF0D6FA8B
:104680001CBD10B54FF4004136480BF095FF10BD2E
:1046900010B54FF4004133480BF090FF10BD10B53A
:1046A00001212F480BF088FF10BD10B501212C48C7
:1046B0000BF084FF10BD10B5022129480BF07CFFE0
:1046C00010BD10B5022126480BF078FF10BD10B5C3
:1046D0002821C8060CF041FF012108460CF07EFAA3
:1046E00010BD10B500214FF080400CF036FF0021C6
:1046F00001200CF073FA10BD10B54FF4804118483A
:104700000BF05CFF3220FDF704FD10BD1CB501224B
:104710000021174809F00EFA00214FF400600CF058
:104720006EFA4FF45070009000208DF804000220C3
:104730008DF8050000208DF806008DF80700694609
:1047400008480BF0BDFE48F230000090694604486E
:104750000BF0B6FE4FF4804101480BF02DFF1CBD5D
:104760000004024000000240203C002040160020CF
:10477000342200200648804706480047FEE7FEE74F
:10478000FEE7FEE7FEE7FEE7FEE7FEE7FEE7FEE701
:104790002D14000899010008434A22F00700434AFB
:1047A00010600022414B5A604FF6F872404B5A603D
:1047B00000221A6001464FF6F8724A601A460A60F3
:1047C00070472DE9F04104464FF0000800F063FE09
:1047D0003848006820B9FFF7DFFF0120354908603D
:1047E00044B1083404F0070020B104F00700C0F120
:1047F00008000444002C32D04FF6F87084422ED2C8
:104800002A4F3846056801E02F462D686868A042A7
:1048100002D228680028F7D1254885421FD0386881
:1048200000F10808286838606868001B102810D953
:104830002E196868001B70606C6071681B4800E08E
:104840000068026852688A42FAD3026832600660E1
:1048500000BF194968680968081A1749086000F01C
:1048600075FD4046BDE8F08170B506463546B6B1E7
:10487000083D2C4600F00FFE61680C4800E000681F
:10488000026852688A42FAD30268226004600A49C8
:104890006068096808440849086000F057FD70BD69
:1048A0000548006870477047343C002044160020DB
:1048B0004C160020581600205416002000F1080164
:1048C00041604FF0FF31816000F10801C16001617A
:1048D00000210160704700210161704742684A6011
:1048E00093688B60936859609160086103685B1CF2
:1048F0000360704710B502460B685C1C0CB9106968
:1049000007E002F1080000E04068446824689C4227
:10491000FAD944684C604C68A160886041600A61C3
:104920001468641C146010BD01460A69D1E90130A5
:104930009860D1E9010358605068884201D18868C5
:104940005060002008611068401E106010687047B9
:10495000FBF782FC00BFFEE7001F4FF0807303608F
:10496000001F0160001F344B036014380260001FF9
:104970006FF00203036020387047304800684FF43E
:104980007A71B0FBF1F0401E4FF0E0214861072042
:104990000861704710B52A48006840F47000284943
:1049A00008600846006840F070400860FFF7E5FFC7
:1049B000002024490860FBF719FC2348006840F0F8
:1049C000404021490860FBF701FC002010BD704702
:1049D0004FF080501A491C390860BFF34F8FBFF366
:1049E0006F8F704710B5FBF737FC16480068401C06
:1049F00014490860BFF34F8FBFF36F8F10BD10B520
:104A000010480068401E0F4908600846006810B949
:104A10000020FBF728FC10BD10B5FBF71DFC00F0D3
:104A20001CFC20B14FF0805005491C390860002063
:104A3000FBF719FC10BD000051490008B808002020
:104A400020ED00E05C16002034EF00E070B5054674
:104A50000E462C46FFF7C6FFD4E90F12206801FB73
:104A6000020060600020A0632068A060E06B401E30
:104A7000226C216800FB0210E0604FF0FF306064A0
:104A8000A06476B9206908B9012000E0002080B94F
:104A900004F1100000F0C0FF01280AD1FFF798FFD1
:104AA00007E004F11000FFF709FF04F12400FFF70D
:104AB00005FFFFF7A4FF012070BD2DE9F047054673
:104AC0000E4691464FF00008C5B14C20FFF779FE25
:104AD00004469CB105FB06F0471C3846FFF771FE03
:104AE0002060206838B1E563266401212046FFF785
:104AF000ADFFA04602E02046FFF7B6FE4046BDE807
:104B0000F08710B50446FFF76DFF11E0606A08B941
:104B1000012000E0002038B904F1240000F07CFFFF
:104B200018B101F00DF800E005E0A06C401EA06493
:104B3000A06C0028EADC00BF4FF0FF30A064FFF754
:104B40005EFFFFF74FFF11E0206908B9012000E088
:104B5000002050B904F1100000F05EFF08B100F031
:104B6000EFFF606C401E606400E002E0606C0028B3
:104B7000EADC00BF4FF0FF306064FFF740FF10BD7C
:104B800070B50546FFF72EFFA86BE96B884201D18F
:104B9000012400E00024FFF732FF204670BD2DE91C
:104BA000F04104460E4615460027206C40B37DB9FF
:104BB0003146226CA0680DF0EFFA216CA068084421
:104BC000A060D4E9011088421AD32068A06017E0E1
:104BD0003146226CE0680DF0DFFA216CE068401A83
:104BE000E0602168E068884203D2216C6068401A66
:104BF000E060022D04D1A06B10B1A06B401EA06339
:104C0000A06B401CA0633846BDE8F0812DE9FF434E
:104C100083B0074688461D464FF000093C4600BF5A
:104C2000FFF7E0FEA06BE16B884201D3022D1DD19E
:104C30002A4641462046FFF7B2FF0646606A08B999
:104C4000012000E0002040B904F1240000F0E4FE5F
:104C5000012805D1FFF7BCFE02E00EB1FFF7B8FE58
:104C6000FFF7CDFE012007B0BDE8F083059818B925
:104C7000FFF7C5FE0020F6E7B9F1000F04D101A847
:104C800000F02DFF4FF00109FFF7B9FE00F003FC23
:104C9000FFF7A8FE606C401C08B900206064A06C9F
:104CA000401C08B90020A064FFF7A9FE05A901A8CF
:104CB00000F01CFFC0B92046FFF762FF70B104F19D
:104CC0001000059900F04CFE2046FFF71AFF00F097
:104CD0003DFB0028A4D1FFF77BFEA1E72046FFF7AC
:104CE00010FF00F033FB9BE72046FFF70AFF00F0C0
:104CF0002DFB0020B7E72DE9F0470646894615460B
:104D00001F463446FBF7A8FA8246A06BE16B884247
:104D100001D3022F20D13A4649462046FFF73FFFF4
:104D200010B10DB101202860A06C401C70B9606A00
:104D300008B9012000E0002058B904F1240000F077
:104D40006BFE30B12DB10120286002E0A06C401C48
:104D5000A0644FF0010801E04FF000085046FBF757
:104D600082FA4046BDE8F08770B50546FFF73AFE87
:104D7000A86B08B9012400E00024FFF740FE20469C
:104D800070BD70B504460D46206C70B1216CE068B2
:104D90000844E0606168E068884201D32068E06010
:104DA0002846226CE1680DF0F7F970BD2DE9FF434C
:104DB00083B0054688461E464FF000092C4600BFCA
:104DC000FFF710FEA06B58B3E76841462046FFF797
:104DD000D8FF8EB9A06B401EA063206908B90120DE
:104DE00000E00020B0B904F1100000F015FE012829
:104DF00010D1FFF7EDFD0DE0E760606A08B9012012
:104E000000E0002030B904F1240000F005FE08B1F4
:104E1000FFF7DEFDFFF7F3FD012007B0BDE8F083EB
:104E2000059818B9FFF7EBFD0020F6E7B9F1000F80
:104E300004D101A800F053FE4FF00109FFF7DFFD98
:104E400000F029FBFFF7CEFD606C401C08B9002084
:104E50006064A06C401C08B90020A064FFF7CFFD7F
:104E600005A901A800F042FEC0B92046FFF77CFF6B
:104E700070B104F12400059900F072FD2046FFF79F
:104E800040FE00F063FA00289AD1FFF7A1FD97E7F2
:104E90002046FFF736FE00F059FA91E72046FFF76B
:104EA00030FE00F053FA0020B7E72DE9F047054641
:104EB000884616462C46FBF7CFF98146A06BE8B131
:104EC00041462046FFF75DFFA06B401EA063606C6B
:104ED000401C70B9206908B9012000E0002058B9D1
:104EE00004F1100000F098FD30B12EB101203060C7
:104EF00002E0606C401C6064012700E00027484627
:104F0000FBF7B1F93846BDE8F0872DE9F0470546D3
:104F100088462C46FBF7A0F98146A06B38B1E768BC
:104F200041462046FFF72DFFE760012600E00026FE
:104F30004846FBF798F93046BDE8F08770B504465F
:104F4000FFF750FDA56BFFF75AFD284670BD70B501
:104F500004462546FFF746FDD5E90E10461AFFF731
:104F60004EFD304670BD0146886B704701460020FB
:104F70000BE0214A02EBC00252688A4204D10022AF
:104F80001D4B43F8302002E0401C0828F1D300BF3D
:104F9000704770B5044625462846FFF7E7FF2868A6
:104FA00010B12868FFF760FC2846FFF75DFC70BD74
:104FB00001468A6B0AB9012000E0002070470146D3
:104FC0008A6BCB6B9A4201D1012000E00020704730
:104FD000024600200BE0084B53F8303033B9064B43
:104FE00043F8301003EBC0035A6002E0401C08286D
:104FF000F1D300BF704700002C3C012010B5002405
:1050000007E004EB8401FE4A02EB8100FFF756FC47
:10501000641C0F2CF5D3FB48FFF750FCFA48FFF750
:105020004DFCFA48FFF74AFCF948FFF747FCF948FE
:10503000FFF744FCF348F8490860F348F749086073
:1050400010BD2DE9F04704460F4616469946DDF897
:105050002080002507E0795D04F134004155785D3A
:1050600000B902E06D1C102DF5D300BF00214320D4
:1050700001550F2E00D30E26E662201DFFF72BFCF4
:1050800004F11800FFF727FC2461C6F10F00A061AE
:105090006462BDE8F08770B505460E464420FFF710
:1050A00090FB044664B11EB9A800FFF78AFB00E03C
:1050B00030462063206B18B92046FFF7D5FB00244B
:1050C000204670BD2DE9FF4F81B0804615469946B8
:1050D000DDE90E7A28461099FFF7DDFF0446002C23
:1050E0004FD0681E216B01EB800B2BF0070B009556
:1050F0003A462046119B0299FFF7A3FF4A464146D4
:105100005846FFF729FC2060BAF1000F01D0CAF819
:105110000040FFF767FCC2480068401CC0490860B7
:10512000C048006840B9BF480460084600680128CC
:105130000CD1FFF763FF09E0BB48006830B9B948FC
:105140000068C06AB84201D8B6480460B748006831
:10515000401CB649086094F82C1001208840B449DE
:1051600009680843B2490860E16A01EB8101A44A79
:1051700002EB8100211DFFF7B1FB0126FFF73FFC89
:1051800001E04FF0FF36012E09D1A748006830B189
:10519000A4480068C06AB84201D2FFF719FC304643
:1051A00005B0BDE8F08F9C490968096809B901217B
:1051B00000E0002121B14FF0FF319E4A116006E06E
:1051C00095490968C968C8689A4A4168116070477A
:1051D00070B50546FFF706FC15B99248006800E077
:1051E00028460446201DFFF79FFB78B9E06A00EBD4
:1051F0008000834951F8200040B994F82C10012018
:1052000088408B490968814389480160A06A18B1C8
:1052100004F11800FFF788FB211D7D48FFF75EFBB6
:1052200085480068401C8449086080480068401C2C
:105230007E490860FFF7E3FB7B48006860B179486E
:105240000068844202D1FFF7C3FB05E0FFF7CAFB09
:10525000FFF7A9FFFFF7D3FB70BD2DE9F041002751
:1052600076480068002865D175480068401C74497C
:105270000860084606688EB96748D0F8008067481D
:105280000068654908606548C0F800806D4800689E
:10529000401C6C490860FFF786FF00BF6548006846
:1052A00086423BD300BF5C480068006808B9012013
:1052B00000E0002020B14FF0FF305E4908602CE094
:1052C00055480068C068C4686568AE4202D2594853
:1052D000056022E0201DFFF727FBA06A18B104F14A
:1052E0001800FFF721FB94F82C100120884050494A
:1052F000096808434E490860E16A01EB8101404AB0
:1053000002EB8100211DFFF7E9FA4649E06A0968CE
:10531000C96A8842C7D30127C5E700BF4148006872
:10532000C06A00EB8000364951F82000012806D9F8
:10533000012704E044480068401C43490860434892
:10534000006800B101273846BDE8F08170B500253E
:10535000FFF748FB39480068401E38490860084696
:10536000006800284BD12E480068002847D024E070
:105370002648C068C46804F11800FFF7D5FA201D5C
:10538000FFF7D2FA94F82C100120884028490968C8
:10539000084327490860E16A01EB8101184A02EBE2
:1053A0008100211DFFF79AFA1E49E06A0968C96A5F
:1053B000884202D30120254908601448006808B9D2
:1053C000012000E000200028D2D01F48006878B1FA
:1053D0000AE0FFF742FF10B101201C4908601A489B
:1053E0000068401E18490860174800680028F0D17E
:1053F00016480068012802D10125FFF7E9FA27E0E5
:105400006C3C0120983D0120AC3D0120C03D0120B5
:10541000D43D0120E83D01206416002068160020DC
:1054200070160020601600207C1600208C160020CC
:1054300078160020901600206C160020941600208C
:105440007416002088160020801600208416002084
:10545000FFF7D5FA284670BD10B50446F748006836
:105460004460F7480068844207D2F4480168091D87
:10547000F4480068FFF73EFA0CE0F0480168091DA7
:10548000F1480068FFF736FAF0480068844201D21C
:10549000EE48046010BDEE480068401CEC4908600E
:1054A00070472DE9F047044688464FF00009FFF7A2
:1054B000F2FFE3480768206800EB08052068B8425F
:1054C00007D92068A8420BD9BD4209D94FF001097C
:1054D00006E02068A84201D8BD4201D94FF0010979
:1054E0002560B9F1000F13D0D4480068001DFFF704
:1054F0001BFA50B9D148006890F82C100120884060
:10550000D44909688143D34801602846FFF7A4FFC6
:10551000FFF71CFF06460EB9FFF75AFABDE8F08701
:1055200070B504460026DCB1FFF7B5FFC44800683B
:105530000519C2480068001DFFF7F6F950B9BF48C9
:10554000006890F82C1001208840C2490968814306
:10555000C04801602846FFF77FFFFFF7F7FE0646C9
:105560000EB9FFF735FA70BD70B50446FFF73AFA89
:1055700014B9B248006800E020460646F56AFFF715
:105580003EFA284670BD2DE9F04780460D464FF0A3
:1055900000090F2D00D30E25FFF724FAB8F1000FF4
:1055A00002D1A648006800E040460446E66AAE42E2
:1055B0004BD0B5420BD9A148006884420DD09F481A
:1055C0000068C06AA84208D84FF0010905E09B486E
:1055D0000068844201D14FF00109E76AE562A069E1
:1055E00000F0004010B9C5F10F00A06107EB870182
:1055F000994A02EB81016069884201D1012000E0F3
:105600000020E0B1201DFFF78FF930B90120B8402C
:105610009049096881438F48016094F82C1001205B
:1056200088408C49096808438A490860E16A01EBAF
:105630008101894A02EB8100211DFFF74FF9B9F181
:10564000010F01D1FFF7C4F900BFFFF7D8F9BDE89A
:10565000F0877F48006818B10120804908601DE08C
:1056600000207E4908607B480068B0FA80F0C0F1F5
:105670001F0101EB8102784B03EB82004268526804
:10568000426000F108024368934202D142685268C6
:1056900042604268D268694B1A6000BF704770B5BB
:1056A0000546FFF79FF915B96448006800E02846F1
:1056B0000446201DFFF738F978B9E06A00EB800056
:1056C000654951F8200040B994F82C100120884019
:1056D0006049096881435F480160A06A18B104F11C
:1056E0001800FFF721F9211D5D48FFF7F7F8FFF7D4
:1056F00086F952480068844212D15A48006810B1B5
:10570000FFF766F915E0564800685749096888426E
:1057100003D10020494908600BE0FFF79AFF08E039
:105720005048006828B1FFF75DF9FFF73CFDFFF72F
:1057300066F970BD10B5014600200A46484C536911
:10574000A34201D1012300E0002373B1474C936AC7
:10575000A34201D1012300E0002333B9936A0BB9BE
:10576000012300E0002303B1012010BD70B5054600
:105770002C464CB331480068844225D0FFF732F9FB
:105780002046FFF7D7FF01281CD1201DFFF7CCF8DA
:1057900094F82C10012088402E49096808432D49AF
:1057A0000860E16A01EB81012B4A02EB8100211DB7
:1057B000FFF794F82149E06A0968C96A884201D371
:1057C000FFF706F9FFF71BF970BD2DE9F04105461B
:1057D00000262C46FAF740FD07462046FFF7AAFFB1
:1057E000012824D11A480068E0B91449E06A096820
:1057F000C96A884200D30126201DFFF795F894F866
:105800002C10012088401349096808431149086099
:10581000E16A01EB8101104A02EB8100211DFFF7D3
:105820005DF804E004F118011048FFF757F8384616
:10583000FAF719FD3046BDE8F0810000601600203F
:1058400074160020681600206416002090160020B0
:1058500094160020781600206C3C0120841600204D
:10586000E83D01207C16002070160020C03D01207C
:1058700010B50446206BFEF7F7FF2046FEF7F4FF55
:1058800010BD70B523E0FFF706FEB548006808B903
:10589000012000E000200546FFF758FDBDB9FFF7E5
:1058A000A1F8AF48C068C468201DFFF73DF8AD48B7
:1058B0000068401EAB490860AB480068401EAA491A
:1058C0000860FFF79CF82046FFF7D2FF00BFA6480C
:1058D00000680028D7D170BD00BFFFF7D2FFA348F2
:1058E00000680128F9D9FFF773F8F6E71FB5002023
:1058F000009001900290034680229DA103909E4853
:10590000FFF7E0FB0446012C09D1FAF7A5FC0120C2
:105910009A49086000209A490860FFF73BF81FBDCC
:1059200010B5FAF799FC002094490860FFF74FF88A
:1059300010BD10B5FFF756F891480468FFF75FF8FF
:10594000204610BD70B5FAF787FC05468C48046800
:105950002846FAF788FC204670BD824800687047E8
:1059600070B506460C468748016818313046FEF788
:10597000C1FF84480068001DFEF7D6FF50B981487A
:10598000006890F82C10012088407F490968814305
:105990007D480160601C30B97A480168091D7B4868
:1059A000FEF79CFF05E07648006805192846FFF7DA
:1059B00053FD70BD2DE9F04107460D46144645F0F4
:1059C00000407049096888616E480168183138469E
:1059D000FEF784FF6B480068001DFEF7A5FF50B975
:1059E0006848006890F82C100120884066490968D2
:1059F000814365480160601C30B962480168091D37
:105A00006248FEF76BFF05E05D4800680619304606
:105A1000FFF722FDBDE8F08170B50646F068C46866
:105A200004F11800FEF780FF59480068A8B9201D4E
:105A3000FEF77AFF94F82C1001208840524909683B
:105A4000084351490860E16A01EB8101474A02EBD2
:105A50008100211DFEF742FF04E004F118014D48CA
:105A6000FEF73CFF4749E06A0968C96A884204D9E1
:105A7000012501204849086000E00025284670BD46
:105A80002DE9F04105460F4647F000402860EC68DC
:105A90002846FEF749FF201DFEF746FF94F82C101C
:105AA0000120884038490968084337490860E16A9D
:105AB00001EB81012D4A02EB8100211DFEF70EFF53
:105AC0003049E06A0968C96A884204D90126012080
:105AD0003149086000E000263046BDE8F0812F49DA
