:020000040804EE
:10000000386A0120995D0408010404080304040807
:10001000070404080B0404080F040408000000008F
:10002000000000000000000000000000AD01040816
:1000300013040408000000000102040835610408EC
:10004000B35D0408B35D0408B35D0408655E04088D
:10005000B35D0408B35D0408B35D0408B35D040830
:10006000B35D0408DF1E0408B35D0408B35D040833
:10007000B35D0408B35D0408B35D0408B35D040810
:10008000B35D0408B35D0408B35D0408000000001C
:10009000000000000000000000000000FD5A0408FD
:1000A000B35D0408B35D0408B35D0408B35D0408E0
:1000B000B35D0408B35D0408B35D0408B35D0408D0
:1000C000B35D0408B35D0408B35D0408B35D0408C0
:1000D000B35D0408B35D040809570408000000007C
:1000E000B35D0408B35D0408B35D040800000000BC
:1000F000000000000000000000000000B35D0408E4
:100100000000000065520408B35D0408B35D0408F4
:1001100000000000000000000000000000000000DF
:10012000B35D0408B35D0408B35D0408B35D04085F
:10013000B35D0408000000000000000000000000A3
:10014000000000000000000000000000150404088A
:10015000B35D0408B35D0408B35D0408B35D04082F
:10016000B35D0408B35D0408000000000000000057
:10017000000000000000000000000000000000007F
:1001800000000000B35D0408000000000000000053
:10019000B35D0408B35D0408DFF80CD011F0E6FD90
:1001A0000048004775020408386A0120294B196885
:1001B0000868B0E8F04F80F30988BFF36F8F4FF005
:1001C000000080F3118870470000000006480068B6
:1001D000006880F3088862B661B6BFF34F8FBFF343
:1001E0006F8F00DF00BF00BF08ED00E0DFF80C00FC
:1001F000016841F470010160704700BF88ED00E0C4
:10020000EFF30980BFF36F8F124B1A681EF0100FC7
:1002100008BF20ED108A20E9F04F106008B44FF0BD
:10022000500080F3118806F0A2FD4FF0000080F32B
:10023000118808BC19680868B0E8F04F1EF0100F6C
:1002400008BFB0EC108A80F30988BFF36F8F704746
:1002500000BF00BF98190020EFF311804FF050014C
:1002600081F31188704780F311887047EFF30580A0
:10027000704700007FB54FF4802148020DF08EFCDE
:1002800062B64FF440700DF04FFC05F028FD05F00C
:10029000FDFC4FF4FA7003F030F805F081FB05F037
:1002A000AFFC022142480EF08BFD4FF40071414833
:1002B0000EF086FD05F0CBF802F008FF03F052F8CF
:1002C0003D49087003F0A6F805F078FD05F0DEFD65
:1002D0003A4800684FF47A72B0FBF2F1481EB0F170
:1002E000807F01D301201BE0481E4FF0E0225061C7
:1002F00050170F22002807DA13071D0E304B00F0AD
:100300000F04241F1D5503E013071C0E2D4B1C5416
:1003100000BF00204FF0E022906107201061002014
:1003200008B100BFFEE700221421402005F053FF72
:100330002549086000220121802005F04CFF234957
:10034000086000220121402005F045FF2049086097
:100350000020204A0223CDE90120009303900346A8
:100360004FF400721CA11D4806F03AFA00201C4A06
:100370000323CDE901200093039003464FF400725C
:1003800018A11A4806F02CFA0020194A0323CDE9D7
:1003900001200093039003464FF4007215A1174803
:1003A00006F01EFA06F030FE002004B070BD00001A
:1003B00000000240000402402C000020D40800206D
:1003C00018ED00E000E400E01C0000202000002008
:1003D000240000200000002042535000A11F040808
:1003E0000C0000204C305258000000007517040823
:1003F000100000204C30545800000000331804084E
:10040000704700BFFEE700BFFEE700BFFEE700BF8A
:10041000FEE7704710B5024809F085F810BD0000EE
:10042000144B012010B506F013FE044611F086F9B6
:1004300011F07AF910BD70B502460C46FF25FF2376
:1004400009E012F8010B80EA0501FE48405C80EAF1
:100450000305FD48435C2000A4F10106B4B2F0D1CD
:1004600043EA052070BD70B505460024F748C088F2
:100470000012F7498871F5488079C871012D02D1C1
:100480001020487002E02020F14948700320F14913
:10049000087000240FE0EE48011900235A1EEE48B0
:1004A000006805F041FF012240F22771EB4811F08E
:1004B00084F8601CC4B2142CEDDBE948007802F02B
:1004C0001CFF0120E349087070BD70B500240020B6
:1004D000E4490880E44909684870E4490870E4493F
:1004E000088051E0E348E149097810F83120E048FC
:1004F00001880088401CDE4B1880DF4800684254A9
:10050000DC48DA49097800EBC1004088011218463E
:1005100002880088401C1880D74800688154D5485C
:10052000D249097800EBC10082781846018800881A
:10053000401C1880D04800684254CE4BCB4D2D78DB
:1005400003EBC5035B88C3F30B02CA4BC74D2D7881
:1005500003EBC5035968C84B1B68C54D2D88581956
:1005600011F0F4F8C348C149097800EBC100408894
:10057000C0F30B00BE4909880844BD490880BB4848
:100580000078401CB9490870B8480078BB49097820
:100590008842A7DBB6480088801CB94948800846D5
:1005A00040880012B7498870B5488078C870B44850
:1005B0004188AD480068FFF73EFF0446B04884809C
:1005C0002012B04908714C71A74800680078622871
:1005D00004D0A54800680078632809D148F20100DA
:1005E000A749C8808020A74988710120C87117E0F9
:1005F000A5480088A249C880A34800880012A149E4
:100600008871A1480078C8719F480088401C9E49A5
:10061000088008460088B0F5004F01DB0020088004
:1006200070BD30B52DED028B81B005469FED970A68
:10063000B0EE408A002400208A490880944800785F
:1006400040287DD007DC88B1102866D0202878D0DB
:10065000302877D158E2502875D0602874D06128AE
:1006600073D07528F5D101F04BFAF7E3894800788B
:1006700001284FD113F040F98748864A00905288EC
:10068000C2F30B01834A854B5068854A02F0D6FDC0
:1006900084490860FFF7C6FE834908600846006881
:1006A000000E7E49087180480068000C48717E4841
:1006B0000088000A88717C480078C87176487B4BB6
:1006C000774A20210090754802F086FD7549086040
:1006D000022068490870084640886FF30B002030FC
:1006E00048800846408820F4704048806F48486041
:1006F00001206249087000205B49096808700120E8
:100700006B4908700023821E6A496B48006805F037
:100710000BFE00E000BF00BFA7E75E48007800289E
:100720007ED15C484068007800065A49496849789B
:1007300040EA014057494968897840EA012005E0CC
:10074000F8E345E1F7E3F7E3F7E3F7E351494968F5
:10075000C978084359490860084600685249096841
:1007600088426DD14B48007A412802D0432868D195
:1007700003E110203F490870084640886FF30B00E2
:10078000001D48800846408820F4704048804C484E
:10079000486020200872084640896FF30B00401D16
:1007A00048810846408920F47041324841814549DA
:1007B000C16021202F4908740846408A6FF30B005E
:1007C0000C3048820846408A20F470412948418212
:1007D0003D4941612220274908760846408B6FF346
:1007E0000B00401D48830846408B20F4704121488F
:1007F00041833649C16130201E4981F820000846F6
:10080000408C6FF30B00401D48840846408C20F458
:100810007041184841842E4941623120154900E059
:10082000D5E081F828000846408D6FF30B00401D8D
:1008300048850846408D20F470410E48418549E0C6
:10084000C3E0C0E0143A0508143B05088C080020FA
:10085000750800208A080020200000200044004085
:10086000BE0800209809002068080020CD0800205C
:10087000CE0800204424002070080020AB0800208F
:100880009408002034000020BC0800200000000074
:100890009C080020F4230020B008002094240020AD
:1008A000A00C0020AC080020B4080020B4240020D4
:1008B000A8080020C008002024000020B80800205C
:1008C000C80C0020CD0C0020D30C0020E00C002030
:1008D000E60C0020FE49C1623220FE4981F830005A
:1008E0000846408E6FF30B00801C48860846408EF9
:1008F00020F47041F74841860020F7490870F74816
:1009000000784870F34841634220F24981F838008A
:10091000F3480178EF48408F61F30B00ED494887B9
:100920000846408F20F47041EA484187ED49C16391
:100930005020E84981F840000846B0F842006FF3C3
:100940000B00401CA1F842000846B0F8420020F419
:100950007041E048A0F84210E34941640920E349AE
:1009600008701020E2490968087000235A1EE14906
:10097000E148006805F0D8FC26E03220D54908702F
:10098000084640886FF30B00801C4880084640886A
:1009900020F4704048800020CF490870CF4800788C
:1009A00048700846CB4948600120D04908701020A3
:1009B000CF490968087000235A1ECE49CE48006806
:1009C00005F0B2FC00E000BF01E005F04DF94CE697
:1009D000CA480078002878D1C848406800780006E6
:1009E000C6494968497840EA0140C449496889785C
:1009F00040EA0120C1494968C9780843C0490860F4
:100A000008460068BF49096888427AD1BB48007A25
:100A100020284CD004DC01286BD010286FD104E0D2
:100A2000212853D022286AD158E02020A9490870F3
:100A3000AB480178A748408861F30B00A54948807E
:100A40000846408820F470404880A648486021202D
:100A50000872084640896FF30B00401C4881084625
:100A6000408920F470419B484181A749C160222000
:100A7000984908740846408A6FF30B00401C48826E
:100A80000846408A20F47041924841829F49416162
:100A900003209649087020209549096808700023B2
:100AA0005A1E94499448006805F03EFC28E093489B
:100AB000807A8B4908709148C168894802788948D2
:100AC00010F044FE02F05BFC1AE01CE08B48C168A9
:100AD0008D480978017002F052FC11E08748C16826
:100AE0008A480978017002F04AFC09E009E000E058
:100AF00005E08248C06800788549087000E000BFC2
:100B000001E005F0B1F8B0E57C48007A22287DD0FC
:100B100006DC102809D0202832D0212877D17AE0AD
:100B2000302875D03128F9D199E1002079494870F1
:100B30007949487079494870794948707549C86859
:100B400080477549C86880477449C86880477449B8
:100B5000C86880470020734908707349087073495A
:100B60000870734908706B48724908606A48724996
:100B700008606A48714908606948714908602BE358
:100B80005E48C068007800116E4908705B48C06814
:100B9000007800F00F00887008460078022805D120
:100BA0000846807810B10020674908705348C06833
:100BB0008078F0B15148C068407800EE100AF8EE35
:100BC000400A4E48C068807800EE100AB8EE400A2D
:100BD00080EE801AB0EE418AB7EE000AC0EE080A35
:100BE0009FED5A0A20EE800ABCEEC00A10EE100AF1
:100BF00084B2544884800146C86880470020514927
:100C00004870494908704F484A4902E04AE0E2E228
:100C1000D8E00860E0E23948C068007800114C492B
:100C200008703648C068007800F00F0088700846E9
:100C30000078022805D10846807810B10020454987
:100C400008702E48C0688078F0B12C48C0684078A1
:100C500000EE100AF8EE400A2848C068807800EEDE
:100C6000100AB8EE400A80EE801AB0EE418AF7EE24
:100C7000000A80EE880ADFED350A20EE200ABCEE7D
:100C8000C00A10EE100A84B2314884800146C86858
:100C9000804700202E494870244908702C48264976
:100CA000086099E21548C068007800112A49087068
:100CB0001248C068007800F00F008870084600787D
:100CC00002284ED10846807800B147E049E0000094
:100CD000EC0C002044240020C10800208C0C0020D3
:100CE000FA0C0020F20C002074080020AB08002051
:100CF00068080020C008002024000020F423002001
:100D0000B8080020B4080020FC0C0020FB0C0020D8
:100D1000BE080020E8080020F8080020080900208C
:100D2000540900207C090020790900207A0900205C
:100D30007B090020480900204C09002050090020B0
:100D400074090020180900209B0900200000C842F7
:100D5000280900209C090020380900200020F849BB
:100D60000870F848C0688078F0B1F648C0684078EC
:100D700000EE100AF8EE400AF248C068807800EEF3
:100D8000100AB8EE400A80EE801AB0EE418AF7EE03
:100D9000000A80EE880A5FED130A20EE200ABCEEFE
:100DA000C00A10EE100A84B2E74884800146C86881
:100DB00080470020E4494870E4490870E248E4496B
:100DC000086009E2DF48C06800780011E149087056
:100DD000DC48C068007800F00F00488008460078C2
:100DE000022805D10846408810B10020DA49087071
:100DF000D448C0688078F0B1D248C068407800EE2E
:100E0000100AF8EE400ACF48C068807800EE100A59
:100E1000B8EE400A80EE801AB0EE418AF7EE000A82
:100E200080EE880A5FED370A20EE200ABCEEC00A89
:100E300010EE100A84B200EE104AB8EE400AC5481F
:100E400080ED010A0146C86880470020C14948700A
:100E5000C2490870BF48C2490860BDE1BBE200203A
:100E6000C0490870B748C068BF4908600120BF4941
:100E7000087096E1BC4800680078202806D0212838
:100E80005DD022287ED030287DD103E1B6480068AD
:100E9000C0780011B6490870B3480068C07800F007
:100EA0000F00887008460078022805D1084680782F
:100EB00010B10020AF490870AB4800684079F0B12C
:100EC000A9480068007900EE100AF8EE400AA6482A
:100ED0000068407900EE100AB8EE400A80EE801AF1
:100EE000B0EE418AF7EE000A80EE880A5FED690AEB
:100EF00020EE200ABCEEC00A10EE100A84B29C4814
:100F000084800146C86880470020994948709A4902
:100F100008709748994908600020994908809148CD
:100F20000078401C8F4908708F480068801D8E49EA
:100F3000086036E152E1E2E251E151E14CE28A48D7
:100F40000068C07800118F49087087480068C07831
:100F500000F00F00887008460078022805D1084686
:100F6000807810B10020884908707F480068407977
:100F700008B37D480068007900EE100AF8EE400AD8
:100F8000794801E032E009E10068407900EE100A9A
:100F9000B8EE400A80EE801AB0EE418AB7EE000A41
:100FA000C0EE080A1FED970A20EE800ABCEEC00AC8
:100FB00010EE100A84B2734884800146C8688047E6
:100FC000002070494870714908706E487049086087
:100FD0000C207049088063480078401C6149087003
:100FE00061480068801D60490860DAE05E4800687A
:100FF000C0780011544908705B480068C07800F060
:101000000F00887008460078022805D108468078CD
:1010100010B100204A490870534800684079F0B187
:1010200051480068007900EE100AF8EE400A4E4878
:101030000068407900EE100AB8EE400A80EE801A8F
:10104000B0EE418AB7EE000AC0EE080A1FEDC10AF1
:1010500020EE800ABCEEC00A10EE100A84B23A48B4
:1010600084800146C8688047002037494870374966
:1010700008703548364908601820474908803948C3
:101080000078401C3749087037480068801D364991
:10109000086086E034480068C07800112D49087067
:1010A00031480068C07800F00F004880084600789A
:1010B000022805D10846408810B100202649087052
:1010C000294800684079F0B127480068007900EEAF
:1010D000100AF8EE400A24480068407900EE100A31
:1010E000B8EE400A80EE801AB0EE418AF7EE000AB0
:1010F00080EE880A5FEDEB0A20EE200ABCEEC00A03
:1011000010EE100A84B200EE104AB8EE400A114800
:1011100080ED010A0146C868804700200D494870EB
:101120000E4908700B480E4908600E480078401CB4
:101130000C4908700C480068801D0B49086030E0BD
:101140009D090020F4230020380900207B0900209D
:1011500050090020640900209A0900207C09002021
:1011600074090020CC080020C8080020A509002030
:10117000180900209B090020790900204809002057
:1011800080090020280900209C0900207A090020FD
:101190004C090020840900208609002000BF00BF00
:1011A00000BFF7480068007820280ED0F448006897
:1011B0000078212809D0F24800680078222804D05D
:1011C000EF4800680078302804D1EE480078042801
:1011D000FFF650AE00E000BF00BF91E190E18FE16B
:1011E000E948007800287DD1E748007A1028FAD134
:1011F000E548C0680078212833D003DC38B12028C6
:1012000071D158E030286FD04028F9D1ABE0DE49E9
:10121000C968481C4FF4007102F09AF94FF400704D
:1012200002F0D5F9D9494860202008700846408866
:101230006FF30B0000F2012048800846408820F43C
:10124000704048806020D249096808700120D14967
:1012500008700023821ED049D048006805F064F869
:10126000B8E0C949C968481C4FF4007102F070F930
:101270004FF4007002F0ABF9C449486020200870B8
:10128000084640886FF30B0000F2012048800846B2
:10129000408820F4704048806020BD49096808708B
:1012A0000120BC4908700023821EBB49BB4800686E
:1012B00005F03AF88EE0B449C968481C4FF4007153
:1012C00002F046F94FF4007002F081F9AF4948602E
:1012D00020200870084640886FF30B0000F20120C0
:1012E000488002E077E074E013E00846408820F48C
:1012F000704048806020A649096808700120A5490F
:1013000008700023821EA449A448006805F00CF868
:1013100060E09D49C968481C4FF4006102F018F96B
:101320004FF4007002F053F998494860202008708B
:10133000084640886FF30B0000F201204880084601
:10134000408820F470404880602091490968087006
:101350000120904908700023821E8F498F48006841
:1013600004F0E2FF36E08849C968481C4FF4007178
:1013700002F0EEF84FF4006002F029F9834948606A
:1013800020200870084640886FF30B0000F20140EF
:1013900048800846408820F47040488008464068ED
:1013A0000078496881F800047848406800F580605A
:1013B00076494860602076490968087001207549BF
:1013C00008700023821E74497448006804F0ACFF62
:1013D00000E000BF00BF93E06B480078F0BB6A48B4
:1013E00040680078000668494968497840EA014049
:1013F00065494968897840EA012063494968C978A4
:1014000008436749086008460068664909688842D9
:1014100072D15D48007A102870D15B48C0680078AE
:1014200010B1212866D132E05748C068C1785648CB
:10143000C068807801EB00205B4908805249C96888
:1014400048785949098802F063F8504948602020DB
:10145000087055480088401C498800E04EE060F361
:101460000B014A484180408820F470404749488039
:101470006120474909680870012046490870002327
:10148000821E45494548006804F04EFF33E03E485F
:101490004089C0F30B0001282ADD3B4B5B89C3F375
:1014A0000B039B1E9AB2384BDB685978364BDB68CE
:1014B000981C01F0D6FF3549486020200870084686
:1014C00040886FF30B00401C48800846408820F499
:1014D0007040488061202E490968087001202D491C
:1014E00008700023821E2C492C48006804F01CFF61
:1014F00001E001E000BF01E004F0B6FB00E000BF46
:1015000000BF01202949087001B0BDEC028B30BD3D
:101510002DE9F0474FF00009254804680025002711
:1015200000202449088024480078AB2872D1224842
:101530004078C0F30010002873D01F484078C0F3F3
:101540004010002869D01D480078401C1B490870D5
:1015500008460078042802DD04F086FB05E103203C
:101560001749087000264BE01648811914221648C6
:1015700010F0ECF806F1140086B24FF0000838E0E5
:10158000C8080020CC080020F423002044240020B8
:1015900068080020AB080020C008002024000020BC
:1015A000B8080020B4080020C408002089080020E2
:1015B0006C080020980900208C080020A908002051
:1015C0008A08002034000020AC1B0020BA4800EB41
:1015D000080100235A1EB948006804F0A5FE012244
:1015E00040F22771B6480FF0E8FF08F1010000F063
:1015F000FF08B8F1140FE9DBB248007801F07DFE76
:10160000A6F10800B04949888842ADDB0120AF4906
:101610000870AAE0A6E004E0FFE70020AC490870EB
:10162000A3E0AC484078C0F34010002840D0A84860
:101630000078401CA649087008460078042802DD9E
:1016400004F012FB91E00320A0490870002625E079
:10165000A14881191422984810F078F806F1140076
:1016600086B24FF0000812E0934800EB0801002317
:101670005A1E9248006804F057FE012240F227717A
:101680008F480FF09AFF08F1010000F0FF08B8F151
:10169000140FE9DB8B48007801F02FFEA6F108005B
:1016A000894949888842D3DB0120884908705CE079
:1016B0008848418889480068FEF7BDFE8146854814
:1016C000808848454AD10120FEF7CDFE14F8010B71
:1016D0008349087014F8010B487014F8010B8870E6
:1016E0006078217800EB01207D498880A41C0846A1
:1016F00080787C4908707A488088488077480068FC
:10170000841C00271FE0605D764901F83700681CE3
:1017100085B260194078615D00EB0120714901EBF1
:10172000C7014880A81C85B260196E4901EBC7014A
:1017300048606C4800EBC7004088C0F30B002844A9
:1017400085B2781C87B263484088801EA84201DDBC
:101750000A2FD8DBF8B2FEF764FF06E00020FEF7A0
:1017600082FE02E00020FEF77EFE01205E49087046
:10177000BDE8F087002400BF00235A1E5B495C4887
:10178000006804F0A1FE0546012DF5D1002059495D
:1017900008805548007801282CD10024534800784F
:1017A0004C4908705148407848705048C0784F49BB
:1017B000897800EB0120474948804C4840794B49E3
:1017C000097900EB0120434988804848C07947499E
:1017D000897900EB01203F49C8800846408840F6DF
:1017E0003101884203DD0020FEF73DFE02E00220C9
:1017F0003D4908703C4800780228BDD13E4908198F
:1018000014223A490FF0A2FF04F1140084B2A4F1AB
:101810000800304949888842AEDB00240320324961
:10182000087000203549087035490870FFF770FED0
:10183000A2E70024002500BF00235A1E3149324888
:10184000006804F041FE0646012EF5D1002029492A
:10185000088003201D490870FEF737FE002420E0B1
:101860001D480119142214480FF070FF04F11400F0
:1018700084B200250FE01048411900235A1E0F487A
:10188000006804F051FD012240F227710C480FF06E
:1018900094FE681C85B2142DEDDB0A48007801F037
:1018A0002CFDA4F10800084949888842D8DB0120B2
:1018B00006490870C0E70000AC1B00202000002093
:1018C00000440040BE080020940800208A08002040
:1018D000A90800208C080020340000206C0800209B
:1018E0009C080020F423002089080020841B00208D
:1018F0001C00002098090020C01B00203A11002085
:101900003B110020D0080020240000200CB500204E
:10191000019000906F48006840F480306D49086085
:1019200000BF6C48006800F4003000900198401C33
:101930000190009818B90198B0F5A04FF1D1654811
:10194000006800F4003010B10120009001E0002098
:1019500000900098012844D15E484030006840F073
:1019600080505C49403108605B48006840F440406A
:1019700059490860574808300068564908310860DE
:101980000846006808600846006840F48050086017
:101990005248091F0860081F006840F08070091F46
:1019A000086000BF4B48006800F000700028F9D0C4
:1019B00040F202704A49086046480830006820F04A
:1019C00003004449083108600846006840F00200FE
:1019D000086000BF3F480830006800F00C0008288D
:1019E000F8D10CBD00B53F48006840F470003D4997
:1019F00008603848006840F001003649086000205F
:101A00003449083108603348006837490840314993
:101A100008603648091D0860081F006820F480200F
:101A2000091F086000202B490C310860FFF76EFF8A
:101A30004FF000602B498039086000BD70B5002070
:101A40000021022200230224224D08352D6805F0D2
:101A50000C0020B1042806D0082829D107E0244D25
:101A6000244E356028E0244D224E356024E0194D87
:101A70002D1D2D68C5F38053164D2D1D2D6805F0C5
:101A80003F044BB11C4DB5FBF4F5124E361D3668C4
:101A9000C6F3881605FB06F10E4D2D1D2D68C5F306
:101AA00001456D1C6A00B1FBF2F5124E356003E092
:101AB0000F4D104E356000BF00BF064D08352D6834
:101AC000C5F303150D4E705D0A4D2D68C540094ED6
:101AD000356070BD00380240007000400C30410895
:101AE000003C024088ED00E0FFFFF6FE10300024CD
:101AF0000024F400D408002000366E01D80800202D
:101B000010B504F0B1F804F00AF90020FE4908709D
:101B10000520FE490870FE4908700020FD49087044
:101B2000FD490870FD490870FD490870FD490870BD
:101B3000FD490870FD490870FD490870FD490870AD
:101B4000FD4908700120FD4908700020FC4908701B
:101B500040F6B83001F0D1FB04F0C1F804F096F87B
:101B60004FF4FA7001F0C9FB03F071FC10BD10B521
:101B7000012180200DF087FC002180200DF029FC40
:101B800010BD00B585B0012108460DF011FC012102
:101B900088030DF056FC012108070DF041FC48F2C6
:101BA0000200039001208DF8100000208DF8120033
:101BB0008DF8130003A9E3480DF084F848F2020100
:101BC000E0480DF0FDF841F6F830039000208DF864
:101BD00010008DF8130003A9DA480DF073F84FF4E4
:101BE0000050039000208DF8100001208DF81300A4
:101BF00003A9D4480DF066F84FF48040039000200C
:101C00008DF8100002208DF8130003A9CD480DF0C7
:101C100059F844F20B00039001208DF810000020C9
:101C20008DF812008DF8130003A9C7480DF04AF88B
:101C30000B21C5480DF0C4F84FF48041C2480DF0A7
:101C4000BDF849F63440039000208DF810008DF85F
:101C5000130003A9BC480DF035F84FF40040039081
:101C600001208DF8100000208DF812008DF813006F
:101C700003A9B6480DF026F84FF40041B3480DF023
:101C80009FF84FF4C040039000208DF810008DF8AD
:101C9000130003A9AD480DF015F8022003900120B0
:101CA0008DF8100000208DF812008DF8130003A9A4
:101CB000A7480DF007F80221A5480DF081F8012092
:101CC000039000208DF810008DF8130003A9A048A0
:101CD0000CF0F8FF00219F480FF0B9FB00219E484F
:101CE0000BF0E3FF0EF03AFB01F0E6FC00214FF0B1
:101CF00080400EF0A1FD002198480CF093FAFFF708
:101D000036FF00208DF8100001208DF81300082008
:101D1000039003A98B480CF0D5FF032100200EF09F
:101D20001CFC0820019000208DF808000C208DF884
:101D3000090001208DF80A0001A80CF079FB0920A8
:101D40008DF8000006208DF8010000208DF80200BB
:101D500001208DF8030068460BF0EBFE7D480FF084
:101D600087FA0BF051FF4FF080400EF02FFC7B48BC
:101D70000CF07CF97A4807F049FC43208DF800000C
:101D800001208DF8010000208DF802008DF803007D
:101D900068460BF0CEFE432001F012F831208DF89A
:101DA000000000208DF801008DF802008DF803007E
:101DB00068460BF0BEFE312001F002F800218020C1
:101DC0000DF007FB002101200DF0F2FA00210220A6
:101DD0000DF0EEFA002104200DF0EAFA0021802037
:101DE0000DF0E6FA00214FF480400DF02AFB0021AF
:101DF0004FF480000DF0DCFA002101200DF010FB03
:101E000000214FF480700DF01CFB00214FF40060A6
:101E10000DF017FB00214FF400300DF001FB012104
:101E200008460DF088F805B000BD38B5FFF76EFD27
:101E30004FF440700BF078FE03F0B2FD03F0E0FECB
:101E4000022140480CF0BCFF4FF400713E480CF0FA
:101E5000B7FF03F051FB01F039F902F0D5F9002189
:101E600080200DF010FB3F483F4B404A012100907D
:101E70003B4807F0CEFB00203D4908704870887051
:101E80003C4800684FF47A72B0FBF2F1481EB0F1A2
:101E9000807F01D301201BE0481E4FF0E0225061FB
:101EA00050170F22002807DA13071D0E324B00F0DF
:101EB0000F04241F1D5503E013071C0E2F4B1C5449
:101EC00000BF00204FF0E022906107201061002049
:101ED00008B100BFFEE700202949487038BD0EB5A3
:101EE00008200CF016FB0820019000208DF8080057
:101EF0000C208DF8090000208DF80A0001A80CF0D4
:101F000097FA09203EE0000034110020351100202E
:101F1000361100203711002038110020391100201F
:101F20003A1100203C1100203D1100203E110020FC
:101F30003F11002040110020411100207E090020A7
:101F4000B2090020000002400004024000080240E4
:101F5000001C024000440040002001405864024040
:101F6000144B0120341B0020481A0020081A0020BE
:101F7000D0190020D408002018ED00E000E400E0B3
:101F8000384900208DF8000006208DF8010000205F
:101F90008DF802008DF8030068460BF0CAFD0EBDF7
:101FA0001CB505F055F80190FEE3FE48007890B1AD
:101FB000FD48007878B9FD48FD4BFE4A01210090AC
:101FC000FD4807F026FB0020FC4908704870887027
:101FD0000120F5490870FA480078022863D1F848D2
:101FE000807800285FD0F6488078F64909788842E2
:101FF00059DCF5480078022855D1F348807800284C
:1020000051D0F1488078F149097888424BDCF0489A
:102010000078022847D1EE488078002843D0EC4869
:102020008078EC49097888423DDCEB48007802284A
:1020300039D1E9484088002835D0E7484088E74949
:10204000097888422FDCE648007860B30020E54933
:102050004870E5494870E5494870E5494870E149EC
:10206000C8688047E049C8688047E049C868804739
:10207000DF49C86880470020DE490870DE490870E3
:10208000DE490870DE490870D648DE490860D64847
:10209000DD490860D548DD490860D548DC4908605D
:1020A0000020CF490870DB48007800287BD1D84851
:1020B0000068007888B1012802D0022874D11AE0A3
:1020C000D3480068407838B9D149096888688047A2
:1020D0000120CF4909684870C3E0CD4800684078C6
:1020E000012807D1CA490968C86880470020C84943
:1020F00009684870B5E0C8480088401CC649088097
:10210000C34800684088B0BBBA48007878B900205E
:102110000880BF490968886880470120BC49096870
:102120004870B4480078401CB249087097E0B14844
:102130000078012820D1B648006890ED010AB0EE81
:10214000001AC0EE010AB448008800EE100AB8EE8A
:10215000400AF4EEC00AF1EE10FA0BD80020AE49A6
:102160000880AB490968C8688047A2480078401CCD
:10217000A049087073E018E09E48007802286ED1EC
:10218000A3480068D0ED010AA348008800EE100AB9
:10219000B8EE400AF4EEC00AF1EE10FA5FD8002063
:1021A000944908705BE05DE05AE099480068408817
:1021B0008A490978884252DD8E48007880B900202B
:1021C00095490880924909688868804701209049AC
:1021D0000968487087480078401C864908703EE0CE
:1021E0008448007801281FD18948006890ED010AD1
:1021F000B0EE001AC0EE010A8748008800EE100A0F
:10220000B8EE400AF4EEC00AF1EE10FA27D800202A
:10221000814908807E490968C86880477548007808
:10222000401C744908701AE072480078022816D1E0
:1022300077480068D0ED010A7748008800EE100A60
:10224000B8EE400AF4EEC00AF1EE10FA07D800200A
:102250006849087061480078401C6049087000E0D7
:1022600000BF00BF6D480078002869D1654800684C
:10227000007888B1012802D002287AD11AE061489A
:102280000068407838B95F4909688868804701204C
:102290005C4909684870E7E05A48006840780128BE
:1022A00007D158490968C86880470020554909681E
:1022B0004870D9E05A480088401C59490880514864
:1022C00000688078D8BB4C48007868B94D490968E7
:1022D000C868804700204B49096848704648007824
:1022E000401C45490870BDE043480078012815D1DD
:1022F000444800688088401F4949098888420CDCAE
:10230000404909688868804701203E49096848704B
:1023100039480078401C38490870A3E036480078F6
:1023200002280BD13748006880883D4909888842D7
:1023300004DC0020304908703949088092E000E050
:1023400093E03048006880781E49097888420FDDA4
:102350002948007870B92B490968C868804700206F
:1023600028490968487024480078401C22490870B0
:1023700078E078E020480078012856D121480068AC
:102380008088401F2649098888426BDC1D490968FE
:102390008868804701201B49096848701648007802
:1023A000401C3FE03F110020A8090020341B002002
:1023B000481A0020081A0020144B0120D0190020D0
:1023C000180900209B090020280900209C090020F2
:1023D000380900209D090020640900209A09002086
:1023E000A5090020E8080020F808002008090020BE
:1023F000540900207C090020790900207A09002076
:102400007B090020480900204C09002050090020C9
:1024100074090020A109002082090020A2090020DF
:1024200080090020F84908701CE0F748007802286D
:1024300018D1F64800688088F5490988884211DC7F
:102440000020F1490870F2490880F0490968C8681D
:1024500080470020ED4909684870EE480078401C2C
:10246000EC49087000E000BF00BFEB48006800784E
:1024700088B1012802D0022879D11AE0E648006824
:10248000407838B9E4490968886880470120E24902
:1024900009684870A5E0E04800684078012807D145
:1024A000DD490968C86880470020DB490968487031
:1024B00097E0DA480088401CD8490880D648006870
:1024C0008078D8BBD648007868B9D3490968C8680D
:1024D00080470020D04909684870D1480078401CE6
:1024E000CF4908707BE0CE480078012815D1CA4852
:1024F00000688088401FC949098888426FDCC64946
:102500000968886880470120C34909684870C44841
:102510000078401CC249087061E0C1480078022878
:102520005DD1BD4800688088BC490988884256DC76
:102530000020BB490870B949088050E0FFE7B64861
:1025400000688078B7490978884248DDB448007847
:1025500070B9B1490968C86880470020AE49096868
:102560004870AF480078401CAD49087037E037E04C
:10257000AB480078012815D1A74800688088401F23
:10258000A649098888422ADCA349096888688047E7
:102590000120A14909684870A1480078401CA04961
:1025A00008701CE09E480078022818D19A480068FC
:1025B00080889A490988884211DC0020984908706F
:1025C0009649088094490968C86880470020924964
:1025D0000968487093480078401C9249087000E0F0
:1025E00000BF00BF90480068007888B1012802D081
:1025F000022879D11AE08C480068407838B98A49B5
:102600000968886880470120874909684870A5E003
:10261000854800684078012807D183490968C8685F
:102620008047002080490968487097E07F4800880B
:10263000401C7E4908807C4800688078D8BB7C4874
:10264000007868B978490968C868804700207649E9
:102650000968487076480078401C754908707BE02E
:1026600073480078012815D16F4800688088401FA2
:102670006E49098888426FDC6B4909688868804721
:10268000012069490968487069480078401C684918
:10269000087061E06648007802285DD162480068F1
:1026A000808862490988884256DC002060490870A9
:1026B0005E49088050E0FFE75B48006880785D492C
:1026C0000978884248DD5A48007870B95649096847
:1026D000C868804700205449096848705448007809
:1026E000401C5349087037E037E051480078012812
:1026F00015D14D4800688088401F4C4909888842A0
:102700002ADC4949096888688047012046490968E8
:10271000487047480078401C454908701CE0444810
:102720000078022818D14048006880883F4909880D
:10273000884211DC00203E4908703C4908803A4933
:102740000968C868804700203749096848703948D7
:102750000078401C3749087000E000BF00BF3648D1
:1027600000783649097888421CD0344800783249CC
:10277000087032480078303031490870132231A196
:10278000354809F004FE35490870354B01222C49C3
:10279000314809F070FF314908702F480AF0B3F84A
:1027A0002E490870254800E008E3007803286FD020
:1027B0002248007801286BD02A480078002867D189
:1027C00029498868804701202749487027480078B0
:1027D00006280AD2DFE800F0030A6C87A1CA24A009
:1027E00011F08EF8012021490870C3E00020234930
:1027F00008702348007801284BD122A011F080F8FE
:1028000002201A49087052E0790900204809002086
:10281000800900209B0900204C0900208409002029
:102820007A0900209C090020500900208609002018
:102830007B0900209D090020361100203511002061
:10284000B1090020303A2F426C75655F5374617492
:10285000652E747874000000EC240020B00900207C
:10286000AC090020B2090020E80800207E09002001
:1028700041542B422053544154450D003411002043
:102880003C11002041542B4220474C42440D000093
:1028900071E0FE480088401CFC490880084600881A
:1028A000642804DB002008800120F949087061E0F9
:1028B000F8480078012807D1F749F8A011F020F86E
:1028C0000320F34908700DE0F0480088401CEF49F0
:1028D000088008460088642804DB00200880012066
:1028E000EB49087046E0F2480078012806D1F1A0D3
:1028F00011F006F80420E64908700DE0E34800886E
:10290000401CE249088008460088642804DB002057
:1029100008800120DE4908702CE0E9480078012891
:1029200003D0E7480078032806D10420D84908706E
:102930000020E449088018E0E3480078012806D127
:10294000DCA010F0DDFF0420D14908700DE0CF4875
:102950000088401CCD49088008460088642804DBB4
:10296000002008800120CA49087003E00020C849FF
:10297000087000BF02E00120D4490870D4480088E4
:10298000401CD349088008460088C82851DB002035
:10299000088000F0DCFACF49087008460078CE497C
:1029A000097888421ADCCD48007898B90120CB49D3
:1029B00008700020CA4908700220CA490870012026
:1029C00048800020C8490880C649C8688047002060
:1029D000C44948700220C549087004E00020C3497A
:1029E0000870BE490870BB480078012821DA002031
:1029F000BE494870BE494870BE494870B9494870E0
:102A0000BA49C8688047BA49C8688047B949C868A0
:102A10008047B449C86880470020B749088003F060
:102A200023F98021B5480CF0CBF903F078F900BF09
:102A3000FEE7A3480078032803D00020B0490880AF
:102A400014E0B048007870B9AD480088401CAC492B
:102A5000088008460088B0F57A7F07DB00200880F0
:102A600003F002F902E00020A5490880A64840785A
:102A700050B3A5484078022827D1002000F048FC38
:102A80001020A2490870084640886FF30B00401CD4
:102A900048800846408820F4704048809A48401C8E
:102AA000486031209A4909680870012099490870E6
:102AB0000023821E98499948006803F035FC0020E5
:102AC000974908809049487030E08F484078012845
:102AD0002CD193480088401C914908800846008802
:102AE000322823DB102089490870084640886FF39C
:102AF0000B00401C48800846408820F47040488005
:102B00008148401C486031208149096808700120D3
:102B1000804908700023821E7F498048006803F0C6
:102B200003FC00207E4908807749487040217348A3
:102B30000CF02AF9012845D17A4908707A480078C2
:102B4000012866D16C480088401C6B490880012030
:102B50007649087065498868804701206349487054
:102B60007348007840B10120724908705D49886857
:102B7000804701205B4948705F480088B0F5967F28
:102B800047DB0020594948705949487059494870F5
:102B9000544948705849088003F066F803F0BFF8BC
:102BA000802156480CF00CF95049C86880475049BC
:102BB000C86880474F49C86880474A49C868804705
:102BC00000BFFEE75848007810B901205649087048
:102BD00054480078012817D100205449087001207A
:102BE000554908704149C868804700203F494870EE
:102BF0004F48007840B100204E4908703949C868F4
:102C0000804700203749487000203B4908804549EB
:102C100008704A48007802280FD149480088401CB3
:102C20004749088008460088B0F5967F08DB0020F9
:102C3000088001204149087002E0002040490880D6
:102C400040480088B0F57A7F07DB00203D490880C6
:102C500001203D490870FEF794FF3B4800780128A9
:102C600010D104E0002039490870FEF78AFF374888
:102C700000780028F6D134490870FFF7D6F8012013
:102C80003349087032480078012863E09E0900202B
:102C90007E09002041110020DF24002041542B42F6
:102CA00020534C444E2041424B455925730D0000A2
:102CB0003D11002041542B422041445620310D004B
:102CC00035110020940900203F110020B209002096
:102CD000880900208C0C0020FC0C0020A00900209A
:102CE0009A0900205409002082090020E8080020E9
:102CF000F8080020080900208C0900200004024088
:102D000092090020A808002038490020442400200F
:102D100068080020AB080020C00800202400002024
:102D20008A090020A309002078190020A2090020A8
:102D3000FB0C0020A109002079090020890800204F
:102D40008E09002098090020A4090020791900208C
:102D5000780900202ED11F480088401C1D4908809A
:102D600008460088322825DB002008801A490870B0
:102D70001A49087001201A49087000201949087082
:102D8000194801681948026841F8012F42684A60F1
:102D900002890A81807A8872622013490968087062
:102DA0000020134908700023421E1249124800688F
:102DB00003F0BAFA0A2101A803F001FFFFF7F5B802
:102DC00000F01F02012191400C4A430942F82310F0
:102DD0007047000096090020780900203A11002071
:102DE000890800203211002068080020D424002027
:102DF000AB080020C00800202400002080E100E093
:102E00002DE9F043B3B00027C82101A80EF0B7FCAC
:102E10000024A046A146002611E0CD480AF0E1FFBB
:102E200000BF0221CA480BF0FDF80028F9D0C848BD
:102E30000BF013F801A921F81600701CC6B2642E1D
:102E4000EBDB00251EE0002416E001A830F814108A
:102E500001AA601C32F8100081420BDD01A830F895
:102E6000148001A9601C31F8100021F81400601CC6
:102E700021F81080601C84B2C5F16300A042E4DC3C
:102E8000681C85B2632DDEDB142505E001A830F84F
:102E900015000744681C85B2502DF7DB3C20B7FBBA
:102EA000F0F01FFA80F9484633B0BDE8F08310B562
:102EB0002DED068BB0EE408A00249FEDA60AF0EEC1
:102EC000408A00BF0CE0A44800EB840090ED000AAB
:102ED000B4EEC80AF1EE10FA00D203E0601CC4B2EE
:102EE000B52CF0DB00BFB52C04D19FED9A0AF0EEB3
:102EF000408A24E024B99FED990AF0EE408A1EE052
:102F0000C4F1B40000EE100AB8EEC00A10EE101AB8
:102F100008460EF0EDFD41EC1A0B9FED910B53ECC2
:102F2000102B0EF050FD41EC190B0EF00DFE08EECB
:102F3000900A9FED8A0A28EE800AF0EE408ABCEEE5
:102F4000E80A10EE100AC0B2BDEC068B10BD10B539
:102F50002DED048B0024FFF753FF8349088083483D
:102F600000680EF0C5FD41EC180B7F4800880EF09C
:102F700099FD41EC190B53EC182B0EF0B2FC7C4A76
:102F800003C29FED7C0B53EC102B794890ED000BA6
:102F900051EC100B0EF0A5FC754A03C29FED770BA8
:102FA00053EC102B724890ED000B51EC100B0EF00F
:102FB000B3FD0DD89FED730B53EC102B6C4890EDC7
:102FC000000B51EC100B0EF0E5FB694A03C25AE00E
:102FD0009FED6E0B53EC102B654890ED000B51EC00
:102FE000100B0EF099FD0DD89FED6A0B53EC102BD2
:102FF0005F4890ED000B51EC100B0EF0CBFB5C4AE0
:1030000003C240E09FED650B53EC102B584890ED48
:10301000000B51EC100B0EF07FFD0DD89FED610BF6
:1030200053EC102B524890ED000B51EC100B0EF0AE
:10303000B1FB4F4A03C226E09FED5C0B53EC102B13
:103040004B4890ED000B51EC100B0EF065FD0DD8C8
:103050009FED580B53EC102B454890ED000B51ECB5
:10306000100B0EF097FB424A03C20CE09FED530B8E
:1030700053EC102B3E4890ED000B51EC100B0EF072
:1030800089FB3B4A03C29FED4F0B53EC102B384892
:1030900090ED000B51EC100B0EF023FC41EC180BE3
:1030A0000EF00DFD49490880314890ED000B51ECC0
:1030B000100B0EF049FD08EE100AB0EE480AFFF7BB
:1030C000F6FE04462046BDEC048B10BD00B58DB065
:1030D000012108020CF0B5F9012108460CF068F94D
:1030E00010200B9003208DF8300000208DF8330065
:1030F0000BA937480BF0E6FD0AF086FD0020019091
:10310000029003904FF47060049001A80AF0B6FD9D
:10311000002005908DF818008DF81900089009908E
:1031200001208DF8280005A909480AF078FD072339
:103130000122042106480AF0F8FD012104480AF0A2
:10314000B4FDFFF704FF234908700DB000BD000077
:103150000020014000000000B80900200000C84223
:103160000000000000806640980C00209C0C0020AD
:10317000900C0020334E4354E1CFF43F0000000098
:10318000000010408B6CE7FBA9F1A23F33333333CF
:1031900033330F403BDF4F8D976EA23FF6285C8F95
:1031A000C2F50E40EC51B81E85EBA13FB81E85EB71
:1031B00051B80E409CC420B07268A13FFCA9F1D266
:1031C0004D62A03F0000000000408F409A0C00209C
:1031D000000002408C0C00202DE9F043C9B00646E7
:1031E0000F4690469946509C0025002002908DF88D
:1031F000100020200C900022414603A810F0A7FAEE
:103200000546BDB902A84B463A463146009003A890
:1032100010F02EFA05466DB902982060206800EB88
:10322000090102AA03A810F085FA05462068029950
:1032300008442060284649B0BDE8F0832DE9F043FA
:10324000C9B006460F4690469946509C002500207E
:1032500002908DF8100020200C900022414603A817
:1032600010F003FA0546BDB902A84B463A4631466E
:10327000009003A810F08AF905466DB90298206005
:10328000206800EB090102AA03A810F0E1F9054645
:103290002068029908442060284649B0BDE8F083C0
:1032A00010B5034607E018780C78A04201D0002042
:1032B00010BD5B1C491C1000A2F10104A2B2F2D1A6
:1032C0000120F5E7002000E0401C1928FCD37047DE
:1032D00000B5002202E0FFF7F5FF521C40F2A730D4
:1032E0008242F8D300BD00B50246002302E0FFF79A
:1032F000E9FF5B1C9342FAD300BD10B503460024DE
:1033000002E0FFF7E5FF641C9C42FAD310BD000009
:1033100070B50546002400260BF042F900200BF0A2
:1033200022F9F3200BF03DFC022118200BF08CF960
:103330000446092C0AD1012000F07DF92946BF4836
:103340000BF0F4FA0446002000F075F901200BF0B0
:103350000AF90BF032F9092C01D1002600E02646CB
:10336000304670BD10B500240122B5A1B54808F063
:10337000E3FF04460CB1012010BD0020FCE770B54E
:10338000002500240020B04908804FF48262AF4934
:10339000AF480EF0DBF9AE48AE49097880F800146A
:1033A000AC480278AC49AD480EF0D0F9A848AC4919
:1033B000097880F80914AB49097880F80A140BF0F1
:1033C000EFF800200BF0CFF8F3200BF0EAFB02211E
:1033D00038200BF039F90546092D0DD100BF08E062
:1033E0009B4A115D994AA0180BF0A0FA0546601C93
:1033F00084B2B4F5826FF3DB01200BF0B4F80BF06C
:10340000DCF8092D03D100209749087001E09648A7
:10341000057070BD10B5002400208B4908809348CA
:1034200000788C49087008460078FF2801D1FFF722
:10343000A6FF002406E08D482044407886490855C0
:10344000601CC4B2834800788442F4DB87480930AA
:1034500000788349087085480A30007881490870EF
:1034600010BD2DE9F04107460D4690460026002488
:10347000002075490880012000F0DDF84FF48262D9
:10348000724973480EF062F9002000F0D4F8012D63
:1034900004D1424639466E480EF058F9022D04D147
:1034A0004246394672480EF051F90BF079F8002087
:1034B0000BF059F8F3200BF074FB022138200BF0CD
:1034C000C3F80646092E13D1012000F0B4F80024F9
:1034D00008E05F4A115D5D4AA0180BF027FA064626
:1034E000601C84B2B4F5826FF3DB002000F0A3F817
:1034F00001200BF038F80BF060F8092E03D1002002
:103500005949087001E0584806705748BDE8F081F5
:1035100070B504460D46012000F08DF800204A49A0
:103520000880012C04D12A46484952480EF00EF971
:10353000022C04D12A4650494E480EF007F90020CB
:103540004C49491E087000F076F84A48401E70BD8C
:1035500070B504460D46002600203B490880032232
:1035600046A1494808F013FF0646484B2A46214623
:10357000454809F080F80646434809F0C4F9064674
:1035800002223EA1404808F002FF06463F4B2A4671
:1035900021463D4809F06FF806463B4809F0B3F96B
:1035A000064612223AA13D4808F0F1FE0646374B86
:1035B0002A462146394809F05EF80646374809F0A0
:1035C000A2F906460EB1304670BD0020FCE7F8B502
:1035D000044600260025002000901B490880032295
:1035E00026A1294808F0D3FE06466B4622462C4900
:1035F000254808F068FF0646234809F084F91EB103
:103600002748401E067003E000202549491E087027
:103610000098A0420CD20098401C85B205E0002022
:103620001F49491E4855681C85B2601C8542F6DB5F
:103630001B48401EF8BD80F31088704700C000088A
:10364000303A2F00142700209809002000000608B7
:103650003E400020FA0C0020F20C00203F440020E5
:10366000FC0C0020FB0C0020F80C002000040608D5
:103670003E4200203E3E002000020608303A2F73F2
:103680006469662E64617400742B0020C00C0020F5
:10369000303A2F746573742E7478740014340020DB
:1036A0003D360020012080F3108800BF70470020C5
:1036B00080F3108800BF70470020FE490860091D94
:1036C0000860091D0860091D0860FA492431086076
:1036D000091D0860091D0860F748F649383108607F
:1036E0000020091D0860704701460020012900D014
:1036F00011B9F24B197000E0262070470146ED4ADF
:10370000121D106820F0FF0008431060704770B56C
:10371000044606E0E7483430056805F0450000B18E
:1037200000E0F7E700BF04200CF0E0FE20B1042029
:103730000CF0E7FE032070BD01200CF0D7FE20B195
:1037400001200CF0DEFE0120F5E7DA4810300068B9
:10375000A04201D01020EEE740F2FF500CF0D1FE65
:10376000D4481430006808210840C0B2E3E72DE9CE
:10377000FC4107460D4600260024002000900190E1
:103780000820CF4908601020486040208860002051
:10379000C8604FF48060086108460CF014FE1020E9
:1037A000FFF7B5FF044614B12046BDE8FC81C548CB
:1037B00000880004C24908603720486040208860C3
:1037C0000020C8604FF48060086108460CF0FBFDE3
:1037D0003720FFF79CFF04460CB12046E5E74FF089
:1037E000FF30B94908600820486030208860022016
:1037F000C860002008610120486108460CF00FFEF7
:103800000320FFF770FD0020AD49086033204860B9
:10381000402088600020C8604FF48060086108463E
:103820000CF0D1FD3320FFF772FF04460CB12046A7
:10383000BBE70DE04FF400100CF058FE40B19D487E
:10384000803000684DF82600761C022E00D307E079
:1038500098483430006840F22A6108400028E9D0D6
:1038600000BF08200CF042FE20B108200CF049FEF9
:1038700004209AE702200CF039FE20B102200CF05F
:1038800040FE022091E720200CF030FE20B12020E5
:103890000CF037FE062088E74FF400700CF026FE8F
:1038A00028B14FF400700CF02CFE07207DE740F2A9
:1038B000FF500CF026FE00980006009901F47F41AD
:1038C00040EA0120009901F47F0140EA11200099AB
:1038D00040EA1160686001980006019901F47F4197
:1038E00040EA0120019901F47F0140EA1120019989
:1038F00040EA11602860204657E77CB50546002461
:1039000000200090019000260DB1022600E0002664
:1039100068481430006800F0007008B10E207CBDCB
:103920006849098888B26946FFF721FF04460CB14F
:103930002046F4E7019800F4802060B361480088D5
:1039400000045F49086037204860402088600020FC
:10395000C8604FF48060086108460CF034FD3720E1
:10396000FFF7D5FE04460CB12046D8E75448066060
:10397000062053494860402088600020C8604FF40A
:103980008060086108460CF01EFD0620FFF7BFFEB0
:1039900004462046C3E72520C1E770B5044600254C
:1039A0004A480078032802D12725284670BD474899
:1039B000007838B145480078012803D043480078A2
:1039C000022819D1B4F5805F02D127252846EDE7FA
:1039D000E0B2FFF792FF054675B93648001D006852
:1039E00020F4C0503349091D086008460068204390
:1039F00008600846006808602846D7E710B5044606
:103A00002F48046007202E4948604020886000202D
:103A1000C8604FF48060086108460CF0D4FC0720B1
:103A2000FFF775FE10BDF0B5014600200022274BC0
:103A30001B7881F85630234B1B88A1F85430244B57
:103A40001B681A0E93090B70C2F383034B7002F0CC
:103A500003038B701E4B1B68C3F30742CA701C4BD9
:103A60001B88C3F307220A71194B1A784A715B68E5
:103A70001A0E1301CB80164B5B68C3F30742CB8849
:103A800043EA1213CB8002F00F030B72104B9B889A
:103A9000C3F30722D3094B72C2F380138B72C2F3B4
:103AA0004013CB72C2F300130B7300234B73074B0D
:103AB0001B780FE0002C0140FF07C00028110020F8
:103AC00068460020241100207C46002020110020A0
:103AD000944600203BB1FE4B1B78012B03D0FC4BDE
:103AE0001B78032B4FD193071B0D0B61F94B1A79F0
:103AF0000B6943EA82030B61F64B9B681A0E0B6954
:103B000043EA92130B61C2F3C2030B7502F0070381
:103B10004B75F04B9B68C3F3074253098B75C2F397
:103B20008203CB7593075B0F0B76EA4B1B89C3F3BC
:103B300007220B7E43EAD2130B760B695B1C002431
:103B4000C1E912340B7E9B1C012404FA03F3DC1739
:103B5000D1E91256A5FB037C06FB03C305FB043326
:103B6000C1E912730C7A0123A3400B650024D1E94B
:103B700012650B6DA6FB037C05FB03C306FB043338
:103B8000C1E912732EE0D24B1B78022B2AD1D14B04
:103B90001A7993069B0A0B61CE4B9B681A0E0B6930
:103BA00043EA02230B61CB4B9B68C3F307420B69CB
:103BB00013430B61C74B1B89C3F307220B695B1CC3
:103BC0004FF40074A3FB04464FF480630025A4FB6C
:103BD000037C06FB03C304FB0533C1E912734FF4F6
:103BE00000730B65C2F3801301F8193F93065B0E57
:103BF0004B70B84B1A7A4B7843EAD2134B7002F0F1
:103C00007F038B70B34BDB681A0ED309CB70C2F302
:103C100041130B71C2F382034B7193071B0F8B711E
:103C2000AC4BDB68C3F307428B7943EA92138B7189
:103C3000C2F34013CB7100230B7202F001034B72ED
:103C4000A44B9B89C3F30722D3098B72C2F3801361
:103C5000CB72C2F340130B73C2F300134B73C2F366
:103C600081038B7302F00303CB739A4B1A7B5308C7
:103C70000B7401234B74984B1B681A0ECA741939C4
:103C8000954B1B68C3F307421402CC85924B1B88EB
:103C9000C3F30722CB8D1343CB858F4B1A781406C1
:103CA0000C635B681A0E0B6B43EA02440C638A4B8D
:103CB0005B68C3F307420B6B43EA02240C63864B39
:103CC0009B88C3F307220B6B13430B63824B1A7958
:103CD00034235A54804B9B681A0E35235A547E4B1A
:103CE0009B68C3F3074214068C637B4B1B89C3F3A9
:103CF00007228B6B43EA02448C63774B1A7A8B6BF7
:103D000043EA02248C63744BDB681A0E8B6B1343FB
:103D10008B63714BDB68C3F307423C235B5C43EA74
:103D200012143C235C5413071C0DCC876A4B9B89EF
:103D3000C3F30722CB8F1343CB87674B1A7B5408FF
:103D400040235C54012441235C54F0BD70B500262F
:103D50004FF4803505E06148046804F0450000B187
:103D600003E02800A5F10105F5D100BF15B104F06D
:103D7000040028B1032604200CF0C3FB304670BDBC
:103D800001200CF0B3FB18B1012601200CF0B9FBA7
:103D900040F2FF500CF0B5FB3046F0E72DE9F04162
:103DA00005460E464FF0000805E04C48076807F04E
:103DB000450000B100E0F8E700BF04200CF096FBDE
:103DC00028B104200CF09DFB0320BDE8F081012008
:103DD0000CF08CFB20B101200CF093FB0120F4E7E8
:103DE0003E4824380068A84201D01020EDE740F298
:103DF000FF500CF086FB39482038046804F460401A
:103E000018B9200C30804046DFE704F4005008B1B8
:103E10001320DAE704F4804008B11020D5E704F459
:103E2000004008B10F20D0E74046CEE738B5002467
:103E3000012000900CF0C1FA10B92524204638BDAD
:103E400023480078042825D0002025490860022056
:103E50004860C02088600020C8604FF4806008611E
:103E600008460CF0B0FAFFF771FF04460CB120468B
:103E7000E5E71A48203800681749086017481C38D9
:103E8000006848601548183800688860134814387E
:103E90000068C8600E48007858B10D4800780128C5
:103EA00007D00B480078062803D00948007802287C
:103EB00022D100200A490860032048604020886021
:103EC0000020C8604FF48060086108460AE00000E6
:103ED0002011002094460020A4460020342C0140EC
:103EE000684600200CF06FFA69460320FFF756FF82
:103EF00004460CB12046A2E7FE480078032816D1FC
:103F0000BDF800000004FC49086003204860402020
:103F100088600020C8604FF48060086108460CF09B
:103F200052FAFFF713FF04460CB1204687E7F14829
:103F3000007804282AD0BDF80000F0490860BDF8D8
:103F400000000004EC49086009204860C020886037
:103F50000020C8604FF48060086108460CF033FA16
:103F6000FFF7F4FE04460CB1204668E7E448006819
:103F7000E4490860E248001D00684860E0480830F5
:103F800000688860DE480C300068C860002056E792
:103F900010B506E0DA482030046804F0450000B1AE
:103FA00000E0F7E700BF04200CF0A0FA20B10420E5
:103FB0000CF0A7FA032010BD40F2FF500CF0A1FA5C
:103FC0000020F8E770B500264FF4803506E0CC48B5
:103FD0002030046804F0450000B103E02800A5F19A
:103FE0000105F4D100BF15B104F0040028B1032687
:103FF00004200CF086FA304670BD04F0400018B181
:10400000002640200CF07DFA3046F5E770B500251B
:104010004FF4803404E080200CF068FA00B103E033
:104020002000A4F10104F6D100BF0CB9032070BD3B
:1040300040F2FF500CF065FA2846F8E72DE9F0470A
:104040000027002400260025A046A1467620AE4980
:1040500008750020086048608860C86008610846EC
:104060000CF087F903200CF0A4F9A548103800687B
:1040700040F48070A2491039086000BF12E00020AF
:104080009D49086048608860C8604FF4806008619E
:1040900008460CF098F9FFF7B9FF044604B903E0AD
:1040A000781CC7B24A2FEADB00BF14B12046BDE836
:1040B000F0874FF4D5709049086008204860402090
:1040C00088600020C8604FF48060086108460CF0EA
:1040D0007AF9FFF777FF044624B901208549087073
:1040E0004FF0804900208449086037204860402014
:1040F00088600020C8604FF48060086108460CF0BA
:1041000062F93720FFF703FB0446002C4BD134E063
:1041100000207949086037204860402088600020EE
:10412000C8604FF48060086108460CF04CF93720F5
:10413000FFF7EDFA04460CB12046B8E7734849EAA8
:1041400000006D49086029204860402088600020F8
:10415000C8604FF48060086108460CF034F9FFF73E
:1041600017FF04460CB12046A1E765480668012008
:1041700080EAD67080F001086D1CB8F1000F03D101
:104180004FF6FF708542C3D34FF6FF70854202D3CE
:104190001B2420468BE706F08040060032D0022028
:1041A000544908702EE01CE059485349086001202A
:1041B0004860402088600020C8604FF4806008613B
:1041C00008460CF000F9FFF7E3FE04460CB1204668
:1041D0006DE74B480668012080EAD67080F0010840
:1041E0006D1CB8F1000F03D14FF6FF708542DBD391
:1041F0004FF6FF70854202D31B24204657E7032069
:104200003C490870204652E73EB5002400250121B4
:1042100040480BF0CDF80121C8020BF012F9012142
:10422000C8020BF052F94FF45070019002208DF843
:1042300008008DF8090000208DF80A0001208DF893
:104240000B0001A934480AF03DFD48F2300001900E
:1042500001A932480AF036FD0C2206212E480AF048
:10426000BCFD0C2208212C480AF0B7FD0C220921C4
:1042700029480AF0B2FD0C22042128480AF0ADFDBD
:104280000C22052125480AF0A8FD0C220F21234805
:104290000AF0A3FD00214FF400600BF016F9FFF7C0
:1042A0000BFA31208DF8000001208DF8010000206C
:1042B0008DF8020001208DF80300684609F039FCF2
:1042C000FFF7BCFE044614B9FFF7B0FD04461CB965
:1042D0001348FFF7A8FB044634B91149B1F854104C
:1042E0000804FFF78BFB0446ECB94FF40060FFF7BE
:1042F00054FB17E020110020684600202411002004
:10430000142C0140944600205046002000001080EC
:104310000080FF80030040000000024000040240D3
:10432000B846002004461CB1FE480078032812D18C
:10433000FD4890F8560020B1FB4890F8560001283F
:1043400001D1022500E000252846FFF7D7F900201B
:10435000FFF7CAF9044620463EBD10B500200CF018
:1043600028F8002010BD70B590B004460E461546E2
:1043700000BFEE4809F0A3FF0028FAD1EB4809F08E
:1043800075FE4FF000600190E94802900394049597
:104390000020059006904FF4806007908000089000
:1043A0008000099000200A904FF440300B900420C8
:1043B0000C9003200D904FF400000E9080100F9091
:1043C00001A9DA4809F0F4FE2021D84809F040FF9D
:1043D0000121D64809F026FF10B070BD014600202B
:1043E00002E04910421CD0B20129FAD170472DE9F0
:1043F000F84F8146174698460A9C4FF0000AD3466C
:104400004D464FF0FF36B9F1000F02D12620BDE82E
:10441000F88F0020C64954390860C2480078022845
:1044200005D10402780A40EAC8574FEA68280020FC
:10443000C04988604860401E086001204861002033
:10444000C860086108460BF0EAFFB9486C3800689C
:1044500000F0007008B10E20D9E7002C21DDB4F582
:10446000006F1EDC601E2040D8B92046FFF7B6FF63
:104470000090B14804601020AF4948604020886037
:104480000020C8604FF48060086108460BF09BFF75
:104490001020FFF73CF98246BAF1000F03D05046D6
:1044A000B5E72620B3E700980001A24988600846D6
:1044B00044604FF0FF300860012048610220C8606E
:1044C0000020086108460BF0AAFF9B4807601120F6
:1044D00099494860402088600020C8604FF480609F
:1044E000086108460BF06FFF1120FFF710F98246B4
:1044F000BAF1000F01D0504689E7904800780028B3
:104500005AD1FFF7CFF817E04FF400400BF0EEFF61
:1045100070B14FF0000B05E08548006845F82B00AE
:104520000BF1010BBBF1080FF6D32035844E03E0ED
:104530000EB904206BE7761E7D484C38006840F2C7
:104540002A6108400028DFD008200BF0CFFF20B1FF
:1045500008200BF0D6FF042059E702200BF0C6FF1D
:1045600020B102200BF0CDFF022050E720200BF0FD
:10457000BDFF20B120200BF0C4FF062047E74FF419
:1045800000700BF0B3FF28B14FF400700BF0B9FFCF
:1045900007203CE703E06648006828602D1D4FF4C3
:1045A00000100BF0A3FF0028F5D1FFF780F840F2D0
:1045B000FF500BF0A6FF39E060480078012835D1A4
:1045C00000206049087060490870604908705848C8
:1045D0004438006840F22A3108435549443908609C
:1045E00053485438006840F0080051495439086075
:1045F000002221464846FFF7B6FE00E0761E4B48F3
:104600005838006800F0006038B95048007820B988
:104610004C48007808B9002EF0D10EB90420F6E617
:104620004848007810B1474890F800A05046EEE6A0
:104630002DE9FF5F17469846DDE90E464FF0000969
:10464000CA464FF0FF3542490098086000203849BB
:104650005439086033480078022805D10402780AEA
:1046600040EAC8574FEA682800203249886048600D
:10467000401E0860012048610020C86008610846AB
:104680000BF0CDFE2A486C38006800F0007018B1BD
:104690000E2004B0BDE8F09F002C21DDB4F5006FC2
:1046A0001EDC601E2040D8B92046FFF797FE8346E7
:1046B0002148046010202049486040208860002084
:1046C000C8604FF48060086108460BF07CFE102043
:1046D000FFF71DF88146B9F1000F03D04846D8E72F
:1046E0002620D6E7012E6ED906FB04F0B0F1007F3C
:1046F00001D32620CDE74FEA0B100E49886006FB58
:1047000004F048604FF0FF3008600120486102204B
:10471000C8600020086108460BF081FE064807606B
:10472000122017E020110020B846002058640240F3
:10473000802C01407C460020684600202811002083
:10474000FFFF7F002A110020291100202B110020DB
:104750002C110020F9494860402088600020C86082
:104760004FF48060086108460BF02DFE1220FEF722
:10477000CEFF8146B9F1000F01D0484689E7F048E5
:10478000007800287ED1FEF78DFF1EE04FF4004038
:104790000BF0ACFEA0B14FF0000A07E0E94800685A
:1047A000E949096841F82A000AF1010ABAF1080F3B
:1047B000F4D3E54800682030E3490860E34D04E0A5
:1047C00015B9042065E7AEE06D1EDE484C38006880
:1047D00040F22A3108400028D8D008200BF086FE8D
:1047E00020B108200BF08DFE042052E702200BF0D0
:1047F0007DFE20B102200BF084FE022049E720203C
:104800000BF074FE20B120200BF07BFE062040E769
:104810004FF400700BF06AFE28B14FF400700BF0FB
:1048200070FE072035E709E0C6480068C6490968F8
:104830000860C5480068001DC34908604FF40010B7
:104840000BF054FE0028EFD14FF480700BF04EFEB9
:1048500020B3BF48007838B1BD480078012803D0A4
:10486000BB480078022819D10020B44908600C2008
:104870004860402088600020C8604FF48060086174
:10488000084600E011E00BF09EFD0C20FEF73FFF14
:104890008146B9F1000F01D04846FAE6FEF707FF5E
:1048A00040F2FF500BF02DFE3DE0A54800780128B6
:1048B00039D10020A74908700120A74908700020BD
:1048C000A64908709F484438006840F22A310843DE
:1048D0009C49443908609B485438006840F00800FF
:1048E00098495439086006FB04F100220098FFF74C
:1048F0003AFD00E06D1E9A48006800F0006008B9BB
:10490000002DF7D10DB90420C3E600BF934800780D
:1049100018B9904800780028F8D08E48007810B177
:104920008C4890F800904846B3E61CB50446002039
:10493000019000908B4800880004804908600D2099
:104940004860402088600020C8604FF480600861A3
:1049500008460BF038FD7B484C380068009003E0B7
:1049600078484C3800680090009800F04500002816
:10497000F6D001200BF0BAFD20B101200BF0C1FDF3
:1049800001201CBD04200BF0B1FD20B104200BF070
:10499000B8FD0320F5E76B48703800680D2801D09A
:1049A0001020EEE740F2FF500BF0ABFD65486C388D
:1049B000006801900198C0F3432020700020E0E7D8
:1049C0002DE9FF5F86B017469846149D002600200B
:1049D0000590049000248146039082460290019540
:1049E000DDF818B0DDF818B0BBF1000F03D12620B8
:1049F0000AB0BDE8F09F00205249543908605A4976
:104A000088604860401E0860012048610020C8603E
:104A1000086108460BF003FD4A486C38006800F056
:104A2000007008B10E20E3E749480078022805D15C
:104A30000502780A40EAC8574FEA6828002D1FDDB2
:104A4000B5F5006F1CDC681E2840C8B92846FFF782
:104A5000C5FC059039480560102038494860402061
:104A600088600020C8604FF48060086108460BF041
:104A7000AAFC1020FEF74BFE06461EB13046B7E7F3
:104A80002620B5E73748008800042C4908600D202F
:104A90004860402088600020C8604FF48060086152
:104AA00008460BF090FC0D20FEF731FE06460EB1D5
:104AB00030469DE723486C38006803904FF0FF3480
:104AC0001CE0641E2748008800041C4908600D2073
:104AD0004860402088600020C8604FF48060086112
:104AE00008460BF070FC0D20FEF711FE06460EB1D5
:104AF00030467DE713486C3800680390039800F453
:104B0000807008B9002CDCD10CB9292070E70B4863
:104B10000760182009494860402088600020C8606C
:104B20004FF48060086108460BF04DFC1820FEF73A
:104B3000EEFD0646D6B130465AE700006846002032
:104B400028110020802C01402C110020FFFF7F0045
:104B5000201100202A110020291100202B110020F3
:104B600000640240241100207C4600200020F84907
:104B7000087005980001F7498860084645604FF0C5
:104B8000FF300860012048610020C86008610846C5
:104B90000BF045FC4FF0FF34EF48007800287CD143
:104BA000FEF780FD43E04FF480400BF09FFCC8B35C
:104BB0000198A0EB0900202821D20198A0EB090060
:104BC00000F0030020B90198A0EB0900800804E080
:104BD0000198A0EB09008008401C02904FF0000AE9
:104BE00009E0DE49DBF8000008600AF1010A0BF178
:104BF000040B09F1040902988245F2D30FE04FF04B
:104C0000000A05E05BF82A00D44908600AF1010AAD
:104C1000BAF1080FF6D30BF1200B09F120096FF060
:104C2000404404E0FFE70CB90420E1E6641ECB48F1
:104C30004C38006840F21A6108400028B3D00820C0
:104C40000BF054FC20B108200BF05BFC0420CFE6F5
:104C500002200BF04BFC20B102200BF052FC022092
:104C6000C6E610200BF042FC20B110200BF049FCEE
:104C70000520BDE64FF400700BF038FC30B14FF466
:104C800000700BF03EFC0720B2E606E0FEF70FFDD9
:104C900040F2FF500BF035FC43E0AF4800780128AC
:104CA0003FD10020AE490870A9490870AD4908708D
:104CB000AA484438006840F21A310843A7494439E9
:104CC0000860402229460698FFF74DFBA348543858
:104CD000006840F00800A1495439086000E0641EF3
:104CE000A148006800F0006008B9002CF7D11CB999
:104CF000FFF78AFA04207BE64FF0FF3400E0641EE1
:104D00009848007820B99648007808B9002CF6D168
:104D10000CB904206CE69248007810B190480078F5
:104D200066E640F2FF500BF0ECFB04A8FFF7FDFD38
:104D3000064603E004A8FFF7F8FD06463EB99DF8D5
:104D400010000728F6D09DF810000628F2D0304653
:104D50004EE62DE9FF5F84B0DDE912470026002012
:104D600003900290002580468146019007FB04FBDA
:104D7000DDF810A0DDF810A0BAF1000F03D1262055
:104D800008B0BDE8F09F00207449543908607149AB
:104D900088604860401E0860012048610020C860AB
:104DA000086108460BF03BFB6C486C38006800F06B
:104DB000007008B10E20E3E76C480078022808D1A3
:104DC0000402DDE90601400A40EAC1504912CDE97A
:104DD0000601002C1FDDB4F5006F1CDC601E2040B6
:104DE000C8B92046FFF7FAFA039061480460102022
:104DF0005F494860402088600020C8604FF48060B0
:104E0000086108460BF0DFFA1020FEF780FC06462A
:104E10001EB13046B4E72620B2E7012F6FD907FB59
:104E200004F0B0F1007F01D32620A9E74F480078B5
:104E300038B14E480078012803D04C480078022849
:104E40002DD14C480088000449490860372048604B
:104E5000402088600020C8604FF4806008610846E8
:104E60000BF0B1FA3720FEF752FC06460EB1304681
:104E700086E73F48076017203D494860402088602A
:104E80000020C8604FF48060086108460BF09BFA70
:104E90001720FEF73CFC06460EB1304670E7344959
:104EA0000698086019204860402088600020C8608B
:104EB0004FF48060086108460BF085FA1920FEF770
:104EC00026FC06460EB130465AE7039800012149F8
:104ED000886007FB04F048604FF0FF300860012055
:104EE00048610020C860086108460BF098FA1A482B
:104EF0000078002872D1451EFEF7D4FB54E0F8E09C
:104F00004FF480400BF0F2FAB0B3ABEB080020286E
:104F100033D2ABEB080000F0030018B9ABEB08008C
:104F2000800803E0ABEB08008008401C01904FF0C4
:104F3000000909E00949DAF80000086009F10109EF
:104F40000AF1040A08F1040801988145F2D324E02B
:104F5000291100207C46002028110020802C0140CF
:104F60002A1100202B110020006402402011002093
:104F7000684600202411002012E04FF0000905E0EF
:104F80005AF82900F849086009F10109B9F1080F38
:104F9000F6D30AF1200A08F120086FF0404503E03B
:104FA0000DB90420ECE66D1EEF484C38006840F265
:104FB0001A3108400028A3D008200BF097FA20B13E
:104FC00008200BF09EFA0420DAE602200BF08EFA9D
:104FD00028B102200BF095FA0220D1E640E0102023
:104FE0000BF084FA20B110200BF08BFA0520C7E6F5
:104FF0004FF400700BF07AFA28B14FF400700BF008
:1050000080FA0720BCE64FF480700BF06FFA00B313
:10501000D648007838B1D5480078012803D0D34865
:105020000078022815D10020D14908600C20486082
:10503000402088600020C8604FF480600861084606
:105040000BF0C1F90C20FEF762FB06460EB13046AC
:1050500096E6FEF72CFB40F2FF500BF052FA48E0C8
:10506000C4480078012844D10020C34908700120B9
:10507000C24908700020C2490870BB484438006823
:1050800040F21A310843B8494439086007FB04F17B
:1050900040220498FFF767F9B3485438006840F09D
:1050A0000800B149543908604FF0FF3500E06D1E2B
:1050B000B448006800F0006008B9002DF7D11DB9B0
:1050C000FFF7A2F804205BE64FF0FF3500E06D1E0D
:1050D000AB48007820B9A848007808B9002DF6D16F
:1050E0000DB904204CE6A448007810B1A24800781D
:1050F00046E640F2FF500BF004FA02A8FFF715FC59
:10510000064603E002A8FFF710FC06463EB99DF8EC
:1051100008000728F6D09DF808000628F2D030468F
:105120002EE610B54FF480700BF0E0F988B3934889
:105130000078012814D100208D4908600C204860B7
:10514000402088600020C8604FF4806008610846F5
:105150000BF039F90C20FEF7DAFA8749087002E003
:1051600000208549087080484838006840F4807005
:105170007D4948390860081D00684CF23A3188437F
:1051800079494439086001207D4908707A480078DF
:1051900010BDFFE702200BF0A9F978B102200BF057
:1051A000B0F97148443800684CF23A3188436E498E
:1051B00044390860022070490870E9E708200BF0C4
:1051C00095F978B108200BF09CF9674844380068DD
:1051D0004CF23A31884364494439086004206649F6
:1051E0000870D5E720200BF081F978B120200BF072
:1051F00088F95D48443800684CF23A3188435A498E
:105200004439086006205C490870C1E710200BF0A3
:105210006DF978B110200BF074F9534844380068E8
:105220004CF23A31884350494439086005205249CC
:105230000870ADE74FF400700BF058F980B14FF4EF
:1052400000700BF05EF94848443800684CF23A317F
:10525000884345494439086007204749087097E763
:10526000002095E710B5FFF75CFF10BD70B5044650
:10527000002514B92625284670BD4348008800043F
:105280003B4908600D204860402088600020C860CD
:105290004FF48060086108460BF095F80D20FEF78A
:1052A00036FA05460DB12846E6E72F486C38006807
:1052B00020602846E0E708B5002000906846FFF728
:1052C000D5FF08B1FF2008BD0098C0F34320FAE7DE
:1052D0002DE9FE4F83460E469146002002900025A0
:1052E00034462248007818B1680240EAD455640276
:1052F0000BF00300F0B14FF0000A18E04FF400701B
:1053000000904FEA4A20071945EBE0733A461F48E0
:10531000FFF76DF802904FF400721C4958460CF0EC
:1053200015FA0BF5007B0AF1010000F0FF0ACA45EF
:10533000E4DB16E0B9F1010F09D14FF40070224609
:105340002B4600905846FFF752F8029009E04FF4C0
:10535000007022462B46CDE900095846FFF768F950
:1053600002900298BDE8FE8F802C014020110020A1
:1053700068460020281100202A1100202911002051
:105380002B1100200064024024110020104700204F
:105390002DE9FE4F064689469246002002900025E0
:1053A0004C462148007818B1680240EAD45564029E
:1053B00006F00300F0B14FF0000B18E04FF400725C
:1053C00031461A480CF0C2F94FF4007000904FEAD1
:1053D0004B20071945EBE0733A461448FFF7F0FA03
:1053E000029006F500760BF1010000F0FF0BD345AB
:1053F000E4DB16E0BAF1010F09D14FF40070224648
:105400002B4600903046FFF7DBFA029009E04FF49C
:10541000007022462B46CDE9000A3046FFF799FC82
:1054200002900298BDE8FE8F201100201047002056
:10543000014600BF704700BFFE4A128802F04002DA
:10544000002AF9D0C2B2FB4B1B1D1A80704700B571
:1054500087B00121084609F0ABFF0121480409F09B
:10546000DFFF07220221F44809F0B7FC07220321DD
:10547000F14809F0B2FC0C20059002208DF81800CC
:1054800000208DF8190005A9EB4809F01BFCE9483C
:105490000BF0EEFE4FF4E13001900020ADF8080073
:1054A000ADF80A00ADF80C00ADF810000C20ADF816
:1054B0000E0001A9DF480BF042FF0121DD480BF08F
:1054C000C6FF4021DB480CF0AAF8012240F225512A
:1054D000D8480CF072F826208DF8000006208DF8D0
:1054E000010000208DF8020001208DF803006846BD
:1054F00008F01FFB07B000BD00B587B001210846CA
:1055000009F056FF0121480409F08AFF0722032110
:10551000C94809F062FC0820059002208DF81800A7
:1055200000208DF8190005A9C34809F0CBFBC1483C
:105530000BF09EFE4FF4E13001900020ADF8080022
:10554000ADF80A00ADF80C00ADF810000C20ADF875
:105550000E0001A9B7480BF0F2FE0121B5480BF08F
:1055600076FF4021B3480CF05AF8012240F2255151
:10557000B0480CF022F826208DF8000006208DF8A7
:10558000010000208DF8020001208DF8030068461C
:1055900008F0CFFA07B000BD0120A8490870A8485C
:1055A0000078202837D1A6484078532833D1A44822
:1055B000807854282FD1A248C07841282BD1A04808
:1055C0000079542827D19E484079452823D19C480A
:1055D000807920281FD19A48C079303899490870BD
:1055E00001209949087097480078032803D10020CA
:1055F0009649087087E093480078012803D100207D
:10560000934908707FE08F48007800287BD1012003
:105610009049087077E08A480078202817D1884898
:105620004078532813D1864880784C280FD184487D
:10563000C07844280BD1824800794E2807D1804891
:105640004079202803D10120834908705BE07C4821
:105650000078202813D17A48407852280FD1784812
:10566000807853280BD17648C078542807D17448E5
:105670000079202803D101207849087043E0704860
:105680000078202813D16E48407841280FD16C480B
:10569000807844280BD16A48C078562807D16848DA
:1056A0000079202803D101206D4908702BE064485F
:1056B0000078202827D162484078472823D16048C5
:1056C00080784C281FD15E48C07842281BD15C48A6
:1056D0000079442817D15A484079202813D15848D6
:1056E000807930280FD15648C0792C280BD15D48DD
:1056F000534909310A6802604A68426089688160DA
:10570000012059490870704738B50020009057496A
:10571000088040F2277147480BF08AFFE8B140F259
:10572000277153480BF0BFFF6A4652495248006840
:1057300000F049FF01280AD100F049FA01204F4941
:1057400048704C4801783B480BF0ACFE05E0002265
:1057500040F2277137480BF030FF40F225513548B1
:105760000BF066FF002863D040F2255131480BF062
:105770009AFF30480BF09AFEC4B2414800780728DF
:1057800045D2DFE800F0040E182244442F00412CDB
:1057900003D101203A49087002E00020384908701E
:1057A00035E0542C03D102203549087002E0002076
:1057B000334908702BE02D2C03D1032030490870A9
:1057C00002E000202E49087021E0422C06D1002082
:1057D0002C49087006202A49087002E00020284958
:1057E000087014E0284801780078401C264A1070A0
:1057F000134844540D2C09D1002022490870FFF7AA
:10580000CBFE0020204908701D49087000BF00BF72
:105810001E48007801285BD0AB2C3CD101201B49ED
:105820000870184801780078401C164A10702FE064
:105830004DE0000000440040000002403411002010
:105840001049002035110020401100207E09002061
:10585000A80800203C1100203D1100203E1100202E
:105860003F110020DF240020411100209809002072
:10587000001001403111002020000020F808002015
:105880003811002032110020301100203A11002080
:105890002748445444E0AF2C42D1264800682649AA
:1058A0000A6840F8012F4A6842600A890281897AB1
:1058B000817263201F490968087000201F49087021
:1058C00000236A461E491F48006800F0A2FD27E039
:1058D0001D48007801280DD0AB2C21D001201A4999
:1058E00008701A4801780078401C184A1070104857
:1058F000445415E0154801780078401C134A107094
:105900000B48445410460078142809DB0020114647
:10591000087000236A4606490D48006800F079FDCA
:10592000009818B14FF080500A49086038BD000057
:10593000701B002068080020D4240020AB08002041
:10594000C0080020240000203B110020321100205C
:105950001C00002004ED00E01CB50121022009F02C
:1059600027FD01208DF8040000208DF8060003209B
:105970008DF8050000208DF8070080200090694612
:10598000F84809F09FF900208DF8040040200090AD
:1059900002208DF807006946F24809F093F91CBD12
:1059A00000B58DB00121880309F04BFD01210320D2
:1059B00009F0FEFC01208DF8300000208DF8320047
:1059C0008DF831008DF8330002200B900BA9E648CA
:1059D00009F078F90221E44809F0F2F945F20B20C8
:1059E0000B900BA9DF4809F06DF941F20B01DD487E
:1059F00009F0E6F94FF48441DA4809F0DFF90020B4
:105A00008DF830008DF8330041F650700B900BA9E3
:105A1000D54809F057F948F230000B900BA9D1484E
:105A200009F050F900208DF8300040200B90022042
:105A30008DF833000BA9CB4809F044F90621012069
:105A40000AF08BFD4020099000208DF828000C20E2
:105A50008DF8290001208DF82A0009A808F0E8FC3B
:105A600017208DF8200006208DF8210000208DF8E9
:105A7000220001208DF8230008A808F05AF801211F
:105A8000084609F0CDFC01220321B64809F0A5F92A
:105A900008200B9002208DF8300003208DF8310093
:105AA0000BA9B04809F00EF96320069040F2DF1010
:105AB000ADF814000020ADF81C00ADF8160005A9E3
:105AC0004FF080400AF02FFE7020ADF8000001205A
:105AD000ADF802000220ADF80C00002002906946EB
